:020000040800F2
:10000000C08D00205D020008A73400083B270008CF
:10001000A53400081D0A0008693D00080000000022
:100020000000000000000000000000009D0100082A
:10003000E90A000800000000F90100085137000833
:1000400077020008770200087702000877020008AC
:10005000770200087702000877020008770200089C
:10006000770200087702000877020008770200088C
:10007000210A00082D0A000877020008390A000842
:10008000770200087702000877020008770200086C
:10009000770200087702000877020008550B000875
:1000A000770200087702000877020008770200084C
:1000B000770200087702000811380008770200086C
:1000C000770200087702000877020008770200082C
:1000D000ED3500083D3D000877020008493D000865
:1000E0003D0B00087702000877020008770200083D
:1000F00077020008770200087702000877020008FC
:1001000077020008770200087702000877020008EB
:10011000F538000877020008770200087702000827
:1001200077020008770200087702000877020008CB
:1001300077020008770200087702000877020008BB
:1001400077020008770200087702000877020008AB
:10015000770200087702000877020008770200089B
:10016000770200087702000877020008770200088B
:1001700077020008770200087702000800000000FC
:100180007702000877020008DFF80CD000F070FB5F
:100190000048004767210208C08D00202C4B1968D9
:1001A0000868B0E8F04F80F30988BFF36F8F4FF015
:1001B000000080F3118870470000000008480068C4
:1001C000006880F308884FF0000080F3148862B65E
:1001D00061B6BFF34F8FBFF36F8F00DF00BF00BF6B
:1001E00008ED00E0DFF80C00016841F470010160E7
:1001F000704700BF88ED00E0EFF30980BFF36F8F19
:10020000134B1A681EF0100F08BF20ED108A20E96A
:10021000F04F106009B44FF0500080F31188BFF325
:100220004F8FBFF36F8F27F093F94FF0000080F3EB
:10023000118809BC19680868B0E8F04F1EF0100F6B
:1002400008BFB0EC108A80F30988BFF36F8F704746
:10025000A8000020EFF305807047000006488047A3
:1002600006480047FEE7FEE7FEE7FEE7FEE7FEE79B
:10027000FEE7FEE7FEE7FEE7013800088901000817
:100280002DE9F05F0546002092469B4688460646CB
:10029000814640241BE0284641464746224600F05E
:1002A00050FA53465A46C01A914110D31146184687
:1002B000224600F037FA2D1A67EB01084F46224616
:1002C0000120002100F02EFA17EB00094E41201EFC
:1002D000A4F10104DFDC484631462A464346BDE826
:1002E000F09F40EA01039B0703D009E008C9121FF1
:1002F00008C0042AFAD203E011F8013B00F8013BE0
:10030000521EF9D27047D2B201E000F8012B491E0B
:10031000FBD270470022F6E710B513460A460446A2
:100320001946FFF7F0FF204610BD421C10F8011BD4
:100330000029FBD1801A704710B5002200E0521C42
:10034000835C8C5CA34201D1002BF8D1D8B2E1B21E
:10035000401A10BD034611F8012B00F8012B002AAA
:10036000F9D1184670472DE9FE4F804681EA030017
:10037000C00F0C46009021F0004123F00045B8EB7F
:100380000200A94105D24046214690461C460B4634
:10039000024623F00040104347D0270DC7F30A0060
:1003A000C3F30A510290401A019040286BDAC3F35C
:1003B000130040F4801B0098924620B10023D2EB3A
:1003C000030A63EB0B0B01985946C0F140025046FB
:1003D00000F0A8F906460D4650465946019A00F02D
:1003E000C0F910EB08006141002487EA115284EA49
:1003F000E7731A4340D0009A62B3019A012A4FEA88
:10040000075215DC001B61EB02014FF0004202EACB
:100410000752CDE90042001C41F5801132462B46BF
:1004200000F0C0F903B0BDE8F08F40462146F9E77F
:10043000001B61EB0201001C41F5801300185B41B9
:100440002018A2F5001747EB030140EAD570B61952
:100450006D4111E06D084FEA360645EAC0754FEA76
:100460000752001B61EB0201001C41F58011490895
:100470004FEA30000019514132462B4603B0BDE827
:10048000F04F00F080B90098012240000023D0EB2B
:10049000020263EBE073009821464FEAE074B8EB88
:1004A000000061EB0401E9E783F000435BE781F0C2
:1004B000004158E72DE9FE4F81EA030404F00044AF
:1004C00021F0004100944FF0000B23F0004350EA6C
:1004D00001045ED052EA03045BD0C3F30A54C1F3B3
:1004E0000A552C44A4F2F3340194A0FB0254C1F346
:1004F000130141F48011C3F3130343F4801301FB90
:10050000024400FB034E840A970A44EA815447EAF6
:100510008357A4FB076802958D0A05FB07854FEA00
:10052000932C04FB0C542705029D4FEA065847EA1A
:100530001637B5EB08056EEB070C870E920E47EAEF
:10054000811742EA8312A7FB0201B6EB0B0164EBB1
:1005500000042B0D43EA0C335E1844EB1C50DA46C2
:100560005146E7FB0201C5F313044FEA0B3343EA9C
:1005700014534FEA0432019C43EA0603A4F10C042D
:100580000294009CCDE900B400F00CF903B0BDE882
:10059000F08F00200146F9E72DE9F04D81EA0304D0
:1005A00004F0004B21F0004514464FF0000A23F000
:1005B000004150EA050220D054EA01021DD0C5F3E3
:1005C0000A570246C5F31303C1F31300C1F30A56D9
:1005D00040F4801543F48013A7EB0608101BD646A1
:1005E00008F2FD3873EB050002D308F1010801E0C1
:1005F00092185B41B8F1000F03DA00200146BDE814
:10060000F08D00204FF48011064684460EE0171B43
:1006100073EB050705D3121B63EB050306434CEA96
:10062000010C49084FEA300092185B4150EA01077B
:10063000EDD152EA030012D082EA040083EA0501F8
:10064000084305D0101BAB4106D20122002306E06F
:1006500000224FF0004302E06FF0010253101AEB4A
:1006600006004CEB085110EB0A0041EB0B01BDE812
:10067000F04D00F088B80EB5C10F80EAE070084474
:10068000CA07002140F233438DE80E000A460B46AC
:1006900000F088F803B000BD30B5041E71F100040D
:1006A00004DB4FF00044404264EB0101141E73F17F
:1006B000000405DB1C464FF00043524263EB040389
:1006C0008B4208BF824230BD30B5041E71F1000478
:1006D00004DB4FF00044404264EB0101141E73F14F
:1006E000000405DB1C464FF00043524263EB040359
:1006F000994208BF904230BD30B50B4601460020FC
:100700002022012409E021FA02F59D4205D303FAD3
:1007100002F5491B04FA02F52844151EA2F1010254
:10072000F1DC30BD202A04DB203A00FA02F100207F
:1007300070479140C2F1200320FA03F3194390401F
:100740007047202A04DB203A21FA02F0002170478A
:1007500021FA02F3D040C2F1200291400843194629
:100760007047202A06DBCB17203A41FA02F043EA11
:10077000E07306E041FA02F3D040C2F1200291405A
:1007800008431946704710B5141E73F1000408DAC7
:10079000401C41F1000192185B411A4301D120F045
:1007A000010010BD2DE9F04D92469B4611B1B1FA02
:1007B00081F202E0B0FA80F220329046FFF7B2FFF9
:1007C00004460F4640EA0A0041EA0B0153465A46E6
:1007D000084313D0114653EA010019D0C8F1400272
:1007E0005046FFF7AEFF05460E4650465946424674
:1007F000FFF798FF084305D0012004E02046394662
:10080000BDE8F08D0020054346EAE0762C433743EF
:100810000A986305E40AA0EB08000022FD0A44EAF6
:1008200047540A3002D500200146E9E701051019B6
:100830006941DDE9084500196941BDE8F04DA2E7CD
:10084000C1F30A52C1F3130140F2FF3341F48011A6
:100850009A4202DA00200146704740F233439A423E
:10086000A2F2334202DC5242FFF76BBFFFF75ABFDE
:10087000064C074D06E0E06840F0010394E80700ED
:1008800098471034AC42F6D3FFF782FCD0D602086A
:10089000F0D6020870B58C1810F8015B15F007034C
:1008A00001D110F8013B2A1106D110F8012B03E009
:1008B00010F8016B01F8016B5B1EF9D12B0705D411
:1008C0000023521E0DD401F8013BFAE710F8013B5A
:1008D000CB1A921C03E013F8015B01F8015B521E76
:1008E000F9D5A142D8D3002070BD0000064882B0DF
:1008F000016841F002010160006800F00200009010
:10090000024802B001F01ABF303802401C0000203B
:1009100070B515460E46044606E02046641CA4B297
:1009200000F006F806F8010B6D1EADB2F5D270BDF1
:1009300010B50446134801F088FF200AA02101EBFE
:100940004000C1B20F4801F03DFF0E4801F0BBFF6F
:10095000E1B20C4801F036FF0A4801F0B4FF094843
:1009600001F073FFA121074801F02CFF054801F0B9
:10097000AAFF044801F0FCFE0446024801F084FF8F
:10098000204610BD1C00002070B514460D460646DA
:1009900006E02978304600F007F8761CB6B26D1CE8
:1009A000641EA4B2F5D270BD70B504460D4612485F
:1009B00001F04BFF200AA02101EB4000C1B20E481C
:1009C00001F000FF0C4801F07EFFE1B20A4801F09F
:1009D000F9FE094801F077FF2946074801F0F2FEC9
:1009E000054801F070FF044801F04EFFBDE870407B
:1009F0000A2000F07AB800001C00002005480068BA
:100A0000C16841F01001C16080220349014801F032
:100A1000ACBB00002C040020EC050020FEE7000029
:100A2000014800F0BBB9000034050020014800F087
:100A3000B5B9000074040020014800F0AFB900000F
:100A4000D404002001681823CAB2103AB2FBF3F2B2
:100A5000054B6FF30901032A9B5CC36500D9091D8F
:100A60008165084670470000D878020810B5014635
:100A700000208B698A6A4FF0C07453B1B3F5005FF0
:100A800015D072B1012A0CD0022A0AD0032A09D14A
:100A900004E01AB1012A06D0022A03D1C96AC901A9
:100AA00000D5012010BDC96AA142FAD010BD002AAC
:100AB000F7D0012AF2D0022AF3D0032AF3D010BDD6
:100AC00030B50468256825F48025256004686360D6
:100AD0008368402B036803D099600068C26030BD12
:100AE0009A600068C16030BD704770B5054600244B
:100AF0004FF47A7603E0304600F004F8641CAC4210
:100B0000F9D370BD30B50C4A00211468E36A4FF484
:100B10007A725843B0FBF2F5626A606A9042FCD088
:100B200002D9A0EB020202E0A3EB0202024411444C
:100B30000246A942F1D330BD9405002010B54FF410
:100B4000805000F01DFBBDE810404FF4005000F055
:100B500017BB0000024901200870202000F010BBE4
:100B60000800002072B6FEE730B5B3F5804F05D01F
:100B70006FF0704140F82210002030BD8C690B6886
:100B80008D6823434C688989240144EA0524234362
:100B900043EA014150F82230014C23401943E9E770
:100BA0000000F0CF10B50A6850F8223023F001039E
:100BB00040F822308B68082B23D000224C681C435D
:100BC000CB6813430A691C4314434A698B69144375
:100BD000CA6914430A6A14434A6A14438A6A14436A
:100BE000CA6A14430A6B1443CA6B234309681A4345
:100BF000054C50F82130A343134340F82130002026
:100C000010BD4022DAE700007FFF0F0030B5D1E9C8
:100C1000003443EA04138C688D89240244EA0544B5
:100C200023430C8A094D00EB820005EB0454234357
:100C30000C7D6D0105EB0464896923430B43416816
:100C400001F040410B434360002030BD0000F0FF45
:100C50002DE9F84F89461E4690468246002471428F
:100C600003220A9802EB4105C8B930E0274608E0A4
:100C70003B46224649465046CDF8008003F0C0F876
:100C80007F1CB742F4DD002D03DA05EB8405AD1DB2
:100C900004E0A01B05EB80050A35761E641CB442F7
:100CA000E4DDBDE8F88F3346224649465046CDF88C
:100CB000008003F0A5F8002D03DA05EB8405AD1DD7
:100CC00004E0A01B05EB80050A35761E641CB442C7
:100CD000E9DDE6E710B5144601F084FF2046BDE8E3
:100CE000104002F08DB82DE9F0410446876D00F008
:100CF0004DFB054694F835000026022806D08020DA
:100D0000606584F834600120BDE8F08120680168E6
:100D100021F0160101602068416921F080014161E4
:100D2000206C08B9A06C20B12068016821F008018E
:100D300001602068016821F0010101600CE000F011
:100D400025FB401B052807D920206065032084F877
:100D5000350084F83460D7E720680068C007EED11A
:100D600094F85C103F208840B860012084F835007A
:100D700084F834600020C7E790F83510022903D0CA
:100D80008021416501207047052180F835100068F9
:100D9000016821F001010160002070472DE9F8434E
:100DA00004464FF00009CDF8009063484FF4165107
:100DB000A56D0068B0FBF1F72E6894F85C2008215F
:100DC00001FA02F030420FD02068026852070BD5BA
:100DD000026822F00402026094F85C008140A9607D
:100DE000606D40F00100606594F85C104FF0010800
:100DF00008FA01F0304208D021684969090604D593
:100E0000A860606D40F00200606594F85C100420FA
:100E10008840304208D021680968890704D5A86055
:100E2000606D40F00400606594F85C10102088400C
:100E3000304218D021680968090714D5A8602068D5
:100E40000168490304D50068000308D5A16C07E0D8
:100E50000168C90503D4016821F008010160216C13
:100E600009B12046884794F85C1020208840304221
:100E700031D021680968C9062DD5A86094F83500DD
:100E800005282068016806D0490347D5006800039B
:100E90001DD4616C1CE021F01601016020684169DD
:100EA00021F080014161206C08B9A06C20B120685C
:100EB000016821F00801016094F85C103F2088402F
:100EC000A86084F8358084F83490216D1FE0E16BD0
:100ED00009B120468847606D00282BD0606DC0079F
:100EE00014D0052084F835002068016821F0010144
:100EF00001600098401C0090B84203D82068006848
:100F0000C007F6D184F8358084F83490E16C00296C
:100F100010D001B02046BDE8F04308470168C9057C
:100F2000D5D4016821F01001016084F8358084F87F
:100F30003490CCE7BDE8F883180000202DE9F0419B
:100F4000044600F023FA05465CB1022084F835001F
:100F5000002684F834602068016821F001010160F6
:100F60000DE00120BDE8F08100F010FA401B0528DB
:100F700005D920206065032084F83500F2E7206859
:100F80000068C007F0D121680A6820480240D4E90F
:100F900001031843D4E903352B431843636918430D
:100FA000A3691843E3691843236A18431043626A2C
:100FB000042A03D1D4E90B231A43104308602068A4
:100FC0004069656A20F0070128460D43012704287F
:100FD0000CD1A06A0543E06A40B12046FFF746FD08
:100FE00020B14020606584F83570BAE7206845611B
:100FF0002046FFF727FD94F85C203F219140816057
:10100000666584F835700020ACE700003F8010F082
:101010002DE9F0410446866D90F834000025012842
:101020000DD0012084F8340094F835700020012F91
:1010300007D084F8340002252846BDE8F08102205C
:10104000FBE7022784F8357060652046FFF738FD1E
:1010500094F85C103F208840B0602068016841F03F
:1010600016010160206C20B12068016841F0080180
:1010700001602068016841F001010160DCE70000C7
:1010800070B5044600F082F90546601C02D00448A1
:101090000078044400F07AF9401BA042FAD370BDF6
:1010A0000C000020F0B587B014216846FFF732F934
:1010B0001A48016800292FD1012101601848002435
:1010C000016841F0010101600068022500F00100A3
:1010D00005904FF68070CDE9000502AA03260C2783
:1010E00082E8D00069460F4800F056F84CF23370A1
:1010F000CDE9000502AA694682E8D0000A4800F05E
:101100004BF841F20400CDE9000502AA694682E8E5
:10111000D000064800F040F807B0F0BD0000002005
:101120003838024000100240000C02400018024013
:1011300070B504461420FFF7D8FC4FF480510E48D8
:101140000E4D8C4210D049008C4213D100F00CF9A6
:1011500000280FD11021284600F00BF9082128465D
:10116000BDE8704000F005B900F0FEF8002801D19C
:101170001021F4E770BD0000000C02400014024092
:10118000044910B50A68024202D00860FFF7D0FF98
:1011900010BD0000143C01402DE9F84FDFF89C9190
:1011A0000022A9F1040B03274FF00F0C09F1040AE8
:1011B000ABF1040E01250B6895402B40AB426ED17C
:1011C0000C7904F00304012C01D0022C15D186689F
:1011D000540007FA04F826EA0806D1F80C8008FA49
:1011E00004F848EA0608C0F808804468AC430D7962
:1011F000C5F300159540254345600C79E443A407E9
:1012000008D0C568540007FA04F6B5438E68A640B6
:101210002E43C6600C7904F00304022C11D1D408CB
:1012200000EB8406356A5407E40E0CFA04F825EA4C
:101230000805D1F8108008FA04F848EA0508C6F84D
:1012400020800568540007FA04F6B5430E7906F0CD
:101250000306A6402E4306604C6814F4403F66D057
:10126000374C256845F480452560246822F0030545
:1012700004F480440094334C05EB0408D8F8085873
:101280009407260F0CFA06F4A5432F4CA04201D177
:10129000002424E02D4CA04202D101241FE046E0AE
:1012A0002B4CA04201D1022419E02A4CA04201D1CA
:1012B000032414E0284CA04201D104240FE0274C61
:1012C000A04201D105240AE0254CA04201D1062408
:1012D00005E0244CA04201D1072400E00824B440DA
:1012E0002C43C8F80848D9F800404D464E689C4346
:1012F000F60200D51C432C60DAF8004055464E68D3
:101300009C43B60200D51C432C60DBF800405D46D0
:101310004E689C43B60300D51C432C60DEF80040A9
:1013200075464E689C43F60300D51C432C60521C46
:10133000102AFFF43FAFBDE8F88F0000083C0140E1
:1013400044380240003001400000024000040240E6
:1013500000080240000C024000100240001402404D
:1013600000180240001C02400069084000D0012023
:101370007047426921EA02030A4043EA024181615F
:1013800070470AB1816170470904FBE70148806832
:10139000704700000C000020024881680278114468
:1013A000816070470C0000200B4810B5016841F4C3
:1013B00000710160016841F480610160016841F4DD
:1013C00080710160032000F09FF80F2000F006F804
:1013D00000F050F8002010BD003C024030B505463A
:1013E0001F4887B00024016841F0040101600068D3
:1013F00006A900F004000590684600F031F9039852
:10140000A8B100F04DF940001649174AB0FBF1F1C0
:101410001648491E026040F2E732C0E90324C0E9E1
:101420000114846100F08BFD040003D015E000F08E
:1014300037F9E9E70D4800F0B1FD04000DD11E2099
:1014400000F034F8102D07D2002229461E2000F0AB
:101450003BF80748056000E0012407B0204630BD96
:101460004038024040420F00000800409405002030
:10147000100000200C4882B0016841F480410160F6
:10148000006800F4804000900748001F016841F0A8
:10149000805101600068002200F0805000900F2110
:1014A000901E02B000F010B844380240002809DB5A
:1014B00000F01F02012191404009800000F1E0206E
:1014C000C0F8001170470000F0B40E4B1B68C3F366
:1014D0000223C3F10704042C00D904241D1D072D89
:1014E00001D2002300E0DB1E012606FA04F56D1E82
:1014F0000D409D409E40761E164045EA0601F0BC18
:1015000002F048BC0CED00E0064A00F0070110684C
:101510004FF6FF03184040EA0120034908431060DA
:10152000704700000CED00E00000FA052DE9F047DF
:101530000D46040065D0DFF81491D9F80000EFB231
:1015400000F00700A84207D289F80070D9F800001F
:1015500000F00700A84254D120683D4E810712D503
:10156000400703D5306840F4E05030602078000731
:1015700003D5306840F4604030603068A16820F0E6
:10158000F000084330602078C0072DD030496068F3
:101590000839012812D0022813D0032811D0096875
:1015A000890700292DDA316821F0030101433160F8
:1015B000FFF7ECFE804641F2883A0EE009688903A5
:1015C000EFE709688901ECE7FFF7E0FEA0EB08010F
:1015D000514502D90320BDE8F0873068616800F00A
:1015E0000C00B0EB810FEFD1D9F80010484601F0A4
:1015F0000701A94207D90770006800F00700A84258
:1016000001D00120E7E72078400705D53068E16880
:1016100020F4E050084330602078000706D5306899
:10162000216920F4604040EAC100306000F058F8C1
:101630003168084AC1F30311515CC840064908608B
:1016400006480068FFF7CAFE0020C4E7003C0240DD
:1016500008380240E078020818000020100000203E
:101660000F2202600C4A136803F0030343601368FF
:1016700003F0F0038360136803F4E053C36012685F
:101680004FF4E05303EAD20202610448006800F01C
:10169000070008607047000008380240003C024024
:1016A0000448054900680968044AC1F38221515C75
:1016B000C84070471800002008380240F07802083F
:1016C0000448054900680968044AC1F34231515C85
:1016D000C84070471800002008380240F07802081F
:1016E000154810B5006810F00C01144813D04310D1
:1016F00004290FD008290ED10F4C241F216801F0B6
:101700003F022168490207D52068C0F38810A0FB7A
:10171000030106E0184610BD2168C1F38811A1FB42
:1017200000010023FEF7ACFD2168C1F30141491C13
:101730004900B0FBF1F010BD083802400024F4006D
:101740002DE9F84F040075D02078DFF838A3C007E2
:10175000AAF1040548D00AF104000168C1F381012F
:10176000012908D00068C0F3810002280AD1DAF804
:101770000000400206D52868800335D5606800283F
:10178000E1D031E06068B0F5803F10D0B0F5A02F17
:10179000286810D020F480302860286820F4802049
:1017A00028606068A0B1FFF7F1FD06460CE02868EC
:1017B00040F48030F4E740F480202860F7E7FFF73A
:1017C000E5FD801B642871D828688003F7D50BE0FD
:1017D000FFF7DCFD064604E0FFF7D8FD801B642818
:1017E000F1D828688003F7D42078DFF89C9280072E
:1017F0004FF0000B3DD5A348001D016811F00C0F00
:1018000008D00068C0F3810002280AD1DAF800008D
:10181000400206D42868800715D5E068012809D160
:1018200011E0E068B8B10120C9F80000FFF7AEFD93
:10183000064605E022E1FFF7A9FD801B0228C2D879
:1018400028688007F7D52868216920F0F80040EA69
:10185000C10028600DE0C9F800B0FFF797FD06460B
:1018600004E0FFF793FD801B02281FD8286880073B
:10187000F7D42078000722D5824F844861697037F9
:1018800071B101210160FFF781FD064604E0FFF719
:101890007DFD801B022809D838688007F7D50EE047
:1018A000C0F800B0FFF772FD064605E082E0FFF7E2
:1018B0006DFD801B02287DD838688007F7D420781A
:1018C000400765D56F484FF000083C300068C00005
:1018D0000BD46C483C30016841F0805101600068D5
:1018E0004FF0010800F080500090694F3868C00543
:1018F0000FD4386840F480703860FFF747FD064623
:1019000004E0FFF743FD801B022853D83868C00568
:10191000F7D55C4FA0686C3701280FD005283868D0
:1019200010D020F001003860386820F004003860E2
:10193000A068B0B1FFF72AFD06460EE0386840F017
:101940000100F4E740F004003860F7E7FFF71EFD00
:10195000811B41F28830814263D838688007F5D511
:101960000DE0FFF713FD064606E0FFF70FFD811BB4
:1019700041F28830814254D838688007F5D4B8F1F4
:10198000000F05D03F483C30016821F080510160D4
:10199000A069B8B33B49091D0968C1F38101022957
:1019A00046D00228584606D0C9F86000FFF7EEFC82
:1019B000044639E035E04F46C9F86000FFF7E6FC21
:1019C000064604E0FFF7E2FC801B022829D82868BD
:1019D0008001F7D4D4E907010843A16A2D4A4908D8
:1019E00002EB0141626A41EA8211084394F82C102B
:1019F00040EA0161CAF8001001203866FFF7C6FC12
:101A0000044605E03CE0FFF7C1FC001B022808D8B3
:101A100028688001F7D533E0FFF7B8FC001B0228E7
:101A200002D90320BDE8F88F28688001F4D427E0AC
:101A30000128F7D0DAF80000E26900F48001914251
:101A40001CD1226A00F03F01914217D147F6C071C4
:101A5000626A0140B1EB821F10D1A26A4FF0FF33DE
:101A600000F4403103EB5202B1EB024F06D194F87F
:101A70002C1000F07060B0EB016F01D00120D1E7B5
:101A80000020CFE70438024000004742800E474262
:101A9000007000400000FFFF7047000038B501688B
:101AA00004464A688868C043430606D5C30704D184
:101AB000D3435B0601D4216C05E0830708D4D343EC
:101AC0001B0605D4616C01B02046BDE830400847D4
:101AD000830603D5430601D5C30551D4D3439B06E2
:101AE0004ED443060AD494F85130032B49D0636D89
:101AF00043F004036365CB688B680093830609D4C5
:101B0000636D43F0010363658B6800930B6823F0FA
:101B100040030B60C00506D4606D40F008006065AE
:101B2000206880680090606D002829D02068416896
:101B300021F0E0014160012084F85100900701D4B8
:101B4000D00722D02068416821F003014160114D87
:101B5000E06C40B10565E06CFFF70EF918B1606DFF
:101B600040F040006065A06C002809D00565A06CBD
:101B7000FFF702F9002803D0606D40F04000606577
:101B800038BDC8688868009038BD2046FFF784FFDC
:101B900038BD00001D36000870B5040009D0606A29
:101BA000002540B125616561A56294F8510040B1FE
:101BB0000CE0012070BD6068B0F5827FF4D0E56173
:101BC000F2E784F85050204600F044F8022084F8F0
:101BD00051002068016821F040010160A08821893E
:101BE00000F4827001F404410843A18901F400610A
:101BF0000843217C01F002010843217D01F001012D
:101C00000843218B01F400710843217F01F0380162
:101C1000084394F8201001F080010843218D01F45D
:101C20000051084321680860A069042101EA1040BE
:101C300094F8241001F010010843216848602068DE
:101C4000C16921F40061C1616565012084F851001A
:101C5000002070BDF0B587B0044614216846FEF739
:101C600059FB2049206888423AD11F480025016865
:101C700041F480410160006800F4804005901A48FA
:101C80001038016841F004010160016801F00401AD
:101C90000591016841F0020101600068022600F030
:101CA000020005900C20CDE90006032705240295CB
:101CB000CDE9037469460D48FFF76EFA3003CDE9AC
:101CC00000060295CDE9037469460948FFF764FAF6
:101CD000002205212420FFF7F7FB2420FFF7E6FB75
:101CE00007B0F0BD00380040403802400008024014
:101CF000000402402DE9FF4F81B01F469346044681
:101D000001250E9EFFF742FB804694F85100616862
:101D1000012806D0B1F5827F3CD1A168C9BB042857
:101D200038D10298002870D0BBF1000FFBD0002FF3
:101D3000F9D094F8500001282CD04FF0010A84F813
:101D400050A094F85100042802D0052084F85100D6
:101D50004FF00009C4F85490C4F838B0E787A7875B
:101D600002992163E786A786C4F84090C4F844909E
:101D700020680168490603D4016841F04001016010
:101D8000E068B0F5006F606808D0E8B3012F47D075
:101D90007DE0FFE7022005B0BDE8F08F08B1012F1C
:101DA00037D1206B21680088C860206B801C2063BD
:101DB000E08E401EE0862CE02068816889070DD502
:101DC000E18E59B1012D09D1216B0988C160206BC9
:101DD000801C2063E08E401EE0860025206881681C
:101DE000C9070BD0E18F49B1C068A16B0880A06B17
:101DF000801CA063E08F401EE0870125FFF7C6FA34
:101E0000A0EB0800B04201E00AE064E001D3701CDE
:101E10004ED1E08E0028CFD1E08F0028CCD13CE01D
:101E2000206B216800780873206B401C2063E08ED3
:101E3000401EE0862BE02068816889070DD5E18E81
:101E400059B1012D09D1216B09780173206B401C18
:101E50002063E08E401EE086002520688168C90767
:101E60000BD0E18F49B1C068A16B0870A06B401C1A
:101E7000A063E08F401EE0870125FFF787FAA0EB03
:101E80000800B04202D3701C01D011E086B1E08E90
:101E90000028D0D1E08F0028CDD1424631462046DF
:101EA00001F0C4FB50B12020606584F8509012E02E
:101EB00084F851A084F8509003206CE7A06818B90A
:101EC0002068C1688068009084F851A084F8509020
:101ED000606D0028F1D001205DE770B515460E4613
:101EE000040003D094F8490010B107E0012070BD50
:101EF000002084F84800204600F01DF804F1080195
:101F00002068FEF74FFE3146A2682068FEF77EFE8D
:101F1000D4E901022946236BFEF726FEA16820685A
:101F200050F8212042F0010240F82120012084F8DD
:101F30004900002070BDFFF7B5B87047704710B575
:101F4000040003D094F83D0010B107E0012010BD5B
:101F5000002084F83C00204600F01EF8022084F89F
:101F60003D00211D206801F059FC012084F8460045
:101F700084F83E0084F83F0084F8400084F8410073
:101F800084F8420084F8430084F8440084F8450053
:101F900084F83D00002010BD7047000090F83D100F
:101FA000012901D001207047022180F83D1001680D
:101FB000CA6842F00102CA6000681149884214D020
:101FC000B0F1804F11D00F4988420ED00E4988429F
:101FD0000BD00E49884208D00D49884205D00D49E2
:101FE000884202D00C49884204D1816801F007017F
:101FF000062903D0016841F001010160002070470B
:10200000000001400004004000080040000C0040B7
:1020100000040140004001400018004070472DE9D5
:10202000F04104460068C66805694FF00007A9073B
:1020300013D5B10711D5F91E016101202077206861
:1020400080698007204602D0FFF7E8FF04E000F037
:102050007EF8204600F07CF82777680716D57007D1
:1020600014D521686FF004000861022020772068F1
:10207000806910F4407F204602D0FFF7CFFF04E0D4
:1020800000F065F8204600F063F82777280715D59B
:10209000300713D521686FF008000861042020770D
:1020A0002068C0698007204602D0FFF7B7FF04E030
:1020B00000F04DF8204600F04BF82777E80616D5DB
:1020C000F00614D521686FF0100008610820207711
:1020D0002068C06910F4407F204602D0FFF79EFFC1
:1020E00004E000F034F8204600F032F82777E807E3
:1020F00008D0F00706D021686FF001000861204683
:1021000000F028F8280608D5300606D521686FF0BB
:10211000800008612046FFF710FF680608D57006AA
:1021200006D521686FF040000861204600F01CF8D9
:10213000A8060AD5B00608D521686FF0200008610E
:102140002046BDE8F041FFF7F9BEBDE8F0817047D9
:102150007047000000680349884201D1FFF71CB9AD
:102160007047000000080040704738B5044690F8FA
:102170004200202801D0022038BD51B14AB10120CF
:10218000206300206063204601F056FD010002D06C
:1021900005E0012038BD206B012802D0012108464E
:1021A00038BD206802684068009020680C3050E814
:1021B000002F42F0100240E80023002BF5D1EEE79B
:1021C00010B500680A49884211D10A480068406881
:1021D0004FF0FF33C0F18000C2B20749074800F05A
:1021E0005BFABDE8104080210348FEF793B810BDAC
:1021F0000048004034050020EC0500202C0400209D
:1022000070470000F8B5016804460868CA684B6961
:1022100010F00F0F4FF0000559D003F0010602F443
:102220009077374365D0C10705D0D10503D5616CE0
:1022300041F001016164410705D5D90703D0616C04
:1022400041F002016164810705D5D90703D0616CB3
:1022500041F004016164010707D502F02001314318
:1022600003D0616C41F008016164616C00293AD0CF
:10227000800604D5900602D5204601F0F5FB2068C3
:102280004069616CC0F38010090700D460B3204638
:1022900001F0B5FB20684069400621D52068143064
:1022A00050E8001F21F0400140E80012002AF5D15B
:1022B000E06BA8B16E490165E06BFEF75DFD00289B
:1022C00011D0E06B016D01B0BDE8F0400847830616
:1022D0000FD593060DD52046BDE8F84001F0C4BBEC
:1022E0002046FFF78DFFF8BD2046FFF789FF6564A4
:1022F000F8BD266B2023012E7DD1C6067BD5D606E0
:1023000079D508684868009048694FF00206400691
:1023100041D5E16B086840680004000CE8D0A28D4C
:102320008242E5D9E085C869B0F5807F2DD020686C
:102330000C3050E8001F21F4807140E80012002AA0
:10234000F5D12068143050E8001F21F0010140E869
:102350000012002AF5D12068143050E8001F21F047
:10236000400140E80012002AF5D184F8423025638C
:1023700020680C3050E8001F21F0100140E80012E6
:10238000002AF5D1E06BFEF7AEFC6663A08DE18D0F
:10239000401A81B22AE0A08DE18D401A81B2E08D11
:1023A0000028A5D00029A3D020680C3050E8002FC9
:1023B00022F4907240E80027002FF5D120681430F5
:1023C00050E8002F22F0010240E80027002FF5D14D
:1023D00084F84230256320680C3050E8002F22F04A
:1023E000100240E80023002BF5D166632046FFF77A
:1023F000E7FEF8BDFFE705062BD5150629D594F8AD
:1024000041002128F5D1A068B0F5805F01D1206995
:10241000B0B1206A411C2162216800784860E08CDC
:10242000401E0004000CE084E3D12068C16821F064
:102430008001C1602068C16841F04001C160D8E7F7
:10244000206A0088C0F308004860206A801C20626F
:10245000E5E74006CDD55006CBD5CA68204622F028
:102460004002CA6084F8413000F066F9C1E700001C
:102470000139000870B5040004D094F8410000252B
:1024800010B106E0012070BD84F84050204600F0F5
:1024900023F8242084F841002068C16821F4005109
:1024A000C160204601F042FB2068016921F490419F
:1024B00001612068416921F02A0141612068C168F9
:1024C00041F40051C1606564202084F8410084F823
:1024D00042006563002070BD2DE9F04786B00446D8
:1024E00014216846FDF716FF6349DFF888C102230F
:1024F0002068614E10390322DFF880A100259F0675
:102500004FF4806960454CD1306840F40020306061
:10251000306800F400200590086840F00100086071
:102520000868694600F0010005908DE82C0008203D
:10253000CDE903205046FEF72FFE524E5048B846D4
:102540003060C6E90175C6E903597561B561F56189
:1025500035624F4630467562FEF7F0FC08B1FEF773
:1025600001FBE663B463474E454860363030E6E829
:1025700002084020A1C6434846F814596030B561AE
:10258000F56135627562FEF7D9FC08B1FEF7EAFA2B
:10259000A663002205213420B463FEF795FF3420A2
:1025A00027E0DFF8E4804FF0070C404526D13248A1
:1025B000001D046844F010040460006800F010007E
:1025C0000590086840F0010008600868694600F05E
:1025D000010005904FF4C0608DE82900CDE9032C7F
:1025E0005046FEF7D9FD002205212520FEF76CFF9D
:1025F0002520FEF75BFF06B0BDE8F087DFF88C8092
:102600004045F8D1306840F480203060306800F4F4
:1026100080200590086840F002000860086869465C
:1026200000F0020005904FF440608DE82900CDE9EC
:10263000032C1748FEF7B0FD124E1148C03618386B
:102640003060C6E90175C6E9035980157561C6E9B0
:102650000650356230467562FEF770FC08B1FEF731
:1026600081FAE663002205212720B463FEF72CFFE0
:102670002720BEE7004C00404038024000000240E6
:1026800040600240740400200010014000480040F7
:1026900000040240704770472DE9F843044690F863
:1026A00041001F4615460E46202802D00220BDE8F4
:1026B000F8838EB185B100206064212084F8410048
:1026C000FEF764FEA5848146E584A0684FF02008EB
:1026D000B0F5805F02D003E00120E8E7206910B187
:1026E000354600260EE000250CE08021204601F052
:1026F000EDFAA0B9BDB115F8010B21684860E08C76
:10270000401EE084E08C4B464FF00002009700280A
:10271000EBD14FF04001204601F0D8FA40B184F8E7
:1027200041800320C3E736F8020BC0F30800E4E75A
:1027300084F841800020BAE77047FEE710B586B004
:10274000044614216846FDF7E5FD2089009001202C
:10275000019002900220039069462068FEF71CFD5C
:102760006089009069466068FEF716FD06B010BDEE
:102770002DE9F04106460824002500F003FF14E08F
:102780006806070E0021304600F0EAFE0220FEF740
:10279000B9F90121304600F0E3FE0120FEF7B2F95D
:1027A000304600F0E6FE40EA0705641EE4B2E7D2D8
:1027B0000021304600F0D4FE304600F001FF2846EC
:1027C000BDE8F08170B50D460646082418E000F01B
:1027D000C7FE0220FEF796F905F08001304600F0B2
:1027E000E6FE0120FEF78EF96806050E0120FEF7D1
:1027F00089F90121304600F0B3FE0120FEF782F98D
:10280000641EE4B24FF000013046E0D200F0A8FEB2
:10281000BDE870400220FEF775B910B504460121ED
:1028200000F0C5FE0120FEF76DF90121204600F001
:1028300097FE0120FEF766F90021204600F090FE89
:10284000BDE810400220FEF75DB910B50446012135
:1028500000F0ADFE0220FEF755F90121204600F000
:102860007FFE0120FEF74EF90021204600F09FFE7A
:102870000120FEF747F90021204600F071FEBDE877
:1028800010400120FEF73EB910B50446002100F0CB
:1028900067FE0220FEF736F90021204600F087FE91
:1028A0000120FEF72FF90121204600F059FE0120FA
:1028B000FEF728F90121204600F079FEBDE810401E
:1028C0000120FEF71FB970B50546052400F05AFE39
:1028D0000121284600F044FE05E0641EA4B2012058
:1028E000FEF710F984B1284600F043FE0028F4D129
:1028F000284600F065FE0021284600F031FE022047
:10290000FEF700F9002070BD284600F059FE284669
:10291000FFF7BAFF012070BD30B505460A480488AC
:10292000408821464443491E401E8AB283B200219A
:10293000084600F05BF90021044801E00580491CCD
:10294000A142FBD330BD0000DC0500200020006C5C
:102950002DE9FE4F0026A2EB000882465F1A701E8A
:1029600035468946B8F1000F02DD4FF0010102E063
:1029700003D14FF00001019102E0C8F1000801907D
:10298000002F02DD4FF0010002E003D14FF0000004
:10299000009002E0C7F1000700904046B84501DD15
:1029A000044600E03C46601C4FF0000B029015E02E
:1029B0001FFA89F11FFA8AF000F016F846443D44E8
:1029C000A64202DD0199361B8A44A54202DD009928
:1029D0002D1B89440BF101001FFA80FB02998B45E6
:1029E000E6DDBDE8FE8F000000B500F0FBF8024810
:1029F00002490088088000BD280000200020006CEB
:102A00002DE9F041141A641CA6B25C1A641CA7B22A
:102A1000DDF8188000F0EAF800250AE0002404E060
:102A2000404600F0EDF9641CA4B2B442F8D36D1C2A
:102A3000ADB2BD42F2D3064841880088491EBDE8C8
:102A4000F041401E8BB282B20021084600F0CEB8A1
:102A5000DC05002010B56420FEF747F85F4CCF205E
:102A600020800021A01C0180C9210180302101802B
:102A7000ED21218064210180032101801221018048
:102A800081210180E82121808521018010210180A0
:102A90007A210180CB212180392101802C210180E4
:102AA000002101803421018002210180F721218051
:102AB00020210180EA212180002101800180C021A4
:102AC00021801B210180C121218000210180C5219D
:102AD0002180302101800180C7212180B721018020
:102AE00036212180082101803A2121805521018051
:102AF000B1212180002101801A210180B62121808D
:102B00000A210180A2210180F2212180002101807F
:102B10002621218001210180E02121800F210180D7
:102B20002A21018028210180082101800E210180B5
:102B30000821018054210180A921018043210180C5
:102B40000A2101800F210180002101800180018084
:102B50000180E121218000210180152101801721C0
:102B600001800721018011210180062101802B2194
:102B70000180562101803C21018005210180102126
:102B800001800F2101803F21018001800F21018000
:102B90002B212180002101800180012101803F2122
:102BA00001802A2121800021018001800180EF2104
:102BB0000180112020807820FDF797FF29202080B8
:102BC000002000F0F5F8012291020548FEF7D9FB3C
:102BD000BDE810404FF6FF70FFF79EBEFE1F006C71
:102BE000001402400B460246AFF30080F0B40D4ED5
:102BF0000D4FB4893C80050ABC1C2580C0B22080E2
:102C0000100A2080D0B22080F0893880080A208005
:102C1000C8B22080180A2080D8B22080F0BC00F012
:102C2000B5B80000DC050020FE1F006C2DE9FF4F49
:102C300081B00EAE824696E83100203800F0FF08E1
:102C40000298DFF8E0B02044401E83B20AEB540043
:102C5000BBF80010401E009182B250460299FFF767
:102C6000C5FF4FF000067DBB2F4908EB480001EB84
:102C7000800901F2744000EB081817E00C2C03D017
:102C800018F8065000270CE019F80650FAE7E80794
:102C900001D0039800E0049800F0B2F86D087F1CA2
:102CA000FFB2B7EB540FF2D3761CF6B2A642E5D3CF
:102CB00027E00C2C09D01D4800EB08100025875D8B
:102CC000029800EB060915E019E0174808EB4801E7
:102CD00000EB8100F2E70398ABF80000F80706D09C
:102CE0000AEB05001FFA89F180B2FFF77DFE7F082D
:102CF0006D1CEDB2B5EB540FEDD3761CF6B2A642C7
:102D0000D7D30098ABF8000009484188008805B087
:102D1000491EBDE8F04F401E8BB282B2002108462A
:102D2000FFF764BF28000020F87802086C7D0208D5
:102D3000DC0500202DE9FE4F044600F0FF081019C5
:102D40000D46DDE90C761FFA80FA58191FFA80F952
:102D50004FF0000B13E0544502D3E91944468DB2FD
:102D60004D4511D28DE881084FF6FF732946204664
:102D70000E9AFFF75BFF04EB570084B2761C3078A5
:102D8000A0F120015E29E6D9BDE8FE8F0248034983
:102D90000089088070470000DC050020FE1F006CE1
:102DA000024A1080901C018070470000FE1F006CDA
:102DB00012492A224FF4A0738A812B22CA812C2225
:102DC0000A812E224A81F02258B101280DD0022812
:102DD0000FD0032811D10B804A80B8213620FFF78D
:102DE000DFBF0A804B800821F8E70B804A8068210A
:102DF000F4E70A804B80D821F0E77047DC0500201B
:102E000001490880704700000020006C70B50C4636
:102E1000054600F017F820EA04012846BDE8704096
:102E200000F038B810B5064C012240212046FEF7CC
:102E3000A8FA20460122BDE810401146FEF7A1BACB
:102E40000008024070B57E2101EA40000A4D40F0C2
:102E50008004002240212846FEF793FA204600F025
:102E6000CBFB002000F0C8FB04460122402128468D
:102E7000FEF787FA204670BD0008024070B50C4688
:102E80000546FFF7DFFF40EA04012846BDE8704031
:102E9000AFF3008070B50D467E2101EA4004094E73
:102EA000002240213046FEF76CFA204600F0A4FBD9
:102EB000284600F0A1FB3046BDE8704001224021C9
:102EC000FEF75FBA00080240064882B0016841F090
:102ED00040010160006800F040000090024802B02C
:102EE000FFF72CBC303802409C00002000B587B0B2
:102EF00014216846FDF70EFA0E48016841F04001C2
:102F000001600068694600F04000059020200090B4
:102F10004FF404100190012002900748FEF73CF99D
:102F2000002211461720FEF7CFFA1720FEF7BEFA4F
:102F300007B000BD303802400018024010B5FFF75E
:102F4000C3FF80216B2000F0B1F86420FDF7CDFDB8
:102F500000216B2000F0AAF8032000F072F8022094
:102F600000F06AF8322000F089F80021382000F0E3
:102F70009DF800216A2000F099F80021232000F03C
:102F800095F88021372000F091F8752000F028F89E
:102F9000682801D0012010BD28216B2000F086F8A0
:102FA00087216C2000F082F8322000F067F800F0F2
:102FB00004F8FFF79BFF002010BD10B501211F2072
:102FC00000F074F80121202000F070F890213720E3
:102FD00000F06CF84021BDE81040382000F066B8E1
:102FE00010B504461348FFF730FCD0211148FFF715
:102FF000E9FB1048FFF767FC21460E48FFF7E2FBAC
:103000000C48FFF760FC0B48FFF71FFCD121094873
:10301000FFF7D8FB0748FFF756FC0648FFF7A8FB69
:1030200004460448FFF7F9FB0248FFF72DFC204651
:1030300010BD00009C000020C006010E1C2000F006
:1030400035B8C006010E1B2000F030B8BC2801D3F3
:10305000012110E0622801D302210CE02A2801D3CB
:10306000032108E0142801D3042104E00A2801D335
:10307000052100E006211A2000F018B810B504461A
:103080004FF47A70844201D9044602E0042C00D245
:103090000424B0FBF4F0401EC1B2192000F006F881
:1030A0006008BDE81040FFF7D1BF000070B50446CE
:1030B0000D461248FFF7C9FBD0211048FFF782FBED
:1030C0000E48FFF700FC70B921460C48FFF77AFB69
:1030D0000A48FFF7F8FB29460848FFF773FB074843
:1030E000FFF7F1FB20B10548FFF7CEFB012070BDD3
:1030F0000248FFF7C9FB002070BD00009C000020C3
:10310000114808B5016841F400110160006800220F
:1031100000F40010009005210C20FEF7D5F90C20DA
:10312000FEF7C4F9002205210D20FEF7CDF90D2090
:10313000FEF7BCF9002205210F20FEF7C5F9BDE816
:1031400008400F20FEF7B2B93038024010B58EB0FB
:103150001C216846FDF7DEF81C2107A8FDF7DAF808
:103160001A484FF0204110220160194941600621A0
:1031700081600021C160C0E904128161C161130254
:103180000162C0E909139302C0E90B134163816333
:1031900041640F203C230090CDE9010303AC1123CF
:1031A00084E80E0009240691CDE9074009AC082007
:1031B00084E80F000D9107AA69460448FEF78DFECA
:1031C000002801D0FDF7CEFC0EB010BDF4020020A7
:1031D000040100A02DE9F04F87B014216846FDF7E7
:1031E00099F86C480025016841F010010160016800
:1031F00001F010010591016841F0040101600168CE
:1032000001F004010591016841F0200101600168AD
:1032100001F020010591016841F080010160016821
:1032200001F080010591016841F001010160016830
:1032300001F001010591016841F00201016001689E
:1032400001F002010591016841F008010160016887
:1032500001F008010591016841F04001016000683A
:103260004D4E00F040000590012218213046FEF737
:1032700088F8DFF828B100224FF4A0515846FEF735
:1032800080F8474F012241213846FEF77AF8DFF8EF
:103290001491012220214846FEF773F8DFF808A1B7
:1032A000012203215046FEF76CF801241820CDE9D5
:1032B000000469463046CDE90245FDF76DFFA002E6
:1032C000CDE900040326CDE9024669465846FDF7DC
:1032D00063FF41204FF002088DE83101694638460E
:1032E000FDF75AFF2027CDE90074CDE90246694673
:1032F0004846FDF751FFCDE90064CDE90246694635
:103300005046FDF749FF0420CDE9000569460294C7
:103310005046FDF741FFE002CDE900056946029401
:103320005846FDF739FF200303958DE811016946E2
:103330005846FDF731FF6003CDE900056946584660
:103340000295FDF729FF300300904FF40410CDE9FA
:10335000010469461548FDF71FFF4FF488100097D8
:10336000CDE9010569461248FDF716FF0022052147
:103370001720FEF7A9F81720FEF798F8002205217C
:103380002820FEF7A1F82820FEF790F807B0BDE846
:10339000F08F00003038024000100240001402405C
:1033A000000802400000024000040240000C0240FD
:1033B00000180240104810B50E4901604FF48271A8
:1033C000416000218160C1604FF400720161C0E979
:1033D00005122822C0E90721416281620A21C162E7
:1033E000FEF7DAFB002803D0BDE81040FDF7BABBBA
:1033F00010BD000000380040440300200C4810B508
:103400000A4901604FF4E1314160002181600C22E2
:10341000C160C0E904128161C161FFF72BF8002887
:1034200003D0BDE81040FDF79DBB10BD004C00402F
:103430009C0300200C4810B50A4901604FF4E131AB
:103440004160002181600C22C160C0E904128161E9
:10345000C161FFF70FF8002803D0BDE81040FDF769
:1034600081BB10BD00100140E40300200C4810B5E2
:103470000A4901604FF4E1314160002181600C2272
:10348000C160C0E904128161C161FEF7F3FF002849
:1034900003D0BDE81040FDF765BB10BD00480040FB
:1034A0002C040020FEE7FEE703211420FFF7AEBC4A
:1034B00010B51420FFF7C6FC800705D10321BDE835
:1034C00010401420FFF7DABC10BD10B5FFF7AAFCBE
:1034D00000F002F8002010BD10B5204C012211466A
:1034E0002046FDF74EFF0220FDF7FFFA00220121E2
:1034F0002046FDF746FF0220FDF7F7FA01221146AC
:103500002046FDF73EFF0220FDF7EFFA0F210120D4
:10351000FFF7C0FC0220FDF7E8FA3D211120FFF77C
:10352000B9FC1E212D20FFF7B5FC00212C20FFF750
:10353000B1FC8D212A20FFF7ADFC3E212B20FFF7A7
:10354000A9FC40211520FFF7A5FCFFF7ADFF0220E5
:10355000FDF7CBFABDE81040FFF7AABF0008024014
:103560004289406811B18169114300E01104816111
:10357000704710B501890068FDF7F6FE012800D0FC
:10358000002010BD10B586B0044614216846FCF733
:10359000C1FE2089009000200190012002900220AD
:1035A000039069462068FDF7F7FD06B010BD02895B
:1035B000006811B18169114300E011048161704715
:1035C00010B586B0044614216846FCF7A3FE208996
:1035D0000090112001900020029002200390694683
:1035E0002068FDF7D9FD06B010BD00000148FEF7C8
:1035F00055BA00004403002001B582B00A200090B3
:103600000123044A02A90448FEF774FB014800782C
:103610000EBD0000740000204403002010B5806B34
:103620000021C187C186FEF737FA10BDF8B51546EF
:103630000E460B46009204460122022100F02CF8AF
:10364000A0B9134813490068B0FBF1F04FF47A7148
:10365000484300906068B0F5827F0DD13346002268
:1036600080212046009500F017F870B1606D40F0A1
:10367000200060650320F8BD009830B1401E009026
:1036800020688068C0430006F6D50020F8BD000021
:103690001800002000366E012DE9F8431E469146C1
:1036A00088460446089DFDF771FE401B351AFDF75C
:1036B0006DFE074625480068C0F3CB30684338E00C
:1036C000701C37D0FDF762FEC01BA84203D215B1B3
:1036D000009860B32CE02068416821F0E00141606F
:1036E0006068B0F5827F0BD1A068B0F5004F02D0C2
:1036F000B0F5806F04D12068016821F040010160BD
:10370000A06AB0F5005F09D12068016821F400517A
:1037100001602068016841F400510160012084F8D3
:103720005100002084F850000320BDE8F8830025F4
:10373000401E00902068816838EA010004D0002013
:103740004845BDD10020F0E70120F9E7180000202E
:1037500010B54FF0E020006924F010F8012803D0E4
:10376000BDE8104023F0F4BF10BD000030B593B0A9
:1037700030216846FCF7CEFD14210CA8FCF7CAFDE9
:103780001D480025016841F080510160006800F08B
:10379000805011901948016841F48041016000682F
:1037A000022400F480401190012003901020049026
:1037B000009406940820CDE90750A820CDE909041B
:1037C00004200B906846FDF7BBFF08B172B6FEE718
:1037D0000CA90F2081E831004FF4A0500F904FF456
:1037E0008050109005210CA8FDF7A0FE002801D004
:1037F00072B6FEE713B030BD4038024000700040A2
:103800000248016841F470010160704788ED00E0F2
:103810000148FEF704BC000094050020F0B50268E2
:10382000294D2A4E2A4FDFF8ACC02B4B4FF0804E6B
:10383000A84209D0704507D0B04205D0B84203D0A5
:10384000604501D0984203D122F070044A682243B7
:10385000A8421BD0704519D0B04217D0B84215D03D
:10386000604513D0984211D01C4CA0420ED01C4C85
:10387000A0420BD01B4CA04208D01B4CA04205D04C
:103880001A4CA04202D01A4CA04203D122F4407438
:10389000CA6822434C6922F08002224302608A688F
:1038A000C2620A688262A84201D0984201D10969C5
:1038B0000163012141610169C90703D0016921F058
:1038C00001010161F0BD0000000001400004004062
:1038D00000080040000C004000040140004001408E
:1038E000004401400048014000180040001C004016
:1038F000002000400148FEF785BC00009C0300202A
:1039000010B5806B0021C185C184FEF779FC10BD24
:1039100070B5846B2068406994F84110C0F3C01002
:103920000025212904D118B1E584204600F08EF845
:103930002068406994F84210C0F38010222904D115
:1039400018B1E585204600F05AF8606C40F0100090
:1039500060642046FEF754FC70BD10B50146806BD4
:10396000096809684FF00003C9052ED4C3850168B2
:103970000C3151E8002F22F4807241E80024002C21
:10398000F5D10168143151E8002F22F0010241E81D
:103990000024002CF5D10168143151E8002F22F0E9
:1039A000400241E80024002CF5D1202180F842108B
:1039B000016B012909D101680C3151E8002F22F077
:1039C000100241E80024002CF5D14363016B01296A
:1039D00002D0FEF75FFE10BD818DFEF7F1FB10BD3A
:1039E00010B5806B01214163016B012902D0FEF704
:1039F00052FE10BD818D4908FEF7E2FB10BD016843
:103A00000C3151E8002F22F4907241E80023002B82
:103A1000F5D10168143151E8002F22F0010241E88C
:103A20000023002BF5D1016B012909D101680C316C
:103A300051E8002F22F0100241E80023002BF5D1BD
:103A4000202180F8421000210163704701680C3189
:103A500051E8002F22F0C00241E80023002BF5D1ED
:103A6000202180F84110704708B590F842102229B3
:103A700001D0022008BD81684FF48053994201D1E2
:103A8000026922B1826A99421BD049B10AE00268F8
:103A9000816A5268C2F308020A80816A891C08E0C0
:103AA000016971B10168496801F07F011170816A93
:103AB000491C8162C18D491E0904090CC18503D0CE
:103AC0001BE001684968F1E70168CA6822F020023A
:103AD000CA600168CA6822F48072CA6001684A69D3
:103AE00022F001024A61202180F842100021416346
:103AF000026B012A03D0FEF7CDFD002008BD016353
:103B000001680C3151E8002F22F0100241E8002337
:103B1000002BF5D101680A68D20602D50A68496807
:103B20000091818DFEF74CFBE7E7000070B504467D
:103B300000680169E26821F4405111430161A16804
:103B40002069E26901436069104301432068C2684B
:103B500049F20C639A430A43C26020684169A26932
:103B600021F440711143416131492068884202D0FB
:103B70003049884202D1FDF7A3FD01E0FDF790FD39
:103B8000E2690023192164253226B2F5004F6268EC
:103B900028D0A0FB0101930F9200FCF771FB0146B6
:103BA000B0FBF5F06FF01802504301EB800006EB1C
:103BB0000010B0FBF5F000F0F002B1FBF5F002EB05
:103BC0000012B1FBF5F06FF01803584301EB8000D1
:103BD00006EB0010B0FBF5F000F00F002168104478
:103BE000886070BDA0FB010192185B41FCF748FBA7
:103BF0000146B0FBF5F00201B1FBF5F06FF01803E0
:103C0000584301EB800006EBC000B0FBF5F000F07C
:103C1000F80002EB4002B1FBF5F0584301EB8000E5
:103C200006EBC000B0FBF5F000F00700D6E700009F
:103C3000001001400014014037B582B01346039ACA
:103C400082620446838500206064222184F8421049
:103C5000E56B1B49E963E56B1A492964E56B1A4971
:103C6000E964E16B08652168E06B091DFDF7D0F997
:103C70002068016840680090206948B120680C30D5
:103C800050E8001F41F4807140E80012002AF5D18D
:103C90002068143050E8001F41F0010140E8001294
:103CA000002AF5D12068143050E8001F41F040018F
:103CB00040E80012002AF5D105B0002030BD000018
:103CC0005B390008E1390008113900082DE9F84393
:103CD0001F4690460D460446089E23E0701C21D0E6
:103CE000FDF754FBC01BB0421AD8CEB12068C168A2
:103CF000490717D5802D15D0402D13D00168C94331
:103D000009070FD401680025406800902046FFF79E
:103D100076FE0820606484F840500120BDE8F883F6
:103D20000320FBE72068006835EA000004D000208B
:103D30004045D3D00020F1E70120F9E70148FEF724
:103D400061BA0000E403002010B50548FEF75AFAF6
:103D5000BDE81040802203490148FEF706BA000082
:103D60002C040020EC050020FEE700000FB4084BF7
:103D700010B504A902AA039801F024FC044602A984
:103D8000002001F0B6FF204610BC5DF814FB0000D7
:103D9000F35C00080907090E002804DB00F1E020AD
:103DA00080F80014704700F00F0000F1E02080F868
:103DB000141D704702E008C8121F08C1002AFAD17A
:103DC00070477047002001E001C1121F002AFBD19B
:103DD000704770B5044600256FF02F0608E0206894
:103DE000411C2160007805EB850106EB4101451877
:103DF0002068007800F012F90028F0D1284670BD44
:103E00002DE9F05F15461C46DDF828B00E46074642
:103E100001EB040800EB050A1FFA88F11FFA8AF08B
:103E20005A46FCF757FF1FFA88F1A7EB05081FFA5F
:103E300088F05A46FCF74EFFA6EB04091FFA89F1F9
:103E40001FFA8AF05A46FCF745FF1FFA89F11FFA5C
:103E500088F05A46FCF73EFF06EB050907EB04081D
:103E60001FFA89F11FFA88F05A46FCF733FF3C1B12
:103E70001FFA89F1A0B25A46FCF72CFF751BA9B2B4
:103E80001FFA88F05A46FCF725FFA9B2A0B25A469D
:103E9000BDE8F05FFCF71EBF2DE9FF5F82B0002197
:103EA000DDE90430020DDDF840B0034318D044F6DC
:103EB0001050A2F2FF3242431514119801281FD06E
:103EC000A5EB0B00401C5FEA000A4FF000064E4FC6
:103ED000DFF83891B046504615D5CAF1000413E01A
:103EE000119801244AA3012801D16FEA0B0102981D
:103EF000119AC0E90031C0E9024206B0BDE8F09F66
:103F0000CBF10000DFE704460021404A491842EBAC
:103F10000450CDE9001012E0E00707D032463B46DE
:103F200040464946FCF7C6FA8046894632463B463B
:103F300010461946FCF7BEFA06460F466410002CE0
:103F4000EAD1DDE90401DDE90023BAF1000F06DA68
:103F5000FCF7B0FA42464B46FCF7ACFA05E0FCF73A
:103F60001BFB42464B46FCF717FB04460E4600225D
:103F7000284BFCF7A9FB03D84FF0FF30014607E0C0
:103F80000022254B20463146FCF7EDF9FCF758FCA2
:103F9000102409E0002C0ADB0A220023FCF770F948
:103FA000039B30321A55641E50EA0102F2D1641CA0
:103FB000039AC4F111031444119A012A03D0012277
:103FC00008430DD10AE0084304D000204FF0110B44
:103FD000119072E7A3EB0B056D1E0DE05B4504DD50
:103FE0004FF0000205F1010504E003DA4FF0000292
:103FF000A5F10105002AECD002981199C0E902311F
:10400000C0E9004579E70000000014400000F03FDF
:10401000300000000000F0430000E03F3038092885
:1040200001D80120704700207047000010B54421DE
:10403000074800F085FD00221E2106481DF09CFB6C
:10404000054CA06002F0C8F90020207010BD0000EF
:10405000780B00208D640008400100202DE9F04716
:104060000F46814690461146384600F00CF940B1A3
:1040700000224146384600F0B2F828B10020BDE8E1
:10408000F0874FF0FF30FAE7002638460EF0A3F82D
:10409000401E0FFA80FA38460EF053F8401E02B266
:1040A000B8F80210B7F90200091A09B200290FDDA9
:1040B0003B88012663F30F0460F31F44BB88084468
:1040C00063F30F0560F31F45C9F80040C9F80450B9
:1040D000B8F906007988411A511A09B2002913DD8E
:1040E000B7F9062090420FDA3A8862F30F04BA88D3
:1040F00060F31F4462F30F05084460F31F4509EBAA
:10410000C600761C04604560B8F90200B7F90210D9
:10411000884200DC0846B8F90610B7F9062091423B
:1041200000DB1146B8F80030B7F90020091A9B1AD5
:104130001BB209B2002B10DD00290EDD62F30F0463
:104140001A4462F30F05421862F31F4509EBC602D9
:1041500060F31F4414605560761CB8F904203B8856
:10416000D71AAAEB07031BB2002B0EDD62F30F0474
:1041700060F31F441A4462F30F05084460F31F45BF
:1041800009EBC600761C04604560304677E770B5E1
:10419000B1F90040B2F900309C4200DD23460380B3
:1041A000B1F90240B2F90250AC4200DC2C46448026
:1041B000B1F90450B2F90460B54200DB35468580A0
:1041C000B1F90610B2F90620914200DB1146C18018
:1041D0000120AB4201DC8C4200DD002070BDF8B54F
:1041E0000D460446B0F90000B1F9001016468842A9
:1041F00047DBB4F90210B5F90220914241DBB4F972
:104200000410B5F9042091423BDCB4F90610B5F96D
:104210000620914235DC96B3ADF800006088ADF819
:10422000020032466946284600F099F8002827D057
:10423000A088ADF800006088ADF8020032466946FB
:10424000284600F08CF800281AD02088ADF800002D
:10425000E088ADF8020032466946284600F07FF853
:1042600000280DD0A088ADF80000E088ADF802006D
:1042700032466946284600F072F8002800D0012036
:10428000F8BD0020F8BDB0F90020B1F904309A4221
:1042900013DCB0F90420B1F900309A420DDBB0F91B
:1042A0000220B1F906309A4207DCB0F90600B1F9F4
:1042B0000210884201DB0120704700207047F8B5EA
:1042C0000D460446B0F90400B1F9001016468842C4
:1042D00043DBB4F90600B5F9021088423DDBB4F9BE
:1042E0000000B5F90410884237DCB4F90210B5F9C2
:1042F0000620914231DC76B3ADF800006088ADF85D
:10430000020032466946284600F029F818BBA0880A
:10431000ADF800006088ADF80200324669462846D4
:1043200000F01DF8B8B92088ADF80000E088ADF8BD
:10433000020032466946284600F011F858B9A088B4
:10434000ADF80000E088ADF8020032466946284624
:1043500000F005F808B10020F8BD0120F8BD2DE9F6
:10436000FC4105460F46B1F90000B5F900101446AE
:1043700088423BDBB5F90410884237DCB7F902000C
:10438000B5F90210884231DBB5F9061088422DDC00
:10439000002C76DD28460DF01EFF00EBD070461095
:1043A00028460DF0CEFE00EBD0704010864200DAB9
:1043B0003046844200DD04462888ADF80000288895
:1043C00000222044ADF804006888ADF80200688837
:1043D00039462044ADF806006846FFF7C0FF40B1FB
:1043E000BDF804002044ADF804003FE00020BDE823
:1043F000FC81E8880022001BADF80200E888ADF8D7
:10440000060039466846FFF7AAFF28B1BDF8040048
:104410002044ADF8040011E0A8880022001BADF88C
:104420000000A888ADF8040039466846FFF797FFFA
:1044300050B1BDF80000001BADF80000BDF802004F
:10444000001BADF8020016E06888ADF8020068882D
:1044500000222044ADF8060039466846FFF77FFF8A
:1044600070B1BDF80000001BADF80000BDF80600FB
:104470002044ADF80600394668461AF05FFEB6E7FC
:10448000FFE70120B3E710B5B1F90030B2F9004001
:10449000A34200DB23460380B1F90230B2F90240A7
:1044A000A34200DB23464380B1F90430B2F9044053
:1044B000A34200DC23468380B1F90610B2F906203E
:1044C000914200DC1146C18010BD00002DE9F04191
:1044D0008AB004461DF0ECF80026A34D074600966E
:1044E0000CB1E06801E010F075F8686000691AF03E
:1044F00023FD6868406908B11AF01EFD6868C0694C
:104500001AF01AFD6868006A1AF016FD68680169F9
:1045100091B11AF0A9FE1FF045F91EF067FE686818
:10452000B0F85011E9B30068017CC9071FD0C0681A
:104530004068E0B1002415E0A0F850610AB0BDE881
:10454000F081011991F8301151B900F5AC7000F00B
:104550004EFB696801EBC4010A6B0260496B416064
:10456000641CA4B26868B0F85011A142E9D8686828
:104570004FF48071303016F0E4F96868202100F5BE
:10458000987016F0DEF96868A0F8506138461DF0A2
:1045900089F8009068680068436A13B12A68009936
:1045A000984716F015F800F029F900F0FDF86F4F64
:1045B0007C69D4BB15F0BEFD14F0DEFE044600227B
:1045C0007F211AF0D1FB0FF019FA01460022204694
:1045D0001AF0B9FB0FF065FC0146002220461AF0E4
:1045E00019FC0022032120461AF00AFC00220321B4
:1045F00020461AF0F6FB0022032120461AF0F6FBB3
:104600000022032120461AF0F6FB00220321204657
:104610001AF0FBFB56A1204615F00DFD00231A46AB
:104620000621204616F073FD7C6138681DF03AF8CB
:104630004FF4967840450CD2286841F28831884280
:1046400034D97968009808447860B868401CB8602C
:104650002CE01DF02DF838606868406828B10068CB
:104660004FF47A71B1FBF0F000E02120796809B9CC
:1046700001217960B968F1B14FF47A7251437A68D7
:10468000B1FBF2F57E60BE60854200D9054638690F
:1046900028443861F868401CF8601DF09FF8C0F1AC
:1046A00064032A4633A1204615F0FCFC2E4D083544
:1046B0006C6814B137E00546E4E715F03BFD14F0F3
:1046C0005BFE044600227F211AF04EFB0FF096F9A4
:1046D0000146002220461AF036FB0FF0E2FB0146AD
:1046E000002220461AF096FB0022032120461AF0F1
:1046F00087FB0022032120461AF073FB00220321CE
:1047000020461AF073FB0022032120461AF073FBA7
:1047100017A1204615F08FFC00231A4604212046DD
:1047200016F0F5FC6C6028681CF0BCFF40457FF675
:1047300005AF1CF0BDFF286002A815F0E1FF049949
:104740000298401A820A514200EB81206621B0FB98
:10475000F1F39DF821109DF82000CDE9000109A199
:10476000204615F09FFCE9E610010020300B0020E8
:104770003F0000002575204650530A257525252049
:104780004350550025752E2575206B4220757365A5
:104790006420282564202525290A256425252066EE
:1047A0007261672E0000000070B5094E0024C4EB52
:1047B000C40556F8250008B115F07EFF06EB85000C
:1047C0001C2116F0BEF8641CE4B2042CEFD370BDBB
:1047D000540C0020084949680AE04A68824202D025
:1047E0000A68824203D10A7E42F001020A764969D0
:1047F0000029F2D170470000E4000020704700005B
:104800000421014800F09CB96C0B002020210148D4
:1048100000F096B9840B00202DE9FF410446DDE944
:104820000A571E004FF0000002D1B5F5807F2BD053
:10483000039001900290ADF80C100090ADF80410B8
:10484000ADF80A20ADF80E203B462A4631466846B0
:104850001AF0D6FB3B462A46314601A81AF0D0FB97
:104860003B462A46314602A81AF0CAFB3B462A4676
:10487000314603A81AF0C4FBBDF90030BDF904208D
:10488000934209DA1D4608E02080491E6080A1801D
:10489000521EE280BDE8FF811546BDF90800BDF952
:1048A0000C10884201DA064600E00E46B54205DAF1
:1048B000934201DA184604E0104602E0884200DB29
:1048C0000846801E2080BDF90030BDF904008342F7
:1048D00001DD1D4600E00546BDF90820BDF90C10BC
:1048E0008A4201DD164600E00E46B54203DD8342F2
:1048F00006DD184604E08A4201DD104600E0084665
:10490000801CA080BDF90230BDF90620934201DA77
:104910001D4600E01546BDF90A10BDF90E008142A2
:1049200001DA0E4600E00646B54205DA934201DAA6
:10493000184604E0104602E0814200DA0846801E74
:104940006080BDF90230BDF90620934201DD1D46AD
:1049500000E01546BDF90A10BDF90E00814201DDE7
:104960000E4600E00646B54205DD934201DD1846DD
:1049700004E0104602E0814200DD0846801CE08031
:1049800088E700002DE9F04115460E460746114C18
:104990001CF08EFE80462B4632463946204613F0E8
:1049A000EBFF20B10020A062E06950B110E02C21A3
:1049B000204615F0C6FF4FF00040A0620020BDE881
:1049C000F08140461CF06EFEE06108B90120E06114
:1049D0002046F4E7A80B002010B51421074800F08A
:1049E000AFF813F08FFF40B1054901600549416000
:1049F000054981600549C16010BDFEE7900B0020AC
:104A0000E58201085986010825880108B18201085C
:104A10007FB50D46040003D10FF0DCFD04002CD05F
:104A20000FF04CFE002828D094F82800400724D42A
:104A3000002605B3ADF80060ADF8026020460FF027
:104A4000E1FD401EADF8040020460FF021FE401E9F
:104A5000ADF806006A46294602A8FFF798FB002831
:104A60000BD02068017C890708D5DDE90001C4E985
:104A70000C01012029E0A4F850617FBD82690AB1D0
:104A800002A9904700250AE004EBC501002202A814
:104A90003031FFF7A4FB0028EFD16D1CADB2B4F8A4
:104AA0005001A842F0D880B2202804D204EBC00004
:104AB00002A9303004E0A4F8506104F130006946E6
:104AC0000DF0D9FAB4F85001401CA4F85001606808
:104AD0000028D2D01CF030FF7FBD70B5054600F035
:104AE00012F804460CE02146284600F01EF806465F
:104AF0002146284600F0A2F8204615F0DDFD344698
:104B0000002CF0D170BD002800D04068704700B57F
:104B100003460022FFF7F7FF03E01846521C00F09F
:104B200004F80100F9D1104600BD0068091D405885
:104B30007047006840587047002800D08068704770
:104B400000224260C91C21F00301826001607047AD
:104B500070B504460068083015F022FD050013D03A
:104B60000146002220461DF038FF29462046626893
:104B70001DF02AFF616819B12A4620461DF02DFF5D
:104B80006560A06800B9A560284670BD2DE9F041B8
:104B90000D4606000AD04DB1FFF7B5FFA84208D177
:104BA0003046FFF7D5FF041E01D01EE00020BDE80F
:104BB000F0813068083015F0F3FC041EF7D030683F
:104BC00022464759304639461DF0FEFE3A462146F8
:104BD00030461DF002FF2246294630461DF0FDFEFC
:104BE0002A46214630461DF0EFFE2046DFE770B52D
:104BF00004460068083015F0D3FC050013D00146C8
:104C0000002220461DF0E0FE29462046A2681DF045
:104C1000E4FEA16819B12A4620461DF0D5FEA56024
:104C2000606800B96560284670BD28B1416809B95F
:104C3000806808B1002070470120704770B50400FB
:104C40000DD0FFF760FF00228842204608D1FFF711
:104C50006CFF606010B1002201461EE0A26070BDD2
:104C6000FFF76AFF8842206808440AD10168A16002
:104C700029B12046BDE8704000221DF0A5BE62604B
:104C800070BD05682046FFF750FF064602462946DC
:104C900020461DF099FE2A4631462046BDE8704068
:104CA0001DF09BBE10B50446006882680AB121461B
:104CB000904720680068002801D02060F5E710BD0B
:104CC0008068002801D0B0F916007047806800287D
:104CD00001D0807E8009704770B5154606460C46A7
:104CE00051EA05001AD0304616F090FBB068012357
:104CF0002A46018A21440182B068418A29444182BE
:104D00002146304618F000FF00220B21304612F0F9
:104D10001BFD012803D1304618F050FE012070BD64
:104D200077B581B00E46050017D0622218F07CF9E5
:104D3000040012D0206880B128463146632218F062
:104D400073F910F0FF0208D02368204603999847B2
:104D50000090BDF80000ADF80C00039804B070BDE1
:104D60002DE9F047054692B0408C1A9C40F00800AF
:104D7000688490462A8499468A462289284618F0F3
:104D800053F90646A5F8209022895146284618F086
:104D90004BF90746688CBE4220F00800688403D1B6
:104DA0003104B1EB074F68D0A5F820802289514625
:104DB000284618F039F906468046A5F82090514655
:104DC00028460BF0B7FA2189006832461BF0B8FB81
:104DD00020890B2823D147F6FF794E4501D04F4556
:104DE0001DD1284618F0E4FA00EBD0704610284692
:104DF00017F0C5F900EBD0704010C84506D1711C02
:104E0000431C994200DA00E0194688464F4506D116
:104E1000711C421C914201DA0F4600E01746194806
:104E2000FFF796FE06002BD03560C6E90387208980
:104E3000B0806846C6F808A00CF08CFB1248FF2131
:104E4000CDE90060114802901148039000200890BD
:104E5000CDE9090120880B9060889DF842104042FE
:104E60000C90E0680790002060F300018DF842107C
:104E70002069069068460CF0E5FB12B0BDE8F087AB
:104E8000FEE700009C0B0020216F02081171020850
:104E90006970020814210148FFF752BE9C0B0020E4
:104EA0002DE9F84F002490468946064625464FF0E6
:104EB000040AE3E0F1680AEBC500085882017AD4DD
:104EC00080B230EA090210D0002230EA08000ED089
:104ED000002082426FD051F835706A461021384662
:104EE0001BF092F8002871D103E00122EDE70120C8
:104EF000EFE76A46112138461BF086F8002865D195
:104F00006A46122138461BF07FF800285ED16A46B7
:104F1000132138461BF078F8002857D16A4615212E
:104F200038461BF071F8002850D16A4614213846E3
:104F30001BF06AF8F0BB6A460A2138461BF064F899
:104F4000C0BB6A466B2138461BF05EF890BB6A46D0
:104F50006C2138461BF058F860BB6A460121384680
:104F60001BF052F830BB6A46042138461BF04CF85F
:104F700000BB6A46022138461BF046F8D0B96A46A3
:104F8000032138461BF040F8A0B96A46052138468F
:104F90001BF03AF870B96A46062138461BF034F81F
:104FA00040B96A46322138461BF02EF810B96A46DD
:104FB0006E2101E00AE060E038461BF025F828B9D0
:104FC0006A466D2138461BF01FF810B10320BDE87A
:104FD000F88F6A46692138461BF016F8F0BB6A461E
:104FE0006A2138461BF010F8C0BB6A466E2138466D
:104FF0001BF00AF890BB6A466D2138461BF004F896
:1050000060BB6A46372138461AF0FEFF30BB6A465D
:10501000382138461AF0F8FF00BB6A463521384679
:105020001AF0F2FFD0B96A46402138461AF0ECFF78
:10503000A0B96A46452138461AF0E6FF70B96A46BB
:10504000412138461AF0E0FF40B96A46422138460D
:105050001AF0DAFF10B96A46432100E009E0384649
:105060001AF0D2FF28B96A46492138461AF0CCFF17
:1050700008B1022401E004B901246D1C708CC0F356
:105080000510A8423FF616AF2046A0E70148406849
:1050900070470000100100200548002141600161B7
:1050A000C1608160016041610248016041607047F8
:1050B000300B002018010020C0F30410072800D98D
:1050C00007207047A0F57F41FF3905D0002804D0A4
:1050D000712803D208490AE01F2070470749713838
:1050E00080B2096829B1064A5268904201D2085C30
:1050F0007047002070470000D0C702086C010020F4
:105100008001002010B518210348FFF719FD03495D
:105110000120087010BD0000480B0020880100200D
:105120002DE9F04190460D46040016D0FBF7FDF83E
:1051300029460B4D06462046AA6890470746AA68AE
:10514000E0194146904701463846721A03E0431879
:10515000E35C2354401C8242F9D2BDE8F081000098
:105160009C0100202DE9F041094C90460E466268F2
:105170001D46074619469047306020B1286862688E
:10518000384400219047C8F80000BDE8F0810000D5
:105190009C0100202DE9F04F87B08A46DDE91058C8
:1051A0001F4693460446002105B129805CB1207852
:1051B000002809D0BAF1000F05D0002618F0060F1C
:1051C00015D0002004E0002007B0BDE8F08F401C9F
:1051D000215C0A2904D00D2902D00029F7D100E072
:1051E000401C002DF0D04FF0FF312980ECE75FEA42
:1051F000887001D541F6FF77894608468DF8101072
:10520000059125E00598CDF8189058B3002104AB1E
:10521000CDE902310DF1180CCDE9008C20443B465C
:105220005A4651461CF0F8FC06997A1A314417B2D6
:105230000EB288B105990844059021780A290BD04F
:105240000D2909D0205C0A280ED00D280CD0059815
:10525000205C08B1002FD5DC059848B105B12E803F
:105260000598B1E70121D2E70598401C0590F3E7C6
:10527000064A05A92046526890470146002DEFD006
:105280000022504612F0DBFB06B2E8E79C0100204A
:105290002DE9F0411746884606001ED0002F1CD08D
:1052A000FBF743F804463846FBF73FF8050014D0F7
:1052B0000B4A2C444146926830469047411903E01E
:1052C000621BB25C3255641EA142F9D930442A46B1
:1052D0003946BDE8F04115F0F8BABDE8F0810000AC
:1052E0009C01002000230278232902D0012A0DD03E
:1052F0000FE02AB10021012A04D0022A04D008E0DC
:10530000012101E0017004E0017001E0202902D0D8
:105310000123184670470221F6E72DE9F0410B46BC
:105320000F4680460246002108461CF0BDFE054699
:105330000026401C15F034F9040008D066553B46A1
:105340004246691C1CF0B0FE2046BDE8F081FEE735
:105350002DE9F047984614460D468246DDF8209028
:1053600013E0660806FB0857394650464A46904700
:10537000002808DD44F30000C0EB540407EB0805E7
:10538000A4F1010401E005DA3446002CE9D12046FD
:10539000BDE8F0873846FBE72DE9FC5F0CAD9E4683
:1053A00092468B4695E81201DDE91132DDE90F7C6A
:1053B00096074FF0300519D453B1D60708D002F044
:1053C0000C0656EA080603D05B1E01E00D55641C6E
:1053D000644504D2202CF9D301E00D55641C5FEA2A
:1053E000C27903D09C4201D2202CF6D3D60624D514
:1053F00056050AD44CB1644501D09C4205D1641EC7
:1054000003D0102F03D1641E04E0102F02D0022F0E
:105410000AD00EE0960603D4202C1ED2782606E091
:10542000202C1AD2582602E0202C16D262260E55C5
:10543000641C202C11D20D55641C202C0DD2B8F107
:10544000000F01D02D2506E0550701D52B2502E0E0
:10545000150702D520250D55641CCDE900EB064645
:1054600055468B4698469146900713D1274606E04D
:105470002A46DDE900316D1C2020B0477F1C4745DE
:10548000F6D307E02A466D1C641EDDE900311BF8E7
:105490000400B047002CF5D15FEA897006D409E01A
:1054A0002A46DDE900316D1C2020B047A5EB0A013A
:1054B0004145F5D32846BDE8FC9F2DE9F04F8FB05C
:1054C00099468B46DDE91818DDE91C63DDE91A47CA
:1054D00086469246002009B923F010035A0507AD0D
:1054E00000D5C9B1B1FBF4F204FB1212D2B20A2A00
:1054F00001D2303209E05FEA836C02D54FF0410CF3
:1055000001E04FF0610C62440A3AB1FBF4F12A5415
:10551000401C09B12028E5D3CDF80880CDE905630A
:10552000CDE90050CDE903474B46524659467046F7
:10553000FFF732FF0FB0BDE8F08F2DE9FF4F8FB0BE
:105540001CACDDE9239594E8030820AC94E8C00482
:10555000002450EA010201D125F010056A050DF181
:105560001C0802D550EA010217D032463B46FAF732
:1055700087FED2B20A2A01D2303206E0AB0601D54C
:10558000412300E061231A440A3A08F80420641C0D
:1055900050EA010201D0202CE7D3CDE90084CDF8F8
:1055A00008B0CDE90595CDE9036A0FAF97E80F0084
:1055B000FFF7F2FE13B0BDE8F08F9A4200D2885494
:1055C000704770472DE9FF4F95B09B4689460646C8
:1055D00000250FE2252877D100242746F84A01212B
:1055E000059400E0044316F8013F203B01FA03F064
:1055F0001042F7D130782A2811D06FF02F0330787D
:10560000A0F13002092A16D8059A44F0020402EBF0
:10561000820203EB42021044761C0590EFE759F832
:10562000042B0592002A03DA504244F400540590FA
:1056300044F00204761C30782E2816D116F8010F9B
:1056400044F004042A280DD06FF02F023078A0F126
:105650003003092B09D807EB870302EB4303C71874
:10566000761CF3E759F8047B761C30786C280FD051
:1056700006DC4C2817D068280DD06A2814D104E025
:10568000742810D07A280FD10DE044F400140AE0F9
:1056900044F4801401E044F440147278824202D150
:1056A00004F58014761C761C307866280BD013DC49
:1056B000582877D009DC002875D04528F6D0462830
:1056C000F4D047281AD19DE118E0632835D064282A
:1056D00079D0652812D195E1702873D008DC67284D
:1056E000F1D069286FD06E280DD06F2806D1B5E0B3
:1056F00073282CD0752875D0782874D05A461799FD
:1057000090476D1C75E1C4F30250022809D00328AC
:105710000DD0D9F8001004280DD00D6009F104094E
:1057200067E1D9F80010EA17C1E90052F6E7D9F8A5
:1057300000100D80F2E70D70F0E719F8041B8DF8EA
:10574000001000208DF80100EA46012003E059F81E
:1057500004AB4FF0FF3061074FF0000102D40DE0C1
:1057600008F101018846B9420FDA8045F8DB1AF8E2
:1057700008100029F4D108E008F1010188468142AF
:10578000FADB1AF808100029F6D105985B46A0EB61
:10579000080721463846179A00F094FA284400EB8F
:1057A000080507E04DE029E10DE01AF8010B5A4623
:1057B00017999047B8F10108F7D25B462146384661
:1057C000179A13E142E00A220092C4F302524FF00A
:1057D000000A022A08D059F804CB032A4FEAEC71D8
:1057E0000AD00DE029E02AE009F1070121F00702C3
:1057F000F2E802C1914609E00FFA8CFC4FEAEC7125
:10580000042A03D14FFA8CFC4FEAEC71002907DA25
:105810000A460021DCF1000C61EB02012D2202E0BE
:10582000220504D52B228DF80420012203E0E20793
:1058300001D02022F7E7904659E00A2102E0102229
:105840000DE010214FF0000A00910BE010224FF004
:10585000000A44F004040827009203E008224FF0F5
:10586000000A0092C4F30252022A05D059F804CB70
:105870000021032A08D009E009F1070121F00702FD
:10588000F2E802C1914605E01FFA8CFC042A01D11E
:105890000CF0FF0C4FF00008220728D5702806D026
:1058A000009B83F0100353EA0A0305D00EE0402268
:1058B0008DF80420012208E05CEA010206D03022C3
:1058C0008DF804208DF8050002229046009B83F09D
:1058D000080353EA0A030AD15CEA010201D1620714
:1058E00005D530228DF804204FF001087F1E58287E
:1058F00004D034A003900EA802900DE036A0F9E782
:1059000053466046009AFAF7BBFC84460398825CD3
:105910000298401E029002705CEA0100F0D10298E9
:1059200006A9081A00F1200A600702D524F4803481
:1059300000E00127574502DDA7EB0A0000E0002048
:1059400000EB0A01009005984144401A0590E003DD
:1059500006D45B462146179A059800F0B3F9054432
:10596000002706E001A85A46C05D179990476D1CB4
:105970007F1C4745F6DBE0030CD55B462146179AB2
:10598000059800F09FF9054404E030205A46179925
:1059900090476D1C0099481E00900029F5DC08E036
:1059A000029802995A460078491C0291179990472B
:1059B0006D1CBAF10001AAF1010AF1DC65E10000F9
:1059C00009280100303132333435363738396162D5
:1059D0006364656600000000303132333435363799
:1059E00038394142434445460000000000F058F970
:1059F0000544761C307800287FF4ECAD19B02846B9
:105A0000BDE8F08F620700D4062709F1070222F0F3
:105A1000070CFCE80223E14603F000485FEA080CAB
:105A200002D00FF2702C0DE05FEA045C02D50FF299
:105A3000682C07E05FEAC47C02D00FF2602C01E022
:105A4000AFF2700C4FF0FF3823F00043CDF850C098
:105A500065280CD006DC452809D046281DD04728EB
:105A60003DD13DE0662818D067287ED138E000217E
:105A7000112F01DB112000E0781CCDE9000106A9FF
:105A80000EA8FEF709FADDE90F010E9A0391002135
:105A9000009207F1010A04914DE04FF00040009799
:105AA000CDE9011006A90EA8FEF7F6F9DDE90F020F
:105AB00003920E9B11990022DDF80CA00093049232
:105AC00011B9791C00EB010AB7EB0A0004D4C0F14C
:105AD000FF3007F1010A0490AAEB0700019044E0AF
