:020000040800F2
:10000000F07401205D020008455900089340000883
:1000100041560008990D00083D6E000800000000E0
:100020000000000000000000000000009D0100082A
:10003000E513000800000000F9010008D363000880
:10004000770200087702000877020008795F00084D
:10005000770200087702000877020008770200089C
:10006000770200087702000877020008770200088C
:100070006D12000879120008770200088512000846
:10008000770200087702000877020008770200086C
:10009000770200087702000877020008551400086C
:1000A000770200087702000877020008770200084C
:1000B0007702000877020008A564000877020008AC
:1000C000770200087702000877020008770200082C
:1000D00011600008716C0008770200087D6C000850
:1000E0003D140008D55D000877020008770200087B
:1000F00077020008770200087702000877020008FC
:1001000077020008770200087702000877020008EB
:1001100029680008770200087702000877020008C3
:1001200077020008770200087702000877020008CB
:1001300077020008770200087702000877020008BB
:1001400077020008770200087702000877020008AB
:100150007702000877020008911200087702000871
:10016000770200087702000877020008770200088B
:1001700077020008770200087702000800000000FC
:100180007702000877020008DFF80CD000F0E2FBED
:1001900000480047397F0208F07401202C4B196891
:1001A0000868B0E8F04F80F30988BFF36F8F4FF015
:1001B000000080F3118870470000000008480068C4
:1001C000006880F308884FF0000080F3148862B65E
:1001D00061B6BFF34F8FBFF36F8F00DF00BF00BF6B
:1001E00008ED00E0DFF80C00016841F470010160E7
:1001F000704700BF88ED00E0EFF30980BFF36F8F19
:10020000134B1A681EF0100F08BF20ED108A20E96A
:10021000F04F106009B44FF0500080F31188BFF325
:100220004F8FBFF36F8F32F0FDFD4FF0000080F372
:10023000118809BC19680868B0E8F04F1EF0100F6B
:1002400008BFB0EC108A80F30988BFF36F8F704746
:100250003C040020EFF3058070470000064880470B
:1002600006480047FEE7FEE7FEE7FEE7FEE7FEE79B
:10027000FEE7FEE7FEE7FEE7896400088901000863
:100280002DE9F05F0546002092469B4688460646CB
:10029000814640241BE0284641464746224600F05E
:1002A0008AFA53465A46C01A914110D3114618464D
:1002B000224600F071FA2D1A67EB01084F462246DC
:1002C0000120002100F068FA17EB00094E41201EC2
:1002D000A4F10104DFDC484631462A464346BDE826
:1002E000F09F40EA01039B0703D009E008C9121FF1
:1002F00008C0042AFAD203E011F8013B00F8013BE0
:10030000521EF9D27047D2B201E000F8012B491E0B
:10031000FBD270470022F6E710B513460A460446A2
:100320001946FFF7F0FF204610BD10B5044604E063
:100330000B7800F8013B03B1491C521EF8D220464D
:1003400010BD421C10F8011B0029FBD1801A704718
:1003500010B5002200E0521C835C8C5CA34201D1EA
:10036000002BF8D1D8B2E1B2401A10BD30B5044626
:100370000020034600E05B1C934203D2E05CCD5CAE
:10038000401BF8D030BD034611F8012B00F8012BBB
:10039000002AF9D11846704770B5064606F04AFEA5
:1003A000046805460A220021304600F026FA2C6037
:1003B00070BD2DE9FE4F804681EA0300C00F0C4658
:1003C000009021F0004123F00045B8EB0200A94164
:1003D00005D24046214690461C460B46024623F075
:1003E0000040104347D0270DC7F30A00C3F30A515A
:1003F0000290401A019040286BDAC3F3130040F4D6
:10040000801B0098924620B10023D2EB030A63EBD5
:100410000B0B01985946C0F14002504600F0BCF960
:1004200006460D4650465946019A00F0D4F910EBA5
:1004300008006141002487EA115284EAE7731A43F5
:1004400040D0009A62B3019A012A4FEA075215DCA4
:10045000001B61EB02014FF0004202EA0752CDE9B6
:100460000042001C41F5801132462B4600F00CFA88
:1004700003B0BDE8F08F40462146F9E7001B61EB71
:100480000201001C41F5801300185B412018A2F501
:10049000001747EB030140EAD570B6196D4111E032
:1004A0006D084FEA360645EAC0754FEA0752001B51
:1004B00061EB0201001C41F5801149084FEA300050
:1004C0000019514132462B4603B0BDE8F04F00F011
:1004D000CCB90098012240000023D0EB020263EB6C
:1004E000E073009821464FEAE074B8EB000061EB3E
:1004F0000401E9E783F000435BE781F0004158E73E
:100500002DE9FE4F81EA030404F0004421F000418C
:1005100000944FF0000B23F0004350EA01045ED03A
:1005200052EA03045BD0C3F30A54C1F30A552C44C6
:10053000A4F2F3340194A0FB0254C1F3130141F47B
:100540008011C3F3130343F4801301FB024400FB47
:10055000034E840A970A44EA815447EA8357A4FB6E
:10056000076802958D0A05FB07854FEA932C04FB6B
:100570000C542705029D4FEA065847EA1637B5EB9B
:1005800008056EEB070C870E920E47EA811742EAC8
:100590008312A7FB0201B6EB0B0164EB00042B0DE9
:1005A00043EA0C335E1844EB1C50DA465146E7FB35
:1005B0000201C5F313044FEA0B3343EA14534FEA25
:1005C0000432019C43EA0603A4F10C040294009C4B
:1005D000CDE900B400F058F903B0BDE8F08F002079
:1005E0000146F9E72DE9F04D81EA030404F0004BE0
:1005F00021F0004514464FF0000A23F0004150EA74
:10060000050220D054EA01021DD0C5F30A57024664
:10061000C5F31303C1F31300C1F30A5640F4801568
:1006200043F48013A7EB0608101BD64608F2FD38EA
:1006300073EB050002D308F1010801E092185B4159
:10064000B8F1000F03DA00200146BDE8F08D00206C
:100650004FF48011064684460EE0171B73EB050726
:1006600005D3121B63EB050306434CEA010C490852
:100670004FEA300092185B4150EA0107EDD152EA8F
:10068000030012D082EA040083EA0501084305D082
:10069000101BAB4106D20122002306E000224FF0DE
:1006A000004302E06FF0010253101AEB06004CEB1E
:1006B000085110EB0A0041EB0B01BDE8F04D00F0D2
:1006C000D4B80EB5C10F80EAE0700844CA07002113
:1006D00040F233438DE80E000A460B4600F0D4F892
:1006E00003B000BD00F0004230F000400AD0C10D60
:1006F00001F56071C0F3160042EA0151C2084007DB
:1007000011437047002001467047000030B5041EB9
:1007100071F1000404DB4FF00044404264EB01013E
:10072000141E73F1000405DB1C464FF000435242D7
:1007300063EB04038B4208BF824230BD30B5041E18
:1007400071F1000404DB4FF00044404264EB01010E
:10075000141E73F1000405DB1C464FF000435242A7
:1007600063EB0403994208BF904230BD30B50B469D
:10077000014600202022012409E021FA02F59D42D1
:1007800005D303FA02F5491B04FA02F52844151EA5
:10079000A2F10102F1DC30BD202A04DB203A00FA8C
:1007A00002F1002070479140C2F1200320FA03F3C8
:1007B000194390407047202A04DB203A21FA02F0C6
:1007C0000021704721FA02F3D040C2F1200291408B
:1007D000084319467047202A06DBCB17203A41FA16
:1007E00002F043EAE07306E041FA02F3D040C2F1BE
:1007F000200291400843194670472DE9F047914681
:100800000F4680460446002614F8015B2DB100F027
:10081000B3F80068405DC007F6D12B2D02D02D2D16
:1008200018D0641E4A463946204600F0A9F827B180
:100830003968A14201D1C7F8008071054FF0020468
:100840000BD54042002803DD06F0F4FB0460A0074E
:10085000BDE8F08746F48066E4E70028F8DA06F0A1
:10086000E9FB04606FF00040F2E710B5141E73F16D
:10087000000408DA401C41F1000192185B411A4360
:1008800001D120F0010010BD2DE9F04D92469B46AC
:1008900011B1B1FA81F202E0B0FA80F22032904652
:1008A000FFF77AFF04460F4640EA0A0041EA0B01CF
:1008B00053465A46084313D0114653EA010019D053
:1008C000C8F140025046FFF776FF05460E465046F7
:1008D00059464246FFF760FF084305D0012004E077
:1008E00020463946BDE8F08D0020054346EAE07613
:1008F0002C4337430A986305E40AA0EB0800002262
:10090000FD0A44EA47540A3002D500200146E9E7CF
:10091000010510196941DDE9084500196941BDE883
:10092000F04DA2E7C1F30A52C1F3130140F2FF33C5
:1009300041F480119A4202DA00200146704740F2E9
:1009400033439A42A2F2334202DC5242FFF733BFF2
:10095000FFF722BF064C074D06E0E06840F00103B8
:1009600094E8070098471034AC42F6D3FFF710FC28
:10097000ECAA0F080CAB0F080048704714A40F082E
:100980002DE9F05F82460078002715468B460AF174
:100990000104B946302801D09DB113E014F8010BD1
:1009A0000127782803D0582801D045B10AE00DB1BD
:1009B000102D07D10027102514F8010B02E008259F
:1009C00000E00A250026B0460EE005FB080005FB06
:1009D00006F1012701EB10461FFA80F8B6F5803FBB
:1009E00000D3B94614F8010B294600F018F8002886
:1009F000EBDABBF1000F05D00FB1641E00E05446E6
:100A0000CBF80040B9F1000F06D006F013FB02212D
:100A10000160C81EBDE8F09F48EA0640FAE73A28A0
:100A200000D2303820F02002412A01D3A2F1370051
:100A3000884201D34FF0FF30704770B58C1810F822
:100A4000015B15F0070301D110F8013B2A1106D113
:100A500010F8012B03E010F8016B01F8016B5B1E2D
:100A6000F9D12B0705D40023521E0DD401F8013B08
:100A7000FAE710F8013BCB1A921C03E013F8015B74
:100A800001F8015B521EF9D5A142D8D3002070BDF8
:100A9000464910B54A6822F440324A604A684368C1
:100AA0001A434A6001684A6822F480724A60016809
:100AB0004A68036942EA03224A6001684A6822F0F0
:100AC00040724A6001684A6883681A434A60016854
:100AD0008A6822F400628A6001688A68C3681A43DF
:100AE0008A60816A6FF07062D14201688A6822F080
:100AF00070628A6001688A680CD0836A1A438A60CF
:100B000001688A6822F040528A6001688A68C36A74
:100B10001A4301E022F040528A6001688A6822F09C
:100B200002028A6001688A68037E42EA43028A60A0
:100B300090F82010002901684A680FD042F4006242
:100B40004A6001684A6822F460424A6001684A6863
:100B5000174C436A04EB43331A4301E022F400626A
:100B60004A600168CA6A22F47002CA620168CA6AED
:100B7000838B104C04EB03531A43CA6201688A68E2
:100B800022F400728A6001688A6890F8303042EA84
:100B900043228A6001688A6822F480628A60016860
:100BA0008A68406942EA8020886010BD00230140C5
:100BB00000E0FFFF0000F0FF08B50A2000F013FC82
:100BC00002226946002000F03FF89DF800005528F9
:100BD00003D19DF80100AA2821D055208DF80000EE
:100BE000AA208DF801000A2000F0FDFB02226946D0
:100BF000002000F065F8002000900A2000F0F3FBD0
:100C000002226946002000F01FF89DF800005528D8
:100C100003D19DF80100AA2801D0012008BD0020C1
:100C200008BD0000064882B0016841F00201016081
:100C3000006800F002000090024802B003F05ABBC6
:100C4000303802407C03002070B515460E4604463D
:100C500006E02046641CA4B200F006F806F8010B7A
:100C60006D1EADB2F5D270BD10B50446134803F049
:100C7000E0FB200AA02101EB4000C1B20F4803F0C5
:100C800095FB0E4803F013FCE1B20C4803F08EFB19
:100C90000A4803F00CFC094803F0CBFBA1210748EC
:100CA00003F084FB054803F002FC044803F03CFB1E
:100CB0000446024803F0DCFB204610BD7C03002004
:100CC00070B514460D46064606E02978304600F019
:100CD00007F8761CB6B26D1C641EA4B2F5D270BDC6
:100CE00070B504460D46124803F0A3FB200AA0216C
:100CF00001EB4000C1B20E4803F058FB0C4803F072
:100D0000D6FBE1B20A4803F051FB094803F0CFFBE0
:100D10002946074803F04AFB054803F0C8FB04488E
:100D200003F0A6FBBDE870400A2000F05CBB0000A9
:100D30007C030020012805D000224FF48051024896
:100D400001F0A9B90122F8E7001402400548006843
:100D5000C16841F01001C16080220349014802F0DE
:100D600086BE00004C090020300C00208021014884
:100D7000FFF7D0BA300C00200249002081F844006F
:100D800070470000580000200249012081F844000B
:100D90007047000058000020FEE7814201D3081A86
:100DA00002E0C0F107000844C0B2704710B50C461D
:100DB00003464979601E085C2B2806D02D280ED0EA
:100DC0002A2816D02F281ED026E0187D03EB80009D
:100DD00010ED020A50ED010A70EE200A1CE0187DA9
:100DE00003EB800010ED020A50ED010A70EE600A7C
:100DF00012E0187D03EB800010ED020A50ED010AAD
:100E000060EE200A08E0187D03EB800010ED020A76
:100E100010ED011AC0EE010A184604F0A1FD1846B3
:100E200004F09EFDB0EE600A184604F0A9FD2046CD
:100E3000BDE8104005F0A2BA2DE9F0470E46814604
:100E400004297CDC002E7AD00025DFF81082FFE038
:100E5000484620F069F905EB850208EBC204E6215B
:100E6000A06123F045FD3C21A06923F073FA002125
:100E7000A06923F053FD05EB8510463801B2A06947
:100E800023F062FD0921A06923F021FA1021A06955
:100E900020F0BCF8724818F0C1F801460022A069A1
:100EA00023F033FC0022FF21A06923F06BFC002219
:100EB0000221A06923F041FC002018F0AFF80146A0
:100EC0000022A06923F063FC0022FF21A06923F027
:100ED0006AFCA06920F028F91E21606223F008FD59
:100EE0001E21606A23F036FA6FF05701606A23F022
:100EF00015FD4FF0FF373946606A23F025FD0921C3
:100F0000606A23F0E4F91021606A20F07FF8002283
:100F10005449606A23F02CFC01225349606A23F093
:100F200027FCA06925F0E2FA3221E06123F0E0FC21
:100F30001921E06923F00EFA4621E06900E08AE019
:100F400023F0ECFC3946E06923F0FEFC0921E0695E
:100F500023F0BDF9454818F061F801464FF4003719
:100F60003A46E06923F0D1FB3A46FF21E06923F0DD
:100F700009FC3F4818F052F801467F1C3A46E069E8
:100F800023F0C3FB3A46FF21E06923F0FBFB01217C
:100F9000E06921F0B9FE50B9607840B10121E06903
:100FA0001FF08EFC0121606A1FF08AFC07E001211E
:100FB000E06920F065F80121606A20F061F8A0691D
:100FC0001DF01EFE42F2D1773946206223F090FCDC
:100FD0003946206A23F0BEF96FF00E01206A23F033
:100FE0009DFC0021206A23F0AFFC0921206A23F038
:100FF0006EF904F10C01206A1EF054FC0221206AF3
:101000001FF01AFC6FF07F4018F008F8014600222C
:10101000206A23F048FC0022FF21206A23F054FCC0
:1010200000221449206A23F04AFC2B460022124970
:10103000606A1FF0B5FB2B4600221049206A1FF0A2
:10104000AFFB2B4600220E49E0691FF0A9FB6D1C87
:10105000B542FFF6FDAEBDE8F0870000700B002042
:101060009C8D8B00E4E90C084CDF0C0853675000A2
:101070004F604D00CC140E08591D0308891E03084B
:10108000BD1E030810B51C2026F08EFF10B10021F4
:10109000816110BD02A005F079FF00F0E3F910BDF9
:1010A0004D656D6F727920416C6C6F636174696F0F
:1010B0006E204661696C65640A00000010B500F09E
:1010C00091F800F0A7F8C0B210BD000000B585B0DF
:1010D00014216846FFF71EF90820009000200190B7
:1010E0000290022003906946024800F0DFFE05B03E
:1010F00000BD0000000C024000B585B01421684618
:10110000FFF708F9082000900120019002900220CA
:1011100003906946024800F0C9FE05B000BD00001A
:10112000000C024070B5002004464006050E00F099
:1011300007F8641C2843E4B2082CF6D370BD000005
:1011400070B50024134D04E0641CE4B2012000F0EB
:1011500057F90821284600F091FF08B1642CF3D319
:10116000002404E0641CE4B2012000F049F90821E5
:10117000284600F083FF08B9642CF3D3282000F040
:101180003FF90821284600F079FF002800D001200F
:1011900070BD0000000C0240F0B585B00E46074659
:1011A00000F020F800F036F810B1012005B0F0BDD5
:1011B00000246D46FFF7B6FF45F82400641CE4B236
:1011C000052CF7D3DDE900010844DDE902121144E2
:1011D00008440499884203D100983060029838602E
:1011E0000020E3E710B5FFF787FF094C0022082134
:1011F000204600F050FF142000F0F5F801220821ED
:10120000204600F048FFBDE810401E2000F0F8B86E
:10121000000C024070B50024FFF758FF124D04E0A7
:10122000641CE4B2012000F0EBF80821284600F02D
:1012300025FF10B1642CF3D30FE0642C0DD20024F1
:1012400004E0641CE4B2012000F0DAF8082128462A
:1012500000F014FF18B1642C04D3012070BD642C7D
:10126000EFD3FAE7002070BD000C0240014800F007
:101270002FBC0000540A0020014800F029BC0000E7
:1012800094090020014800F023BC0000F40900206C
:10129000014800F01DBC00004C0700200168182325
:1012A000CAB2103AB2FBF3F2054B6FF30901032AFD
:1012B0009B5CC36500D9091D816508467047000025
:1012C000781C0D0810B5014600208B698A6A4FF022
:1012D000C07453B1B3F5005F15D072B1012A0CD0C0
:1012E000022A0AD0032A09D104E01AB1012A06D041
:1012F000022A03D1C96AC90100D5012010BDC96AFB
:10130000A142FAD010BD002AF7D0012AF2D0022A59
:10131000F3D0032AF3D010BD30B50468256825F456
:1013200080252560046863608368402B036803D0D0
:1013300099600068C26030BD9A600068C16030BDCD
:101340000EB5254E254C00258DF8085001230022AE
:1013500002A9306828F03EF868BB207E8DF80000B6
:1013600094F844008DF8010002221021684604F030
:1013700098FF002201A91A4801F034FC0322202121
:10138000684604F07BFF9DF800009DF80610884237
:1013900015D0A07D10B92169002088479DF806006E
:1013A0008DF800008DF802508DF8015003222021A5
:1013B000684604F076FF642027F0D0FFC4E7E068B9
:1013C00080479DF806108DF800108DF80200000A85
:1013D0008DF80100EAE700003C00002058000020E2
:1013E000FC070020704770B5054600244FF47A765C
:1013F00003E0304600F004F8641CAC42F9D370BD41
:1014000030B50C4A00211468E36A4FF47A725843ED
:10141000B0FBF2F5626A606A9042FCD002D9A0EBA0
:10142000020202E0A3EB0202024411440246A94276
:10143000F1D330BDB40A00207047704710B54FF4A7
:10144000805000F027FDBDE810404FF4005000F040
:1014500021BD0000024901200870202000F01ABDC3
:101460000C00002072B6FEE730B5B3F5804F05D012
:101470006FF0704140F82210002030BD8C690B687D
:101480008D6823434C688989240144EA0524234359
:1014900043EA014150F82230014C23401943E9E767
:1014A0000000F0CF10B50A6850F8223023F0010395
:1014B00040F822308B68082B23D000224C681C4354
:1014C000CB6813430A691C4314434A698B6914436C
:1014D000CA6914430A6A14434A6A14438A6A144361
:1014E000CA6A14430A6B1443CA6B234309681A433C
:1014F000054C50F82130A343134340F8213000201D
:1015000010BD4022DAE700007FFF0F0030B5D1E9BF
:10151000003443EA04138C688D89240244EA0544AC
:1015200023430C8A094D00EB820005EB045423434E
:101530000C7D6D0105EB0464896923430B4341680D
:1015400001F040410B434360002030BD0000F0FF3C
:101550002DE9F84F89461E46904682460024714286
:1015600003220A9802EB4105C8B930E0274608E09B
:101570003B46224649465046CDF8008005F063FEC2
:101580007F1CB742F4DD002D03DA05EB8405AD1DA9
:1015900004E0A01B05EB80050A35761E641CB442EE
:1015A000E4DDBDE8F88F3346224649465046CDF883
:1015B000008005F048FE002D03DA05EB8405AD1D23
:1015C00004E0A01B05EB80050A35761E641CB442BE
:1015D000E9DDE6E710B5144603F06EF92046BDE8F4
:1015E000104003F095BA000010B5044617A1FEF7AD
:1015F000AFFEE8B116A12046FEF7AAFED0B115A1B4
:101600002046FEF7A5FEB8B113A12046FEF7A0FEC6
:10161000A0B112A12046FEF79BFE88B110A1204682
:10162000FEF796FE70B10FA12046FEF791FE58B16D
:10163000012010BD022010BD032010BD042010BDEC
:10164000052010BD062010BD072010BD4D6F6E0097
:1016500054756500576564005468750046726900EA
:101660005361740053756E0078B50024009490F8AF
:101670003C20012A19D0012280F83C200A68072565
:101680000368092A13D9DE680A3A02EB4202954040
:10169000AE43DE600A788B680A3A02EB420293405E
:1016A0000268D5682B43D36010E0022078BD1E6924
:1016B00002EB42029540AE431E610A788B6802EB52
:1016C00042029340026815692B4313614A681F2543
:1016D000072A13D203685E6B521E02EB820295400A
:1016E000AE435E630A8893B20A79521E02EB82020D
:1016F00093400268556B2B43536327E003680D2A20
:1017000012D21E6BD21F02EB82029540AE431E63C3
:101710000A8893B20A79D21F02EB820293400268D0
:10172000156B2B43136311E0DE6A0D3A02EB820264
:101730009540AE43DE620A8893B20A790D3A02EB15
:10174000820293400268D56A2B43D362164B056828
:10175000144A9D4206D10D68122D03D1556845F4F7
:101760008005556005689D4218D10B68102B01D08B
:10177000112B13D1536843F40003536009681029F7
:101780000CD10A490A4A0968B1FBF2F101EB810167
:10179000490000E0491E00910029FBD180F83C403F
:1017A000002078BD00230140002001407803002084
:1017B00040420F000068C06C704770B504004FF0E5
:1017C000000603D0206C002510B107E0012070BD99
:1017D000204600F01DF8656484F83C50206CC0067B
:1017E00010D4206C20F4885040F002002064204681
:1017F000FFF74EF96564206C20F0020040F0010014
:10180000206400E0012684F83C50304670BD0000A2
:1018100010B586B0044614216846FEF77BFD1149D9
:10182000206888421CD110480021026842F480726E
:101830000260006800F4807005900B48143802685C
:1018400042F001020260006800F0010005901020E3
:1018500000900320CDE901016946044800F026FB11
:1018600006B010BD00200140443802400000024094
:101870002DE9F041044600680D4681684FF00007ED
:1018800049050BD58068C00508D5206C40F02000C4
:10189000206484F83C700120BDE8F08100F000FC79
:1018A000064613E0681C11D025B100F0F9FB801B3F
:1018B000A8420BD920680068800707D4206C40F04C
:1018C0000400206484F83C700320E5E72068006889
:1018D0008007E7D521686FF012000860206C40F4A3
:1018E000007020642068816811F0405F13D1217E70
:1018F00089B9C16A11F4700F02D0806840050AD41A
:10190000206C20F480702064206CC00403D4206C10
:1019100040F0010020640020BEE7000018B500225E
:10192000009290F83C10012907D0012180F83C106A
:1019300001688B68DB0702D011E0022018BD8B68BC
:1019400043F001038B602E492E4B0968B1FBF3F184
:1019500001EB410100E0491E00910029FBD1016823
:101960008B68DB0742D0036C40F20164A34343F46D
:10197000807303644B685B0505D5036C23F4005347
:1019800043F480530364036CDB0404D5436C23F0FD
:101990000603436400E0426480F83C201A4A6FF07A
:1019A00022030B6051680068CA06184906D08842B5
:1019B00024D1816811F0405F13D01FE08842F8D035
:1019C000134A904203D1D1F80423D206F1D0114A30
:1019D000904213D1D1F8041301F01F011029E8D36C
:1019E0000CE0816841F08041816007E0016C41F0CA
:1019F00010010164416C41F001014164002018BDF7
:101A00007803002040420F000023014000200140E5
:101A100000210140002201402DE9F0410446876D7C
:101A200000F03EFB054694F835000026022806D05B
:101A30008020606584F834600120BDE8F081206872
:101A4000016821F0160101602068416921F08001E0
:101A50004161206C08B9A06C20B12068016821F0B8
:101A6000080101602068016821F0010101600CE0BB
:101A700000F016FB401B052807D9202060650320D5
:101A800084F8350084F83460D7E720680068C00720
:101A9000EED194F85C103F208840B860012084F8B3
:101AA000350084F834600020C7E790F8351002292B
:101AB00003D08021416501207047052180F8351051
:101AC0000068016821F001010160002070470000FA
:101AD0002DE9F84304464FF00009CDF80090634823
:101AE0004FF41651A56D0068B0FBF1F72E6894F81D
:101AF0005C20082101FA02F030420FD02068026811
:101B000052070BD5026822F00402026094F85C00D0
:101B10008140A960606D40F00100606594F85C1040
:101B20004FF0010808FA01F0304208D021684969F5
:101B3000090604D5A860606D40F00200606594F865
:101B40005C1004208840304208D021680968890769
:101B500004D5A860606D40F00400606594F85C10E6
:101B600010208840304218D021680968090714D530
:101B7000A86020680168490304D50068000308D5FF
:101B8000A16C07E00168C90503D4016821F00801D0
:101B90000160216C09B12046884794F85C10202030
:101BA0008840304231D021680968C9062DD5A86027
:101BB00094F8350005282068016806D0490347D508
:101BC000006800031DD4616C1CE021F01601016067
:101BD0002068416921F080014161206C08B9A06C46
:101BE00020B12068016821F00801016094F85C10C0
:101BF0003F208840A86084F8358084F83490216DB7
:101C00001FE0E16B09B120468847606D00282BD0AA
:101C1000606DC00714D0052084F835002068016885
:101C200021F0010101600098401C0090B84203D8E7
:101C300020680068C007F6D184F8358084F83490B5
:101C4000E16C002910D001B02046BDE8F043084700
:101C50000168C905D5D4016821F01001016084F83C
:101C6000358084F83490CCE7BDE8F8837803002011
:101C70002DE9F041044600F013FA05465CB102205C
:101C800084F83500002684F834602068016821F06B
:101C9000010101600DE00120BDE8F08100F000FAD3
:101CA000401B052805D920206065032084F83500F5
:101CB000F2E720680068C007F0D121680A68204870
:101CC0000240D4E901031843D4E903352B431843F8
:101CD00063691843A3691843E3691843236A1843E7
:101CE0001043626A042A03D1D4E90B231A43104338
:101CF000086020684069656A20F0070128460D43A6
:101D0000012704280CD1A06A0543E06A40B12046AF
:101D1000FFF7D8FA20B14020606584F83570BAE743
:101D2000206845612046FFF7B9FA94F85C203F210E
:101D300091408160666584F835700020ACE7000052
:101D40003F8010F010B590F834400023012C07D0EC
:101D5000012480F8344090F83540012C02D014E082
:101D6000022010BD062910D2DFE801F003050709A3
:101D70000B0DC2630AE0026408E0426406E082647C
:101D800004E0C26402E0026500E00123002180F863
:101D90003410184610BD2DE9F0410446866D90F8C8
:101DA0003400002501280DD0012084F8340094F877
:101DB00035700020012F07D084F834000225284612
:101DC000BDE8F0810220FBE7022784F835706065EA
:101DD0002046FFF7A1FA94F85C103F208840B060DD
:101DE0002068016841F016010160206C20B1206874
:101DF000016841F0080101602068016841F00101BB
:101E00000160DCE7F0B587B014216846FEF782FA7E
:101E10001A48016800292FD10121016018480024C7
:101E2000016841F0010101600068022500F0010035
:101E300005904FF68070CDE9000502AA03260C2715
:101E400082E8D00069460F4800F030F84CF2337059
:101E5000CDE9000502AA694682E8D0000A4800F0F0
:101E600025F841F20400CDE9000502AA694682E89E
:101E7000D000064800F01AF807B0F0BD04000020BA
:101E80003838024000100240000C024000180240A6
:101E900070470000044910B50A68024202D0086089
:101EA000FFF7F6FF10BD0000143C01402DE9F84F8C
:101EB000DFF89C910022A9F1040B03274FF00F0CCF
:101EC00009F1040AABF1040E01250B6895402B4083
:101ED000AB426ED10C7904F00304012C01D0022C2A
:101EE00015D18668540007FA04F826EA0806D1F8E6
:101EF0000C8008FA04F848EA0608C0F8088044682C
:101F0000AC430D79C5F300159540254345600C7928
:101F1000E443A40708D0C568540007FA04F6B543A3
:101F20008E68A6402E43C6600C7904F00304022C90
:101F300011D1D40800EB8406356A5407E40E0CFA7C
:101F400004F825EA0805D1F8108008FA04F848EAF0
:101F50000508C6F820800568540007FA04F6B54362
:101F60000E7906F00306A6402E4306604C6814F472
:101F7000403F66D0374C256845F48045256024688D
:101F800022F0030504F480440094334C05EB04086C
:101F9000D8F808589407260F0CFA06F4A5432F4CDE
:101FA000A04201D1002424E02D4CA04202D1012402
:101FB0001FE046E02B4CA04201D1022419E02A4C3C
:101FC000A04201D1032414E0284CA04201D10424F2
:101FD0000FE0274CA04201D105240AE0254CA04285
:101FE00001D1062405E0244CA04201D1072400E0E1
:101FF0000824B4402C43C8F80848D9F800404D469E
:102000004E689C43F60200D51C432C60DAF8004071
:1020100055464E689C43B60200D51C432C60DBF845
:1020200000405D464E689C43B60300D51C432C60BF
:10203000DEF8004075464E689C43F60300D51C430D
:102040002C60521C102AFFF43FAFBDE8F88F00004F
:10205000083C01404438024000300140000002408A
:102060000004024000080240000C02400010024040
:102070000014024000180240001C024000690840A1
:1020800000D001207047426921EA02030A4043EA76
:102090000241816170470AB1816170470904FBE721
:1020A00001488068704700006C0300200248816886
:1020B00002781144816070476C0300200B4810B512
:1020C000016841F400710160016841F480610160C0
:1020D000016841F480710160032000F09FF80F2037
:1020E00000F006F800F050F8002010BD003C02405F
:1020F00030B505461F4887B00024016841F004014F
:102100000160006806A900F004000590684600F030
:10211000CFF90398A8B100F0EBF940001649174A2F
:10212000B0FBF1F11648491E026040F2E732C0E907
:102130000324C0E90114846101F04CFA040003D0C7
:1021400015E000F0D5F9E9E70D4801F071FA040057
:102150000DD11E2000F034F8102D07D200222946A0
:102160001E2000F03BF80748056000E0012407B09E
:10217000204630BD4038024040420F000008004079
:10218000B40A0020700300200C4882B0016841F4BA
:1021900080410160006800F4804000900748001F03
:1021A000016841F0805101600068002200F0805019
:1021B00000900F21901E02B000F010B84438024089
:1021C000002809DB00F01F02012191404009800036
:1021D00000F1E020C0F8001170470000F0B40E4B91
:1021E0001B68C3F30223C3F10704042C00D90424A1
:1021F0001D1D072D01D2002300E0DB1E012606FA7B
:1022000004F56D1E0D409D409E40761E164045EA29
:102210000601F0BC04F0FDBE0CED00E0064A00F043
:10222000070110684FF6FF03184040EA01200349F8
:1022300008431060704700000CED00E00000FA0554
:102240002DE9F843044600684FF00109C1074FF03B
:10225000000501D1400726D5DFF80C81C8F8685089
:10226000FFF71EFF0646414F04E0FFF719FF801BF2
:10227000022857D838680001F7D46068217A8001B5
:1022800040EA0170394984310860C8F86890FFF766
:1022900007FF064604E0FFF703FF801B022841D832
:1022A00038680001F7D52078800752D52F48403094
:1022B000016841F08051016000682D4F00F08050AE
:1022C0000090386840F480703860FFF7E9FE0646F9
:1022D00004E0FFF7E5FE801B022823D83868C0051C
:1022E000F7D5224E7036306810F4407020D0A189A6
:1022F00001F4407181421BD030681E4920F44070C7
:10230000C1F800900D6030603068C00710D0FFF752
:10231000C7FE054641F2883707E0FFF7C1FE401BC4
:10232000B84202D90320BDE8F88330688007F4D5AD
:10233000E0680E49C0F301220831032A0BD0086877
:1023400020F4F81008603068A189C1F30B0108433C
:1023500030600020E7E70A68074B22F4F8121840C3
:1023600002430A60EFE700000000474200380240E5
:1023700000700040400E4742FFFCFF0F2DE9F04780
:102380000D46040065D0DFF81491D9F80000EFB2D3
:1023900000F00700A84207D289F80070D9F80000C1
:1023A00000F00700A84254D120683D4E810712D5A5
:1023B000400703D5306840F4E050306020780007D3
:1023C00003D5306840F4604030603068A16820F088
:1023D000F000084330602078C0072DD03049606895
:1023E0000839012812D0022813D0032811D0096817
:1023F000890700292DDA316821F00301014331609A
:10240000FFF74EFE804641F2883A0EE009688903E4
:10241000EFE709688901ECE7FFF742FEA0EB08014E
:10242000514502D90320BDE8F0873068616800F0AB
:102430000C00B0EB810FEFD1D9F80010484601F045
:102440000701A94207D90770006800F00700A842F9
:1024500001D00120E7E72078400705D53068E16822
:1024600020F4E050084330602078000706D530683B
:10247000216920F4604040EAC100306000F058F863
:102480003168084AC1F30311515CC840064908602D
:1024900006480068FFF72CFE0020C4E7003C02401D
:1024A00008380240801C0D087803002070030020CB
:1024B0000F2202600C4A136803F0030343601368A1
:1024C00003F0F0038360136803F4E053C360126801
:1024D0004FF4E05303EAD20202610448006800F0BE
:1024E000070008607047000008380240003C0240C6
:1024F0000448054900680968044AC1F38221515C17
:10250000C84070477803002008380240901C0D082E
:102510000448054900680968044AC1F34231515C26
:10252000C84070477803002008380240901C0D080E
:10253000154810B5006810F00C01144813D0431072
:1025400004290FD008290ED10F4C241F216801F057
:102550003F022168490207D52068C0F38810A0FB1C
:10256000030106E0184610BD2168C1F38811A1FBE4
:1025700000010023FDF784FE2168C1F30141491CDD
:102580004900B0FBF1F010BD083802400024F4000F
:102590002DE9F84F040075D02078DFF838A3C00784
:1025A000AAF1040548D00AF104000168C1F38101D1
:1025B000012908D00068C0F3810002280AD1DAF8A6
:1025C0000000400206D52868800335D560680028E1
:1025D000E1D031E06068B0F5803F10D0B0F5A02FB9
:1025E000286810D020F480302860286820F48020EB
:1025F00028606068A0B1FFF753FD06460CE028682C
:1026000040F48030F4E740F480202860F7E7FFF7DB
:1026100047FD801B642871D828688003F7D50BE03C
:10262000FFF73EFD064604E0FFF73AFD801B6428F5
:10263000F1D828688003F7D42078DFF89C928007CF
:102640004FF0000B3DD5A348001D016811F00C0FA1
:1026500008D00068C0F3810002280AD1DAF800002F
:10266000400206D42868800715D5E068012809D102
:1026700011E0E068B8B10120C9F80000FFF710FDD3
:10268000064605E022E1FFF70BFD801B0228C2D8B9
:1026900028688007F7D52868216920F0F80040EA0B
:1026A000C10028600DE0C9F800B0FFF7F9FC06464C
:1026B00004E0FFF7F5FC801B02281FD8286880077C
:1026C000F7D42078000722D5824F8448616970379B
:1026D00071B101210160FFF7E3FC064604E0FFF75A
:1026E000DFFC801B022809D838688007F7D50EE088
:1026F000C0F800B0FFF7D4FC064605E082E0FFF723
:10270000CFFC801B02287DD838688007F7D420785A
:10271000400765D56F484FF000083C300068C000A6
:102720000BD46C483C30016841F080510160006876
:102730004FF0010800F080500090694F3868C005E4
:102740000FD4386840F480703860FFF7A9FC064663
:1027500004E0FFF7A5FC801B022853D83868C005A9
:10276000F7D55C4FA0686C3701280FD00528386872
:1027700010D020F001003860386820F00400386084
:10278000A068B0B1FFF78CFC06460EE0386840F058
:102790000100F4E740F004003860F7E7FFF780FC41
:1027A000811B41F28830814263D838688007F5D5B3
:1027B0000DE0FFF775FC064606E0FFF771FC811B94
:1027C00041F28830814254D838688007F5D4B8F196
:1027D000000F05D03F483C30016821F08051016076
:1027E000A069B8B33B49091D0968C1F381010229F9
:1027F00046D00228584606D0C9F86000FFF750FCC2
:10280000044639E035E04F46C9F86000FFF748FC60
:10281000064604E0FFF744FC801B022829D82868FC
:102820008001F7D4D4E907010843A16A2D4A490879
:1028300002EB0141626A41EA8211084394F82C10CC
:1028400040EA0161CAF8001001203866FFF728FC51
:10285000044605E03CE0FFF723FC001B022808D8F3
:1028600028688001F7D533E0FFF71AFC001B022827
:1028700002D90320BDE8F88F28688001F4D427E04E
:102880000128F7D0DAF80000E26900F480019142F3
:102890001CD1226A00F03F01914217D147F6C07166
:1028A000626A0140B1EB821F10D1A26A4FF0FF3380
:1028B00000F4403103EB5202B1EB024F06D194F821
:1028C0002C1000F07060B0EB016F01D00120D1E757
:1028D0000020CFE70438024000004742800E474204
:1028E000007000400000FFFF704700002DE9F84332
:1028F000894638494FF4FA484FF47A730E68B6FBAC
:10290000F8F159430091017F01295AD00127077737
:10291000022141770368CA21596203685321596231
:1029200001688B684FF000045B054FF0FF054FF026
:10293000030C06D5009B5B1E009344D0CB685B075D
:10294000F8D48B6823F480638B600168CB6803F054
:10295000800363F49063CB60B6FBF8F14FF47A73B5
:10296000594300910168009B5B1E00932BD0CB68FC
:102970005B07F8D58B6823F007038B6001688B68D1
:1029800013438B600268C2F8149013490A6842F43A
:1029900080020A60104908310A6842F480020A6025
:1029A00001688A6842F480428A6001688A6842F459
:1029B00080628A6001684D62477704770020BDE835
:1029C000F8830220FBE74D6280F81DC004770320E6
:1029D000F5E7000078030020003C0140704700004C
:1029E00010B50A4904464FF4800008602168C868A1
:1029F000400508D5C86800F0800060F49060C860A9
:102A00002046FFF7EBFF0120607710BD143C01402A
:102A10002DE9F04786B0824614216846FDF77AFC1E
:102A200000273A4669465046059700F0FDF8002217
:102A300005A9504600F0D6F8DFF8948025499DF8A6
:102A40000060D8F800409DF80150206800EB80003D
:102A500001EBC0004278002A2CD08946801CFDF78B
:102A60009BFCB04226D120684E4600EB800009EB6B
:102A7000C000401DFDF790FCA8421BD1206800EB70
:102A8000800006EBC0004770206800EB800006F86D
:102A9000307003F0C3FED8F800004546806960B18D
:102AA000C8F8000003F09CF917F01AF817F07CF84A
:102AB00017F0B4F806B0BDE8F087204611F074F8BE
:102AC0004FF4807150462F6000F032F8ECE70000C0
:102AD00028030020700B002010B5144904464FF461
:102AE0000030086021688868C0040BD5C868C0053C
:102AF00008D5C86800F0800060F4C070C860204647
:102B0000FFF786FF2168886880040BD5C8688005B8
:102B100008D5C86800F0800060F42070C8602046C6
:102B2000FFF7E2FE0120607710BD0000143C014079
:102B30002DE9F0470446007F012822D04FF001081C
:102B400084F81C80022060772268CA2050622268C4
:102B50005320506220680026FF27B1F5807F8168EE
:102B60004FF0030A4FF47A790ED021F4007181609E
:102B70002068816821F400518160FFF791FA0546D1
:102B800024E00220BDE8F08721F480718160206894
:102B9000816821F480518160FFF782FA054604E0E4
:102BA000FFF77EFA401B484509D82068C068C00777
:102BB000F6D00FE0FFF774FA401B484506D92068AD
:102BC000476284F81DA026770320DBE72068C068F1
:102BD0008007EFD52068476284F81D8026770020A3
:102BE000D0E7000010B500680B4641680D48014071
:102BF000080CD870C1F304245C7001F03F049C7091
:102C0000C1F34231197052B903F034F9D8705878D1
:102C100003F030F95870987803F02CF99870002080
:102C200010BD00003FFFFF0010B50B460168896A28
:102C3000596001680969C1F30E0199600068016873
:102C40000D480140C1F305401870C1F306245C70C3
:102C500001F07F049C70890DD97052B903F00AF914
:102C60001870587803F006F95870987803F002F954
:102C70009870002010BD00007F7F7F0010B5040019
:102C800002D0607F10B106E0012010BD0020207747
:102C9000204600F041F8022060772068C168C943EF
:102CA000C90632D5CA2141622168532048622046B4
:102CB00003F0F4F820BB20688168164A1140816057
:102CC0002068816862681143D4E904231A431143E0
:102CD00081602168E068086120680169228941EA11
:102CE00002410161204603F0FCF848B921680A6CF2
:102CF00022F480220A6421680A6CA3691A430A64D8
:102D00002268FF21516208B110BD002001216177C6
:102D100010BD0000BFFF8FFF1FB500210091019182
:102D2000029103910068104988421CD10220009052
:102D3000C00103906846FFF783FA08B1FEF792FBE3
:102D40000A4901200860002205210320FFF746FA06
:102D50000320FFF735FA002205212920FFF73EFA6C
:102D60002920FFF72DFA1FBD002800403C0E4742E6
:102D70002DE9F843644E03464FF4FA4730680C4699
:102D8000B0FBF7F0791148430090187F012877D005
:102D90004FF0010983F81C9002205877186800252D
:102DA000002A80684FEA40606CD0002800DBE570A4
:102DB000A178227894F803C041EA02416278E06980
:102DC000120242EA8C52114394F8202041EA026137
:102DD0000143606962680143A069D3F800C00243FF
:102DE000CA20CCF82400D3F800C05320CCF824002B
:102DF000606AFF24B0F5807F18684FF0030C5CD048
:102E0000D0F8088028F40078C0F808801868D0F856
:102E10000C8008F0800868F42078C0F80C803068D6
:102E20004FF47A76B0FBF7F0704300901868009E7C
:102E3000761E009661D0C668B607F8D5016218689C
:102E400082641868816841F4007181601868816843
:102E500041F4005181602D48016841F40031016066
:102E60002A480830016841F4003101601868446262
:102E700083F81D901D770020BDE8F88300E001E095
:102E80000220F9E7002800DBE570207802F0FBFF64
:102E90000204607802F0F7FF42EA0022A07802F014
:102EA000F2FF0243E07842EA805294F8200002F0F8
:102EB000EAFF42EA0061E0698AE7866826F48076E4
:102EC00086601868C66806F0800666F4C076C6603C
:102ED0001868009E761E00960FD0C668F607F8D0D8
:102EE000C161186842641868816841F4807181602A
:102EF0001868816841F48051ACE7446283F81DC0D2
:102F00001D770320B8E7000078030020003C014053
:102F100070B50446007F0B46012819D0012626779C
:102F200002206077B2B19878D97840EA01455878A4
:102F30001978000240EA413005432168CA204862FE
:102F4000216853204862204602F0A8FFD0B122E059
:102F5000022070BD5878C10603D500F0EF000A309A
:102F60005870D87802F08FFF0204587802F08BFF77
:102F700042EA0022987802F086FF0243187842EA7B
:102F80004035DAE70748054020684560204602F0F2
:102F9000A8FF00B966772268FF21516200212177DE
:102FA00070BD00003FFFFF002DE9F0410446007FA7
:102FB0000D46012823D04FF0010884F81C80022020
:102FC00060772068002780684FEA4060D2B100280F
:102FD00000DBEF70A878297840EA01466878E97844
:102FE000000240EA815006432168CA2048622168F5
:102FF00053204862204602F051FFB8B12CE0022075
:10300000BDE8F081002800DBEF70287802F03BFF7C
:103010000204687802F037FF42EA0022A87802F042
:1030200032FF0243E87842EA8056DDE70D48064069
:10303000206806602068816821F480218160D5E9DC
:10304000031001432068826811438160204602F02A
:1030500048FF08B984F81D802268FF215162277754
:10306000CEE700007F7F7F0070B505460A482968DB
:10307000C860FFF715F804464FF47A7606E0FFF7CC
:103080000FF8001BB04201D9032070BD2868C0684A
:103090008006F4D5002070BD5F7F010070470000FE
:1030A00038B5016804464A688868C043430606D5B7
:1030B000C30704D1D3435B0601D4216C05E0830729
:1030C00008D4D3431B0605D4616C01B02046BDE88B
:1030D00030400847830603D5430601D5C30551D4C4
:1030E000D3439B064ED443060AD494F85130032BA5
:1030F00049D0636D43F004036365CB688B6800932C
:10310000830609D4636D43F0010363658B68009304
:103110000B6823F040030B60C00506D4606D40F0DF
:1031200008006065206880680090606D002829D0E4
:103130002068416821F0E0014160012084F85100DD
:10314000900701D4D00722D02068416821F0030104
:103150004160114DE06C40B10565E06CFEF7A5FCE7
:1031600018B1606D40F040006065A06C002809D087
:103170000565A06CFEF799FC002803D0606D40F057
:103180004000606538BDC8688868009038BD20463A
:10319000FFF784FF38BD00004160000870B50400EF
:1031A00009D0606A002540B125616561A56294F887
:1031B000510040B10CE0012070BD6068B0F5827F25
:1031C000F4D0E561F2E784F85050204600F044F86E
:1031D000022084F851002068016821F0400101605C
:1031E000A088218900F4827001F404410843A18978
:1031F00001F400610843217C01F002010843217DB4
:1032000001F001010843218B01F400710843217F83
:1032100001F03801084394F8201001F080010843C0
:10322000218D01F40051084321680860A069042140
:1032300001EA104094F8241001F0100108432168BD
:1032400048602068C16921F40061C16165650120A1
:1032500084F85100002070BDF0B587B004461421F9
:103260006846FDF757F82049206888423AD11F4840
:103270000025016841F480410160006800F480404D
:1032800005901A481038016841F004010160016896
:1032900001F004010591016841F00201016000683C
:1032A000022600F0020005900C20CDE9000603275D
:1032B00005240295CDE9037469460D48FEF7F6FD35
:1032C0003003CDE900060295CDE90374694609484B
:1032D000FEF7ECFD002205212420FEF77FFF2420CD
:1032E000FEF76EFF07B0F0BD0038004040380240E6
:1032F00000080240000402402DE9FF4F81B01F4644
:103300009346044601250E9EFEF7CAFE804694F8B9
:1033100051006168012806D0B1F5827F3CD1A168D7
:10332000C9BB042838D10298002870D0BBF1000F27
:10333000FBD0002FF9D094F8500001282CD04FF08A
:10334000010A84F850A094F85100042802D0052006
:1033500084F851004FF00009C4F85490C4F838B014
:10336000E787A78702992163E786A786C4F840907C
:10337000C4F8449020680168490603D4016841F00C
:1033800040010160E068B0F5006F606808D0E8B304
:10339000012F47D07DE0FFE7022005B0BDE8F08FA8
:1033A00008B1012F37D1206B21680088C860206BDD
:1033B000801C2063E08E401EE0862CE0206881683F
:1033C00089070DD5E18E59B1012D09D1216B0988ED
:1033D000C160206B801C2063E08E401EE0860025CB
:1033E00020688168C9070BD0E18F49B1C068A16B23
:1033F0000880A06B801CA063E08F401EE087012541
:10340000FEF74EFEA0EB0800B04201E00AE064E0E7
:1034100001D3701C4ED1E08E0028CFD1E08F002860
:10342000CCD13CE0206B216800780873206B401CF5
:103430002063E08E401EE0862BE0206881688907CB
:103440000DD5E18E59B1012D09D1216B0978017398
:10345000206B401C2063E08E401EE0860025206823
:103460008168C9070BD0E18F49B1C068A16B0870B2
:10347000A06B401CA063E08F401EE0870125FEF793
:103480000FFEA0EB0800B04202D3701C01D011E087
:1034900086B1E08E0028D0D1E08F0028CDD1424601
:1034A0003146204602F0D4FD50B12020606584F8FA
:1034B000509012E084F851A084F8509003206CE7FB
:1034C000A06818B92068C1688068009084F851A08D
:1034D00084F85090606D0028F1D001205DE770B550
:1034E00015460E46040003D094F8490010B107E0D9
:1034F000012070BD002084F84800204600F01DF82F
:1035000004F108012068FDF7CDFF3146A26820686C
:10351000FDF7FCFFD4E901022946236BFDF7A4FF68
:10352000A168206850F8212042F0010240F82120D3
:10353000012084F84900002070BDFEF763BC70478D
:103540007047000070B590F83C20012A32D0012568
:1035500080F83C50022280F83D200268536894684D
:1035600023F070060B6833435360134B02689A4292
:1035700014D0B2F1804F11D0104B9A420ED0104BA4
:103580009A420BD00F4B9A4208D00F4B9A4205D06B
:103590000E4B9A4202D00E4B9A4204D1496824F055
:1035A00080031943916080F83D50002180F83C1061
:1035B000084670BD022070BD0000014000040040BC
:1035C00000080040000C00400004014000400140A1
:1035D0000018004010B5040003D094F83D0010B16D
:1035E00007E0012010BD002084F83C00204600F0D8
:1035F0001EF8022084F83D00211D206802F058FFCB
:10360000012084F8460084F83E0084F83F0084F8E6
:10361000400084F8410084F8420084F8430084F8B4
:10362000440084F8450084F83D00002010BD704738
:1036300090F83D10012901D001207047022180F847
:103640003D100168CA6842F00102CA600068114971
:10365000884214D0B0F1804F11D00F4988420ED06B
:103660000E4988420BD00E49884208D00D49884245
:1036700005D00D49884202D00C49884204D18168A6
:1036800001F00701062903D0016841F00101016042
:103690000020704700000140000400400008004086
:1036A000000C0040000401400040014000180040B0
:1036B00070472DE9F04104460068C66805694FF07F
:1036C0000007A90713D5B10711D5F91E0161012023
:1036D0002077206880698007204602D0FFF7E8FF46
:1036E00004E000F0A7F8204600F04CF927776807BF
:1036F00016D5700714D521686FF004000861022008
:1037000020772068806910F4407F204602D0FFF7C0
:10371000CFFF04E000F08EF8204600F033F9277761
:10372000280715D5300713D521686FF00800086108
:10373000042020772068C0698007204602D0FFF768
:10374000B7FF04E000F076F8204600F01BF9277779
:10375000E80616D5F00614D521686FF01000086150
:10376000082020772068C06910F4407F204602D0EE
:10377000FFF79EFF04E000F05DF8204600F002F93C
:103780002777E80708D0F00706D021686FF001001E
:103790000861204600F060F9280608D5300606D5F5
:1037A00021686FF0800008612046FFF7C8FE6806B8
:1037B00008D5700606D521686FF0400008612046E4
:1037C00000F054F9A8060AD5B00608D521686FF0B4
:1037D000200008612046BDE8F041FFF7B1BEBDE81A
:1037E000F081000010B586B0044614216846FCF74D
:1037F00091FD0D492068884214D10C4800210268CF
:1038000042F004020260006800F00400059080208D
:1038100000900220CDE90101CDE90310694604487A
:10382000FEF744FB06B010BD0004004030380240F3
:1038300000080240704770B5044690F83C0000262E
:103840000D4601280FD0012084F83C006AB1042AFB
:103850001DD0082A2FD00C2A3FD00126002084F842
:103860003C00304670BD022070BD206802F09AFE18
:103870002068816941F0080181612068816921F037
:1038800004018161206881692A69114311E020687F
:1038900002F0B8FE2068816941F40061816120680E
:1038A000816921F480618161206881692A6941EA26
:1038B00002218161D2E7206802F0DAFE2068C16946
:1038C00041F00801C1612068C16921F00401C161B2
:1038D0002068C1692A69114311E0206802F0FCFEEA
:1038E0002068C16941F40061C1612068C16921F4A7
:1038F0008061C1612068C1692A6941EA0221C16110
:10390000ACE710B5040003D094F83D0010B107E017
:10391000012010BD002084F83C00204600F01EF875
:10392000022084F83D00211D206802F0C1FD012025
:1039300084F8460084F83E0084F83F0084F8400094
:1039400084F8410084F8420084F8430084F844007D
:1039500084F8450084F83D00002010BD08B50068DB
:103960000649884208D10648016841F00201016019
:10397000006800F00200009008BD00000004004054
:10398000403802407047000010B5044649B1042990
:103990000AD008290BD094F8410001280AD0012050
:1039A00010BD94F83E00F8E794F83F00F5E794F86E
:1039B0004000F2E70220B1B3042938D0082939D0F9
:1039C00084F841000122206802F0DEFD1B492068D6
:1039D0001B4A884201D0904203D1436C43F4004318
:1039E00043642068884213D0B0F1804F10D015494D
:1039F00088420DD0144988420AD01449884207D021
:103A0000904205D01249884202D01249884204D11E
:103A1000816801F00701062903D0016841F0010126
:103A20000160002010BDFFE784F83E00CAE784F87B
:103A30003F00C7E784F84000C4E7000000000140F1
:103A4000000401400004004000080040000C004059
:103A5000004001400018004000680349884201D13D
:103A6000FEF724BB7047000000080040704738B5DF
:103A7000044690F84200202801D0022038BD51B100
:103A80004AB10120206300206063204603F06EF8F5
:103A9000010002D005E0012038BD206B012802D0D2
:103AA0000121084638BD20680268406800902068FF
:103AB0000C3050E8002F42F0100240E80023002BA9
:103AC000F5D1EEE700680549884205D10449012097
:103AD0000870044800F008B8704700000048004033
:103AE000350400204C09002010B5044600684069E8
:103AF00094F84110C0F3C010212911D180B1206881
:103B0000143050E8001F21F0800140E80012002A24
:103B1000F5D1A06B08B1FDF77FFF204602F030FF22
:103B20002068406994F84210C0F38010222911D116
:103B300080B12068143050E8001F21F0400140E8B7
:103B40000012002AF5D1E06B08B1FDF765FF2046B1
:103B500002F0EFFE002010BD70470000F8B50168CC
:103B600004460868CA684B6910F00F0F4FF0000553
:103B700059D003F0010602F49077374365D0C107AE
:103B800005D0D10503D5616C41F0010161644107A5
:103B900005D5D90703D0616C41F00201616481074A
:103BA00005D5D90703D0616C41F0040161640107B8
:103BB00007D502F02001314303D0616C41F00801C8
:103BC0006164616C00293AD0800604D5900602D564
:103BD000204602F0E3FE20684069616CC0F380106B
:103BE000090700D460B3204602F0A3FE20684069B4
:103BF000400621D52068143050E8001F21F0400114
:103C000040E80012002AF5D1E06BA8B16E490165C9
:103C1000E06BFDF74AFF002811D0E06B016D01B0A9
:103C2000BDE8F040084783060FD593060DD5204622
:103C3000BDE8F84002F0B2BE2046FFF78DFFF8BDA8
:103C40002046FFF789FF6564F8BD266B2023012E0F
:103C50007DD1C6067BD5D60679D508684868009020
:103C600048694FF00206400641D5E16B086840689C
:103C70000004000CE8D0A28D8242E5D9E085C86935
:103C8000B0F5807F2DD020680C3050E8001F21F463
:103C9000807140E80012002AF5D12068143050E805
:103CA000001F21F0010140E80012002AF5D1206830
:103CB000143050E8001F21F0400140E80012002AB3
:103CC000F5D184F84230256320680C3050E8001F9D
:103CD00021F0100140E80012002AF5D1E06BFDF759
:103CE0009BFE6663A08DE18D401A81B22AE0A08D13
:103CF000E18D401A81B2E08D0028A5D00029A3D023
:103D000020680C3050E8002F22F4907240E8002721
:103D1000002FF5D12068143050E8002F22F0010266
:103D200040E80027002FF5D184F842302563206851
:103D30000C3050E8002F22F0100240E80023002B46
:103D4000F5D166632046FFF7BDFEF8BDFFE7050627
:103D50002BD5150629D594F841002128F5D1A06866
:103D6000B0F5805F01D12069B0B1206A411C2162A9
:103D7000216800784860E08C401E0004000CE0845C
:103D8000E3D12068C16821F08001C1602068C1686A
:103D900041F04001C160D8E7206A0088C0F3080004
:103DA0004860206A801C2062E5E74006CDD55006B9
:103DB000CBD5CA68204622F04002CA6084F8413060
:103DC00000F066F9C1E700003568000870B504002E
:103DD00004D094F84100002510B106E0012070BD28
:103DE00084F84050204600F023F8242084F8410055
:103DF0002068C16821F40051C160204602F030FE05
:103E00002068016921F4904101612068416921F035
:103E10002A0141612068C16841F40051C1606564B4
:103E2000202084F8410084F842006563002070BDC2
:103E30002DE9F04786B0044614216846FCF76AFA7B
:103E40006349DFF888C102232068614E10390322DC
:103E5000DFF880A100259F064FF4806960454CD1B2
:103E6000306840F400203060306800F40020059095
:103E7000086840F0010008600868694600F0010029
:103E800005908DE82C000820CDE903205046FEF770
:103E90000DF8524E5048B8463060C6E90175C6E983
:103EA00003597561B561F56135624F4630467562FB
:103EB000FDF7DEFE08B1FDF7D5FAE663B463474EC1
:103EC000454860363030E6E802084020A1C6434845
:103ED00046F814596030B561F56135627562FDF7D9
:103EE000C7FE08B1FDF7BEFAA66300220521342003
:103EF000B463FEF773F9342027E0DFF8E4804FF075
:103F0000070C404526D13248001D046844F01004D7
:103F10000460006800F010000590086840F001009F
:103F200008600868694600F0010005904FF4C06021
:103F30008DE82900CDE9032C5046FDF7B7FF00229C
:103F400005212520FEF74AF92520FEF739F906B0AC
:103F5000BDE8F087DFF88C804045F8D1306840F448
:103F600080203060306800F480200590086840F0C0
:103F7000020008600868694600F0020005904FF4EE
:103F800040608DE82900CDE9032C1748FDF78EFF2E
:103F9000124E1148C03618383060C6E90175C6E9BE
:103FA000035980157561C6E9065035623046756261
:103FB000FDF75EFE08B1FDF755FAE6630022052124
:103FC0002720B463FEF70AF92720BEE7004C004023
:103FD0004038024000000240406002409409002046
:103FE0000010014000480040000402407047704744
:103FF0002DE9F843044690F841001F4615460E4649
:10400000202802D00220BDE8F8838EB185B10020BF
:104010006064212084F84100FEF742F8A5848146BF
:10402000E584A0684FF02008B0F5805F02D003E07F
:104030000120E8E7206910B1354600260EE0002592
:104040000CE08021204602F0DBFDA0B9BDB115F8DF
:10405000010B21684860E08C401EE084E08C4B46F8
:104060004FF0000200970028EBD14FF040012046AE
:1040700002F0C6FD40B184F841800320C3E736F862
:10408000020BC0F30800E4E784F841800020BAE79F
:104090007047FEE70EB500265E4D4FF47A7700F0CC
:1040A0003DFD12F042F8032409E0641E286AE4B2E0
:1040B000804785F824006420FDF795F91CB195F838
:1040C00024000028F1D1032409E0641EA86CE4B2A6
:1040D000804785F84C006420FDF792F91CB195F8F3
:1040E0004C000028F1D1012085F84C00686B804716
:1040F000A96B0020884785F844603846FDF773F9BE
:1041000003244FF4967808E0641E2868E4B28047E0
:10411000A8754046FDF767F914B1A87D0028F3D1D2
:10412000FCF780FDFCF748FD68BB022210216846C1
:1041300002F0A4F89DF8000008B1012804D19DF810
:10414000011019B1012901D02E7600E0287685F8FA
:104150004460002201A93048FEF744FD03222021DB
:10416000684602F08BF89DF800009DF80610884222
:1041700009D19DF801009DF8021041EA0020A97DB7
:1041800009B907F09FFC00F0CFFA4FF6E0704FF44A
:10419000A074002100902346F022084600F09AFA0D
:1041A0003846FDF720F94FF6FF70002100902346B6
:1041B000F022084600F08EFA4FF61F0217A11020D9
:1041C0008DE807009C2374228C21542000F01CFCF5
:1041D0004FF4FA60FDF707F900F07CFC1248007814
:1041E00000F07EFC1148006880471AF02FFB20F099
:1041F00013FD20F035FD2EF09BFA0DA012F0F4FA1D
:104200001548006825F0BCF94FF4FA7025F0A6F8BF
:1042100045E7000058000020FC07002057656C634C
:104220006F6D652100000000520000208C0300200B
:10423000486172647761726520696E69746961743E
:104240006520686173206265656E20636F6D706CB8
:1042500065746564210000001000002010B586B070
:1042600001F000FD80681C49884232D11B48016D75
:1042700003A88847184C9DF81130083CA078834269
:1042800004D19DF81000617888420BD0A3709DF88E
:104290001020627012A1684602F088FE6946E0684C
:1042A0001BF000FB9DF80E30E078834211D0E370E4
:1042B00009499DF80C002071103101EB80000BA121
:1042C00050F8042C684602F071FE694620691BF024
:1042D000E9FA06B010BD00004C0100205800002093
:1042E000253032643A2530326400000025732025E1
:1042F0003032640010B586B0044614216846FCF7DD
:1043000009F820890090012001900290022003907A
:1043100069462068FDF7CAFD6089009069466068BB
:10432000FDF7C4FD06B010BD2DE9F0410646082496
:10433000002501F039FE14E06806070E0021304622
:1043400001F020FE0220FDF75BF80121304601F06C
:1043500019FE0120FDF754F8304601F01CFE40EA3A
:104360000705641EE4B2E7D20021304601F00AFEE0
:10437000304601F037FE2846BDE8F08110B504460E
:10438000002101F026FE0120FDF73AF80121204628
:1043900001F0F8FD0120FDF733F80021204601F07F
:1043A000F1FDBDE810400120FDF72AB870B50D46BB
:1043B0000646082418E001F0E5FD0220FDF720F88C
:1043C00005F08001304601F004FE0120FDF718F8E9
:1043D0006806050E0120FDF713F80121304601F0B3
:1043E000D1FD0120FDF70CF8641EE4B24FF000018E
:1043F0003046E0D201F0C6FDBDE870400220FCF777
:10440000FFBF10B50446012101F0E3FD0120FCF7D8
:10441000F7FF0121204601F0B5FD0120FCF7F0FF78
:104420000021204601F0AEFDBDE810400220FCF75F
:10443000E7BF10B50446012101F0CBFD0220FCF7D7
:10444000DFFF0121204601F09DFD0120FCF7D8FF90
:104450000021204601F0BDFD0120FCF7D1FF002125
:10446000204601F08FFDBDE810400120FCF7C8BFD9
:1044700010B50446002101F085FD0220FCF7C0FFC5
:104480000021204601F0A5FD0120FCF7B9FF012124
:10449000204601F077FD0120FCF7B2FF0121204604
:1044A00001F097FDBDE810400120FCF7A9BF70B5F1
:1044B0000546052401F078FD0121284601F062FD42
:1044C00005E0641EA4B20120FCF79AFF84B12846DF
:1044D00001F061FD0028F4D1284601F083FD0021A0
:1044E000284601F04FFD0220FCF78AFF002070BD36
:1044F000284601F077FD2846FFF7BAFF012070BD7E
:104500007CB5164C03208DF80000A0880025401CC7
:1045100080B2A0802178884208D111488DF80450DB
:104520000123002201A9006824F0B2FFA08861786D
:1045300088420AD101208DF8040003460948A5806D
:10454000002201A9006824F0A3FF074801230022EC
:104550006946006824F09CFF7CBD000050000020EC
:104560004800002044000020380000200EB5002044
:104570001A4C1B4D8DF800008DF804008DF80800D2
:104580000126002011F0D2FD012802D0022820D1FE
:1045900002E08DF8006010E001F064FB80681149D2
:1045A000884207D110488DF804600123002201A938
:1045B000006806E002208DF8000001230022694611
:1045C000206824F065FF0123002202A9286824F056
:1045D0005FFF012024F0C2FED3E70000300000207E
:1045E000400000204C0100203400002030B505467A
:1045F0000A480488408821464443491E401E8AB226
:1046000083B20021084600F05BF90021044801E074
:104610000580491CA142FBD330BD0000100C0020D6
:104620000020006C2DE9FE4F0026A2EB0008824618
:104630005F1A701E35468946B8F1000F02DD4FF053
:10464000010102E003D14FF00001019102E0C8F145
:1046500000080190002F02DD4FF0010002E003D1BD
:104660004FF00000009002E0C7F1000700904046C4
:10467000B84501DD044600E03C46601C4FF0000BED
:10468000029015E01FFA89F11FFA8AF000F016F87F
:1046900046443D44A64202DD0199361B8A44A542A8
:1046A00002DD00992D1B89440BF101001FFA80FBEC
:1046B00002998B45E6DDBDE8FE8F000000B500F0F5
:1046C000FBF8024802490088088000BD88030020EA
:1046D0000020006C2DE9F041141A641CA6B25C1A8B
:1046E000641CA7B2DDF8188000F0EAF800250AE0A3
:1046F000002404E0404600F00BFA641CA4B2B4426B
:10470000F8D36D1CADB2BD42F2D306484188008893
:10471000491EBDE8F041401E8BB282B2002108461E
:1047200000F0CEB8100C002010B56420FCF75BFE42
:104730005F4CCF2020800021A01C0180C921018076
:1047400030210180ED21218064210180032101803D
:104750001221018081210180E821218085210180B1
:10476000102101807A210180CB2121803921018013
:104770002C2101800021018034210180022101804F
:10478000F721218020210180EA2121800021018060
:104790000180C02121801B210180C12121800021B5
:1047A0000180C5212180302101800180C721218025
:1047B000B721018036212180082101803A21218002
:1047C00055210180B1212180002101801A21018021
:1047D000B62121800A210180A2210180F2212180BD
:1047E000002101802621218001210180E0212180FA
:1047F0000F2101802A2101802821018008210180C8
:104800000E2101800821018054210180A92101800D
:10481000432101800A2101800F21018000210180B4
:10482000018001800180E12121800021018015218A
:1048300001801721018007210180112101800621BB
:1048400001802B210180562101803C21018005211E
:104850000180102101800F2101803F210180018012
:104860000F2101802B212180002101800180012165
:1048700001803F2101802A212180002101800180C7
:104880000180EF210180112020807820FCF7ABFD12
:1048900029202080002000F0F5F80122910205482F
:1048A000FDF7F9FBBDE810404FF6FF70FFF79EBE25
:1048B000FE1F006C001402400B460246AFF300805E
:1048C000F0B40D4E0D4FB4893C80050ABC1C258008
:1048D000C0B22080100A2080D0B22080F0893880B9
:1048E000080A2080C8B22080180A2080D8B2208010
:1048F000F0BC00F0B5B80000100C0020FE1F006CEA
:104900002DE9FF4F81B00EAE824696E83100203887
:1049100000F0FF080298DFF8E0B02044401E83B2A8
:104920000AEB5400BBF80010401E009182B25046C2
:104930000299FFF7C5FF4FF000067DBB2F4908EB3A
:10494000480001EB800901F2744000EB081817E001
:104950000C2C03D018F8065000270CE019F806506C
:10496000FAE7E80701D0039800E0049800F0D0F8D7
:104970006D087F1CFFB2B7EB540FF2D3761CF6B272
:10498000A642E5D327E00C2C09D01D4800EB081007
:104990000025875D029800EB060915E019E017482D
:1049A00008EB480100EB8100F2E70398ABF8000048
:1049B000F80706D00AEB05001FFA89F180B2FFF76D
:1049C0007DFE7F086D1CEDB2B5EB540FEDD3761C68
:1049D000F6B2A642D7D30098ABF800000948418848
:1049E000008805B0491EBDE8F04F401E8BB282B270
:1049F00000210846FFF764BF88030020981C0D08BB
:104A00000C210D08100C00202DE9FE4F044600F08B
:104A1000FF0810190D46DDE90C761FFA80FA5819C7
:104A20001FFA80F94FF0000B13E0544502D3E91947
:104A300044468DB24D4511D28DE881084FF6FF7383
:104A4000294620460E9AFFF75BFF04EB570084B21D
:104A5000761C3078A0F120015E29E6D9BDE8FE8FF2
:104A6000024803490089088070470000100C0020AC
:104A7000FE1F006C024A1080901C018070470000ED
:104A8000FE1F006C12492A224FF4A0738A812B2248
:104A9000CA812C220A812E224A81F02258B1012893
:104AA0000DD002280FD0032811D10B804A80B821E5
:104AB0003620FFF7DFBF0A804B800821F8E70B8024
:104AC0004A806821F4E70A804B80D821F0E77047DC
:104AD000100C002004210148FEF756BF7408002086
:104AE000411F5F2909D84FF4967110FB01F0642132
:104AF000B0FBF1F001490968886370477408002031
:104B000010B514F0EDFF0068BDE8104014F0E2BFEE
:104B100001490880704700000020006C184810B55B
:104B2000016886B041F020010160016801F02001B8
:104B30000591016841F0200101600068114C00F00E
:104B40002000059008200090012001900290022092
:104B5000039069462046FDF7A9F9102100916946A6
:104B60002046FDF7A3F9012208212046FDF793FA1C
:104B7000012210212046FDF78EFA06B010BD00007C
:104B8000303802400014024070B50F4D04460A212F
:104B90002868FCF76DFE08B1012070BD2868FCF79D
:104BA00009FE00EE100A9FED091A0020B8EE400A37
:104BB000C0EE010A9FED060A20EE800ABCEEC00A94
:104BC00010EE101A217070BD3804002000F07F45EF
:104BD0000000C84208B500200A4C8DF800004FF4D0
:104BE0007A75002014F0AAFFA84205D200231A46C5
:104BF0006946206B24F04CFC22F0F6FC012024F0E6
:104C0000ADFBEEE71000002070B50C46054600F045
:104C100017F820EA04012846BDE8704000F038B8D3
:104C200010B5064C012240212046FDF734FA2046FB
:104C30000122BDE810401146FDF72DBA00080240E0
:104C400070B57E2101EA40000A4D40F08004002248
:104C500040212846FDF71FFA204601F0DFF9002029
:104C600001F0DCF90446012240212846FDF713FA41
:104C7000204670BD0008024070B50C460546FFF79F
:104C8000DFFF40EA04012846BDE87040AFF3008032
:104C900070B50D467E2101EA4004094E00224021F4
:104CA0003046FDF7F8F9204601F0B8F9284601F042
:104CB000B5F93046BDE8704001224021FDF7EBB95F
:104CC0000008024008B50126DFF860A0184FDFF8A1
:104CD0006480DFF86490194C00254FF4967B207EA9
:104CE000F8B100F00FF908B1E6751AE0E07D01288F
:104CF00016D1E57500F0B6FF8168514509D000F086
:104D0000B1FF8068B84204D000F0ACFF8168414533
:104D100006D1012300226946D9F8000024F0B8FB2F
:104D2000E575584624F01AFBD9E700004C01002035
:104D300088010020D40200204400002058000020F8
:104D4000064882B0016841F040010160006800F04F
:104D500040000090024802B0FFF7CCBA3038024061
:104D6000FC0300207CB514460D4606466B46062221
:104D70003B21682000F048F800280BD1BDF8001056
:104D800049BA3180BDF8021049BA2980BDF8041033
:104D900049BA21807CBD3EB50C46054601AA69464C
:104DA00002A8FFF7DFFFBDF8002012FB02F0BDF8FC
:104DB000042012FB020000EE100AB8EEC00A02F056
:104DC000EDF9BDF90800F0EE400A00EE100AB8EE69
:104DD000C01A81EE200A02F031F9B1EE400A84EDEA
:104DE000000ABDF9000000EE100ABDF90400F8EE5B
:104DF000C00A00EE100AB8EEC01A80EE810A02F076
:104E00001DF985ED000A3EBD2DE9F04106461C4620
:104E100015460F462048FFF70CFB7006010E1E4892
:104E2000FFF7C4FA1C48FFF742FB28B11A48FFF706
:104E30001FFB0120BDE8F08139461748FFF7B6FA9D
:104E40001548FFF734FB1448FFF7F3FA012000EB95
:104E50004600C1B21048FFF7A9FA0F48FFF727FB39
:104E60000BE00D48012D0FD0FFF75EFA20700A48C5
:104E7000FFF784FA6D1EEDB2641C002DF1D10648D7
:104E8000FFF7F6FA0020D5E7FFF74EFA2070024848
:104E9000FFF7B7FAEEE70000FC0300202DE9F04130
:104EA00007461D4616460C461548FFF7C2FA780617
:104EB000010E1348FFF77AFA1148FFF7F8FA80B9A4
:104EC00021460F48FFF772FA0D48FFF7F0FA002469
:104ED0000FE0295D0A48FFF769FA0948FFF7E7FA8A
:104EE00028B10748FFF7C4FA0120BDE8F081641C2F
:104EF000E4B2B442EDD30248FFF7BAFA0020F4E777
:104F0000FC0300201CB501A96846FFF744FF009888
:104F10004FF07C5188420ADC4FF03F42904206D865
:104F20000198884203DC904201D801201CBD00207A
:104F30001CBDFBF71BBFFBF7FDBEFBF707BF000067
:104F4000054A0B4692F82420002A03D10146184650
:104F5000FCF722B97047000058000020FCF7AEB8FB
:104F6000FFF712BE08B5002000900448807D10B9FC
:104F7000684606F054FD009880B208BD5800002035
:104F800023F090BB0349897D09B10020704706F0EA
:104F900099BD0000580000200149002008767047A4
:104FA0005800002001490120087670475800002071
:104FB00000F0BCBD10B586B004001FD000226946C9
:104FC0000F48FDF731FE002205A90D48FDF70AFE46
:104FD0009DF81700E0709DF8151061709DF816207F
:104FE000A27014232EF01EF820709DF8000020718E
:104FF0009DF8010060719DF80200A07106B010BD1F
:10500000FC07002000F082BF00F09ABF01F044BA14
:1050100010B5012901D0022903D1401E0C31C0B2C4
:10502000C9B21A24491C11FB04F10A24B1FBF4F1A2
:1050300000EB900000EB930008441044594200EB51
:105040004100401E00E0C01D0028FCDB072190FB52
:10505000F1F201FB120000B90720C0B210BD000040
:105060007FB50024154800940194029412490394DA
:1050700001604FF48031C0E901140461047680F8C6
:1050800020400F49C0E90A140125C561C46080F8B9
:1050900030404561FCF791FB08B1FCF7E3F90420CF
:1050A000CDE90005694602940448FCF7DDFA0028C2
:1050B00001D0FCF7D7F97FBD002001400407002094
:1050C0000100000F2A4808B50268002142F40012CE
:1050D0000260026802F400120092026842F4800248
:1050E00002600068234A00F4800000902248C0E972
:1050F0000021802282609200C26052000261520050
:1051000042619200C0E906210422C0E9081203228C
:10511000C0E90A210163FCF7ABFD08B1FCF7A2F975
:10512000002205210C20FDF759F80C20FDF748F866
:10513000002205210D20FDF751F80D20FDF740F864
:10514000002205210F20FDF749F80F20FDF738F860
:10515000002205214620FDF741F84620FDF730F8F2
:10516000BDE80840054A00210348FCF7EBBD0000FC
:1051700030380240B86402404C070020014B000860
:1051800010B501F05DFE044A0021044824F0B4F992
:105190000349086010BD0000243C030809630008AF
:1051A0000000002010B58EB01C216846FBF7B2F855
:1051B0001C2107A8FBF7AEF81A484FF02041102237
:1051C000016019494160062181600021C160C0E988
:1051D00004128161C16113020162C0E909139302E3
:1051E000C0E90B134163816341640F203C230090AD
:1051F000CDE9010303AC112384E80E0009240691D4
:10520000CDE9074009AC082084E80F000D9107AAFA
:1052100069460448FEF763F9002801D0FCF722F93B
:105220000EB010BDAC070020040100A02DE9F04F26
:1052300087B014216846FBF76DF86B4800250168BC
:1052400041F004010160016801F004010591016869
:1052500041F020010160016801F020010591016821
:1052600041F080010160016801F080010591016851
:1052700041F001010160016801F00101059101683F
:1052800041F002010160016801F00201059101682D
:1052900041F010010160016801F010010591016801
:1052A00041F008010160016801F008010591016801
:1052B00041F0400101600068DFF830A100F04000DB
:1052C000059000224FF4A0515046FCF7E4FE484FF1
:1052D000012241213846FCF7DEFEDFF818B1012239
:1052E00020215846FCF7D7FEDFF80C91012203215C
:1052F0004846FCF7D0FE002208214048FCF7CBFED0
:1053000001243815CDE900040326CDE9024669469B
:105310005046FCF7CBFD41204FF002088DE83101EB
:1053200069463846FCF7C2FD2027CDE90074CDE977
:10533000024669465846FCF7B9FDCDE90064CDE95F
:10534000024669464846FCF7B1FD0420CDE9000558
:10535000694602944846FCF7A9FDE002CDE9000544
:10536000694602945046FCF7A1FD200303958DE8A1
:10537000110169465046FCF799FD6003CDE900052F
:10538000694650460295FCF791FD300300904FF4BA
:105390000410CDE9010469461848FCF787FD4FF475
:1053A00088100097CDE9010569461548FCF77EFD98
:1053B00008208DE83100694610480394FCF776FD1B
:1053C000002205211720FCF709FF1720FCF7F8FE43
:1053D000002205212820FCF701FF2820FCF7F0FE21
:1053E00007B0BDE8F08F00003038024000140240E2
:1053F000000802400000024000040240000C02408D
:105400000018024030B591B014210AA8FAF782FFC3
:105410000024282168460F94FAF77CFF2E482D4976
:10542000C0E900147F218160FF21C0E903144461B9
:105430008461FDF723FC08B1FCF714F807258DF80B
:1054400028508DF829408DF82A400D9401220AA990
:1054500021480E94FDF7A8FD08B1FCF703F80120E0
:105460008DF83C0010208DF83D008DF83E50242032
:105470008DF83F0001220FA91748FDF749FD08B13B
:10548000FBF7F0FF22208DF800008DF801408DF829
:1054900002408020CDE90440039419208DF82000BB
:1054A0004FF4807001940990069407940122694694
:1054B0000948FDF75DFC08B1FBF7D4FF00224FF46B
:1054C000FA610548FDF712FA002801D0FBF7CAFF80
:1054D00011B030BD00280040FC070020104810B576
:1054E0000E4901604FF48271416000218160C1600A
:1054F0004FF400720161C0E905122822C0E90721BA
:10550000416281620A21C162FDF748FE002803D092
:10551000BDE81040FBF7A6BF10BD000000380040FA
:105520001C08002010B58AB0002407941C2168468E
:105530000894FAF7EFFE1748154901606321C0E9A6
:1055400001144FF49671C0E903148461FEF7D9F990
:1055500008B1FBF787FF079407A90E480894FDF7E9
:10556000F1FF08B1FBF77EFF6020CDE900040220C7
:1055700002900422694604940648FEF75CF908B1DB
:10558000FBF770FF0348FEF72DF90AB010BD0000CD
:1055900000040040740800200C4810B50A4901605E
:1055A0004FF4E1314160002181600C22C160C0E90B
:1055B00004128161C161FEF709FC002803D0BDE837
:1055C0001040FBF74FBF10BD004C0040BC0800204E
:1055D0000C4810B50A4901604FF4E13141600021E7
:1055E00081600C22C160C0E904128161C161FEF7D3
:1055F000EDFB002803D0BDE81040FBF733BF10BD22
:1056000000100140040900200C4810B50A4901604F
:105610004FF4E1314160002181600C22C160C0E99A
:1056200004128161C161FEF7D1FB002803D0BDE8FF
:105630001040FBF717BF10BD004800404C09002088
:10564000FEE700001FB5384E384C002530780028A2
:1056500064D0374835708DF80C500123002203A91F
:10566000006823F015FF33A13348FAF771FE50B1FB
:1056700032A13148FAF76CFE48B12F48FAF761FEC3
:10568000142831D048E02FA001F080FC44E02F4FD7
:105690000022391D2E48FDF7C7FA002239462C4852
:1056A000FDF7A0FA94F82600387694F8250078766D
:1056B000A08A7883BA78797826A011F095F8BB791A
:1056C0007A79397927A011F08FF897F918102BA063
:1056D00011F08AF897F919102CA011F085F8798B40
:1056E0002FA011F081F817E000950195124B6A4642
:1056F0000020029502E01154401CC0B2195C3D2903
:10570000F9D194F8440038B129A11046FAF720FEE7
:1057100010B9094801F00CF8E06B80474FF47A703B
:1057200023F01CFE92E70000350400205800002002
:10573000400000204D570000300C00204D572B53E7
:10574000454E44004F4B0D0A00000000FC0A0020AB
:10575000FC070020646174613A2532642D253032E3
:10576000640D0A0074696D653A253032643A25305B
:1057700032643A253032640D0A00000068756D69A4
:10578000646974793A256425250D0A0074656D7085
:10579000657261747572653A25640D0A0000000037
:1057A0005374657020746F6461793A25640D0A0042
:1057B0004D572B535400000030B4134900230A689E
:1057C00001E0134692695AB114688442F9D15BB181
:1057D00091699961002191610C490B683BB109E025
:1057E00030BC0BA001F0D2BB93690B60F2E70A60FA
:1057F00004E023469C69002CFBD19A61014630BC31
:105800000CA001F0C3BB00005403002028030020BB
:10581000416C61726D206E6F7420666F756E6420CE
:10582000696E20696E616374697665206C69737452
:105830000A000000416C61726D202564206D6F7656
:10584000656420746F20616374697665206C697388
:10585000740A0000114B30B40022196801E00A46B6
:10586000896959B10C688442F9D1886952B1906153
:105870000B4A00208861106830B109E030BC09A0F3
:1058800001F084BB1860F3E7116030BC704710462C
:105890008269002AFBD18161F7E70000280300201C
:1058A00054030020416C61726D206E6F7420666F2E
:1058B000756E640A0000000010B500F0D3F980682E
:1058C0000649884204D10B4805A1006819F0EAFF97
:1058D0000949012081F84C0010BD00009002002011
:1058E000506C65617365204F70656E204E46432E87
:1058F0002E2E0000C40200205800002010B500F039
:10590000B1F980680649884204D10C4805A10068B5
:1059100019F0C8FF0A49002081F84C0010BD0000B2
:105920009002002057616974696E6720666F72206B
:10593000436F6D6D616E642E2E2E0000C402002038
:1059400058000020FEE700B5034602E0184600F0CC
:1059500007F8184600F021F80028F7D000BD000035
:10596000017D49B100EB8102491E9FED040A0175DA
:1059700082ED000A00207047FF2070470000000001
:10598000017D042907D000EB8102491C017582EDDD
:10599000000A00207047FF207047007D08B10020FA
:1059A0007047012070472DE9FF4F82469946174600
:1059B0001046FFF7C8FF484600F0D4FC0025AB4670
:1059C0006BF307040121204661F307009AF80010E9
:1059D0006BF3070630390A2903D3012004B0BDE870
:1059E000F08F4FF00008F2EE041A88E01AF8082051
:1059F0002E2A08D1032161F3070410F0FF0F01D014
:105A00000220EBE72046A2F13003092B40D8397D74
:105A1000052903D899F80520052A01D90320DDE7D7
:105A200000EE103A6BF307046BF30706B8EEC00AFA
:105A300010F0FF00F0EE400A02D0032824D01FE04F
:105A40001DB16D1CEDB228460CE007EB810050ED56
:105A5000010A00EEA10AF0EE400A0CE080EEA10A75
:105A6000F0EE400A401EC0B2F8D207EB810010ED04
:105A7000010A70EE800A3846FFF772FFB0EE600A46
:105A80003846FFF77DFF37E0C0EE210A0125ECE73D
:105A90002B2A05D02D2A03D02A2A01D02F2A2CD137
:105AA000397D052903D899F80510052901D9042065
:105AB00094E701210025C0B261F3070462F30706F1
:105AC000012804D0484600F06DFC10B110E005201C
:105AD00084E799F80510A9F10100085C114600F06F
