:020000040800F2
:10000000280800209D01000853330008E725000858
:1000100051330008C5080008FD3B0008000000003F
:10002000000000000000000000000000FD35000896
:1000300091090008000000000D340008FF35000899
:10004000B7010008B7010008B7010008B7010008B0
:10005000B7010008B7010008B7010008B7010008A0
:10006000B7010008B7010008B7010008B701000890
:10007000C9080008D5080008B7010008E108000811
:10008000B7010008B7010008B7010008B701000870
:10009000B7010008B7010008B7010008FD09000812
:1000A000B7010008B7010008B7010008B701000850
:1000B000B7010008B7010008A5360008B70100081D
:1000C000B7010008B7010008B7010008B701000830
:1000D00099340008D13B0008B7010008DD3B000857
:1000E000E5090008B7010008B7010008B7010008DA
:1000F000B7010008B7010008B7010008B701000800
:10010000B7010008B7010008B7010008B7010008EF
:1001100089370008B7010008B7010008B7010008D7
:10012000B7010008B7010008B7010008B7010008CF
:10013000B7010008B7010008B7010008B7010008BF
:10014000B7010008B7010008B7010008B7010008AF
:10015000B7010008B7010008B7010008B70100089F
:10016000B7010008B7010008B7010008B70100088F
:10017000B7010008B7010008B7010008000000003F
:10018000B7010008B7010008DFF80CD000F0E0FA72
:1001900000480047614600082808002006488047BC
:1001A00006480047FEE7FEE7FEE7FEE7FEE7FEE75C
:1001B000FEE7FEE7FEE7FEE7953600088901000846
:1001C0002DE9F05F0546002092469B46884606468C
:1001D000814640241BE0284641464746224600F01F
:1001E00020FA53465A46C01A914110D31146184678
:1001F000224600F007FA2D1A67EB01084F46224607
:100200000120002100F0FEF917EB00094E41201EED
:10021000A4F10104DFDC484631462A464346BDE8E6
:10022000F09FD2B201E000F8012B491EFBD27047CB
:100230000022F6E710B513460A4604461946FFF7B2
:10024000F0FF204610BD2DE9FE4F804681EA0300F5
:10025000C00F0C46009021F0004123F00045B8EBA0
:100260000200A94105D24046214690461C460B4655
:10027000024623F00040104347D0270DC7F30A0081
:10028000C3F30A510290401A019040286BDAC3F37D
:10029000130040F4801B0098924620B10023D2EB5B
:1002A000030A63EB0B0B01985946C0F1400250461C
:1002B00000F0A8F906460D4650465946019A00F04E
:1002C000C0F910EB08006141002487EA115284EA6A
:1002D000E7731A4340D0009A62B3019A012A4FEAA9
:1002E000075215DC001B61EB02014FF0004202EAED
:1002F0000752CDE90042001C41F5801132462B46E1
:1003000000F0C0F903B0BDE8F08F40462146F9E7A0
:10031000001B61EB0201001C41F5801300185B41DA
:100320002018A2F5001747EB030140EAD570B61973
:100330006D4111E06D084FEA360645EAC0754FEA97
:100340000752001B61EB0201001C41F580114908B6
:100350004FEA30000019514132462B4603B0BDE848
:10036000F04F00F080B90098012240000023D0EB4C
:10037000020263EBE073009821464FEAE074B8EBA9
:10038000000061EB0401E9E783F000435BE781F0E3
:10039000004158E72DE9FE4F81EA030404F00044D0
:1003A00021F0004100944FF0000B23F0004350EA8D
:1003B00001045ED052EA03045BD0C3F30A54C1F3D4
:1003C0000A552C44A4F2F3340194A0FB0254C1F367
:1003D000130141F48011C3F3130343F4801301FBB1
:1003E000024400FB034E840A970A44EA815447EA18
:1003F0008357A4FB076802958D0A05FB07854FEA22
:10040000932C04FB0C542705029D4FEA065847EA3B
:100410001637B5EB08056EEB070C870E920E47EA10
:10042000811742EA8312A7FB0201B6EB0B0164EBD2
:1004300000042B0D43EA0C335E1844EB1C50DA46E3
:100440005146E7FB0201C5F313044FEA0B3343EABD
:1004500014534FEA0432019C43EA0603A4F10C044E
:100460000294009CCDE900B400F00CF903B0BDE8A3
:10047000F08F00200146F9E72DE9F04D81EA0304F1
:1004800004F0004B21F0004514464FF0000A23F021
:10049000004150EA050220D054EA01021DD0C5F304
:1004A0000A570246C5F31303C1F31300C1F30A56FA
:1004B00040F4801543F48013A7EB0608101BD646C2
:1004C00008F2FD3873EB050002D308F1010801E0E2
:1004D00092185B41B8F1000F03DA00200146BDE835
:1004E000F08D00204FF48011064684460EE0171B65
:1004F00073EB050705D3121B63EB050306434CEAB8
:10050000010C49084FEA300092185B4150EA01079C
:10051000EDD152EA030012D082EA040083EA050119
:10052000084305D0101BAB4106D20122002306E090
:1005300000224FF0004302E06FF0010253101AEB6B
:1005400006004CEB085110EB0A0041EB0B01BDE833
:10055000F04D00F088B80EB5C10F80EAE070084495
:10056000CA07002140F233438DE80E000A460B46CD
:1005700000F088F803B000BD30B5041E71F100042E
:1005800004DB4FF00044404264EB0101141E73F1A0
:10059000000405DB1C464FF00043524263EB0403AA
:1005A0008B4208BF824230BD30B5041E71F1000499
:1005B00004DB4FF00044404264EB0101141E73F170
:1005C000000405DB1C464FF00043524263EB04037A
:1005D000994208BF904230BD30B50B46014600201D
:1005E0002022012409E021FA02F59D4205D303FAF5
:1005F00002F5491B04FA02F52844151EA2F1010276
:10060000F1DC30BD202A04DB203A00FA02F10020A0
:1006100070479140C2F1200320FA03F31943904040
:100620007047202A04DB203A21FA02F000217047AB
:1006300021FA02F3D040C2F120029140084319464A
:100640007047202A06DBCB17203A41FA02F043EA32
:10065000E07306E041FA02F3D040C2F1200291407B
:1006600008431946704710B5141E73F1000408DAE8
:10067000401C41F1000192185B411A4301D120F066
:10068000010010BD2DE9F04D92469B4611B1B1FA23
:1006900081F202E0B0FA80F220329046FFF7B2FF1A
:1006A00004460F4640EA0A0041EA0B0153465A4607
:1006B000084313D0114653EA010019D0C8F1400293
:1006C0005046FFF7AEFF05460E4650465946424695
:1006D000FFF798FF084305D0012004E02046394683
:1006E000BDE8F08D0020054346EAE0762C43374311
:1006F0000A986305E40AA0EB08000022FD0A44EA18
:1007000047540A3002D500200146E9E701051019D7
:100710006941DDE9084500196941BDE8F04DA2E7EE
:10072000C1F30A52C1F3130140F2FF3341F48011C7
:100730009A4202DA00200146704740F233439A425F
:10074000A2F2334202DC5242FFF76BBFFFF75ABFFF
:10075000064C074D06E0E06840F0010394E807000E
:1007600098471034AC42F6D3FFF712FD80660008BC
:10077000A0660008064882B0016841F002010160ED
:10078000006800F002000090024802B001F02CBFA7
:10079000303802401C00002070B515460E46044655
:1007A00006E02046641CA4B200F006F806F8010B2F
:1007B0006D1EADB2F5D270BD10B50446134801F000
:1007C0009AFF200AA02101EB4000C1B20F4801F0BE
:1007D0004FFF0E4801F0CDFFE1B20C4801F048FF99
:1007E0000A4801F0C6FF094801F085FFA12107482A
:1007F00001F03EFF054801F0BCFF044801F00EFF88
:100800000446024801F096FF204610BD1C0000205F
:1008100070B514460D46064606E02978304600F0CD
:1008200007F8761CB6B26D1C641EA4B2F5D270BD7A
:1008300070B504460D46124801F05DFF200AA02164
:1008400001EB4000C1B20E4801F012FF0C4801F06C
:1008500090FFE1B20A4801F00BFF094801F089FF5F
:100860002946074801F004FF054801F082FF0448CB
:1008700001F060FFBDE870400A2000F08AB8000077
:100880001C000020C2B24FF48051014800F0D3BCDC
:10089000001402404FF40051014800F0BFBC0000BA
:1008A0000014024005480068C16841F01001C160B1
:1008B00080220349014801F0AEBB0000E4010020A2
:1008C000A4030020FEE70000014800F0BBB90000CF
:1008D000EC020020014800F0B5B900002C02002015
:1008E000014800F0AFB900008C0200200168182315
:1008F000CAB2103AB2FBF3F2054B6FF30901032AB7
:100900009B5CC36500D9091D8165084670470000DE
:10091000284F000810B5014600208B698A6A4FF005
:10092000C07453B1B3F5005F15D072B1012A0CD079
:10093000022A0AD0032A09D104E01AB1012A06D0FA
:10094000022A03D1C96AC90100D5012010BDC96AB4
:10095000A142FAD010BD002AF7D0012AF2D0022A13
:10096000F3D0032AF3D010BD30B50468256825F410
:1009700080252560046863608368402B036803D08A
:1009800099600068C26030BD9A600068C16030BD87
:10099000704770B5054600244FF47A7603E0304680
:1009A00000F004F8641CAC42F9D370BD30B50C4AB9
:1009B00000211468E36A4FF47A725843B0FBF2F5F1
:1009C000626A606A9042FCD002D9A0EB020202E0A7
:1009D000A3EB0202024411440246A942F1D330BD06
:1009E0004C03002010B54FF4805000F023FBBDE80D
:1009F00010404FF4005000F01DBB000002490120E0
:100A00000870202000F016BB0800002072B6FEE738
:100A100030B5B3F5804F05D06FF0704140F822102B
:100A2000002030BD8C690B688D6823434C68898930
:100A3000240144EA0524234343EA014150F82230CB
:100A4000014C23401943E9E70000F0CF10B50A68D4
:100A500050F8223023F0010340F822308B68082B35
:100A600023D000224C681C43CB6813430A691C4303
:100A700014434A698B691443CA6914430A6A1443CC
:100A80004A6A14438A6A1443CA6A14430A6B1443B9
:100A9000CA6B234309681A43054C50F82130A3431D
:100AA000134340F82130002010BD4022DAE7000057
:100AB0007FFF0F0030B5D1E9003443EA04138C689E
:100AC0008D89240244EA054423430C8A094D00EB36
:100AD000820005EB045423430C7D6D0105EB046497
:100AE000896923430B43416801F040410B43436054
:100AF000002030BD0000F0FF2DE9F84F89461E466A
:100B0000904682460024714203220A9802EB410576
:100B1000C8B930E0274608E03B46224649465046E1
:100B2000CDF8008003F0AFF87F1CB742F4DD002D54
:100B300003DA05EB8405AD1D04E0A01B05EB800581
:100B40000A35761E641CB442E4DDBDE8F88F3346F6
:100B5000224649465046CDF8008003F094F8002D17
:100B600003DA05EB8405AD1D04E0A01B05EB800551
:100B70000A35761E641CB442E9DDE6E710B514467A
:100B800001F086FF2046BDE8104002F08FB82DE945
:100B9000F0410446876D00F053FB054694F835009C
:100BA0000026022806D08020606584F83460012089
:100BB000BDE8F0812068016821F01601016020681D
:100BC000416921F080014161206C08B9A06C20B11D
:100BD0002068016821F0080101602068016821F0A7
:100BE000010101600CE000F02BFB401B052807D938
:100BF00020206065032084F8350084F83460D7E74E
:100C000020680068C007EED194F85C103F2088404F
:100C1000B860012084F8350084F834600020C7E70C
:100C200090F83510022903D08021416501207047DA
:100C3000052180F835100068016821F0010101608C
:100C4000002070472DE9F84304464FF00009CDF825
:100C5000009063484FF41651A56D0068B0FBF1F7A2
:100C60002E6894F85C20082101FA02F030420FD07F
:100C70002068026852070BD5026822F00402026065
:100C800094F85C008140A960606D40F001006065EF
:100C900094F85C104FF0010808FA01F0304208D0D7
:100CA00021684969090604D5A860606D40F002001A
:100CB000606594F85C1004208840304208D02168B8
:100CC0000968890704D5A860606D40F0040060657C
:100CD00094F85C1010208840304218D021680968D0
:100CE000090714D5A86020680168490304D5006885
:100CF000000308D5A16C07E00168C90503D40168A9
:100D000021F008010160216C09B12046884794F860
:100D10005C1020208840304231D021680968C90623
:100D20002DD5A86094F8350005282068016806D004
:100D3000490347D5006800031DD4616C1CE021F015
:100D4000160101602068416921F080014161206C39
:100D500008B9A06C20B12068016821F00801016089
:100D600094F85C103F208840A86084F8358084F8AF
:100D70003490216D1FE0E16B09B120468847606D1A
:100D800000282BD0606DC00714D0052084F83500F2
:100D90002068016821F0010101600098401C00906A
:100DA000B84203D820680068C007F6D184F83580BF
:100DB00084F83490E16C002910D001B02046BDE8E1
:100DC000F04308470168C905D5D4016821F0100136
:100DD000016084F8358084F83490CCE7BDE8F8836E
:100DE000180000202DE9F041044600F029FA0546DC
:100DF0005CB1022084F83500002684F83460206855
:100E0000016821F0010101600DE00120BDE8F081E1
:100E100000F016FA401B052805D920206065032044
:100E200084F83500F2E720680068C007F0D1216837
:100E30000A6820480240D4E901031843D4E9033585
:100E40002B43184363691843A3691843E3691843A4
:100E5000236A18431043626A042A03D1D4E90B239E
:100E60001A431043086020684069656A20F0070152
:100E700028460D43012704280CD1A06A0543E06AE7
:100E800040B12046FFF746FD20B14020606584F860
:100E90003570BAE7206845612046FFF727FD94F8D2
:100EA0005C203F2191408160666584F835700020A8
:100EB000ACE700003F8010F02DE9F0410446866D5C
:100EC00090F83400002501280DD0012084F834006A
:100ED00094F835700020012F07D084F834000225E3
:100EE0002846BDE8F0810220FBE7022784F8357030
:100EF00060652046FFF738FD94F85C103F2088407D
:100F0000B0602068016841F016010160206C20B1DA
:100F10002068016841F0080101602068016841F023
:100F200001010160DCE7000070B5044600F088F9BB
:100F30000546601C02D004480078044400F080F9A3
:100F4000401BA042FAD370BD0C000020F0B587B062
:100F500014216846FFF76CF91A48016800292FD15F
:100F60000121016018480024016841F0010101607D
:100F70000068022500F0010005904FF68070CDE971
:100F8000000502AA03260C2782E8D00069460F4814
:100F900000F05CF84CF23370CDE9000502AA694616
:100FA00082E8D0000A4800F051F841F20400CDE98F
:100FB000000502AA694682E8D000064800F046F81B
:100FC00007B0F0BD00000020383802400010024099
:100FD000000C02400018024070B504461420FFF7D0
:100FE000D8FC4FF480511148114D8C4213D0490068
:100FF0008C421AD100F012F9002816D1102128468F
:1010000000F011F90821284600F00DF90020BDE894
:101010007040FFF737BC00F001F9002805D110211E
:10102000284600F000F90120F1E770BD000C0240F5
:1010300000140240044910B50A68024202D0086058
:10104000FFF7CAFF10BD0000143C01402DE9F84F26
:10105000DFF89C910022A9F1040B03274FF00F0C3D
:1010600009F1040AABF1040E01250B6895402B40F1
:10107000AB426ED10C7904F00304012C01D0022C98
:1010800015D18668540007FA04F826EA0806D1F854
:101090000C8008FA04F848EA0608C0F8088044689A
:1010A000AC430D79C5F300159540254345600C7997
:1010B000E443A40708D0C568540007FA04F6B54312
:1010C0008E68A6402E43C6600C7904F00304022CFF
:1010D00011D1D40800EB8406356A5407E40E0CFAEB
:1010E00004F825EA0805D1F8108008FA04F848EA5F
:1010F0000508C6F820800568540007FA04F6B543D1
:101100000E7906F00306A6402E4306604C6814F4E0
:10111000403F66D0374C256845F4804525602468FB
:1011200022F0030504F480440094334C05EB0408DA
:10113000D8F808589407260F0CFA06F4A5432F4C4C
:10114000A04201D1002424E02D4CA04202D1012470
:101150001FE046E02B4CA04201D1022419E02A4CAA
:10116000A04201D1032414E0284CA04201D1042460
:101170000FE0274CA04201D105240AE0254CA042F3
:1011800001D1062405E0244CA04201D1072400E04F
:101190000824B4402C43C8F80848D9F800404D460C
:1011A0004E689C43F60200D51C432C60DAF80040E0
:1011B00055464E689C43B60200D51C432C60DBF8B4
:1011C00000405D464E689C43B60300D51C432C602E
:1011D000DEF8004075464E689C43F60300D51C437C
:1011E0002C60521C102AFFF43FAFBDE8F88F0000BE
:1011F000083C0140443802400030014000000240F9
:101200000004024000080240000C024000100240AE
:101210000014024000180240001C0240006908400F
:1012200000D001207047426921EA02030A4043EAE4
:101230000241816170470AB1816170470904FBE78F
:1012400001488068704700000C0000200248816857
:1012500002781144816070470C0000200B4810B5E3
:10126000016841F400710160016841F4806101602E
:10127000016841F480710160032000F09BF80F20A9
:1012800000F006F800F050F8002010BD003C0240CD
:1012900030B505461F4887B00024016841F00401BD
:1012A0000160006806A900F004000590684600F09F
:1012B0002DF90398A8B100F049F940001649174AE2
:1012C000B0FBF1F11648491E026040F2E732C0E976
:1012D0000324C0E90114846100F087FD040003D0F9
:1012E00015E000F033F9E9E70D4800F0ADFD04002A
:1012F0000DD11E2000F030F8102D07D20022294613
:101300001E2000F037F80748056000E0012407B010
:10131000204630BD4038024040420F0000080040E7
:101320004C030020100000200A4808B5016841F471
:1013300080410160006800F4804000900548001F73
:10134000016841F080510160006800F08050009019
:1013500008BD000044380240002809DB00F01F02ED
:10136000012191404009800000F1E020C0F8001107
:1013700070470000F0B40E4B1B68C3F30223C3F1A7
:101380000704042C00D904241D1D072D01D20023BD
:1013900000E0DB1E012606FA04F56D1E0D409D409F
:1013A0009E40761E164045EA0601F0BC02F04CBC99
:1013B0000CED00E0064A00F0070110684FF6FF034D
:1013C000184040EA012003490843106070470000BC
:1013D0000CED00E00000FA052DE9F0470D46040091
:1013E00065D0DFF81491D9F80000EFB200F00700E3
:1013F000A84207D289F80070D9F8000000F0070071
:10140000A84254D120683D4E810712D5400703D52C
:10141000306840F4E05030602078000703D5306831
:1014200040F4604030603068A16820F0F00008436C
:1014300030602078C0072DD0304960680839012815
:1014400012D0022813D0032811D009688907002977
:101450002DDA316821F0030101433160FFF7F0FE1E
:10146000804641F2883A0EE009688903EFE709688F
:101470008901ECE7FFF7E4FEA0EB0801514502D932
:101480000320BDE8F0873068616800F00C00B0EB25
:10149000810FEFD1D9F80010484601F00701A942A9
:1014A00007D90770006800F00700A84201D00120AA
:1014B000E7E72078400705D53068E16820F4E05080
:1014C000084330602078000706D53068216920F491
:1014D000604040EAC100306000F058F83168084AC6
:1014E000C1F30311515CC840064908600648006812
:1014F000FFF7CEFE0020C4E7003C0240083802405F
:10150000304F000818000020100000200F22026059
:101510000C4A136803F003034360136803F0F003FD
:101520008360136803F4E053C36012684FF4E05320
:1015300003EAD20202610448006800F00700086074
:101540007047000008380240003C0240044805494A
:1015500000680968044AC1F38221515CC8407047A1
:101560001800002008380240404F00080448054990
:1015700000680968044AC1F34231515CC8407047B1
:101580001800002008380240404F0008154810B5E8
:10159000006810F00C01144813D0431004290FD038
:1015A00008290ED10F4C241F216801F03F02216849
:1015B000490207D52068C0F38810A0FB030106E0AC
:1015C000184610BD2168C1F38811A1FB000100235A
:1015D000FEF7F6FD2168C1F30141491C4900B0FB4B
:1015E000F1F010BD083802400024F4002DE9F84F56
:1015F000040075D02078DFF838A3C007AAF10405ED
:1016000048D00AF104000168C1F38101012908D022
:101610000068C0F3810002280AD1DAF80000400215
:1016200006D52868800335D560680028E1D031E010
:101630006068B0F5803F10D0B0F5A02F286810D0BA
:1016400020F480302860286820F4802028606068BA
:10165000A0B1FFF7F5FD06460CE0286840F48030A5
:10166000F4E740F480202860F7E7FFF7E9FD801BEE
:10167000642871D828688003F7D50BE0FFF7E0FDF8
:10168000064604E0FFF7DCFD801B6428F1D82868DB
:101690008003F7D42078DFF89C9280074FF0000B8E
:1016A0003DD5A348001D016811F00C0F08D000685B
:1016B000C0F3810002280AD1DAF80000400206D403
:1016C0002868800715D5E068012809D111E0E06895
:1016D000B8B10120C9F80000FFF7B2FD064605E0E9
:1016E00022E1FFF7ADFD801B0228C2D828688007E1
:1016F000F7D52868216920F0F80040EAC100286089
:101700000DE0C9F800B0FFF79BFD064604E0FFF7C7
:1017100097FD801B02281FD828688007F7D42078FF
:10172000000722D5824F84486169703771B1012169
:101730000160FFF785FD064604E0FFF781FD801B91
:10174000022809D838688007F7D50EE0C0F800B045
:10175000FFF776FD064605E082E0FFF771FD801B8E
:1017600002287DD838688007F7D42078400765D5EF
:101770006F484FF000083C300068C0000BD46C4844
:101780003C30016841F08051016000684FF0010871
:1017900000F080500090694F3868C0050FD4386859
:1017A00040F480703860FFF74BFD064604E0FFF719
:1017B00047FD801B022853D83868C005F7D55C4F19
:1017C000A0686C3701280FD00528386810D020F0A9
:1017D00001003860386820F004003860A068B0B1BB
:1017E000FFF72EFD06460EE0386840F00100F4E7F2
:1017F00040F004003860F7E7FFF722FD811B41F25B
:101800008830814263D838688007F5D50DE0FFF74E
:1018100017FD064606E0FFF713FD811B41F28830F5
:10182000814254D838688007F5D4B8F1000F05D04C
:101830003F483C30016821F080510160A069B8B395
:101840003B49091D0968C1F38101022946D00228DC
:10185000584606D0C9F86000FFF7F2FC044639E0AC
:1018600035E04F46C9F86000FFF7EAFC064604E0A1
:10187000FFF7E6FC801B022829D828688001F7D4EE
:10188000D4E907010843A16A2D4A490802EB014146
:10189000626A41EA8211084394F82C1040EA01611F
:1018A000CAF8001001203866FFF7CAFC044605E0BC
:1018B0003CE0FFF7C5FC001B022808D8286880011F
:1018C000F7D533E0FFF7BCFC001B022802D9032048
:1018D000BDE8F88F28688001F4D427E00128F7D00C
:1018E000DAF80000E26900F4800191421CD1226A1A
:1018F00000F03F01914217D147F6C071626A014082
:10190000B1EB821F10D1A26A4FF0FF3300F44031D7
:1019100003EB5202B1EB024F06D194F82C1000F009
:101920007060B0EB016F01D00120D1E70020CFE75C
:101930000438024000004742800E474200700040D9
:101940000000FFFF7047000038B5016804464A6890
:101950008868C043430606D5C30704D1D3435B065A
:1019600001D4216C05E0830708D4D3431B0605D4BA
:10197000616C01B02046BDE830400847830603D5BE
:10198000430601D5C30551D4D3439B064ED4430629
:101990000AD494F85130032B49D0636D43F004030B
:1019A0006365CB688B680093830609D4636D43F04D
:1019B000010363658B6800930B6823F040030B60A1
:1019C000C00506D4606D40F008006065206880683E
:1019D0000090606D002829D02068416821F0E00166
:1019E0004160012084F85100900701D4D00722D033
:1019F0002068416821F003014160114DE06C40B165
:101A00000565E06CFFF70CF918B1606D40F040001F
:101A10006065A06C002809D00565A06CFFF700F98F
:101A2000002803D0606D40F04000606538BDC86894
:101A30008868009038BD2046FFF784FF38BD00005D
:101A4000C934000870B5040009D0606A002540B1AF
:101A500025616561A56294F8510040B10CE0012058
:101A600070BD6068B0F5827FF4D0E561F2E784F87C
:101A70005050204600F044F8022084F851002068BD
:101A8000016821F040010160A088218900F4827082
:101A900001F404410843A18901F400610843217C59
:101AA00001F002010843217D01F001010843218B6F
:101AB00001F400710843217F01F03801084394F8D4
:101AC000201001F080010843218D01F400510843EA
:101AD00021680860A069042101EA104094F82410EC
:101AE00001F010010843216848602068C16921F4B1
:101AF0000061C1616565012084F85100002070BD5E
:101B0000F0B587B0044614216846FEF791FB2049E2
:101B1000206888423AD11F480025016841F480417D
:101B20000160006800F4804005901A481038016890
:101B300041F004010160016801F0040105910168B0
:101B400041F0020101600068022600F002000590E9
:101B50000C20CDE90006032705240295CDE9037486
:101B600069460D48FFF772FA3003CDE90006029589
:101B7000CDE9037469460948FFF768FA0022114667
:101B80002420FFF7F7FB2420FFF7E6FB07B0F0BDAA
:101B90000038004040380240000802400004024083
:101BA0002DE9FF4F81B01F469346044601250E9E46
:101BB000FFF746FB804694F851006168012806D083
:101BC000B1F5827F3CD1A168C9BB042838D1029805
:101BD000002870D0BBF1000FFBD0002FF9D094F893
:101BE000500001282CD04FF0010A84F850A094F83E
:101BF0005100042802D0052084F851004FF000095C
:101C0000C4F85490C4F838B0E787A78702992163D5
:101C1000E786A786C4F84090C4F84490206801681D
:101C2000490603D4016841F040010160E068B0F565
:101C3000006F606808D0E8B3012F47D07DE0FFE770
:101C4000022005B0BDE8F08F08B1012F37D1206B1D
:101C500021680088C860206B801C2063E08E401ED5
:101C6000E0862CE02068816889070DD5E18E59B1A6
:101C7000012D09D1216B0988C160206B801C206374
:101C8000E08E401EE086002520688168C9070BD0E1
:101C9000E18F49B1C068A16B0880A06B801CA06374
:101CA000E08F401EE0870125FFF7CAFAA0EB08008D
:101CB000B04201E00AE064E001D3701C4ED1E08E36
:101CC0000028CFD1E08F0028CCD13CE0206B2168E8
:101CD00000780873206B401C2063E08E401EE08675
:101CE0002BE02068816889070DD5E18E59B1012D5F
:101CF00009D1216B09780173206B401C2063E08EB1
:101D0000401EE086002520688168C9070BD0E18F5E
:101D100049B1C068A16B0870A06B401CA063E08F44
:101D2000401EE0870125FFF78BFAA0EB0800B042C8
:101D300002D3701C01D011E086B1E08E0028D0D112
:101D4000E08F0028CDD142463146204601F0C4FB49
:101D500050B12020606584F8509012E084F851A0C2
:101D600084F8509003206CE7A06818B92068C16817
:101D70008068009084F851A084F85090606D00282D
:101D8000F1D001205DE770B515460E46040003D082
:101D900094F8490010B107E0012070BD002084F8DC
:101DA0004800204600F01DF804F108012068FEF705
:101DB0004DFE3146A2682068FEF77CFED4E90102A0
:101DC0002946236BFEF724FEA168206850F82120E5
:101DD00042F0010240F82120012084F8490000204F
:101DE00070BDFFF7B3B87047704710B5040003D05B
:101DF00094F83D0010B107E0012010BD002084F8E8
:101E00003C00204600F01EF8022084F83D00211D11
:101E1000206801F04DFC012084F8460084F83E0063
:101E200084F83F0084F8400084F8410084F84200C0
:101E300084F8430084F8440084F8450084F83D00A9
:101E4000002010BD7047000090F83D10012901D01E
:101E500001207047022180F83D100168CA6842F0F5
:101E60000102CA6000681149884214D0B0F1804F65
:101E700011D00F4988420ED00E4988420BD00E492E
:101E8000884208D00D49884205D00D49884202D0C9
:101E90000C49884204D1816801F00701062903D06A
:101EA000016841F00101016000207047000001401D
:101EB0000004004000080040000C00400004014005
:101EC000004001400018004070472DE9F0410446F1
:101ED0000068C66805694FF00007A90713D5B10768
:101EE00011D5F91E016101202077206880698007E3
:101EF000204602D0FFF7E8FF04E000F07EF820461D
:101F000000F07CF82777680716D5700714D521688C
:101F10006FF004000861022020772068806910F4C7
:101F2000407F204602D0FFF7CFFF04E000F065F8C5
:101F3000204600F063F82777280715D5300713D51A
:101F400021686FF008000861042020772068C069CC
:101F50008007204602D0FFF7B7FF04E000F04DF8FD
:101F6000204600F04BF82777E80616D5F00614D582
:101F700021686FF010000861082020772068C06990
:101F800010F4407F204602D0FFF79EFF04E000F0EF
:101F900034F8204600F032F82777E80708D0F00739
:101FA00006D021686FF001000861204600F028F893
:101FB000280608D5300606D521686FF08000086134
:101FC0002046FFF710FF680608D5700606D5216881
:101FD0006FF040000861204600F01CF8A8060AD502
:101FE000B00608D521686FF0200008612046BDE8E2
:101FF000F041FFF7F9BEBDE8F0817047704700007F
:1020000000680349884201D1FFF720B970470000FA
:1020100000080040704738B5044690F84200202878
:1020200001D0022038BD51B14AB101202063002007
:102030006063204601F04AFD010002D005E0012066
:1020400038BD206B012802D00121084638BD206828
:1020500002684068009020680C3050E8002F42F081
:10206000100240E80023002BF5D1EEE710B5006820
:102070000A49884210D10A48006840684FF0FF338F
:102080004042C2B20749084800F05CFABDE810407F
:1020900080210448FEF7CCB810BD00000048004085
:1020A000EC020020A4030020E4010020704700009F
:1020B000F8B5016804460868CA684B6910F00F0F4C
:1020C0004FF0000559D003F0010602F49077374332
:1020D00065D0C10705D0D10503D5616C41F0010180
:1020E0006164410705D5D90703D0616C41F0020155
:1020F0006164810705D5D90703D0616C41F0040103
:102100006164010707D502F02001314303D0616CFF
:1021100041F008016164616C00293AD0800604D561
:10212000900602D5204601F0E9FB20684069616C09
:10213000C0F38010090700D460B3204601F0A9FB6A
:1021400020684069400621D52068143050E8001FFF
:1021500021F0400140E80012002AF5D1E06BA8B15F
:102160006E490165E06BFEF75BFD002811D0E06B66
:10217000016D01B0BDE8F040084783060FD5930616
:102180000DD52046BDE8F84001F0B8BB2046FFF76A
:102190008DFFF8BD2046FFF789FF6564F8BD266B0B
:1021A0002023012E7DD1C6067BD5D60679D50868B9
:1021B0004868009048694FF00206400641D5E16B3F
:1021C000086840680004000CE8D0A28D8242E5D97E
:1021D000E085C869B0F5807F2DD020680C3050E8CC
:1021E000001F21F4807140E80012002AF5D1206818
:1021F000143050E8001F21F0010140E80012002ACD
:10220000F5D12068143050E8001F21F0400140E86B
:102210000012002AF5D184F84230256320680C3082
:1022200050E8001F21F0100140E80012002AF5D10B
:10223000E06BFEF7ACFC6663A08DE18D401A81B2C5
:102240002AE0A08DE18D401A81B2E08D0028A5D052
:102250000029A3D020680C3050E8002F22F490729F
:1022600040E80027002FF5D12068143050E8002FF7
:1022700022F0010240E80027002FF5D184F8423017
:10228000256320680C3050E8002F22F0100240E84F
:102290000023002BF5D166632046FFF7E7FEF8BD6B
:1022A000FFE705062BD5150629D594F8410021280E
:1022B000F5D1A068B0F5805F01D12069B0B1206A86
:1022C000411C2162216800784860E08C401E0004B7
:1022D000000CE084E3D12068C16821F08001C16076
:1022E0002068C16841F04001C160D8E7206A0088D9
:1022F000C0F308004860206A801C2062E5E74006C1
:10230000CDD55006CBD5CA68204622F04002CA601F
:1023100084F8413000F066F9C1E700009537000805
:1023200070B5040004D094F84100002510B106E017
:10233000012070BD84F84050204600F023F824208E
:1023400084F841002068C16821F40051C160204632
:1023500001F036FB2068016921F490410161206899
:10236000416921F02A0141612068C16841F40051AE
:10237000C1606564202084F8410084F842006563F0
:10238000002070BD2DE9F04786B004461421684650
:10239000FDF74EFF6349DFF888C102232068614ED4
:1023A00010390322DFF880A100259F064FF48069D1
:1023B00060454CD1306840F400203060306800F453
:1023C00000200590086840F0010008600868694630
:1023D00000F0010005908DE82C000820CDE90320D5
:1023E0005046FEF733FE524E5048B8463060C6E9BC
:1023F0000175C6E903597561B561F56135624F46EE
:1024000030467562FEF7EEFC08B1FEF7FFFAE663B0
:10241000B463474E454860363030E6E80208402055
:10242000A1C6434846F814596030B561F56135627C
:102430007562FEF7D7FC08B1FEF7E8FAA663002242
:1024400011463420B463FEF795FF342027E0DFF80F
:10245000E4804FF0070C404526D13248001D046847
:1024600044F010040460006800F010000590086853
:1024700040F0010008600868694600F0010005901E
:102480004FF4C0608DE82900CDE9032C5046FEF7DB
:10249000DDFD002211462520FEF76CFF2520FEF70A
:1024A0005BFF06B0BDE8F087DFF88C804045F8D1CF
:1024B000306840F480203060306800F4802005905F
:1024C000086840F0020008600868694600F00200F1
:1024D00005904FF440608DE82900CDE9032C1748A2
:1024E000FEF7B4FD124E1148C03618383060C6E908
:1024F0000175C6E9035980157561C6E90650356254
:1025000030467562FEF76EFC08B1FEF77FFAE663AF
:10251000002211462720B463FEF72CFF2720BEE7D8
:10252000004C004040380240000002404060024041
:102530002C0200200010014000480040000402402E
:10254000704770472DE9F843044690F841001F4654
:1025500015460E46202802D00220BDE8F8838EB131
:1025600085B100206064212084F84100FEF768FEF8
:10257000A5848146E584A0684FF02008B0F5805F0F
:1025800002D003E00120E8E7206910B135460026BB
:102590000EE000250CE08021204601F0E1FAA0B910
:1025A000BDB115F8010B21684860E08C401EE08445
:1025B000E08C4B464FF0000200970028EBD14FF023
:1025C0004001204601F0CCFA40B184F8418003205C
:1025D000C3E736F8020BC0F30800E4E784F8418053
:1025E0000020BAE77047FEE710B586B00446142114
:1025F0006846FDF71DFE20890090012001900290A1
:102600000220039069462068FEF720FD6089009053
:1026100069466068FEF71AFD06B010BD2DE9F0416D
:1026200006460824002500F004FF14E06806070EA3
:102630000021304600F0EBFE0220FEF7B7F9012141
:10264000304600F0E4FE0120FEF7B0F9304600F01D
:10265000E7FE40EA0705641EE4B2E7D200213046F7
:1026600000F0D5FE304600F002FF2846BDE8F081BC
:1026700070B50D460646082418E000F0C8FE02209A
:10268000FEF794F905F08001304600F0E7FE0120E6
:10269000FEF78CF96806050E0120FEF787F9012187
:1026A000304600F0B4FE0120FEF780F9641EE4B26B
:1026B0004FF000013046E0D200F0A9FEBDE87040C6
:1026C0000220FEF773B910B50446012100F0C6FEE2
:1026D0000120FEF76BF90121204600F098FE012051
:1026E000FEF764F90021204600F091FEBDE810409D
:1026F0000220FEF75BB910B50446012100F0AEFEE2
:102700000220FEF753F90121204600F080FE01204F
:10271000FEF74CF90021204600F0A0FE0120FEF754
:1027200045F90021204600F072FEBDE8104001206E
:10273000FEF73CB910B50446002100F068FE022007
:10274000FEF734F90021204600F088FE0120FEF754
:102750002DF90121204600F05AFE0120FEF726F94E
:102760000121204600F07AFEBDE810400120FEF76E
:102770001DB970B50546052400F05BFE0121284611
:1027800000F045FE05E0641EA4B20120FEF70EF93C
:1027900084B1284600F044FE0028F4D1284600F019
:1027A00066FE0021284600F032FE0220FEF7FEF809
:1027B000002070BD284600F05AFE2846FFF7BAFFF9
:1027C000012070BD30B505460A480488408821467E
:1027D0004443491E401E8AB283B20021084600F0DD
:1027E0005BF90021044801E00580491CA142FBD3AC
:1027F00030BD0000940300200020006C2DE9FE4F46
:102800000026A2EB000882465F1A701E35468946F4
:10281000B8F1000F02DD4FF0010102E003D14FF0EB
:102820000001019102E0C8F100080190002F02DDD3
:102830004FF0010002E003D14FF00000009002E0F1
:10284000C7F1000700904046B84501DD044600E0AE
:102850003C46601C4FF0000B029015E01FFA89F116
:102860001FFA8AF000F016F846443D44A64202DD05
:102870000199361B8A44A54202DD00992D1B89442B
:102880000BF101001FFA80FB02998B45E6DDBDE8E4
:10289000FE8F000000B500F0FBF8024802490088F6
:1028A000088000BD280000200020006C2DE9F041C8
:1028B000141A641CA6B25C1A641CA7B2DDF8188056
:1028C00000F0EAF800250AE0002404E0404600F0A9
:1028D000EDF9641CA4B2B442F8D36D1CADB2BD4294
:1028E000F2D3064841880088491EBDE8F041401EE9
:1028F0008BB282B20021084600F0CEB894030020CB
:1029000010B56420FEF745F85F4CCF2020800021F1
:10291000A01C0180C921018030210180ED2121808E
:102920006421018003210180122101808121018025
:10293000E821218085210180102101807A210180F8
:10294000CB212180392101802C21018000210180AF
:102950003421018002210180F72121802021018082
:10296000EA212180002101800180C02121801B21DA
:102970000180C121218000210180C52121803021D9
:1029800001800180C7212180B7210180362121806B
:10299000082101803A21218055210180B121218027
:1029A000002101801A210180B62121800A210180A5
:1029B000A2210180F2212180002101802621218095
:1029C00001210180E02121800F2101802A21018045
:1029D00028210180082101800E2101800821018029
:1029E00054210180A9210180432101800A21018015
:1029F0000F21018000210180018001800180E121FF
:102A000021800021018015210180172101800721EB
:102A1000018011210180062101802B210180562196
:102A200001803C21018005210180102101800F21BE
:102A300001803F21018001800F2101802B21218015
:102A4000002101800180012101803F2101802A2194
:102A500021800021018001800180EF21018011206F
:102A600020807820FDF795FF29202080002000F0AD
:102A7000F5F8012291020548FEF7DDFBBDE81040A4
:102A80004FF6FF70FFF79EBEFE1F006C0014024061
:102A90000B460246AFF30080F0B40D4E0D4FB489E3
:102AA0003C80050ABC1C2580C0B22080100A208012
:102AB000D0B22080F0893880080A2080C8B22080F7
:102AC000180A2080D8B22080F0BC00F0B5B8000011
:102AD00094030020FE1F006C2DE9FF4F81B00EAE65
:102AE000824696E83100203800F0FF080298DFF8AF
:102AF000E0B02044401E83B20AEB5400BBF8001043
:102B0000401E009182B250460299FFF7C5FF4FF078
:102B100000067DBB2F4908EB480001EB800901F25C
:102B2000744000EB081817E00C2C03D018F806507E
:102B300000270CE019F80650FAE7E80701D00398DF
:102B400000E0049800F0B2F86D087F1CFFB2B7EB0C
:102B5000540FF2D3761CF6B2A642E5D327E00C2C34
:102B600009D01D4800EB08100025875D029800EB96
:102B7000060915E019E0174808EB480100EB810051
:102B8000F2E70398ABF80000F80706D00AEB05005F
:102B90001FFA89F180B2FFF77DFE7F086D1CEDB250
:102BA000B5EB540FEDD3761CF6B2A642D7D30098FE
:102BB000ABF8000009484188008805B0491EBDE80F
:102BC000F04F401E8BB282B200210846FFF764BF6F
:102BD00028000020484F0008BC5300089403002040
:102BE0002DE9FE4F044600F0FF0810190D46DDE9FF
:102BF0000C761FFA80FA58191FFA80F94FF0000B73
:102C000013E0544502D3E91944468DB24D4511D223
:102C10008DE881084FF6FF73294620460E9AFFF78C
:102C20005BFF04EB570084B2761C3078A0F12001E2
:102C30005E29E6D9BDE8FE8F024803490089088075
:102C40007047000094030020FE1F006C024A1080B1
:102C5000901C018070470000FE1F006C12492A2260
:102C60004FF4A0738A812B22CA812C220A812E2242
:102C70004A81F02258B101280DD002280FD0032834
:102C800011D10B804A80B8213620FFF7DFBF0A80C0
:102C90004B800821F8E70B804A806821F4E70A801E
:102CA0004B80D821F0E77047940300200149088049
:102CB000704700000020006C70B50C46054600F01F
:102CC00017F820EA04012846BDE8704000F038B843
:102CD00010B5064C012240212046FEF7ACFA2046F2
:102CE0000122BDE810401146FEF7A5BA00080240D7
:102CF00070B57E2101EA40000A4D40F080040022B8
:102D000040212846FEF797FA204600F0CBFB002032
:102D100000F0C8FB0446012240212846FEF78BFA4A
:102D2000204670BD0008024070B50C460546FFF70E
:102D3000DFFF40EA04012846BDE87040AFF30080A1
:102D400070B50D467E2101EA4004094E0022402163
:102D50003046FEF770FA204600F0A4FB284600F04B
:102D6000A1FB3046BDE8704001224021FEF763BA66
:102D700000080240064882B0016841F0400101604D
:102D8000006800F040000090024802B0FFF72CBC41
:102D9000303802409C00002000B587B014216846FE
:102DA000FDF746FA0E48016841F0400101600068F5
:102DB000694600F040000590202000904FF4041078
:102DC0000190012002900748FEF740F900221146C9
:102DD0001720FEF7CFFA1720FEF7BEFA07B000BDA6
:102DE000303802400018024010B5FFF7C3FF8021C1
:102DF0006B2000F0B1F86420FDF7CBFD00216B20C3
:102E000000F0AAF8032000F072F8022000F06AF83F
:102E1000322000F089F80021382000F09DF80021D0
:102E20006A2000F099F80021232000F095F8802115
:102E3000372000F091F8752000F028F8682801D0BC
:102E4000012010BD28216B2000F086F887216C201E
:102E500000F082F8322000F067F800F004F8FFF785
:102E60009BFF002010BD10B501211F2000F074F859
:102E70000121202000F070F89021372000F06CF83C
:102E80004021BDE81040382000F066B810B5044677
:102E90001348FFF730FCD0211148FFF7E9FB104839
:102EA000FFF767FC21460E48FFF7E2FB0C48FFF7EF
:102EB00060FC0B48FFF71FFCD1210948FFF7D8FB46
:102EC0000748FFF756FC0648FFF7A8FB04460448EE
:102ED000FFF7F9FB0248FFF72DFC204610BD00006C
:102EE0009C000020C006010E1C2000F035B8C00672
:102EF000010E1B2000F030B8BC2801D3012110E0E6
:102F0000622801D302210CE02A2801D3032108E022
:102F1000142801D3042104E00A2801D3052100E08C
:102F200006211A2000F018B810B504464FF47A7044
:102F3000844201D9044602E0042C00D20424B0FBF0
:102F4000F4F0401EC1B2192000F006F86008BDE898
:102F50001040FFF7D1BF000070B504460D4612487F
:102F6000FFF7C9FBD0211048FFF782FB0E48FFF79F
:102F700000FC70B921460C48FFF77AFB0A48FFF7BE
:102F8000F8FB29460848FFF773FB0748FFF7F1FBFA
:102F900020B10548FFF7CEFB012070BD0248FFF7C6
:102FA000C9FB002070BD00009C000020114808B53E
:102FB000016841F4001101600068002200F4001073
:102FC000009011460C20FEF7D5F90C20FEF7C4F94D
:102FD000002211460D20FEF7CDF90D20FEF7BCF9B9
:102FE000002211460F20FEF7C5F9BDE808400F206A
:102FF000FEF7B2B93038024010B58EB01C216846D9
:10300000FDF716F91C2107A8FDF712F91A484FF031
:103010002041102201601949416006218160002190
:10302000C160C0E904128161C16113020162C0E99B
:1030300009139302C0E90B134163816341640F20BC
:103040003C230090CDE9010303AC112384E80E007A
:1030500009240691CDE9074009AC082084E80F0057
:103060000D9107AA69460448FEF78DFE002801D09D
:10307000FDF7CCFC0EB010BDAC000020040100A098
:103080002DE9F04F87B014216846FDF7D1F86C4860
:103090000025016841F010010160016801F0100194
:1030A0000591016841F004010160016801F004012B
:1030B0000591016841F020010160016801F02001E3
:1030C0000591016841F080010160016801F0800113
:1030D0000591016841F001010160016801F0010101
:1030E0000591016841F002010160016801F00201EF
:1030F0000591016841F008010160016801F00801D3
:103100000591016841F04001016000684D4E00F0FA
:1031100040000590012218213046FEF78CF8DFF8B8
:1031200028B100224FF4A0515846FEF784F8474FCB
:10313000012241213846FEF77EF8DFF81491012282
:1031400020214846FEF777F8DFF808A10122032185
:103150005046FEF770F801241820CDE900046946B6
:103160003046CDE90245FDF771FFA002CDE900042C
:103170000326CDE9024669465846FDF767FF412020
:103180004FF002088DE8310169463846FDF75EFFD1
:103190002027CDE90074CDE9024669464846FDF78F
:1031A00055FFCDE90064CDE9024669465046FDF77A
:1031B0004DFF0420CDE90005694602945046FDF715
:1031C00045FFE002CDE90005694602945846FDF747
:1031D0003DFF200303958DE8110169465846FDF730
:1031E00035FF6003CDE90005694658460295FDF7B5
:1031F0002DFF300300904FF40410CDE9010469461F
:103200001548FDF723FF4FF488100097CDE901051D
:1032100069461248FDF71AFF002211461720FEF7F3
:10322000A9F81720FEF798F8002211462820FEF78B
:10323000A1F82820FEF790F807B0BDE8F08F000055
:1032400030380240001002400014024000080240E2
:103250000000024000040240000C0240001802403E
:10326000104810B50E4901604FF482714160002191
:103270008160C1604FF400720161C0E9051228222B
:10328000C0E90721416281620A21C162FEF7DAFBCF
:10329000002803D0BDE81040FDF7B8BB10BD00000A
:1032A00000380040FC0000200C4810B50A490160BD
:1032B0004FF4E1314160002181600C22C160C0E91E
:1032C00004128161C161FFF72BF8002803D0BDE82B
:1032D0001040FDF79BBB10BD004C00405401002086
:1032E0000C4810B50A4901604FF4E13141600021FA
:1032F00081600C22C160C0E904128161C161FFF7E5
:103300000FF8002803D0BDE81040FDF77FBB10BDCB
:10331000001001409C0100200C4810B50A490160D2
:103320004FF4E1314160002181600C22C160C0E9AD
:1033300004128161C161FEF7F3FF002803D0BDE8EC
:103340001040FDF763BB10BD00480040E4010020C1
:10335000FEE7FEE703211420FFF7AEBC10B51420F2
:10336000FFF7C6FC800705D10321BDE810401420FB
:10337000FFF7DABC10BD10B5FFF7AAFC00F002F8A9
:10338000002010BD10B5204C012211462046FDF74B
:1033900052FF0220FDF7FDFA002201212046FDF731
:1033A0004AFF0220FDF7F5FA012211462046FDF7FB
:1033B00042FF0220FDF7EDFA0F210120FFF7C0FCCC
:1033C0000220FDF7E6FA3D211120FFF7B9FC1E218E
:1033D0002D20FFF7B5FC00212C20FFF7B1FC8D213B
:1033E0002A20FFF7ADFC3E212B20FFF7A9FC40214E
:1033F0001520FFF7A5FCFFF7ADFF0220FDF7C9FA86
:10340000BDE81040FFF7AABF00080240704742899C
:10341000406811B18169114300E011048161704776
:1034200010B501890068FDF7F9FE012800D00020E1
:1034300010BD10B586B0044614216846FCF7F8FEAE
:10344000208900900020019001200290022003902A
:1034500069462068FDF7FAFD06B010BD02890068D4
:1034600011B18169114300E011048161704710B509
:1034700086B0044614216846FCF7DAFE20890090E5
:1034800011200190002002900220039069462068DC
:10349000FDF7DCFD06B010BD0148FEF755BA00008F
:1034A000FC00002001B582B00A2000900123044AEC
:1034B00002A90448FEF774FB014800780EBD000025
:1034C00074000020FC00002010B5806B0021C18733
:1034D000C186FEF737FA10BDF8B515460E460B4605
:1034E000009204460122022100F02CF8A0B91348F2
:1034F00013490068B0FBF1F04FF47A714843009033
:103500006068B0F5827F0DD13346002280212046CD
:10351000009500F017F870B1606D40F02000606514
:103520000320F8BD009830B1401E009020688068EC
:10353000C0430006F6D50020F8BD000018000020AA
:1035400000366E012DE9F8431E4691468846044632
:10355000089DFDF775FE401B351AFDF771FE074605
:1035600025480068C0F3CB30684338E0701C37D082
:10357000FDF766FEC01BA84203D215B1009860B3E8
:103580002CE02068416821F0E00141606068B0F5FE
:10359000827F0BD1A068B0F5004F02D0B0F5806FEC
:1035A00004D12068016821F040010160A06AB0F5F3
:1035B000005F09D12068016821F400510160206892
:1035C000016841F400510160012084F8510000209D
:1035D00084F850000320BDE8F8830025401E0090C9
:1035E0002068816838EA010004D000204845BDD138
:1035F0000020F0E70120F9E718000020704770472D
:1036000030B593B030216846FCF712FE14210CA8A7
:10361000FCF70EFE1D480025016841F08051016055
:10362000006800F0805011901948016841F4804111
:1036300001600068022400F4804011900120039092
:1036400010200490009406940820CDE90750A8208B
:10365000CDE9090404200B906846FDF7C7FF08B1C7
:1036600072B6FEE70CA90F2081E831004FF4A0509C
:103670000F904FF48050109005210CA8FDF7ACFE80
:10368000002801D072B6FEE713B030BD40380240CA
:10369000007000400248016841F470010160704709
:1036A00088ED00E00148FEF710BC00004C0300204C
:1036B000F0B50268294D2A4E2A4FDFF8ACC02B4BDB
:1036C0004FF0804EA84209D0704507D0B04205D0D7
:1036D000B84203D0604501D0984203D122F0700473
:1036E0004A682243A8421BD0704519D0B04217D077
:1036F000B84215D0604513D0984211D01C4CA0425E
:103700000ED01C4CA0420BD01B4CA04208D01B4C2E
:10371000A04205D01A4CA04202D01A4CA04203D1BC
:1037200022F44074CA6822434C6922F0800222438A
:1037300002608A68C2620A688262A84201D0984226
:1037400001D109690163012141610169C90703D000
:10375000016921F001010161F0BD0000000001409C
:103760000004004000080040000C0040000401403C
:103770000040014000440140004801400018004062
:10378000001C0040002000400148FEF791BC0000F2
:103790005401002010B5806B0021C185C184FEF763
:1037A00085FC10BD70B5846B2068406994F84110A9
:1037B000C0F3C0100025212904D118B1E5842046AA
:1037C00000F08EF82068406994F84210C0F3801031
:1037D000222904D118B1E585204600F05AF8606C22
:1037E00040F0100060642046FEF760FC70BD10B52C
:1037F0000146806B096809684FF00003C9052ED4A3
:10380000C38501680C3151E8002F22F4807241E831
:103810000024002CF5D10168143151E8002F22F06A
:10382000010241E80024002CF5D10168143151E86F
:10383000002F22F0400241E80024002CF5D1202185
:1038400080F84210016B012909D101680C3151E85F
:10385000002F22F0100241E80024002CF5D1436330
:10386000016B012902D0FEF76BFE10BD818DFEF7C2
:10387000FDFB10BD10B5806B01214163016B012977
:1038800002D0FEF75EFE10BD818D4908FEF7EEFB0B
:1038900010BD01680C3151E8002F22F4907241E80C
:1038A0000023002BF5D10168143151E8002F22F0DC
:1038B000010241E80023002BF5D1016B012909D158
:1038C00001680C3151E8002F22F0100241E800237A
:1038D000002BF5D1202180F84210002101637047B0
:1038E00001680C3151E8002F22F0C00241E80023AA
:1038F000002BF5D1202180F84110704708B590F8D1
:103900004210222901D0022008BD81684FF4805363
:10391000994201D1026922B1826A99421BD049B110
:103920000AE00268816A5268C2F308020A80816A6A
:10393000891C08E0016971B10168496801F07F01E3
:103940001170816A491C8162C18D491E0904090CEC
:10395000C18503D01BE001684968F1E70168CA68C6
:1039600022F02002CA600168CA6822F48072CA602C
:1039700001684A6922F001024A61202180F8421060
:1039800000214163026B012A03D0FEF7D9FD00201C
:1039900008BD016301680C3151E8002F22F01002CC
:1039A00041E80023002BF5D101680A68D20602D550
:1039B0000A6849680091818DFEF758FBE7E700002F
:1039C00070B5044600680169E26821F44051114372
:1039D0000161A1682069E269014360691043014304
:1039E0002068C26849F20C639A430A43C2602068A7
:1039F0004169A26921F44071114341613149206854
:103A0000884202D03049884202D1FDF7AFFD01E083
:103A1000FDF79CFDE2690023192164253226B2F5E9
:103A2000004F626828D0A0FB0101930F9200FCF7C1
:103A3000C7FB0146B0FBF5F06FF01802504301EBF5
:103A4000800006EB0010B0FBF5F000F0F002B1FBD7
:103A5000F5F002EB0012B1FBF5F06FF018035843DC
:103A600001EB800006EB0010B0FBF5F000F00F005A
:103A700021681044886070BDA0FB010192185B4171
:103A8000FCF79EFB0146B0FBF5F00201B1FBF5F03F
:103A90006FF01803584301EB800006EBC000B0FB49
:103AA000F5F000F0F80002EB4002B1FBF5F05843EE
:103AB00001EB800006EBC000B0FBF5F000F0070062
:103AC000D6E70000001001400014014037B582B075
:103AD0001346039A82620446838500206064222193
:103AE00084F84210E56B1B49E963E56B1A492964C8
:103AF000E56B1A49E964E16B08652168E06B091D13
:103B0000FDF7DAF92068016840680090206948B143
:103B100020680C3050E8001F41F4807140E800122A
:103B2000002AF5D12068143050E8001F41F001014F
:103B300040E80012002AF5D12068143050E8001F38
:103B400041F0400140E80012002AF5D105B0002004
:103B500030BD0000EF37000875380008A5370008B1
:103B60002DE9F8431F4690460D460446089E23E083
:103B7000701C21D0FDF764FBC01BB0421AD8CEB137
:103B80002068C168490717D5802D15D0402D13D066
:103B90000168C94309070FD40168002540680090F7
:103BA0002046FFF776FE0820606484F8405001202C
:103BB000BDE8F8830320FBE72068006835EA0000D1
:103BC00004D000204045D3D00020F1E70120F9E7E0
:103BD0000148FEF76DBA00009C01002010B50548B1
:103BE000FEF766FABDE81040802203490148FEF75F
:103BF00012BA0000E4010020A4030020FEE7000048
:103C00000FB4054B10B503A9044A029800F04AF915
:103C100010BC5DF814FB0000DD450008A800002082
:103C20000FB4084B10B504A902AA039800F03AF9A2
:103C3000044602A9002000F0CCFC204610BC5DF830
:103C400014FB0000D34500080907090E002804DB17
:103C500000F1E02080F80014704700F00F0000F140
:103C6000E02080F8141D704702E008C8121F08C148
:103C7000002AFAD170477047002001E001C1121FED
:103C8000002AFBD170472DE9F05F15461C46DDF890
:103C900028B00E46074601EB040800EB050A1FFAA0
:103CA00088F11FFA8AF05A46FCF768FF1FFA88F17C
:103CB000A7EB05081FFA88F05A46FCF75FFFA6EB52
:103CC00004091FFA89F11FFA8AF05A46FCF756FFD9
:103CD0001FFA89F11FFA88F05A46FCF74FFF06EBEE
:103CE000050907EB04081FFA89F11FFA88F05A4604
:103CF000FCF744FF3C1B1FFA89F1A0B25A46FCF7BF
:103D00003DFF751BA9B21FFA88F05A46FCF736FF33
:103D1000A9B2A0B25A46BDE8F05FFCF72FBF000081
:103D20002DE9FF5F82B00021DDE90430020DDDF8EE
:103D300040B0034318D044F61050A2F2FF32424381
:103D40001514119801281FD0A5EB0B00401C5FEA49
:103D5000000A4FF000064E4FDFF83891B04650464B
:103D600015D5CAF1000413E0119801244AA30128D3
:103D700001D16FEA0B010298119AC0E90031C0E944
:103D8000024206B0BDE8F09FCBF10000DFE7044639
:103D90000021404A491842EB0450CDE9001012E0DE
:103DA000E00707D032463B4640464946FCF7F2FA68
:103DB0008046894632463B4610461946FCF7EAFAE9
:103DC00006460F466410002CEAD1DDE90401DDE966
:103DD0000023BAF1000F06DAFCF7DCFA42464B4644
:103DE000FCF7D8FA05E0FCF747FB42464B46FCF7E8
:103DF00043FB04460E460022284BFCF7D5FB03D8B4
:103E00004FF0FF30014607E00022254B20463146A7
:103E1000FCF719FAFCF784FC102409E0002C0ADBFB
:103E20000A220023FCF7CCF9039B30321A55641E9A
:103E300050EA0102F2D1641C039AC4F11103144444
:103E4000119A012A03D0012208430DD10AE0084348
:103E500004D000204FF0110B119072E7A3EB0B057B
:103E60006D1E0DE05B4504DD4FF0000205F101051C
:103E700004E003DA4FF00002A5F10105002AECD0BE
:103E800002981199C0E90231C0E9004579E70000C4
:103E9000000014400000F03F300000000000F0433C
:103EA0000000E03F2DE9FF4F95B09B46894606464E
:103EB00000250FE2252877D100242746F84A012162
:103EC000059400E0044316F8013F203B01FA03F09B
:103ED0001042F7D130782A2811D06FF02F033078B4
:103EE000A0F13002092A16D8059A44F0020402EB28
:103EF000820203EB42021044761C0590EFE759F86A
:103F0000042B0592002A03DA504244F40054059031
:103F100044F00204761C30782E2816D116F8010FD2
:103F200044F004042A280DD06FF02F023078A0F15D
:103F30003003092B09D807EB870302EB4303C718AB
:103F4000761CF3E759F8047B761C30786C280FD088
:103F500006DC4C2817D068280DD06A2814D104E05C
:103F6000742810D07A280FD10DE044F400140AE030
:103F700044F4801401E044F440147278824202D187
:103F800004F58014761C761C307866280BD013DC80
:103F9000582877D009DC002875D04528F6D0462867
:103FA000F4D047281AD19DE118E0632835D0642861
:103FB00079D0652812D195E1702873D008DC672884
:103FC000F1D069286FD06E280DD06F2806D1B5E0EA
:103FD00073282CD0752875D0782874D05A46179934
:103FE00090476D1C75E1C4F30250022809D00328E4
:103FF0000DD0D9F8001004280DD00D6009F1040986
:1040000067E1D9F80010EA17C1E90052F6E7D9F8DC
:1040100000100D80F2E70D70F0E719F8041B8DF821
:10402000001000208DF80100EA46012003E059F855
:1040300004AB4FF0FF3061074FF0000102D40DE0F8
:1040400008F101018846B9420FDA8045F8DB1AF819
:1040500008100029F4D108E008F1010188468142E6
:10406000FADB1AF808100029F6D105985B46A0EB98
:10407000080721463846179A00F094FA284400EBC6
:10408000080507E04DE029E10DE01AF8010B5A465A
:1040900017999047B8F10108F7D25B462146384698
:1040A000179A13E142E00A220092C4F302524FF041
:1040B000000A022A08D059F804CB032A4FEAEC710F
:1040C0000AD00DE029E02AE009F1070121F00702FA
:1040D000F2E802C1914609E00FFA8CFC4FEAEC715C
:1040E000042A03D14FFA8CFC4FEAEC71002907DA5D
:1040F0000A460021DCF1000C61EB02012D2202E0F6
:10410000220504D52B228DF80420012203E0E207CA
:1041100001D02022F7E7904659E00A2102E0102260
:104120000DE010214FF0000A00910BE010224FF03B
:10413000000A44F004040827009203E008224FF02C
:10414000000A0092C4F30252022A05D059F804CBA7
:104150000021032A08D009E009F1070121F0070234
:10416000F2E802C1914605E01FFA8CFC042A01D155
:104170000CF0FF0C4FF00008220728D5702806D05D
:10418000009B83F0100353EA0A0305D00EE040229F
:104190008DF80420012208E05CEA010206D03022FA
:1041A0008DF804208DF8050002229046009B83F0D4
:1041B000080353EA0A030AD15CEA010201D162074B
:1041C00005D530228DF804204FF001087F1E5828B5
:1041D00004D034A003900EA802900DE036A0F9E7B9
:1041E00053466046009AFBF7EBFF84460398825CD7
:1041F0000298401E029002705CEA0100F0D1029821
:1042000006A9081A00F1200A600702D524F48034B8
:1042100000E00127574502DDA7EB0A0000E000207F
:1042200000EB0A01009005984144401A0590E00314
:1042300006D45B462146179A059800F0B3F9054469
:10424000002706E001A85A46C05D179990476D1CEB
:104250007F1C4745F6DBE0030CD55B462146179AE9
:10426000059800F09FF9054404E030205A4617995C
:1042700090476D1C0099481E00900029F5DC08E06D
:10428000029802995A460078491C02911799904762
:104290006D1CBAF10001AAF1010AF1DC65E1000030
:1042A000092801003031323334353637383961620C
:1042B00063646566000000003031323334353637D0
:1042C00038394142434445460000000000F058F9A7
:1042D0000544761C307800287FF4ECAD19B02846F0
:1042E000BDE8F08F620700D4062709F1070222F02B
:1042F000070CFCE80223E14603F000485FEA080CE3
:1043000002D00FF2702C0DE05FEA045C02D50FF2D0
:10431000682C07E05FEAC47C02D00FF2602C01E059
:10432000AFF2700C4FF0FF3823F00043CDF850C0CF
:1043300065280CD006DC452809D046281DD0472822
:104340003DD13DE0662818D067287ED138E00021B5
:10435000112F01DB112000E0781CCDE9000106A936
:104360000EA8FFF7DDFCDDE90F010E9A0391002195
:10437000009207F1010A04914DE04FF000400097D0
:10438000CDE9011006A90EA8FFF7CAFCDDE90F026E
:1043900003920E9B11990022DDF80CA00093049269
:1043A00011B9791C00EB010AB7EB0A0004D4C0F183
:1043B000FF3007F1010A0490AAEB0700019044E0E6
:1043C000012F00DA01270021112F01DD112000E06B
:1043D0003846CDE9000106A90EA8FFF7A1FCDDE9EA
:1043E0000F010E9A0391002104910092BA46210711
:1043F0000CD40399514500DA8A46BAF1010F05DD64
:10440000009AAAF10101515C302908D0B84202DAC1
:1044100010F1040F06DA0121CDE9011015E0AAF12F
:104420000101E9E7002805DC049901440491AAEBA5
:10443000000102E0411C514500DD8A460499401A02
:10444000401C01904FF000400290200704D40198D6
:10445000504501DBCDF8048000208DF84F00029814
:104460000DF14F07B0F1004F25D02B200E90029890
:104470004FF0020800280CDA404202902D200E90E6
:1044800007E00A210298FCF7A7F83031029007F8FC
:10449000011DB8F10001A8F10108F2DC0298002822
:1044A000EFD1791E0E980870307800F0200040F0AF
:1044B000450007F8020D12A8C01B00F10708149868
:1044C000007800B1012000EB0A01019801EBE071D6
:1044D00005984144401A401E0590E00306D45B460F
:1044E0002146179A059800F05DF805441498007865
:1044F00018B15A46179990476D1CE00324D55B46C6
:104500002146179A059800F04DF805441CE00498E0
:10451000002807DBDDE90301884203DD0098405CE9
:10452000179901E0179930205A469047049805F1F1
:104530000105401C04900198401E019004D12E20DA
:104540005A46179990476D1CBAF10001AAF1010A69
:10455000DDDC05E017F8010B5A46179990476D1CF2
:10456000B8F10001A8F10108F4DC5B462146179A76
:104570000598ABE62D0000002B0000002000000095
:104580002DE9F041044600251E461746880404D450
:1045900005E039462020B0476D1C641EF9D5284639
:1045A000BDE8F0812DE9F041044600251E46904605
:1045B000C80301D5302700E02027880404D505E092
:1045C00041463846B0476D1C641EF9D52846BDE803
:1045D000F0810A68531C0B601070704713B54FF0E0
:1045E000FF33012269460248FDF7ACFF00981CBD6D
:1045F0009C010020184810B5016886B041F02001E8
:104600000160016801F020010591016841F020017D
:1046100001600068114C00F0200005900820009017
:104620000120019002900220039069462046FCF789
:104630000DFD1021009169462046FCF707FD01227F
:1046400008212046FCF7F7FD012210212046FCF747
:10465000F2FD06B010BD00003038024000140240E8
:104660000EB5FCF7FBFDFEF7CBFFFEF709FDFEF7ED
:104670009DFCFEF735FEFEF7BFFCFEF715FEFEF7CC
:104680004BFEFEF7EDFDFFF7B5FFFEF739F900F041
:10469000B9FAFEF770FEFEF7A7FB0EA0FFF7B0FA1F
:1046A00010204FF4784212A18DE807000346C8227B
:1046B00032211E20FEF794FAFCF7F4F84FF4FA6466
:1046C0002046FCF731FCFCF7E5F801460AA0FFF7AD
:1046D00097FAF5E7524335323220496E69746174B6
:1046E000696F6E20436F6D706C657465640A0000BD
:1046F00053544D3332000000626C7565206973209D
:1047000025640D0A000000002DE9F04F00242DED76
:104710000C8B89B025464FF6FF70FEF753F8142135
:104720004FF47842084600F01FFAB648002182464E
:1047300081869FEDB5AB9FEDB6BB9FEDB7CBDFF8A4
:10474000E09241F6FE7BDAF80410564601208847D5
:10475000B08E0121B1EB903F52D120F48040B08661
:1047600003A8B18920F8241000EB8400641C002504
:10477000318CE4B24180062C42D2DFE804F04103E0
:104780001122335014214FF6FF72084600F0ECF965
:10479000B9F800004FF47842143880B214212DE0AB
:1047A000B9F800004E46143880B24FF6FF7214215B
:1047B00000F0DAF970884FF47842143881B214208E
:1047C0001CE0B9F802004E46143881B24FF6FF7271
:1047D000142000F0C9F97088143881B23088143878
:1047E00080B209E04FF6FF70FDF7ECFFB9F8021058
:1047F000B9F80000490840084FF4784200F0B4F9D5
:104800000A20FCF7C6F86D1CADB2B5F57A7F9AD9CF
:1048100000F0E6F909B0BDEC0C8BBDE8F08FBDF8F7
:104820001000BDF80C10401A0FFA80F8BDF81800FF
:10483000BDF81410401A06B2BDF81A00BDF81210E7
:10484000401A07B2BDF81600BDF80E10401A04B2A7
:104850003046FBF780FE41EC180B4046FBF77BFE31
:1048600053EC182BFBF708FE41EC190B2046FBF725
:1048700072FE41EC180B3846FBF76DFE53EC182B1B
:10488000FBF7FAFD41EC180B53EC1A2B51EC190B0A
:10489000FBF772FE05D251EC190B81F0004141EC9F
:1048A000190BB0EE4ADAF0EE6ADA53EC1D2B51EC3C
:1048B000180BFBF761FE05D251EC180B81F000419B
:1048C00041EC180B53EC1B2B51EC190BFBF754FE6E
:1048D0007BD353EC1C2B51EC190BFBF765FE74D307
:1048E000B0EE4BDAF0EE6BDA53EC1D2B51EC180BFB
:1048F000FBF742FE69D3B0EE4C0AF0EE6C0A53ECC3
:10490000102B51EC180BFBF74FFE5ED308F6FF712E
:104910005846814259D807F6FF71814255D806F6AC
:10492000FF71814251D804F6FF7159454DD8B8F155
:10493000000F4AD0F7B3EEB3E4B3B9F800004D4628
:104940004000503800EE100A08EB0600F8EEC00AEE
:1049500000EE100AB8EEC00A80EE201A8AED0E1A98
:10496000B9F802104900503900EE101A39194FF603
:10497000FF74F8EEC00A00EE101A2046B8EEC00A26
:1049800080EE201A8AED0F1ABDF81C10AAF840100C
:10499000BDF81E10AAF84210FDF714FF1F2221A136
:1049A00010208DE807006B882A886E212320FEF7EF
:1049B00017F900E009E04FF47A70FBF7EAFF00F026
:1049C0003BFA2046FDF7FEFE24E7B9F80210B9F8DD
:1049D00000000024490840084FF6FF7200F0C4F8B8
:1049E00014214FF47842084600F0BEF8B0EE481AA1
:1049F000F0EE681AB0EE490AF0EE690A03A800F07A
:104A00001DF8A0E62C0000200000000000000000BF
:104A1000666666666666EE3FCDCCCCCCCCCCF03F0D
:104A200094030020546F7563682053637265656E4C
:104A30002041646A757374204F4B21002DE9F04FBB
:104A40002DED048B89B0B0EE419A3C4DF0EE619AA9
:104A5000B0EE408AF0EE608A074600240DF10C09A2
:104A60004FF478484FF0100A4FF0A00B37F824307D
:104A7000621C33A103A8FFF7D3F8CDF800A0CDE95D
:104A8000019804EB84010BEB81066B882A88314680
:104A90002820FEF7A5F807EB8400621C43882AA1B2
:104AA00003A8FFF7BDF8CDF800A0CDE901986B8809
:104AB0002A8831467820FEF793F8641CE4B2052C6E
:104AC000D4D34FF6FF700090288804EB8401401E79
:104AD00082B20BEB8104102321462820FDF7E6FE6D
:104AE00053EC182B1AA103A8FFF79AF84FF0000B0C
:104AF0008DF813B0CDF800A0CDE9019846464F4699
:104B00006B882A8821462820FEF76AF853EC192B77
:104B100012A103A8FFF784F88DF813B0CDF800A018
:104B2000CDE901766B882A8821467820FEF758F86F
:104B300009B0BDEC048BBDE8F08F000094030020A9
:104B40007825643A256400007925643A25640000DC
:104B500070783A25302E32660000000070793A25D0
:104B6000302E3266000000002DE9F84304469146DD
:104B70000D3082B2A4F10C000D4680B20B46FDF759
:104B80003DFE05F10D0083B2193881B22246104670
:104B9000FDF734FE6E1C04F10108B1B21FFA88F073
:104BA0004A46FBF7EBFFB1B2661EB0B24A46FBF7CE
:104BB000E5FF6F1EB9B21FFA88F04A46FBF7DEFF29
:104BC000B9B2B0B24A46FBF7D9FF012000900623E4
:104BD0004A4629462046FBF78FFFBDE8F8830000D0
:104BE00010B507490C222820FBF7D6FD3420FBF72F
:104BF000E3FD0A2801D0002010BD012010BD0000F7
:104C0000640000200E4910B50C48897901F00101BB
:104C100080F84410FBF7AEFDFFF7E2FF08B100207B
:104C200010BD4FF6FF70FDF7CDFDFFF76DFD00F0F5
:104C300003F9FFF7D5FF012010BD00002C00002074
:104C4000940300202DE9F041374E0546002422460A
:104C500020213046FCF7EFFADFF8D0800022022155
:104C600047464046FCF7E7FA002201213846FCF7A8
:104C7000E2FA0027280601D5012200E000220221E5
:104C80004046FCF7D8FA6806050E0022202130467F
:104C9000FCF7D1FA0120FBF789FE012220213046E2
:104CA000FCF7C9FA7F1CFFB2082FE3D30620FBF7FD
:104CB0007DFE002220213046FCF7BDFA0120FBF7E3
:104CC00075FE012220213046FCF7B5FA0120FBF7E2
:104CD0006DFE002220213046FCF7ADFA00254FF68C
:104CE000FF7707EA4404002220213046FCF7A3FAAC
:104CF0000120FBF75BFE012220213046FCF79BFAE6
:104D000004214046FCF78AFA08B1641CA4B26D1C69
:104D1000EDB2102DE5D30122240911464046FCF7DF
:104D20008AFA2046BDE8F0810000024000040240FB
:104D3000FEB5064600246D463046FFF783FF25F892
:104D40001400641CA4B2052CF6D300214C1CA0B2A4
:104D50000BE035F8113035F81020934203D925F8CF
:104D6000112025F81030401C80B20528F1D3A1B2E3
:104D70000429EBD30021012035F81020401C1144F8
:104D800080B289B20428F7D30320B1FBF0F0FEBD56
:104D900070B506460A480D4690F84400C00705D095
:104DA0009020FFF7C5FF0446D02004E0D020FFF795
:104DB000BFFF04469020FFF7BBFF3480288070BD02
:104DC0002C00002070B586B00C460546694604A844
:104DD000FFF7DEFF01A903A8FFF7DAFFBDF80C30EB
:104DE000BDF81020934203D803F13200824205D36C
:104DF0009A421FD802F1320083421BD2BDF8041040
:104E0000BDF80000814203D801F13206B04204D35C
:104E100088420FD8323081420CD2D0184008288006
:104E2000BDF80000BDF804100844400820800120AF
:104E300006B070BD0020FBE710B505490C22282004
:104E4000FBF7E6FC0A21BDE810403420FBF7F0BC7C
:104E50006400002070B505464FF400612F48FCF750
:104E6000DDF92F4C30B1A08E01044ED520F4004066
:104E7000A08651E02A4800F120010C3015B1FFF75F
:104E8000A1FF37E0FFF79EFFA0B3A089B4F8401060
:104E9000401A00B200EE100A2248B8EEC01A94ED93
:104EA0000E0A0188C1EE000A490800EE101AB8EE99
:104EB000400A30EE800ABCEEC00A10EE101AA18142
:104EC000218CB4F8422094ED0F1A891A09B200EE31
:104ED000101A4088B8EEC00A4008C0EE010A00EE81
:104EE000100AB8EE400A30EE800ABCEEC00A10EE9E
:104EF000100A2084A08E00040ED44FF44040A086F7
:104F0000A089E083208C608606E00020E083608634
:104F10004FF6FF70A0812084002070BD0014024075
:104F20002C00002094030020000610160006101626
:104F30000000000000000000010203040607080949
:104F40000000000001020304000000000000000057
:104F50000000000000000404040404040004000035
:104F600000140A0A000000000000000000001414F1
:104F70003F140A3F0A0A000000041E1505060C141F
:104F8000150F0400000012150D0A142C2A1200003F
:104F90000000040A0A1E151509360000000202016D
:104FA00000000000000000000020100808080808A9
:104FB000081020000002040808080808080402007D
:104FC00000000004150E0E1504000000000004048B
:104FD000041F0404040000000000000000000000A2
:104FE0000002020100000000001F0000000000009D
:104FF000000000000000000000020000001008088F
:10500000080404020202010000000E111111111126
:10501000110E00000000040604040404040E000045
:1050200000000E1111080402011F000000000E1103
:10503000100C1010110E00000000080C0A0A091EC6
:105040000818000000001F01010F1010110E0000D1
:1050500000000E09010F1111110E000000001F09C0
:10506000080404040404000000000E11110E1111C4
:10507000110E000000000E1111111E10120E000082
:105080000000000004000000000400000000000018
:1050900000040000000404000020100804020408BA
:1050A00010200000000000001F00001F0000000092
:1050B00000020408102010080402000000000E1175
:1050C000110804040004000000000E111915151D3C
:1050D000011E0000000004040C0A0A1E1233000026
:1050E00000000F12120E1212120F000000001E110B
:1050F00001010101110E000000000F121212121224
:10510000120F000000001F120A0E0A02121F0000F8
:1051100000001F120A0E0A020207000000001C1203
:1051200001013911120C000000003312121E12127C
:105130001233000000001F0404040404041F0000D4
:1051400000003E0808080808080907000000371298
:105150000A060A0A123700000000070202020202D1
:10516000223F000000001B1B1B1B1515151500001E
:1051700000003B1216161A1A1217000000000E113A
:1051800011111111110E000000000F12120E020277
:105190000207000000000E1111111117190E18005E
:1051A00000000F12120E0A121237000000001E112A
:1051B00001060810110F000000001F15040404046C
:1051C000040E00000000331212121212120C000022
:1051D00000003312120A0A0C040400000000151526
:1051E000150E0A0A0A0A000000001B0A0A04040A33
:1051F0000A1B000000001B0A0A040404040E00003D
:1052000000001F0908040402121F0000001C04040F
:105210000404040404041C0000020202040408083C
:1052200008100000000E08080808080808080E000A
:1052300000040A0000000000000000000000000060
:10524000000000000000003F00040000000000001B
:105250000000000000000000000C121C123C0000C6
:1052600000000302020E1212120E000000000000E5
:10527000001C1202021C000000001810101C121268
:10528000123C000000000000000C121E021C000076
:1052900000003804041E0404041E00000000000086
:1052A000003C120C021E221C00000302020E12120D
:1052B000123700000000040000060404040E000081
:1052C00000000800000C0808080808070000030296
:1052D000023A0A0E12370000000007040404040416
:1052E000041F000000000000000F15151515000038
:1052F00000000000000F1212123700000000000032
:10530000000C1212120C000000000000000F12121C
:10531000120E020700000000001C1212121C1038AE
:1053200000000000001B0602020700000000000051
:10533000001E020C101E000000000004040E0404F5
:105340000418000000000000001B1212123C0000B4
:10535000000000000037120A0C04000000000000EA
:105360000015150E0A0A000000000000001B0A04C8
:105370000A1B0000000000000037120A0C0404039E
:1053800000000000001E0804041E000000180808A9
:105390000804080808081800080808080808080889
:1053A00008080808000604040408040404040600AD
:1053B00002251800000000000000000000000000AE
:1053C00000000000000000000000000000000008D5
:1053D00008080808080800001818000000486C2495
:1053E0001200000000000000000000000000002487
:1053F00024247F1212127F12121200000000081CD7
:105400002A2A0A0C1828282A2A1C08080000002228
:10541000251515152A585454542200000000000C7C
:105420001212120A76252911916E00000006060458
:1054300003000000000000000000000000402010F9
:10544000100808080808081010204000000204088E
:1054500008101010101010080804020000000000CE
:1054600008086B1C1C6B080800000000000000000E
:10547000080808087F08080808000000000000006D
:105480000000000000000000060604030000000009
:1054900000000000FE00000000000000000000000E
:1054A0000000000000000000060600000000804030
:1054B0004020201010080804040202000000001818
:1054C00024424242424242422418000000000008A6
:1054D0000E08080808080808083E00000000003C04
:1054E0004242422020100804427E00000000003C9E
:1054F0004242201820404042221C000000000020B0
:105500003028242422227E20207800000000007E03
:105510000202021A26404042221C0000000000380D
:105520002402021A26424242241800000000007E93
:105530002222101008080808080800000000003C9B
:105540004242422418244242423C0000000000181B
:105550002442424264584040241C000000000000E5
:1055600000001818000000001818000000000000DB
:1055700000000008000000000008080400000040CF
:105580002010080402040810204000000000000061
:1055900000007F0000007F0000000000000000020B
:1055A0000408102040201008040200000000003C05
:1055B0004242464020101000181800000000001C55
:1055C000225A555555552D42221C00000000000856
:1055D00008181414243C224242E700000000001F77
:1055E0002222221E22424242221F00000000007C92
:1055F0004242010101010142221C00000000001F83
:105600002242424242424242221F00000000003F2A
:105610004212121E12120242423F00000000003FDE
:105620004212121E12120202020700000000003C89
:105630002222010101712122221C0000000000E74A
:10564000424242427E42424242E700000000003EA7
:105650000808080808080808083E00000000007C48
:1056600010101010101010101010110F0000007703
:1056700022120A0E0A1212222277000000000007EE
:105680000202020202020202427F000000000077D2
:10569000363636362A2A2A2A2A6B0000000000E312
:1056A00046464A4A52525262624700000000001CBD
:1056B0002241414141414141221C00000000003F84
:1056C000424242423E020202020700000000001C69
:1056D0002241414141414D53321C60000000003FD6
:1056E0004242423E1212222242C700000000007CC9
:1056F0004242020418204042423E00000000007F67
:105700004908080808080808081C0000000000E70D
:105710004242424242424242423C0000000000E714
:105720004242222424141418080800000000006BD0
:10573000494949495555362222220000000000E718
:10574000422424181818242442E70000000000779F
:105750002222141408080808081C00000000007E1B
:105760002120101008040442423F0000007808087D
:10577000080808080808080808087800000002025D
:10578000040408080810102020204040001E1010BB
:10579000101010101010101010101E0000384400CF
:1057A00000000000000000000000000000000000F9
:1057B0000000000000000000000000FF00060800DC
:1057C00000000000000000000000000000000000D9
:1057D0000000003C4278444242FC0000000000030C
:1057E0000202021A26424242261A0000000000006D
:1057F000000000384402020244380000000000604B
:10580000404040784442424264D80000000000001A
:105810000000003C427E0202423C0000000000F01A
:105820008808087E08080808083E000000000000FC
:105830000000007C22221C023C42423C000000038B
:105840000202023A4642424242E700000000000CD7
:105850000C00000E08080808083E00000000003098
:1058600030000038202020202020221E00000003CD
:1058700002020272120A1612227700000000000EC5
:105880000808080808080808083E00000000000092
:105890000000007F9292929292B7000000000000F8
:1058A0000000003B4642424242E700000000000088
:1058B0000000003C42424242423C00000000000026
:1058C0000000001B26424242221E02070000000088
:1058D0000000007844424242447840E0000000006A
:1058E000000000774C040404041F000000000000C6
:1058F0000000007C42023C40423E000000000000EC
:105900000008083E080808080830000000000000F1
:10591000000000634242424262DC000000000000DE
:10592000000000E7422424140808000000000000E2
:10593000000000EB494955552222000000000000FC
:105940000000007624181818246E000000000000E3
:10595000000000E742242414180808070000000093
:105960000000007E22100808447E000000C02020B5
:1059700020202010202020202020C00010101010F7
:105980001010101010101010101010100006080841
:105990000808081008080808080806000C32C200A9
:1059A000000000000000000000000000C9EE000040
:1059B00027FC140414A4811042084040104017FC36
:1059C0002040E0E0215022482C4620400040DBDA15
:1059D00011041124112411241124FD241124112453
:1059E0001124112411241D24E1244224020404045E
:1059F000CAD00200010000007FFC0100010001008C
:105A00003FF8210821082108210821282110010040
:105A10000100C8AB000000000180024004301808FB
:105A200060061FF90100010001003FF801000100BC
:105A300001007FFEB6AF0000000000203E20007C89
:105A4000002200227F221022102212221222224241
:105A500023423D82009CB5E70000010001001FF0D9
:105A6000610C410441047FFC4104410441047FFC7A
:105A700001000102010201FCD7D3000000003FF841
:105A8000001000600080010000807FFE00400040A8
:105A900000200020002018400780BCBC10201020EF
:105AA000102013FEFC201020102015FC18843088D4
:105AB000D04810501020105051882606CAF5010019
:105AC0000120011001107FFC0380054005400920E2
:105AD0001110210841048102010001000100D3D00E
