:020000040800F2
:10000000187101205D020008414600088332000893
:10001000E1440008090B0008B55700080000000083
:100020000000000000000000000000009D0100082A
:10003000B10E000800000000F9010008234F00087D
:10004000770200087702000877020008014B0008D9
:10005000770200087702000877020008770200089C
:10006000770200087702000877020008770200088C
:10007000450D0008510D0008770200085D0D0008CD
:10008000770200087702000877020008770200086C
:10009000770200087702000877020008210F0008A5
:1000A000770200087702000877020008770200084C
:1000B0007702000877020008E54F00087702000881
:1000C000770200087702000877020008770200082C
:1000D000994B0008895700087702000895570008D7
:1000E000090F00087702000877020008770200086D
:1000F00077020008770200087702000877020008FC
:1001000077020008770200087702000877020008EB
:1001100041530008770200087702000877020008C0
:1001200077020008770200087702000877020008CB
:1001300077020008770200087702000877020008BB
:1001400077020008770200087702000877020008AB
:10015000770200087702000877020008770200089B
:10016000770200087702000877020008770200088B
:1001700077020008770200087702000800000000FC
:100180007702000877020008DFF80CD000F090FB3F
:1001900000480047DB640208187101202C4B1968E5
:1001A0000868B0E8F04F80F30988BFF36F8F4FF015
:1001B000000080F3118870470000000008480068C4
:1001C000006880F308884FF0000080F3148862B65E
:1001D00061B6BFF34F8FBFF36F8F00DF00BF00BF6B
:1001E00008ED00E0DFF80C00016841F470010160E7
:1001F000704700BF88ED00E0EFF30980BFF36F8F19
:10020000134B1A681EF0100F08BF20ED108A20E96A
:10021000F04F106009B44FF0500080F31188BFF325
:100220004F8FBFF36F8F30F027FA4FF0000080F34D
:10023000118809BC19680868B0E8F04F1EF0100F6B
:1002400008BFB0EC108A80F30988BFF36F8F704746
:10025000C0030020EFF30580704700000648804788
:1002600006480047FEE7FEE7FEE7FEE7FEE7FEE79B
:10027000FEE7FEE7FEE7FEE7D54F0008890100082C
:100280002DE9F05F0546002092469B4688460646CB
:10029000814640241BE0284641464746224600F05E
:1002A00070FA53465A46C01A914110D31146184667
:1002B000224600F057FA2D1A67EB01084F462246F6
:1002C0000120002100F04EFA17EB00094E41201EDC
:1002D000A4F10104DFDC484631462A464346BDE826
:1002E000F09F40EA01039B0703D009E008C9121FF1
:1002F00008C0042AFAD203E011F8013B00F8013BE0
:10030000521EF9D27047D2B201E000F8012B491E0B
:10031000FBD270470022F6E710B513460A460446A2
:100320001946FFF7F0FF204610BD421C10F8011BD4
:100330000029FBD1801A704710B5002200E0521C42
:10034000835C8C5CA34201D1002BF8D1D8B2E1B21E
:10035000401A10BD30B504460020034600E05B1C87
:10036000934203D2E05CCD5C401BF8D030BD034625
:1003700011F8012B00F8012B002AF9D1184670471B
:100380002DE9FE4F804681EA0300C00F0C46009025
:1003900021F0004123F00045B8EB0200A94105D24D
:1003A0004046214690461C460B46024623F000403C
:1003B000104347D0270DC7F30A00C3F30A51029038
:1003C000401A019040286BDAC3F3130040F4801BFD
:1003D0000098924620B10023D2EB030A63EB0B0B8B
:1003E00001985946C0F14002504600F0BBF906465C
:1003F0000D4650465946019A00F0D3F910EB08001B
:100400006141002487EA115284EAE7731A4340D01D
:10041000009A62B3019A012A4FEA075215DC001BC9
:1004200061EB02014FF0004202EA0752CDE90042BF
:10043000001C41F5801132462B4600F0D3F903B081
:10044000BDE8F08F40462146F9E7001B61EB020151
:10045000001C41F5801300185B412018A2F500171D
:1004600047EB030140EAD570B6196D4111E06D0804
:100470004FEA360645EAC0754FEA0752001B61EBAA
:100480000201001C41F5801149084FEA30000019B3
:10049000514132462B4603B0BDE8F04F00F093B90E
:1004A0000098012240000023D0EB020263EBE073CE
:1004B000009821464FEAE074B8EB000061EB0401BC
:1004C000E9E783F000435BE781F0004158E72DE95D
:1004D000FE4F81EA030404F0004421F0004100943F
:1004E0004FF0000B23F0004350EA01045ED052EAC3
:1004F00003045BD0C3F30A54C1F30A552C44A4F29D
:10050000F3340194A0FB0254C1F3130141F48011B0
:10051000C3F3130343F4801301FB024400FB034EB7
:10052000840A970A44EA815447EA8357A4FB076880
:1005300002958D0A05FB07854FEA932C04FB0C54AA
:100540002705029D4FEA065847EA1637B5EB08051E
:100550006EEB070C870E920E47EA811742EA831270
:10056000A7FB0201B6EB0B0164EB00042B0D43EA81
:100570000C335E1844EB1C50DA465146E7FB02018F
:10058000C5F313044FEA0B3343EA14534FEA043222
:10059000019C43EA0603A4F10C040294009CCDE9FB
:1005A00000B400F01FF903B0BDE8F08F0020014651
:1005B000F9E72DE9F04D81EA030404F0004B21F046
:1005C000004514464FF0000A23F0004150EA0502AE
:1005D00020D054EA01021DD0C5F30A570246C5F3E4
:1005E0001303C1F31300C1F30A5640F4801543F41A
:1005F0008013A7EB0608101BD64608F2FD3873EBF4
:10060000050002D308F1010801E092185B41B8F13E
:10061000000F03DA00200146BDE8F08D00204FF402
:100620008011064684460EE0171B73EB050705D3C1
:10063000121B63EB050306434CEA010C49084FEA21
:10064000300092185B4150EA0107EDD152EA0300F5
:1006500012D082EA040083EA0501084305D0101B8A
:10066000AB4106D20122002306E000224FF00043F6
:1006700002E06FF0010253101AEB06004CEB085138
:1006800010EB0A0041EB0B01BDE8F04D00F09BB808
:100690000EB5C10F80EAE0700844CA07002140F29D
:1006A00033438DE80E000A460B4600F09BF803B07A
:1006B00000BD00F0004230F000400AD0C10D01F54D
:1006C0006071C0F3160042EA0151C20840071143AD
:1006D000704700200146704730B5041E71F10004D8
:1006E00004DB4FF00044404264EB0101141E73F13F
:1006F000000405DB1C464FF00043524263EB040349
:100700008B4208BF824230BD30B5041E71F1000437
:1007100004DB4FF00044404264EB0101141E73F10E
:10072000000405DB1C464FF00043524263EB040318
:10073000994208BF904230BD30B50B4601460020BB
:100740002022012409E021FA02F59D4205D303FA93
:1007500002F5491B04FA02F52844151EA2F1010214
:10076000F1DC30BD202A04DB203A00FA02F100203F
:1007700070479140C2F1200320FA03F319439040DF
:100780007047202A04DB203A21FA02F0002170474A
:1007900021FA02F3D040C2F12002914008431946E9
:1007A0007047202A06DBCB17203A41FA02F043EAD1
:1007B000E07306E041FA02F3D040C2F1200291401A
:1007C00008431946704710B5141E73F1000408DA87
:1007D000401C41F1000192185B411A4301D120F005
:1007E000010010BD2DE9F04D92469B4611B1B1FAC2
:1007F00081F202E0B0FA80F220329046FFF7B2FFB9
:1008000004460F4640EA0A0041EA0B0153465A46A5
:10081000084313D0114653EA010019D0C8F1400231
:100820005046FFF7AEFF05460E4650465946424633
:10083000FFF798FF084305D0012004E02046394621
:10084000BDE8F08D0020054346EAE0762C433743AF
:100850000A986305E40AA0EB08000022FD0A44EAB6
:1008600047540A3002D500200146E9E70105101976
:100870006941DDE9084500196941BDE8F04DA2E78D
:10088000C1F30A52C1F3130140F2FF3341F4801166
:100890009A4202DA00200146704740F233439A42FE
:1008A000A2F2334202DC5242FFF76BBFFFF75ABF9E
:1008B000064C074D06E0E06840F0010394E80700AD
:1008C00098471034AC42F6D3FFF762FC70DC0E0898
:1008D00090DC0E0870B58C1810F8015B15F007035A
:1008E00001D110F8013B2A1106D110F8012B03E0C9
:1008F00010F8016B01F8016B5B1EF9D12B0705D4D1
:100900000023521E0DD401F8013BFAE710F8013B19
:10091000CB1A921C03E013F8015B01F8015B521E35
:10092000F9D5A142D8D3002070BD08B50A2000F047
:10093000C0FA02226946002000F03EF89DF800004F
:10094000552803D19DF80100AA2821D055208DF803
:100950000000AA208DF801000A2000F0AAFA022265
:100960006946002000F064F8002000900A2000F0A2
:10097000A0FA02226946002000F01EF89DF800004F
:10098000552803D19DF80100AA2801D0012008BDF7
:10099000002008BD064882B0016841F002010160F4
:1009A000006800F002000090024802B002F08CBD26
:1009B000303802400403002070B515460E46044648
:1009C00006E02046641CA4B200F006F806F8010B0D
:1009D0006D1EADB2F5D270BD10B50446134802F0DD
:1009E00012FE200AA02101EB4000C1B20F4802F024
:1009F000C7FD0E4802F045FEE1B20C4802F0C0FD12
:100A00000A4802F03EFE094802F0FDFDA121074818
:100A100002F0B6FD054802F034FE044802F06EFD17
:100A20000446024802F00EFE204610BD04030020DA
:100A300070B514460D46064606E02978304600F0AB
:100A400007F8761CB6B26D1C641EA4B2F5D270BD58
:100A500070B504460D46124802F0D5FD200AA021CB
:100A600001EB4000C1B20E4802F08AFD0C4802F0D2
:100A700008FEE1B20A4802F083FD094802F001FED7
:100A80002946074802F07CFD054802F0FAFD0448BB
:100A900002F0D8FDBDE870400A2000F00ABA00005C
:100AA00004030020012805D000224FF480510248A1
:100AB00000F015BE0122F8E7001402400548006866
:100AC000C16841F01001C16080220349014802F071
:100AD000C6B8000014080020580A002080210148F0
:100AE000FFF718BC580A00200249002081F82800AE
:100AF00070470000500000200249012081F82800C2
:100B00007047000050000020FEE710B50C46034679
:100B10004979601E085C2B2806D02D280ED02A2883
:100B200016D02F281ED026E0187D03EB800010ED94
:100B3000020A50ED010A70EE200A1CE0187D03EB5A
:100B4000800010ED020A50ED010A70EE600A12E01A
:100B5000187D03EB800010ED020A50ED010A60EEF3
:100B6000200A08E0187D03EB800010ED020A10ED6A
:100B7000011AC0EE010A184603F070FD184603F092
:100B80006DFDB0EE600A184603F078FD2046BDE822
:100B9000104004F09BB910B500F090F800F0A6F8F2
:100BA000C0B210BD00B585B014216846FFF7B2FB96
:100BB00008200090002001900290022003906946D6
:100BC000024800F097FC05B000BD0000000C024098
:100BD00000B585B014216846FFF79CFB0820009003
:100BE000012001900290022003906946024800F023
:100BF00081FC05B000BD0000000C024070B5002073
:100C000004464006050E00F007F8641C2843E4B2D1
:100C1000082CF6D370BD000070B50024134D04E01D
:100C2000641CE4B2012000F051F90821284600F0CC
:100C300049FD08B1642CF3D3002404E0641CE4B241
:100C4000012000F043F90821284600F03BFD08B9D7
:100C5000642CF3D3282000F039F90821284600F04D
:100C600031FD002800D0012070BD0000000C0240C2
:100C7000F0B585B00E46074600F020F800F036F8D3
:100C800010B1012005B0F0BD00246D46FFF7B6FF9E
:100C900045F82400641CE4B2052CF7D3DDE900011B
:100CA0000844DDE90212114408440499884203D142
:100CB00000983060029838600020E3E710B5FFF735
:100CC00087FF094C00220821204600F008FD14206F
:100CD00000F0EFF801220821204600F000FDBDE8F9
:100CE00010401E2000F0F2B8000C024070B5002445
:100CF000FFF758FF124D04E0641CE4B2012000F03D
:100D0000E5F80821284600F0DDFC10B1642CF3D38F
:100D10000FE0642C0DD2002404E0641CE4B2012036
:100D200000F0D4F80821284600F0CCFC18B1642C5F
:100D300004D3012070BD642CEFD3FAE7002070BD0E
:100D4000000C0240014800F00FBA00001C0900200E
:100D5000014800F009BA00005C080020014800F0DA
:100D600003BA0000BC08002001681823CAB2103A78
:100D7000B2FBF3F2054B6FF30901032A9B5CC365D9
:100D800000D9091D8165084670470000B0A40C0811
:100D900010B5014600208B698A6A4FF0C07453B1C8
:100DA000B3F5005F15D072B1012A0CD0022A0AD027
:100DB000032A09D104E01AB1012A06D0022A03D17C
:100DC000C96AC90100D5012010BDC96AA142FAD083
:100DD00010BD002AF7D0012AF2D0022AF3D0032A4C
:100DE000F3D010BD30B50468256825F48025256052
:100DF000046863608368402B036803D099600068CF
:100E0000C26030BD9A600068C16030BD0EB5254E2D
:100E1000254C00258DF808500123002202A93068D6
:100E200026F072FD68BB60798DF8000094F8280008
:100E30008DF8010002221021684603F0E8FF00222D
:100E400001A91A4801F006F903222021684603F09F
:100E5000CBFF9DF800009DF80610884215D0207841
:100E600010B9A169002088479DF806008DF80000A0
:100E70008DF802508DF8015003222021684603F0BE
:100E8000C6FF642026F004FDC4E7606980479DF832
:100E900006108DF800108DF80200000A8DF8010090
:100EA000EAE700003800002050000020C4060020BF
:100EB000704770B5054600244FF47A7603E030465B
:100EC00000F004F8641CAC42F9D370BD30B50C4A94
:100ED00000211468E36A4FF47A725843B0FBF2F5CC
:100EE000626A606A9042FCD002D9A0EB020202E082
:100EF000A3EB0202024411440246A942F1D330BDE1
:100F00007C0900207047704710B54FF4805000F006
:100F1000E5FABDE810404FF4005000F0DFBA0000E1
:100F2000024901200870202000F0D8BA0C000020EF
:100F300072B6FEE730B5B3F5804F05D06FF0704163
:100F400040F82210002030BD8C690B688D68234367
:100F50004C688989240144EA0524234343EA01417A
:100F600050F82230014C23401943E9E70000F0CF4C
:100F700010B50A6850F8223023F0010340F82230FF
:100F80008B68082B23D000224C681C43CB6813438A
:100F90000A691C4314434A698B691443CA691443A0
:100FA0000A6A14434A6A14438A6A1443CA6A144395
:100FB0000A6B1443CA6B234309681A43054C50F863
:100FC0002130A343134340F82130002010BD4022BC
:100FD000DAE700007FFF0F0030B5D1E9003443EAC3
:100FE00004138C688D89240244EA054423430C8A47
:100FF000094D00EB820005EB045423430C7D6D0189
:1010000005EB0464896923430B43416801F04041C7
:101010000B434360002030BD0000F0FF2DE9F84F86
:1010200089461E46904682460024714203220A9851
:1010300002EB4105C8B930E0274608E03B462246AE
:1010400049465046CDF8008004F0AEFC7F1CB74204
:10105000F4DD002D03DA05EB8405AD1D04E0A01BD3
:1010600005EB80050A35761E641CB442E4DDBDE85C
:10107000F88F3346224649465046CDF8008004F0AA
:1010800093FC002D03DA05EB8405AD1D04E0A01BE5
:1010900005EB80050A35761E641CB442E9DDE6E7FF
:1010A00010B5144602F0E6FC2046BDE8104002F000
:1010B000EFBD2DE9F0410446876D00F015FB0546B4
:1010C00094F835000026022806D08020606584F858
:1010D00034600120BDE8F0812068016821F016012C
:1010E00001602068416921F080014161206C08B9EC
:1010F000A06C20B12068016821F00801016020681F
:10110000016821F0010101600CE000F0EDFA401BE4
:10111000052807D920206065032084F8350084F86D
:101120003460D7E720680068C007EED194F85C10FF
:101130003F208840B860012084F8350084F834608E
:101140000020C7E790F83510022903D080214165BF
:1011500001207047052180F835100068016821F0F2
:1011600001010160002070472DE9F84304464FF06B
:101170000009CDF8009063484FF41651A56D006842
:10118000B0FBF1F72E6894F85C20082101FA02F018
:1011900030420FD02068026852070BD5026822F057
:1011A0000402026094F85C008140A960606D40F028
:1011B0000100606594F85C104FF0010808FA01F036
:1011C000304208D021684969090604D5A860606DDD
:1011D00040F00200606594F85C10042088403042C2
:1011E00008D021680968890704D5A860606D40F0BF
:1011F0000400606594F85C1010208840304218D0DC
:1012000021680968090714D5A860206801684903A6
:1012100004D50068000308D5A16C07E00168C90582
:1012200003D4016821F008010160216C09B1204656
:10123000884794F85C1020208840304231D02168E3
:101240000968C9062DD5A86094F8350005282068DE
:10125000016806D0490347D5006800031DD4616CBE
:101260001CE021F0160101602068416921F0800135
:101270004161206C08B9A06C20B12068016821F0A0
:101280000801016094F85C103F208840A86084F851
:10129000358084F83490216D1FE0E16B09B1204660
:1012A0008847606D00282BD0606DC00714D00520E2
:1012B00084F835002068016821F001010160009880
:1012C000401C0090B84203D820680068C007F6D1DF
:1012D00084F8358084F83490E16C002910D001B096
:1012E0002046BDE8F04308470168C905D5D4016828
:1012F00021F01001016084F8358084F83490CCE747
:10130000BDE8F883000300202DE9F041044600F019
:10131000EBF905465CB1022084F83500002684F81C
:1013200034602068016821F0010101600DE00120B6
:10133000BDE8F08100F0D8F9401B052805D9202030
:101340006065032084F83500F2E720680068C00774
:10135000F0D121680A6820480240D4E9010318430B
:10136000D4E903352B43184363691843A369184331
:10137000E3691843236A18431043626A042A03D1BD
:10138000D4E90B231A431043086020684069656A5A
:1013900020F0070128460D43012704280CD1A06A3C
:1013A0000543E06A40B12046FFF7F2FC20B140203F
:1013B000606584F83570BAE7206845612046FFF71C
:1013C000D3FC94F85C203F2191408160666584F8ED
:1013D00035700020ACE700003F8010F02DE9F041AF
:1013E0000446866D90F83400002501280DD00120B8
:1013F00084F8340094F835700020012F07D084F869
:10140000340002252846BDE8F0810220FBE70227D0
:1014100084F8357060652046FFF7E4FC94F85C10B2
:101420003F208840B0602068016841F016010160EB
:10143000206C20B12068016841F00801016020683B
:10144000016841F001010160DCE70000F0B587B000
:1014500014216846FEF75EFF1A48016800292FD163
:101460000121016018480024016841F00101016078
:101470000068022500F0010005904FF68070CDE96C
:10148000000502AA03260C2782E8D00069460F480F
:1014900000F030F84CF23370CDE9000502AA69463D
:1014A00082E8D0000A4800F025F841F20400CDE9B6
:1014B000000502AA694682E8D000064800F01AF842
:1014C00007B0F0BD04000020383802400010024090
:1014D000000C02400018024070470000044910B59B
:1014E0000A68024202D00860FFF7F6FF10BD000054
:1014F000143C01402DE9F84FDFF89C910022A9F13E
:10150000040B03274FF00F0C09F1040AABF1040E92
:1015100001250B6895402B40AB426ED10C7904F04D
:101520000304012C01D0022C15D18668540007FA5F
:1015300004F826EA0806D1F80C8008FA04F848EA0C
:101540000608C0F808804468AC430D79C5F300155F
:101550009540254345600C79E443A40708D0C5684D
:10156000540007FA04F6B5438E68A6402E43C660C1
:101570000C7904F00304022C11D1D40800EB84068A
:10158000356A5407E40E0CFA04F825EA0805D1F888
:10159000108008FA04F848EA0508C6F820800568B3
:1015A000540007FA04F6B5430E7906F00306A64088
:1015B0002E4306604C6814F4403F66D0374C2568D3
:1015C00045F480452560246822F0030504F4804436
:1015D0000094334C05EB0408D8F808589407260FFC
:1015E0000CFA06F4A5432F4CA04201D1002424E0BC
:1015F0002D4CA04202D101241FE046E02B4CA0421A
:1016000001D1022419E02A4CA04201D1032414E0A4
:10161000284CA04201D104240FE0274CA04201D164
:1016200005240AE0254CA04201D1062405E0244C03
:10163000A04201D1072400E00824B4402C43C8F89C
:101640000848D9F800404D464E689C43F60200D544
:101650001C432C60DAF8004055464E689C43B602A5
:1016600000D51C432C60DBF800405D464E689C436F
:10167000B60300D51C432C60DEF8004075464E686A
:101680009C43F60300D51C432C60521C102AFFF427
:101690003FAFBDE8F88F0000083C014044380240ED
:1016A00000300140000002400004024000080240F7
:1016B000000C0240001002400014024000180240DA
:1016C000001C02400069084000D0012070474269B8
:1016D00021EA02030A4043EA0241816170470AB1EC
:1016E000816170470904FBE701488068704700008A
:1016F000F40200200248816802781144816070473A
:10170000F40200200B4810B5016841F4007101603B
:10171000016841F480610160016841F480710160F9
:10172000032000F09FF80F2000F006F800F050F8BA
:10173000002010BD003C024030B505461F4887B070
:101740000024016841F004010160006806A900F06E
:1017500004000590684600F0CFF90398A8B100F0A6
:10176000EBF940001649174AB0FBF1F11648491E43
:10177000026040F2E732C0E90324C0E90114846149
:1017800001F088F8040003D015E000F0D5F9E9E78E
:101790000D4801F0ADF804000DD11E2000F034F822
:1017A000102D07D2002229461E2000F03BF80748E2
:1017B000056000E0012407B0204630BD40380240FB
:1017C00040420F00000800407C090020F802002081
:1017D0000C4882B0016841F480410160006800F467
:1017E000804000900748001F016841F0805101606F
:1017F0000068002200F0805000900F21901E02B07F
:1018000000F010B844380240002809DB00F01F0245
:10181000012191404009800000F1E020C0F8001152
:1018200070470000F0B40E4B1B68C3F30223C3F1F2
:101830000704042C00D904241D1D072D01D2002308
:1018400000E0DB1E012606FA04F56D1E0D409D40EA
:101850009E40761E164045EA0601F0BC04F06EB8C4
:101860000CED00E0064A00F0070110684FF6FF0398
:10187000184040EA01200349084310607047000007
:101880000CED00E00000FA052DE9F843044600687D
:101890004FF00109C1074FF0000501D1400726D5DF
:1018A000DFF80C81C8F86850FFF71EFF0646414F6D
:1018B00004E0FFF719FF801B022857D838680001A1
:1018C000F7D46068217A800140EA01703949843197
:1018D0000860C8F86890FFF707FF064604E0FFF7C6
:1018E00003FF801B022841D838680001F7D5207813
:1018F000800752D52F484030016841F08051016087
:1019000000682D4F00F080500090386840F48070DF
:101910003860FFF7E9FE064604E0FFF7E5FE801BAE
:10192000022823D83868C005F7D5224E70363068B3
:1019300010F4407020D0A18901F4407181421BD085
:1019400030681E4920F44070C1F800900D6030608E
:101950003068C00710D0FFF7C7FE054641F2883750
:1019600007E0FFF7C1FE401BB84202D90320BDE8E3
:10197000F88330688007F4D5E0680E49C0F301228F
:101980000831032A0BD0086820F4F810086030688A
:10199000A189C1F30B01084330600020E7E70A6822
:1019A000074B22F4F812184002430A60EFE70000E8
:1019B000000047420038024000700040400E47429D
:1019C000FFFCFF0F2DE9F0470D46040065D0DFF85E
:1019D0001491D9F80000EFB200F00700A84207D236
:1019E00089F80070D9F8000000F00700A84254D12F
:1019F00020683D4E810712D5400703D5306840F47A
:101A0000E05030602078000703D5306840F4604033
:101A100030603068A16820F0F00008433060207822
:101A2000C0072DD0304960680839012812D002283B
:101A300013D0032811D00968890700292DDA3168ED
:101A400021F0030101433160FFF74EFE804641F271
:101A5000883A0EE009688903EFE709688901ECE735
:101A6000FFF742FEA0EB0801514502D90320BDE873
:101A7000F0873068616800F00C00B0EB810FEFD1A7
:101A8000D9F80010484601F00701A94207D90770AC
:101A9000006800F00700A84201D00120E7E72078A5
:101AA000400705D53068E16820F4E0500843306015
:101AB0002078000706D53068216920F4604040EAAC
:101AC000C100306000F058F83168084AC1F30311D2
:101AD000515CC8400649086006480068FFF72CFEC4
:101AE0000020C4E7003C024008380240B8A40C08BB
:101AF00000030020F80200200F2202600C4A136845
:101B000003F003034360136803F0F003836013687A
:101B100003F4E053C36012684FF4E05303EAD202C7
:101B200002610448006800F0070008607047000088
:101B300008380240003C0240044805490068096832
:101B4000044AC1F38221515CC84070470003002061
:101B500008380240C8A40C08044805490068096810
:101B6000044AC1F34231515CC84070470003002071
:101B700008380240C8A40C08154810B5006810F0D9
:101B80000C01144813D0431004290FD008290ED19A
:101B90000F4C241F216801F03F022168490207D53C
:101BA0002068C0F38810A0FB030106E0184610BDB2
:101BB0002168C1F38811A1FB00010023FEF760FB3F
:101BC0002168C1F30141491C4900B0FBF1F010BD8F
:101BD000083802400024F4002DE9F84F040075D0C5
:101BE0002078DFF838A3C007AAF1040548D00AF12D
:101BF00004000168C1F38101012908D00068C0F325
:101C0000810002280AD1DAF80000400206D52868CF
:101C1000800335D560680028E1D031E06068B0F518
:101C2000803F10D0B0F5A02F286810D020F480306D
:101C30002860286820F4802028606068A0B1FFF741
:101C400053FD06460CE0286840F48030F4E740F489
:101C500080202860F7E7FFF747FD801B642871D8D4
:101C600028688003F7D50BE0FFF73EFD064604E049
:101C7000FFF73AFD801B6428F1D828688003F7D469
:101C80002078DFF89C9280074FF0000B3DD5A348E9
:101C9000001D016811F00C0F08D00068C0F381002E
:101CA00002280AD1DAF80000400206D4286880072A
:101CB00015D5E068012809D111E0E068B8B101202C
:101CC000C9F80000FFF710FD064605E022E1FFF726
:101CD0000BFD801B0228C2D828688007F7D528682A
:101CE000216920F0F80040EAC10028600DE0C9F841
:101CF00000B0FFF7F9FC064604E0FFF7F5FC801B97
:101D000002281FD828688007F7D42078000722D53A
:101D1000824F84486169703771B101210160FFF71A
:101D2000E3FC064604E0FFF7DFFC801B022809D82D
:101D300038688007F7D50EE0C0F800B0FFF7D4FC94
:101D4000064605E082E0FFF7CFFC801B02287DD825
:101D500038688007F7D42078400765D56F484FF082
:101D600000083C300068C0000BD46C483C3001686F
:101D700041F08051016000684FF0010800F0805090
:101D80000090694F3868C0050FD4386840F48070FF
:101D90003860FFF7A9FC064604E0FFF7A5FC801BAE
:101DA000022853D83868C005F7D55C4FA0686C3757
:101DB00001280FD00528386810D020F001003860C5
:101DC000386820F004003860A068B0B1FFF78CFCE0
:101DD00006460EE0386840F00100F4E740F00400E9
:101DE0003860F7E7FFF780FC811B41F288308142C1
:101DF00063D838688007F5D50DE0FFF775FC064617
:101E000006E0FFF771FC811B41F28830814254D813
:101E100038688007F5D4B8F1000F05D03F483C3052
:101E2000016821F080510160A069B8B33B49091DE8
:101E30000968C1F38101022946D00228584606D01C
:101E4000C9F86000FFF750FC044639E035E04F4622
:101E5000C9F86000FFF748FC064604E0FFF744FCC1
:101E6000801B022829D828688001F7D4D4E907010B
:101E70000843A16A2D4A490802EB0141626A41EA1E
:101E80008211084394F82C1040EA0161CAF800104E
:101E900001203866FFF728FC044605E03CE0FFF728
:101EA00023FC001B022808D828688001F7D533E0FE
:101EB000FFF71AFC001B022802D90320BDE8F88FA7
:101EC00028688001F4D427E00128F7D0DAF8000070
:101ED000E26900F4800191421CD1226A00F03F01C6
:101EE000914217D147F6C071626A0140B1EB821F7F
:101EF00010D1A26A4FF0FF3300F4403103EB5202DD
:101F0000B1EB024F06D194F82C1000F07060B0EBEA
:101F1000016F01D00120D1E70020CFE70438024053
:101F200000004742800E4742007000400000FFFF63
:101F30002DE9F843894638494FF4FA484FF47A734B
:101F40000E68B6FBF8F159430091017F01295AD080
:101F500001270777022141770368CA215962036884
:101F60005321596201688B684FF000045B054FF004
:101F7000FF054FF0030C06D5009B5B1E009344D079
:101F8000CB685B07F8D48B6823F480638B600168AF
:101F9000CB6803F0800363F49063CB60B6FBF8F189
:101FA0004FF47A73594300910168009B5B1E0093C4
:101FB0002BD0CB685B07F8D58B6823F007038B60C9
:101FC00001688B6813438B600268C2F81490134950
:101FD0000A6842F480020A60104908310A6842F433
:101FE00080020A6001688A6842F480428A6001685F
:101FF0008A6842F480628A6001684D62477704779C
:102000000020BDE8F8830220FBE74D6280F81DC088
:1020100004770320F5E7000000030020003C0140A6
:102020007047000010B50A4904464FF4800008606C
:102030002168C868400508D5C86800F0800060F4D1
:102040009060C8602046FFF7EBFF0120607710BD6D
:10205000143C014010B500680B4641680D48014032
:10206000080CD870C1F304245C7001F03F049C702C
:10207000C1F34231197052B902F0C0FCD8705878DF
:1020800002F0BCFC5870987802F0B8FC9870002000
:1020900010BD00003FFFFF0010B50B460168896AC4
:1020A000596001680969C1F30E019960006801680F
:1020B0000D480140C1F305401870C1F306245C705F
:1020C00001F07F049C70890DD97052B902F096FC22
:1020D0001870587802F092FC5870987802F08EFCD4
:1020E0009870002010BD00007F7F7F0010B50400B5
:1020F00002D0607F10B106E0012010BD00202077E3
:10210000204600F041F8022060772068C168C9438A
:10211000C90632D5CA21416221685320486220464F
:1021200002F080FC20BB20688168164A1140816063
:102130002068816862681143D4E904231A4311437B
:1021400081602168E068086120680169228941EAAC
:1021500002410161204602F088FC48B921680A6CFE
:1021600022F480220A6421680A6CA3691A430A6473
:102170002268FF21516208B110BD00200121617762
:1021800010BD0000BFFF8FFF1FB50021009101911E
:102190000291039100680C49884214D102200090FA
:1021A000C00103906846FFF76FFB08B1FEF7C0FE61
:1021B000064901200860002205210320FFF732FBB9
:1021C0000320FFF721FB1FBD002800403C0E4742C3
:1021D00070B50446007F0B46012819D001262677EA
:1021E00002206077B2B19878D97840EA01455878F2
:1021F0001978000240EA413005432168CA2048624C
:10220000216853204862204602F00CFCD0B122E045
:10221000022070BD5878C10603D500F0EF000A30E7
:102220005870D87802F0F3FB0204587802F0EFFB04
:1022300042EA0022987802F0EAFB0243187842EA68
:102240004035DAE70748054020684560204602F03F
:102250000CFC00B966772268FF21516200212177CA
:1022600070BD00003FFFFF002DE9F0410446007FF4
:102270000D46012823D04FF0010884F81C8002206D
:1022800060772068002780684FEA4060D2B100285C
:1022900000DBEF70A878297840EA01466878E97891
:1022A000000240EA815006432168CA204862216842
:1022B00053204862204602F0B5FBB8B12CE0022062
:1022C000BDE8F081002800DBEF70287802F09FFB6A
:1022D0000204687802F09BFB42EA0022A87802F030
:1022E00096FB0243E87842EA8056DDE70D48064057
:1022F000206806602068816821F480218160D5E92A
:10230000031001432068826811438160204602F077
:10231000ACFB08B984F81D802268FF215162277741
:10232000CEE700007F7F7F0070B505460A48296828
:10233000C860FFF7D9F904464FF47A7606E0FFF754
:10234000D3F9001BB04201D9032070BD2868C068D2
:102350008006F4D5002070BD5F7F0100704700004B
:1023600038B5016804464A688868C043430606D504
:10237000C30704D1D3435B0601D4216C05E0830776
:1023800008D4D3431B0605D4616C01B02046BDE8D8
:1023900030400847830603D5430601D5C30551D411
:1023A000D3439B064ED443060AD494F85130032BF2
:1023B00049D0636D43F004036365CB688B68009379
:1023C000830609D4636D43F0010363658B68009352
:1023D0000B6823F040030B60C00506D4606D40F02D
:1023E00008006065206880680090606D002829D032
:1023F0002068416821F0E0014160012084F851002B
:10240000900701D4D00722D02068416821F0030151
:102410004160114DE06C40B10565E06CFEF792FE45
:1024200018B1606D40F040006065A06C002809D0D4
:102430000565A06CFEF786FE002803D0606D40F0B5
:102440004000606538BDC8688868009038BD204687
:10245000FFF784FF38BD0000C94B000870B50400C9
:1024600009D0606A002540B125616561A56294F8D4
:10247000510040B10CE0012070BD6068B0F5827F72
:10248000F4D0E561F2E784F85050204600F044F8BB
:10249000022084F851002068016821F040010160A9
:1024A000A088218900F4827001F404410843A189C5
:1024B00001F400610843217C01F002010843217D01
:1024C00001F001010843218B01F400710843217FD1
:1024D00001F03801084394F8201001F0800108430E
:1024E000218D01F40051084321680860A06904218E
:1024F00001EA104094F8241001F01001084321680B
:1025000048602068C16921F40061C16165650120EE
:1025100084F85100002070BDF0B587B00446142146
:102520006846FDF7F7FE2049206888423AD11F48E7
:102530000025016841F480410160006800F480409A
:1025400005901A481038016841F0040101600168E3
:1025500001F004010591016841F002010160006889
:10256000022600F0020005900C20CDE900060327AA
:1025700005240295CDE9037469460D48FEF7BAFFBC
:102580003003CDE900060295CDE903746946094898
:10259000FEF7B0FF002205212420FFF743F9242095
:1025A000FFF732F907B0F0BD003800404038024074
:1025B00000080240000402402DE9FF4F81B01F4691
:1025C0009346044601250E9EFFF78EF8804694F848
:1025D00051006168012806D0B1F5827F3CD1A16825
:1025E000C9BB042838D10298002870D0BBF1000F75
:1025F000FBD0002FF9D094F8500001282CD04FF0D8
:10260000010A84F850A094F85100042802D0052053
:1026100084F851004FF00009C4F85490C4F838B061
:10262000E787A78702992163E786A786C4F84090C9
:10263000C4F8449020680168490603D4016841F059
:1026400040010160E068B0F5006F606808D0E8B351
:10265000012F47D07DE0FFE7022005B0BDE8F08FF5
:1026600008B1012F37D1206B21680088C860206B2A
:10267000801C2063E08E401EE0862CE0206881688C
:1026800089070DD5E18E59B1012D09D1216B09883A
:10269000C160206B801C2063E08E401EE086002518
:1026A00020688168C9070BD0E18F49B1C068A16B70
:1026B0000880A06B801CA063E08F401EE08701258E
:1026C000FFF712F8A0EB0800B04201E00AE064E076
:1026D00001D3701C4ED1E08E0028CFD1E08F0028AE
:1026E000CCD13CE0206B216800780873206B401C43
:1026F0002063E08E401EE0862BE020688168890719
:102700000DD5E18E59B1012D09D1216B09780173E5
:10271000206B401C2063E08E401EE0860025206870
:102720008168C9070BD0E18F49B1C068A16B0870FF
:10273000A06B401CA063E08F401EE0870125FEF7E0
:10274000D3FFA0EB0800B04202D3701C01D011E00F
:1027500086B1E08E0028D0D1E08F0028CDD142464E
:102760003146204602F038FA50B12020606584F8E6
:10277000509012E084F851A084F8509003206CE748
:10278000A06818B92068C1688068009084F851A0DA
:1027900084F85090606D0028F1D001205DE770B59D
:1027A00015460E46040003D094F8490010B107E026
:1027B000012070BD002084F84800204600F01DF87C
:1027C00004F108012068FEF7D3FB3146A2682068B7
:1027D000FEF702FCD4E901022946236BFEF7AAFBAF
:1027E000A168206850F8212042F0010240F8212021
:1027F000012084F84900002070BDFEF727BE704715
:102800007047000070B590F83C20012A32D00125B5
:1028100080F83C50022280F83D200268536894689A
:1028200023F070060B6833435360134B02689A42DF
:1028300014D0B2F1804F11D0104B9A420ED0104BF1
:102840009A420BD00F4B9A4208D00F4B9A4205D0B8
:102850000E4B9A4202D00E4B9A4204D1496824F0A2
:1028600080031943916080F83D50002180F83C10AE
:10287000084670BD022070BD000001400004004009
:1028800000080040000C00400004014000400140EE
:102890000018004010B5040003D094F83D0010B1BA
:1028A00007E0012010BD002084F83C00204600F025
:1028B0001EF8022084F83D00211D206802F098FBDC
:1028C000012084F8460084F83E0084F83F0084F834
:1028D000400084F8410084F8420084F8430084F802
:1028E000440084F8450084F83D00002010BD704786
:1028F00090F83D10012901D001207047022180F895
:102900003D100168CA6842F00102CA6000681149BE
:10291000884214D0B0F1804F11D00F4988420ED0B8
:102920000E4988420BD00E49884208D00D49884292
:1029300005D00D49884202D00C49884204D18168F3
:1029400001F00701062903D0016841F0010101608F
:1029500000207047000001400004004000080040D3
:10296000000C0040000401400040014000180040FD
:1029700070472DE9F04104460068C66805694FF0CC
:102980000007A90713D5B10711D5F91E0161012070
:102990002077206880698007204602D0FFF7E8FF93
:1029A00004E000F0A7F8204600F04CF9277768070C
:1029B00016D5700714D521686FF004000861022055
:1029C00020772068806910F4407F204602D0FFF70E
:1029D000CFFF04E000F08EF8204600F033F92777AF
:1029E000280715D5300713D521686FF00800086156
:1029F000042020772068C0698007204602D0FFF7B6
:102A0000B7FF04E000F076F8204600F01BF92777C6
:102A1000E80616D5F00614D521686FF0100008619D
:102A2000082020772068C06910F4407F204602D03B
:102A3000FFF79EFF04E000F05DF8204600F002F989
:102A40002777E80708D0F00706D021686FF001006B
:102A50000861204600F0F8F8280608D5300606D5AB
:102A600021686FF0800008612046FFF7C8FE680605
:102A700008D5700606D521686FF040000861204631
:102A800000F0ECF8A8060AD5B00608D521686FF06A
:102A9000200008612046BDE8F041FFF7B1BEBDE867
:102AA000F081000010B586B0044614216846FDF799
:102AB00031FC0D492068884214D10C48002102687D
:102AC00042F004020260006800F0040005908020DB
:102AD00000900220CDE90101CDE9031069460448C8
:102AE000FEF708FD06B010BD00040040303802407B
:102AF00000080240704770B5044690F83C0000267C
:102B00000D4601280FD0012084F83C006AB1042A48
:102B10001DD0082A2FD00C2A3FD00126002084F88F
:102B20003C00304670BD022070BD206802F0CCFA37
:102B30002068816941F0080181612068816921F084
:102B400004018161206881692A69114311E02068CC
:102B500002F0EAFA2068816941F40061816120682D
:102B6000816921F480618161206881692A6941EA73
:102B700002218161D2E7206802F00CFB2068C16964
:102B800041F00801C1612068C16921F00401C161FF
:102B90002068C1692A69114311E0206802F02EFB08
:102BA0002068C16941F40061C1612068C16921F4F4
:102BB0008061C1612068C1692A6941EA0221C1615D
:102BC000ACE710B5040003D094F83D0010B107E065
:102BD000012010BD002084F83C00204600F01EF8C3
:102BE000022084F83D00211D206802F001FA012036
:102BF00084F8460084F83E0084F83F0084F84000E2
:102C000084F8410084F8420084F8430084F84400CA
:102C100084F8450084F83D00002010BD08B5006828
:102C20000649884208D10648016841F00201016066
:102C3000006800F00200009008BD000000040040A1
:102C4000403802407047000000680349884201D1C3
:102C5000FEF750BD7047000000080040704738B5CF
:102C6000044690F84200202801D0022038BD51B11E
:102C70004AB10120206300206063204602F002FD7B
:102C8000010002D005E0012038BD206B012802D0F0
:102C90000121084638BD206802684068009020681D
:102CA0000C3050E8002F42F0100240E80023002BC7
:102CB000F5D1EEE700680549884205D104490120B5
:102CC0000870044800F008B8704700000048004051
:102CD000BD0300201408002010B5044600684069B8
:102CE00094F84110C0F3C010212911D180B120689F
:102CF000143050E8001F21F0800140E80012002A43
:102D0000F5D1A06B08B1FEF7D4F9204602F0C4FB60
:102D10002068406994F84210C0F38010222911D134
:102D200080B12068143050E8001F21F0400140E8D5
:102D30000012002AF5D1E06B08B1FEF7BAF920467F
:102D400002F083FB002010BD70470000F8B5016859
:102D500004460868CA684B6910F00F0F4FF0000571
:102D600059D003F0010602F49077374365D0C107CC
:102D700005D0D10503D5616C41F0010161644107C3
:102D800005D5D90703D0616C41F002016164810768
:102D900005D5D90703D0616C41F0040161640107D6
:102DA00007D502F02001314303D0616C41F00801E6
:102DB0006164616C00293AD0800604D5900602D582
:102DC000204602F077FB20684069616CC0F38010F8
:102DD000090700D460B3204602F037FB2068406941
:102DE000400621D52068143050E8001F21F0400132
:102DF00040E80012002AF5D1E06BA8B16E490165E8
:102E0000E06BFEF79FF9002811D0E06B016D01B077
:102E1000BDE8F040084783060FD593060DD5204640
:102E2000BDE8F84002F046BB2046FFF78DFFF8BD35
:102E30002046FFF789FF6564F8BD266B2023012E2D
:102E40007DD1C6067BD5D60679D50868486800903E
:102E500048694FF00206400641D5E16B08684068BA
:102E60000004000CE8D0A28D8242E5D9E085C86953
:102E7000B0F5807F2DD020680C3050E8001F21F481
:102E8000807140E80012002AF5D12068143050E823
:102E9000001F21F0010140E80012002AF5D120684E
:102EA000143050E8001F21F0400140E80012002AD1
:102EB000F5D184F84230256320680C3050E8001FBB
:102EC00021F0100140E80012002AF5D1E06BFEF776
:102ED000F0F86663A08DE18D401A81B22AE0A08DE2
:102EE000E18D401A81B2E08D0028A5D00029A3D041
:102EF00020680C3050E8002F22F4907240E8002740
:102F0000002FF5D12068143050E8002F22F0010284
:102F100040E80027002FF5D184F84230256320686F
:102F20000C3050E8002F22F0100240E80023002B64
:102F3000F5D166632046FFF7BDFEF8BDFFE7050645
:102F40002BD5150629D594F841002128F5D1A06884
:102F5000B0F5805F01D12069B0B1206A411C2162C7
:102F6000216800784860E08C401E0004000CE0847A
:102F7000E3D12068C16821F08001C1602068C16888
:102F800041F04001C160D8E7206A0088C0F3080022
:102F90004860206A801C2062E5E74006CDD55006D7
:102FA000CBD5CA68204622F04002CA6084F841307E
:102FB00000F066F9C1E700004D53000870B5040049
:102FC00004D094F84100002510B106E0012070BD46
:102FD00084F84050204600F023F8242084F8410073
:102FE0002068C16821F40051C160204602F0C4FA93
:102FF0002068016921F4904101612068416921F054
:103000002A0141612068C16841F40051C1606564D2
:10301000202084F8410084F842006563002070BDE0
:103020002DE9F04786B0044614216846FDF772F991
:103030006349DFF888C102232068614E10390322FA
:10304000DFF880A100259F064FF4806960454CD1D0
:10305000306840F400203060306800F400200590B3
:10306000086840F0010008600868694600F0010047
:1030700005908DE82C000820CDE903205046FEF78E
:1030800039FA524E5048B8463060C6E90175C6E973
:1030900003597561B561F56135624F463046756219
:1030A000FEF732F908B1FDF743FFE663B463474E1C
:1030B000454860363030E6E802084020A1C6434863
:1030C00046F814596030B561F56135627562FEF7F6
:1030D0001BF908B1FDF72CFFA6630022052134205F
:1030E000B463FEF79FFB342027E0DFF8E4804FF065
:1030F000070C404526D13248001D046844F01004F6
:103100000460006800F010000590086840F00100BD
:1031100008600868694600F0010005904FF4C0603F
:103120008DE82900CDE9032C5046FEF7E3F9002293
:1031300005212520FEF776FB2520FEF765FB06B06E
:10314000BDE8F087DFF88C804045F8D1306840F466
:1031500080203060306800F480200590086840F0DE
:10316000020008600868694600F0020005904FF40C
:1031700040608DE82900CDE9032C1748FEF7BAF925
:10318000124E1148C03618383060C6E90175C6E9DC
:10319000035980157561C6E906503562304675627F
:1031A000FEF7B2F808B1FDF7C3FEE6630022052181
:1031B0002720B463FEF736FB2720BEE7004C004013
:1031C0004038024000000240406002405C0800209D
:1031D0000010014000480040000402407047704762
:1031E0002DE9F843044690F841001F4615460E4667
:1031F000202802D00220BDE8F8838EB185B10020DE
:103200006064212084F84100FEF76EFAA5848146AF
:10321000E584A0684FF02008B0F5805F02D003E09D
:103220000120E8E7206910B1354600260EE00025B0
:103230000CE08021204602F06FFAA0B9BDB115F86C
:10324000010B21684860E08C401EE084E08C4B4616
:103250004FF0000200970028EBD14FF040012046CC
:1032600002F05AFA40B184F841800320C3E736F8EF
:10327000020BC0F30800E4E784F841800020BAE7BD
:103280007047FEE70EB50026584D4FF47A7700F0F0
:1032900005FD11F0C0FA032408E0641E286AE4B2B8
:1032A000804728776420FDF704FE14B1287F0028AA
:1032B000F3D1032409E0641E286CE4B2804785F84A
:1032C0003C006420FDF702FE1CB195F83C0000288C
:1032D000F1D1E86A8047296B0020884785F828608B
:1032E0003846FDF7E6FD03244FF4967808E0641EA7
:1032F000A868E4B2804728704046FDF7DAFD14B1B3
:1033000028780028F3D1FDF745FBFDF70EFB68BBDD
:1033100002221021684601F067FD9DF8000008B107
:10332000012804D19DF8011019B1012901D06E7155
:1033300000E0687185F82860002201A92C48FEF79A
:1033400089FE03222021684601F04EFD9DF8000011
:103350009DF80610884209D19DF801009DF80210E1
:1033600041EA0020297809B906F04AFF00F0BAFACC
:103370004FF6E0704FF4A074002100902346F02235
:10338000084600F085FA3846FDF793FD4FF6FF70CA
:10339000002100902346F022084600F079FA4FF60B
:1033A0001F0214A110208DE807009C2374228C2199
:1033B000542000F007FC4FF4FA60FDF77AFD104846
:1033C0000068804719F078FD1FF01CFF1FF03EFFDA
:1033D0002CF0EEFD0BA011F07DFD1448006824F0E8
:1033E00069FB4FF4FA7024F053FA50E750000020C4
:1033F000C406002057656C636F6D652100000000F6
:1034000014030020486172647761726520696E69F7
:10341000746961746520686173206265656E2063FC
:103420006F6D706C657465642100000010000020F1
:1034300010B586B001F094FA80681C49884232D1F8
:103440001B48416C03A88847184C9DF81130083C74
:10345000A078834204D19DF81000617888420BD097
:10346000A3709DF81020627012A1684602F046FA1F
:103470006946E0681AF04CFD9DF80E30E078834212
:1034800011D0E37009499DF80C002071103101EB57
:1034900080000BA150F8042C684602F02FFA694610
:1034A00020691AF035FD06B010BD0000340100207F
:1034B00050000020253032643A253032640000008C
:1034C000257320253032640010B586B004461421DF
:1034D0006846FCF71FFF20890090012001900290B0
:1034E0000220039069462068FEF704F86089009086
:1034F00069466068FDF7FEFF06B010BD2DE9F0419A
:1035000006460824002501F013FB14E06806070EA8
:103510000021304601F0FAFA0220FDF7D7FC012124
:10352000304601F0F3FA0120FDF7D0FC304601F0FF
:10353000F6FA40EA0705641EE4B2E7D200213046FD
:1035400001F0E4FA304601F011FB2846BDE8F081B5
:1035500010B50446002101F000FB0120FDF7B6FC88
:103560000121204601F0D2FA0120FDF7AFFC002135
:10357000204601F0CBFABDE810400120FDF7A6BCC3
:1035800070B50D460646082418E001F0BFFA022087
:10359000FDF79CFC05F08001304601F0DEFA0120C9
:1035A000FDF794FC6806050E0120FDF78FFC012154
:1035B000304601F0ABFA0120FDF788FC641EE4B24E
:1035C0004FF000013046E0D201F0A0FABDE87040B3
:1035D0000220FDF77BBC10B50446012101F0BDFAC5
:1035E0000120FDF773FC0121204601F08FFA012034
:1035F000FDF76CFC0021204601F088FABDE8104080
:103600000220FDF763BC10B50446012101F0A5FAC4
:103610000220FDF75BFC0121204601F077FA012032
:10362000FDF754FC0021204601F097FA0120FDF738
:103630004DFC0021204601F069FABDE81040012050
:10364000FDF744BC10B50446002101F05FFA0220EA
:10365000FDF73CFC0021204601F07FFA0120FDF738
:1036600035FC0121204601F051FA0120FDF72EFC26
:103670000121204601F071FABDE810400120FDF75C
:1036800025BC70B50546052401F052FA01212846F3
:1036900001F03CFA05E0641EA4B20120FDF716FC1F
:1036A00084B1284601F03BFA0028F4D1284601F005
:1036B0005DFA0021284601F029FA0220FDF706FCF8
:1036C000002070BD284601F051FA2846FFF7BAFFE6
:1036D000012070BD7CB5154C00256088401C80B26F
:1036E00060808DF800502178884208D110488DF80C
:1036F00004500123002201A9006824F063F96088C6
:10370000617888420AD101208DF8040003460948F7
:103710006580002201A9006824F054F906480123BD
:1037200000226946006824F04DF97CBD4C00002061
:103730004400002040000020340000201CB5002080
:10374000164E174F174D8DF800008DF80400012418
:103750004FF00208002011F05FF8012802D0022883
:1037600010D102E08DF8004012E001F0F9F8806815
:10377000B0420BD18DF804400123002201A9386822
:1037800024F020F9012024F083F8E3E78DF800808D
:103790000123002269462868F2E700003401002076
:1037A000300000202C00002030B505460A4804886F
:1037B000408821464443491E401E8AB283B20021FC
:1037C000084600F05BF90021044801E00580491C2F
:1037D000A142FBD330BD0000380A00200020006C5D
:1037E0002DE9FE4F0026A2EB000882465F1A701EEC
:1037F00035468946B8F1000F02DD4FF0010102E0C5
:1038000003D14FF00001019102E0C8F100080190DE
:10381000002F02DD4FF0010002E003D14FF0000065
:10382000009002E0C7F1000700904046B84501DD76
:10383000044600E03C46601C4FF0000B029015E08F
:103840001FFA89F11FFA8AF000F016F846443D4449
:10385000A64202DD0199361B8A44A54202DD009989
:103860002D1B89440BF101001FFA80FB02998B4547
:10387000E6DDBDE8FE8F000000B500F0FBF8024871
:1038800002490088088000BD100300200020006C61
:103890002DE9F041141A641CA6B25C1A641CA7B28C
:1038A000DDF8188000F0EAF800250AE0002404E0C2
:1038B000404600F0EDF9641CA4B2B442F8D36D1C8C
:1038C000ADB2BD42F2D3064841880088491EBDE82A
:1038D000F041401E8BB282B20021084600F0CEB803
:1038E000380A002010B56420FDF7E3FA5F4CCF20C2
:1038F00020800021A01C0180C9210180302101808D
:10390000ED212180642101800321018012210180A9
:1039100081210180E8212180852101801021018001
:103920007A210180CB212180392101802C21018045
:10393000002101803421018002210180F7212180B2
:1039400020210180EA212180002101800180C02105
:1039500021801B210180C121218000210180C521FE
:103960002180302101800180C7212180B721018081
:1039700036212180082101803A21218055210180B2
:10398000B1212180002101801A210180B6212180EE
:103990000A210180A2210180F221218000210180E1
:1039A0002621218001210180E02121800F21018039
:1039B0002A21018028210180082101800E21018017
:1039C0000821018054210180A92101804321018027
:1039D0000A2101800F2101800021018001800180E6
:1039E0000180E12121800021018015210180172122
:1039F00001800721018011210180062101802B21F6
:103A00000180562101803C21018005210180102187
:103A100001800F2101803F21018001800F21018061
:103A20002B212180002101800180012101803F2183
:103A300001802A2121800021018001800180EF2165
:103A40000180112020807820FDF733FA2920208082
:103A5000002000F0F5F8012291020548FDF73FFE35
:103A6000BDE810404FF6FF70FFF79EBEFE1F006CD2
:103A7000001402400B460246AFF30080F0B40D4E36
:103A80000D4FB4893C80050ABC1C2580C0B2208043
:103A9000100A2080D0B22080F0893880080A208067
:103AA000C8B22080180A2080D8B22080F0BC00F074
:103AB000B5B80000380A0020FE1F006C2DE9FF4F4A
:103AC00081B00EAE824696E83100203800F0FF0843
:103AD0000298DFF8E0B02044401E83B20AEB5400A5
:103AE000BBF80010401E009182B250460299FFF7C9
:103AF000C5FF4FF000067DBB2F4908EB480001EBE6
:103B0000800901F2744000EB081817E00C2C03D078
:103B100018F8065000270CE019F80650FAE7E807F5
:103B200001D0039800E0049800F0B2F86D087F1C03
:103B3000FFB2B7EB540FF2D3761CF6B2A642E5D330
:103B400027E00C2C09D01D4800EB08100025875DEC
:103B5000029800EB060915E019E0174808EB480148
:103B600000EB8100F2E70398ABF80000F80706D0FD
:103B70000AEB05001FFA89F180B2FFF77DFE7F088E
:103B80006D1CEDB2B5EB540FEDD3761CF6B2A64228
:103B9000D7D30098ABF8000009484188008805B0E9
:103BA000491EBDE8F04F401E8BB282B2002108468C
:103BB000FFF764BF10030020D0A40C0844A90C0830
:103BC000380A00202DE9FE4F044600F0FF081019C6
:103BD0000D46DDE90C761FFA80FA58191FFA80F9B4
:103BE0004FF0000B13E0544502D3E91944468DB25F
:103BF0004D4511D28DE881084FF6FF7329462046C6
:103C00000E9AFFF75BFF04EB570084B2761C307806
:103C1000A0F120015E29E6D9BDE8FE8F02480349E4
:103C20000089088070470000380A0020FE1F006CE1
:103C3000024A1080901C018070470000FE1F006C3B
:103C400012492A224FF4A0738A812B22CA812C2286
:103C50000A812E224A81F02258B101280DD0022873
:103C60000FD0032811D10B804A80B8213620FFF7EE
:103C7000DFBF0A804B800821F8E70B804A8068216B
:103C8000F4E70A804B80D821F0E77047380A00201B
:103C900001490880704700000020006C184810B5EA
:103CA000016886B041F020010160016801F0200147
:103CB0000591016841F0200101600068114C00F09D
:103CC0002000059008200090012001900290022021
:103CD000039069462046FDF70DFC102100916946CE
:103CE0002046FDF707FC012208212046FDF7F7FCDE
:103CF000012210212046FDF7F2FC06B010BD0000A5
:103D0000303802400014024021F028FF012023F047
:103D1000BFFDF9E770B50C46054600F017F820EA3C
:103D200004012846BDE8704000F038B810B5064CD4
:103D3000012240212046FDF7D2FC20460122BDE8A9
:103D400010401146FDF7CBBC0008024070B57E2143
:103D500001EA40000A4D40F080040022402128463C
:103D6000FDF7BDFC204600F01DFF002000F01AFF0B
:103D70000446012240212846FDF7B1FC204670BDD3
:103D80000008024070B50C460546FFF7DFFF40EA29
:103D900004012846BDE87040AFF3008070B50D46C1
:103DA0007E2101EA4004094E002240213046FDF701
:103DB00096FC204600F0F6FE284600F0F3FE304662
:103DC000BDE8704001224021FDF789BC0008024097
:103DD000064882B0016841F040010160006800F0CF
:103DE00040000090024802B0FFF76EBB303802403E
:103DF000840300202DE9F04106461C4615460F4677
:103E00002048FFF700FC7006010E1E48FFF7B8FBC4
:103E10001C48FFF736FC28B11A48FFF713FC0120B5
:103E2000BDE8F08139461748FFF7AAFB1548FFF7B0
:103E300028FC1448FFF7E7FB012000EB4600C1B265
:103E40001048FFF79DFB0F48FFF71BFC0BE00D48E8
:103E5000012D0FD0FFF752FB20700A48FFF778FBC7
:103E60006D1EEDB2641C002DF1D10648FFF7EAFB90
:103E70000020D5E7FFF742FB20700248FFF7ABFBBD
:103E8000EEE70000840300202DE9F04107461D46BF
:103E900016460C461548FFF7B6FB7806010E134888
:103EA000FFF76EFB1148FFF7ECFB80B921460F4886
:103EB000FFF766FB0D48FFF7E4FB00240FE0295DE8
:103EC0000A48FFF75DFB0948FFF7DBFB28B107480D
:103ED000FFF7B8FB0120BDE8F081641CE4B2B442F6
:103EE000EDD30248FFF7AEFB0020F4E78403002087
:103EF000FCF7F4BDFCF7D6BDFCF7E0BD044A0B4669
:103F0000127F002A03D101461846FCF7B1BE704764
:103F100050000020FCF73FBE08B500200090044888
:103F2000007810B9684606F016F9009880B208BD0E
:103F30005000002022F050BE0349097809B100204A
:103F4000704706F05DB900005000002001490020D4
:103F500048717047500000200149012048717047A6
:103F60005000002000F060BC10B586B004001FD0E7
:103F7000002269460F48FEF78FF8002205A90D4878
:103F8000FEF768F89DF81700E0709DF81510617055
:103F90009DF81620A27014232CF06EFC20709DF862
:103FA000000020719DF8010060719DF80200A07171
:103FB00006B010BDC406002000F06CBD00F084BD4A
:103FC00010B5012901D0022903D1401E0C31C0B225
:103FD000C9B21A24491C11FB04F10A24B1FBF4F103
:103FE00000EB900000EB930008441044594200EBB2
:103FF0004100401E00E0C01D0028FCDB072190FBB3
:10400000F1F201FB120000B90720C0B210BD0000A0
:10401000114808B5016841F40011016000680022F0
:1040200000F40010009005210C20FDF7FBFB0C2094
:10403000FDF7EAFB002205210D20FDF7F3FB0D2023
:10404000FDF7E2FB002205210F20FDF7EBFBBDE8A9
:1040500008400F20FDF7D8BB3038024010B501F002
:10406000ABFB044A0021044823F0E0FC034908604C
:1040700010BD000078140308354E00080000002031
:1040800010B58EB01C216846FCF744F91C2107A826
:10409000FCF740F91A484FF02041102201601949FD
:1040A0004160062181600021C160C0E90412816184
:1040B000C16113020162C0E909139302C0E90B1345
:1040C0004163816341640F203C230090CDE90103EB
:1040D00003AC112384E80E0009240691CDE90740C2
:1040E00009AC082084E80F000D9107AA694604482E
:1040F000FEF755FB002801D0FCF71AFF0EB010BDEB
:1041000074060020040100A02DE9F04F87B01421AF
:104110006846FCF7FFF86B480025016841F0040190
:104120000160016801F004010591016841F020017E
:104130000160016801F020010591016841F08001F2
:104140000160016801F080010591016841F0010101
:104150000160016801F001010591016841F002016F
:104160000160016801F002010591016841F0100150
:104170000160016801F010010591016841F008013A
:104180000160016801F008010591016841F04001FA
:1041900001600068DFF830A100F0400005900022C7
:1041A0004FF4A0515046FDF79AFA484F01224121A1
:1041B0003846FDF794FADFF818B10122202158465D
:1041C000FDF78DFADFF80C91012203214846FDF737
:1041D00086FA002208214048FDF781FA01243815AB
:1041E000CDE900040326CDE9024669465046FDF7B5
:1041F00081F941204FF002088DE8310169463846C7
:10420000FDF778F92027CDE90074CDE9024669462B
:104210005846FDF76FF9CDE90064CDE902466946DD
:104220004846FDF767F90420CDE900056946029488
:104230004846FDF75FF9E002CDE9000569460294C2
:104240005046FDF757F9200303958DE811016946A3
:104250005046FDF74FF96003CDE900056946504629
:104260000295FDF747F9300300904FF40410CDE9B3
:10427000010469461848FDF73DF94FF4881000978E
:10428000CDE9010569461548FDF734F908208DE8A8
:104290003100694610480394FDF72CF900220521EE
:1042A0001720FDF7BFFA1720FDF7AEFA002205210F
:1042B0002820FDF7B7FA2820FDF7A6FA07B0BDE8D9
:1042C000F08F000030380240001402400008024025
:1042D0000000024000040240000C024000180240AE
:1042E00010B586B014216846FCF714F82248002463
:1042F00020490594C0E900147F218160FF21C0E9B5
:10430000031444618461FDF7F1FE08B1FCF710FE6F
:1043100022208DF8000005208DF801008DF8024064
:1043200003940122694614480494FDF79DFF08B1E7
:10433000FCF7FEFD04208DF8140009208DF815000F
:1043400019208DF8160024208DF81700012205A9E8
:104350000948FDF73DFF08B1FCF7EAFD00224FF4E4
:10436000FA610548FDF7E4FD002801D0FCF7E0FD07
:1043700006B010BD00280040C4060020104810B54B
:104380000E4901604FF48271416000218160C1607B
:104390004FF400720161C0E905122822C0E907212B
:1043A000416281620A21C162FEF758F8002803D0F9
:1043B000BDE81040FCF7BCBD10BD00000038004057
:1043C000E406002010B58AB0002407941C2168463A
:1043D0000894FBF79FFF1748154901606321C0E966
:1043E00001144FF49671C0E903148461FEF7E9FBF0
:1043F00008B1FCF79DFD079407A90E480894FEF745
:1044000001FA08B1FCF794FD6020CDE90004022018
:1044100002900422694604940648FEF76CFB08B13A
:10442000FCF786FD0348FEF73DFB0AB010BD000017
:10443000000400403C0700200C4810B50A49016008
:104440004FF4E1314160002181600C22C160C0E97C
:1044500004128161C161FEF7B1FD002803D0BDE8FF
:104460001040FCF765BD10BD004C004084070020E3
:104470000C4810B50A4901604FF4E1314160002158
:1044800081600C22C160C0E904128161C161FEF744
:1044900095FD002803D0BDE81040FCF749BD10BDD4
:1044A00000100140CC0700200C4810B50A490160FB
:1044B0004FF4E1314160002181600C22C160C0E90C
:1044C00004128161C161FEF779FD002803D0BDE8C7
:1044D0001040FCF72DBD10BD00480040140800201E
:1044E000FEE700000EB5324D324C00262878002839
:1044F00059D02E7030A13148FBF71EFF50B130A1CA
:104500002E48FBF719FF48B12C48FBF70EFF142883
:104510002FD046E02CA001F0E1F942E02C4F002220
:10452000391D2C48FDF7B8FD002239462948FDF712
:1045300091FDA07F3876607F787660887883BA783E
:10454000797825A010F0C6FCBB797A79397926A054
:1045500010F0C0FC97F9181029A010F0BBFC97F9D7
:1045600019102BA010F0B6FC798B2EA010F0B2FC25
:1045700017E000960196114B6A460020029602E071
:104580001154401CC0B2195C3D29F9D194F828009F
:1045900038B128A11046FBF7CFFE10B9074800F04C
:1045A00059FE606B80474FF47A7023F071F99DE7F4
:1045B000BD030020500000204D570000580A002085
:1045C0004D572B53454E44004F4B0D0A0000000041
:1045D000C4090020C4060020646174613A25326475
:1045E0002D253032640D0A0074696D653A2530322C
:1045F000643A253032643A253032640D0A000000F6
:1046000068756D69646974793A256425250D0A0019
:1046100074656D70657261747572653A25640D0A12
:10462000000000005374657020746F6461793A254E
:10463000640D0A004D572B5354000000704770471B
:10464000FEE700B5034602E0184600F007F81846FA
:1046500000F021F80028F7D000BD0000017D49B12D
:1046600000EB8102491E9FED040A017582ED000AEC
:1046700000207047FF20704700000000017D0429E2
:1046800007D000EB8102491C017582ED000A002071
:104690007047FF207047007D08B10020704701205F
:1046A00070472DE9FF4F8246994617461046FFF79F
:1046B000C8FF484600F0FEFB0025AB466BF307043D
:1046C0000121204661F307009AF800106BF30706FA
:1046D00030390A2903D3012004B0BDE8F08F4FF030
:1046E0000008F2EE041A88E01AF808202E2A08D1F1
:1046F000032161F3070410F0FF0F01D00220EBE764
:104700002046A2F13003092B40D8397D052903D872
:1047100099F80520052A01D90320DDE700EE103ABB
:104720006BF307046BF30706B8EEC00A10F0FF0046
:10473000F0EE400A02D0032824D01FE01DB16D1C0A
:10474000EDB228460CE007EB810050ED010A00EEC7
:10475000A10AF0EE400A0CE080EEA10AF0EE400A59
:10476000401EC0B2F8D207EB810010ED010A70EED6
:10477000800A3846FFF772FFB0EE600A3846FFF74E
:104780007DFF37E0C0EE210A0125ECE72B2A05D09A
:104790002D2A03D02A2A01D02F2A2CD1397D052990
:1047A00003D899F80510052901D9042094E70121BF
:1047B0000025C0B261F3070462F30706012804D0A4
:1047C000484600F097FB10B110E0052084E799F807
:1047D0000510A9F10100085C114600F091FB28B119
:1047E00049463846FCF791F9F1B200E011464846D7
:1047F00000F076FB204608F10108019A9045FFF68B
:1048000073AF002068E703211420FFF783BA10B5C7
:104810001420FFF79BFA800705D10321BDE8104063
:104820001420FFF7AFBA10BD10B5FFF77FFA00F004
:1048300003F8002010BD000010B5204C01221146E5
:104840002046FCF74CFF0220FCF733FB002201213D
:104850002046FCF744FF0220FCF72BFB0122114607
:104860002046FCF73CFF0220FCF723FB0F21012030
:10487000FFF794FA0220FCF71CFB3D211120FFF703
:104880008DFA1E212D20FFF789FA00212C20FFF739
:1048900085FA8D212A20FFF781FA3E212B20FFF790
:1048A0007DFA40211520FFF779FAFFF7ACFF0220CF
:1048B000FCF7FFFABDE81040FFF7A9BF000802406F
:1048C00038B5124823F064F900281DD10F4823F0B1
:1048D00065F90E4823F05CF9012528B10C490B4815
:1048E00023F06AF90A4C05E00848017E00EB8100DC
:1048F00050F8044C206880470095A068002364228B
:10490000006809211EF038FF38BD0000F8090020BA
:104910002001002038B5114823F03AF90F4C002847
:104920001BD102E00D4823F039F9207E0128F9D887
:10493000C0B204EB800050F8040C006880470120EE
:104940000090207E002304EB8000642250F8040CC9
:104950000921806800681EF00FFF38BDF8090020AB
:104960000448017E21B100EB810050F8040C70472F
:1049700000207047F80900200448017E21B100EBB7
:10498000810050F8080C704700207047F80900209B
:1049900038B504460D48027E052A15D22AB100EB2F
:1049A000820050F8040C406880472146074823F0F5
:1049B00003F92068804701200090A068002364224A
:1049C000006809211EF0D8FE38BD0000F80900205B
:1049D000084910B5002008760749064823F0ECF88E
:1049E000054C20688047A0680068BDE8104013F0BF
:1049F0004DBC0000F809002020010020010901EB56
:104A0000810100F00F0000EB4100C0B270470021AF
:104A100002E00A38C0B2491C0A28FAD2090740EA63
:104A2000116070472DE9F041054600680024C16817
:104A3000490617D4C16841F08001C160FCF754FEFB
:104A400006464FF47A78042706E0FCF74DFE801BFB
:104A5000404501D96F7701242868C068400601D419
:104A6000002CF2D02046BDE8F08170B50446006805
:104A70000025C16821F08001C1602068806880063F
:104A800006D42046FDF750FC10B1042060770125C4
:104A9000284670BD08B5002300938DF802208DF8DC
:104AA00001108DF8030014232BF0E6FE8DF80000B2
:104AB000002269460348FDF78BFB002801D0FCF774
:104AC00037FA08BDC406002070B586B00D4604460E
:104AD000164614216846FBF71DFC8DF800408DF842
:104AE00001508DF80260002269460448FDF7BCFBC6
:104AF000002801D0FCF71CFA06B070BDC4060020E7
:104B00000148FDF78FBA0000C406002042894068C2
:104B100011B18169114300E011048161704710B542
:104B200001890068FCF7CEFD012800D0002010BDEF
:104B300010B586B0044614216846FBF7EBFB2089CC
:104B4000009000200190012002900220039069460D
:104B50002068FCF7CFFC06B010BD0289006811B1D7
:104B60008169114300E011048161704710B586B07E
:104B7000044614216846FBF7CDFB208900901120E4
:104B80000190002002900220039069462068FCF703
:104B9000B1FC06B010BD00000148FDF7E1BB00000C
:104BA000E406002001B582B00A2000900123044AE7
:104BB00002A90448FDF700FD014800780EBD000081
:104BC0005C030020E406002010B5806B0021C18743
:104BD000C186FDF7C3FB10BDF8B515460E460B4662
:104BE000009204460122022100F02CF8A0B91348DB
:104BF00013490068B0FBF1F04FF47A71484300901C
:104C00006068B0F5827F0DD13346002280212046B6
:104C1000009500F017F870B1606D40F020006065FD
:104C20000320F8BD009830B1401E009020688068D5
:104C3000C0430006F6D50020F8BD000000030020A8
:104C400000366E012DE9F8431E469146884604461B
:104C5000089DFCF749FD401B351AFCF745FD07464A
:104C600025480068C0F3CB30684338E0701C37D06B
:104C7000FCF73AFDC01BA84203D215B1009860B3FF
:104C80002CE02068416821F0E00141606068B0F5E7
:104C9000827F0BD1A068B0F5004F02D0B0F5806FD5
:104CA00004D12068016821F040010160A06AB0F5DC
:104CB000005F09D12068016821F40051016020687B
:104CC000016841F400510160012084F85100002086
:104CD00084F850000320BDE8F8830025401E0090B2
:104CE0002068816838EA010004D000204845BDD121
:104CF0000020F0E70120F9E7000300201CB50020A8
:104D0000184C194D194E8DF800008DF80400002341
:104D10001A466946206822F0F7FD88B99DF8000020
:104D2000012802D0022809D00AE0FFF719FE8068A6
:104D3000A84203D10E48FFF72BFE01E0FFF7EAFD82
:104D400000231A4601A9306822F0DEFD30B99DF833
:104D50000400012802D10748FFF71AFE0A2022F0BA
:104D600097FDD4E72C000020340100203000002003
:104D700064010020D80100201FB5184D184C4FF4D5
:104D8000FA7600231A4603A9286822F0BDFD00BB6D
:104D9000207810B9606980476080207F78B9626AA6
:104DA00002A901A89047029800F109013B2906D207
:104DB0000199002903DD642901DAA17760770320D6
:104DC0008DF800000748012300226946006822F0A0
:104DD000F9FD304622F05CFDD3E7000034000020EE
:104DE000500000203800002070B516460C460546DD
:104DF000FBF79BFD08B1012070BD0A20FCF759F8B4
:104E0000324629462046FBF7D7FD002070BD70B51D
:104E100016460C460546FBF788FD08B1012070BD1B
:104E20000A20FCF746F8324629462046FBF700FEEA
:104E3000002070BD074D4FF400544FF4FA7606A0E1
:104E400010F048F821462846FCF741FC304622F095
:104E50001FFDF4E70008024044656661756C74202C
:104E60007461736B2069732072756E6E696E672151
:104E70000D0A000070B514460D460646FBF755FABC
:104E8000C1B223462A463046FFF70BFC58B12846EC
:104E9000FFF7D7FB204600F00DF8FF2070BD21463C
:104EA0002846FBF732FE204600F024F80028F6D012
:104EB000002070BD10B5044602E0204600F006F860
:104EC000204600F017F80028F7D010BD417929B12D
:104ED00000234A1E4271435418467047FF20704712
:104EE0004279042A04D0531C437181540020704736
:104EF000FF207047407908B10020704701207047BB
:104F00002A280CD02F280AD02B2804D02D2805D1F0
:104F10002B2904D001E02D2901D000207047012069
:104F2000704710B54FF0E02000692CF087F8012899
:104F300003D0BDE810402BF043BD10BD30B593B099
:104F400030216846FBF7E6F914210CA8FBF7E2F9DB
:104F50001E480025016841F080510160006800F0A2
:104F6000805011901A48016841F480410160006846
:104F7000022400F48040119006200090012002904D
:104F800003901020049006940820CDE90750A82033
:104F9000CDE9090404200B906846FCF71DFE08B11A
:104FA00072B6FEE70CA90F2081E831004FF4A05043
:104FB0000F904FF48050109005210CA8FCF702FDD3
:104FC000002801D072B6FEE713B030BD4038024071
:104FD000007000400248016841F4700101607047B0
:104FE00088ED00E00148FDF7C4BC00007C0900200A
:104FF000F0B50268294D2A4E2A4FDFF8ACC02B4B82
:105000004FF0804EA84209D0704507D0B04205D07D
:10501000B84203D0604501D0984203D122F0700419
:105020004A682243A8421BD0704519D0B04217D01D
:10503000B84215D0604513D0984211D01C4CA04204
:105040000ED01C4CA0420BD01B4CA04208D01B4CD5
:10505000A04205D01A4CA04202D01A4CA04203D163
:1050600022F44074CA6822434C6922F08002224331
:1050700002608A68C2620A688262A84201D09842CD
:1050800001D109690163012141610169C90703D0A7
:10509000016921F001010161F0BD00000000014043
:1050A0000004004000080040000C004000040140E3
:1050B0000040014000440140004801400018004009
:1050C000001C004000200040F0B5026A036A23F093
:1050D0000103036243688469114E24F073050C6870
:1050E000104F2C4322F002058A682A43B04201D0B7
:1050F000B84205D122F00805CA682A4322F004020A
:10510000B04201D0B84205D14D6923F440731D432C
:105110008B692B4343608461496841630262F0BD3F
:105120000000014000040140F0B5026A036A23F068
:1051300010030362436884690D6824F4E64444EA7A
:1051400005248D6822F0200242EA05120F4D104E10
:10515000A84201D0B04206D1CF6822F0800242EAD4
:10516000071222F04002A84201D0B04207D14D6997
:1051700023F4406343EA85038D6943EA8503436072
:105180008461496881630262F0BD00000000014053
:1051900000040140F0B5026A036A23F480730362DD
:1051A0004368C46922F4007224F073050C68124E3F
:1051B0002C438D6842EA05220E4DA84201D0B04230
:1051C00006D1CF6822F4006242EA072222F480620C
:1051D000A84201D0B04207D14D6923F4405343EABD
:1051E00005138D6943EA05134360C4614968C163CF
:1051F0000262F0BD000001400004014030B5036AC6
:10520000026A22F4805202624268C4690D6824F482
:10521000E64444EA05248D6823F4005343EA053349
:10522000084DA84202D0084DA84204D14D6922F48D
:10523000804242EA85124260C461496801640362A7
:1052400030BD00000000014000040140012020F0BA
:10525000F3BB00002DE9F041017A427A303901EBCD
:1052600081016FF02F0303EB4101294C1144CEB2B1
:10527000E670817AC27A303901EB810103EB41019A
:105280001144C9B26170027B457B303A02EB820265
:1052900003EB42022A44D2B2A270857BC77B303D29
:1052A00005EB850503EB45053D44EFB22771057C11
:1052B00090F811C0303D05EB850503EB45056544CD
:1052C000EDB2657190F813C0807C303800EB80003F
:1052D00003EB40006044C0B2A071632E16D20C29CB
:1052E00014D81F2A12D8172F10D83B2D0ED83B28C0
:1052F0000CD83046FFF7CEFBA27961792079FFF711
:10530000E3FBBDE8F04103A00FF0E4BDBDE8F08190
:10531000E009002054696D6520736574207375631E
:10532000636573730D0A000010B523F063F900285C
:1053300005D0D0E90012BDE810401046084710BD66
:105340000148FDF703BD00008407002010B5806B05
:105350000021C185C184FDF7F7FC10BD70B5846BD9
:105360002068406994F84110C0F3C010002521293D
:1053700004D118B1E584204600F08EF82068406919
:1053800094F84210C0F38010222904D118B1E585A9
:10539000204600F05AF8606C40F01000606420462F
:1053A000FDF7D2FC70BD10B50146806B0968096835
:1053B0004FF00003C9052ED4C38501680C3151E8B4
:1053C000002F22F4807241E80024002CF5D10168FE
:1053D000143151E8002F22F0010241E80024002C92
:1053E000F5D10168143151E8002F22F0400241E864
:1053F0000024002CF5D1202180F84210016B0129F6
:1054000009D101680C3151E8002F22F0100241E867
:105410000024002CF5D14363016B012902D0FDF774
:10542000DDFE10BD818DFDF745FC10BD10B5806B14
:1054300001214163016B012902D0FDF7D0FE10BDAF
:10544000818D4908FDF736FC10BD01680C3151E82B
:10545000002F22F4907241E80023002BF5D101685F
:10546000143151E8002F22F0010241E80023002B03
:10547000F5D1016B012909D101680C3151E8002FE8
:1054800022F0100241E80023002BF5D1202180F802
:10549000421000210163704701680C3151E8002F70
:1054A00022F0C00241E80023002BF5D1202180F832
:1054B0004110704708B590F84210222901D002200F
:1054C00008BD81684FF48053994201D1026922B12D
:1054D000826A99421BD049B10AE00268816A526827
:1054E000C2F308020A80816A891C08E0016971B16F
:1054F0000168496801F07F011170816A491C81626D
:10550000C18D491E0904090CC18503D01BE0016847
:105510004968F1E70168CA6822F02002CA600168A0
:10552000CA6822F48072CA6001684A6922F00102E6
:105530004A61202180F8421000214163026B012A58
:1055400003D0FDF74BFE002008BD016301680C315C
:1055500051E8002F22F0100241E80023002BF5D182
:1055600001680A68D20602D50A6849680091818DEF
:10557000FDF7A0FBE7E7000070B50446006801698D
:10558000E26821F4405111430161A1682069E26998
:1055900001436069104301432068C26849F20C630B
:1055A0009A430A43C26020684169A26921F44071AC
:1055B0001143416131492068884202D03049884214
:1055C00002D1FCF7C9FA01E0FCF7B6FAE269002360
:1055D000192164253226B2F5004F626828D0A0FB5D
:1055E0000101930F9200FAF74BFE0146B0FBF5F074
:1055F0006FF01802504301EB800006EB0010B0FB87
:10560000F5F000F0F002B1FBF5F002EB0012B1FB97
:10561000F5F06FF01803584301EB800006EB001023
:10562000B0FBF5F000F00F0021681044886070BDF9
:10563000A0FB010192185B41FAF722FE0146B0FB84
:10564000F5F00201B1FBF5F06FF01803584301EBE0
:10565000800006EBC000B0FBF5F000F0F80002EBB4
:105660004002B1FBF5F0584301EB800006EBC000AF
:10567000B0FBF5F000F00700D6E700000010014095
:105680000014014037B582B01346039A8262044683
:10569000838500206064222184F84210E56B1B4959
:1056A000E963E56B1A492964E56B1A49E964E16B22
:1056B00008652168E06B091DFBF790FE2068016812
:1056C00040680090206948B120680C3050E8001F05
:1056D00041F4807140E80012002AF5D120681430AE
:1056E00050E8001F41F0010140E80012002AF5D106
:1056F0002068143050E8001F41F0400140E80012DB
:10570000002AF5D105B0002030BD0000A7530008E5
:105710002D5400085D5300082DE9F8431F469046BC
:105720000D460446089E23E0701C21D0FBF7DCFFE9
:10573000C01BB0421AD8CEB12068C168490717D53E
:10574000802D15D0402D13D00168C94309070FD40F
:1057500001680025406800902046FFF776FE08208B
:10576000606484F840500120BDE8F8830320FBE723
:105770002068006835EA000004D000204045D3D0FE
:105780000020F1E70120F9E70148FDF7DFBA00004A
:10579000CC07002010B50548FDF7D8FABDE8104049
:1057A000802203490148FDF75ABA0000140800207E
:1057B000580A0020FEE7000038B500231A460121F0
:1057C000344822F091F9344C4FF4FA71A06322F07E
:1057D000C7F901210022084622F0C8F80121E06142
:1057E0000022084622F0C2F8012120620022084669
:1057F00022F0BCF8012160620022084622F0B6F8CF
:105800000121A0620022084622F0B0F80121E062E6
:105810000022084622F0AAF801212063002208464F
:1058200022F0A4F860631D4A00211D4822F0FEF812
:105830001A4A2060243200211A4822F0F7F8174A49
:10584000606048320021184822F0F0F8134AA06046
:105850006C320021154822F0E9F8104AE0609032DD
:105860000021134822F0E2F80C4A2061B4320021F2
:10587000104822F0DBF8094A6061D83200210E4856
:1058800022F0D4F8A061012300226946606A22F068
:1058900099F838BDD5360008100000209C14030884
:1058A00085320008093D00083D370008FD4C00081E
:1058B000794D0008E54400080D0E00087047704758
:1058C0000FB4024610B504A9034B039801F03EFE45
:1058D00010BC5DF814FB0000CD2201080FB4054B8D
:1058E00010B503A9044A029801F030FE10BC5DF81F
:1058F00014FB0000CD220108700600200FB4084BF5
:1059000010B504A902AA039801F020FE044602A9DA
:10591000002002F0B2F9204610BC5DF814FB000034
:105920007B7C000830B414460D46024621462846CA
:1059300030BC014B01F00ABECD2201080907090E57
:10594000002804DB00F1E02080F80014704700F02C
:105950000F0000F1E02080F8141D704702E008C835
:10596000121F08C1002AFAD170477047002001E0D9
:1059700001C1121F002AFBD1704770B504460025F3
:105980006FF02F0608E02068411C2160007805EBCD
:10599000850106EB410145182068007800F012F9F6
:1059A0000028F0D1284670BD2DE9F05F15461C4651
:1059B000DDF828B00E46074601EB040800EB050AA7
:1059C0001FFA88F11FFA8AF05A46FBF769FB1FFAA3
:1059D00088F1A7EB05081FFA88F05A46FBF760FB31
:1059E000A6EB04091FFA89F11FFA8AF05A46FBF761
:1059F00057FB1FFA89F11FFA88F05A46FBF750FB54
:105A000006EB050907EB04081FFA89F11FFA88F075
:105A10005A46FBF745FB3C1B1FFA89F1A0B25A46D8
:105A2000FBF73EFB751BA9B21FFA88F05A46FBF73D
:105A300037FBA9B2A0B25A46BDE8F05FFBF730BB16
:105A40002DE9FF5F82B00021DDE90430020DDDF8B1
:105A500040B0034318D044F61050A2F2FF32424344
:105A60001514119801281FD0A5EB0B00401C5FEA0C
:105A7000000A4FF000064E4FDFF83891B04650460E
:105A800015D5CAF1000413E0119801244AA3012896
:105A900001D16FEA0B010298119AC0E90031C0E907
:105AA000024206B0BDE8F09FCBF10000DFE70446FC
:105AB0000021404A491842EB0450CDE9001012E0A1
:105AC000E00707D032463B4640464946FAF7FFFC1E
:105AD0008046894632463B4610461946FAF7F7FC9F
