:020000040800F2
:1000000090D501205D020008E73B0008732C000832
:10001000E13B0008650A00081946000800000000DE
:100020000000000000000000000000009D0100082A
:10003000310B000800000000F9010008E13F000852
:10004000770200087702000877020008A53D000843
:10005000770200087702000877020008770200089C
:10006000770200087702000877020008770200088C
:10007000690A0008750A000877020008810A00086A
:10008000770200087702000877020008770200086C
:10009000770200087702000877020008950B000835
:1000A000770200087702000877020008770200084C
:1000B0007702000877020008A540000877020008D0
:1000C000770200087702000877020008770200082C
:1000D0003D3E0008D945000877020008E5450008C4
:1000E0007F0B0008770200087702000877020008FB
:1000F00077020008770200087702000877020008FC
:1001000077020008770200087702000877020008EB
:100110009141000877020008770200087702000882
:1001200077020008770200087702000877020008CB
:1001300077020008770200087702000877020008BB
:1001400077020008770200087702000877020008AB
:10015000770200087702000877020008770200089B
:10016000770200087702000877020008770200088B
:1001700077020008770200087702000800000000FC
:100180007702000877020008DFF80CD000F07EFB51
:10019000004800473752020890D501202C4B1968BF
:1001A0000868B0E8F04F80F30988BFF36F8F4FF015
:1001B000000080F3118870470000000008480068C4
:1001C000006880F308884FF0000080F3148862B65E
:1001D00061B6BFF34F8FBFF36F8F00DF00BF00BF6B
:1001E00008ED00E0DFF80C00016841F470010160E7
:1001F000704700BF88ED00E0EFF30980BFF36F8F19
:10020000134B1A681EF0100F08BF20ED108A20E96A
:10021000F04F106009B44FF0500080F31188BFF325
:100220004F8FBFF36F8F2FF033F84FF0000080F344
:10023000118809BC19680868B0E8F04F1EF0100F6B
:1002400008BFB0EC108A80F30988BFF36F8F704746
:1002500098C10120EFF305807047000006488047F1
:1002600006480047FEE7FEE7FEE7FEE7FEE7FEE79B
:10027000FEE7FEE7FEE7FEE795400008890100087B
:100280002DE9F05F0546002092469B4688460646CB
:10029000814640241BE0284641464746224600F05E
:1002A0005EFA53465A46C01A914110D31146184679
:1002B000224600F045FA2D1A67EB01084F46224608
:1002C0000120002100F03CFA17EB00094E41201EEE
:1002D000A4F10104DFDC484631462A464346BDE826
:1002E000F09F40EA01039B0703D009E008C9121FF1
:1002F00008C0042AFAD203E011F8013B00F8013BE0
:10030000521EF9D27047D2B201E000F8012B491E0B
:10031000FBD270470022F6E710B513460A460446A2
:100320001946FFF7F0FF204610BD421C10F8011BD4
:100330000029FBD1801A704710B5002200E0521C42
:10034000835C8C5CA34201D1002BF8D1D8B2E1B21E
:10035000401A10BD30B504460020034600E05B1C87
:10036000934203D2E05CCD5C401BF8D030BD034625
:1003700011F8012B00F8012B002AF9D1184670471B
:100380002DE9FE4F804681EA0300C00F0C46009025
:1003900021F0004123F00045B8EB0200A94105D24D
:1003A0004046214690461C460B46024623F000403C
:1003B000104347D0270DC7F30A00C3F30A51029038
:1003C000401A019040286BDAC3F3130040F4801BFD
:1003D0000098924620B10023D2EB030A63EB0B0B8B
:1003E00001985946C0F14002504600F0A9F906466E
:1003F0000D4650465946019A00F0C1F910EB08002D
:100400006141002487EA115284EAE7731A4340D01D
:10041000009A62B3019A012A4FEA075215DC001BC9
:1004200061EB02014FF0004202EA0752CDE90042BF
:10043000001C41F5801132462B4600F0C1F903B093
:10044000BDE8F08F40462146F9E7001B61EB020151
:10045000001C41F5801300185B412018A2F500171D
:1004600047EB030140EAD570B6196D4111E06D0804
:100470004FEA360645EAC0754FEA0752001B61EBAA
:100480000201001C41F5801149084FEA30000019B3
:10049000514132462B4603B0BDE8F04F00F081B920
:1004A0000098012240000023D0EB020263EBE073CE
:1004B000009821464FEAE074B8EB000061EB0401BC
:1004C000E9E783F000435BE781F0004158E72DE95D
:1004D000FE4F81EA030404F0004421F0004100943F
:1004E0004FF0000B23F0004350EA01045ED052EAC3
:1004F00003045BD0C3F30A54C1F30A552C44A4F29D
:10050000F3340194A0FB0254C1F3130141F48011B0
:10051000C3F3130343F4801301FB024400FB034EB7
:10052000840A970A44EA815447EA8357A4FB076880
:1005300002958D0A05FB07854FEA932C04FB0C54AA
:100540002705029D4FEA065847EA1637B5EB08051E
:100550006EEB070C870E920E47EA811742EA831270
:10056000A7FB0201B6EB0B0164EB00042B0D43EA81
:100570000C335E1844EB1C50DA465146E7FB02018F
:10058000C5F313044FEA0B3343EA14534FEA043222
:10059000019C43EA0603A4F10C040294009CCDE9FB
:1005A00000B400F00DF903B0BDE8F08F0020014663
:1005B000F9E72DE9F04D81EA030404F0004B21F046
:1005C000004514464FF0000A23F0004150EA0502AE
:1005D00020D054EA01021DD0C5F30A570246C5F3E4
:1005E0001303C1F31300C1F30A5640F4801543F41A
:1005F0008013A7EB0608101BD64608F2FD3873EBF4
:10060000050002D308F1010801E092185B41B8F13E
:10061000000F03DA00200146BDE8F08D00204FF402
:100620008011064684460EE0171B73EB050705D3C1
:10063000121B63EB050306434CEA010C49084FEA21
:10064000300092185B4150EA0107EDD152EA0300F5
:1006500012D082EA040083EA0501084305D0101B8A
:10066000AB4106D20122002306E000224FF00043F6
:1006700002E06FF0010253101AEB06004CEB085138
:1006800010EB0A0041EB0B01BDE8F04D00F089B81A
:100690000EB5C10F80EAE0700844CA07002140F29D
:1006A00033438DE80E000A460B4600F089F803B08C
:1006B00000BD000030B5041E71F1000404DB4FF0F2
:1006C0000044404264EB0101141E73F1000405DB99
:1006D0001C464FF00043524263EB04038B4208BFB9
:1006E000824230BD30B5041E71F1000404DB4FF0CE
:1006F0000044404264EB0101141E73F1000405DB69
:100700001C464FF00043524263EB0403994208BF7A
:10071000904230BD30B50B46014600202022012416
:1007200009E021FA02F59D4205D303FA02F5491BBF
:1007300004FA02F52844151EA2F10102F1DC30BDD5
:10074000202A04DB203A00FA02F100207047914091
:10075000C2F1200320FA03F3194390407047202A86
:1007600004DB203A21FA02F00021704721FA02F35B
:10077000D040C2F120029140084319467047202A18
:1007800006DBCB17203A41FA02F043EAE07306E0B9
:1007900041FA02F3D040C2F12002914008431946C9
:1007A000704710B5141E73F1000408DA401C41F1C3
:1007B000000192185B411A4301D120F0010010BDE5
:1007C0002DE9F04D92469B4611B1B1FA81F202E05B
:1007D000B0FA80F220329046FFF7B2FF04460F468F
:1007E00040EA0A0041EA0B0153465A46084313D037
:1007F000114653EA010019D0C8F140025046FFF7F4
:10080000AEFF05460E46504659464246FFF798FF52
:10081000084305D0012004E020463946BDE8F08DAC
:100820000020054346EAE0762C4337430A986305E7
:10083000E40AA0EB08000022FD0A44EA47540A300B
:1008400002D500200146E9E7010510196941DDE9FB
:10085000084500196941BDE8F04DA2E7C1F30A520D
:10086000C1F3130140F2FF3341F480119A4202DADE
:1008700000200146704740F233439A42A2F23342CD
:1008800002DC5242FFF76BBFFFF75ABF064C074D21
:1008900006E0E06840F0010394E807009847103450
:1008A000AC42F6D3FFF774FC804B0E08C04B0E0829
:1008B00070B58C1810F8015B15F0070301D110F822
:1008C000013B2A1106D110F8012B03E010F8016B4F
:1008D00001F8016B5B1EF9D12B0705D40023521ED2
:1008E0000DD401F8013BFAE710F8013BCB1A921C3A
:1008F00003E013F8015B01F8015B521EF9D5A14238
:10090000D8D3002070BD0000064882B0016841F0D5
:1009100002010160006800F002000090024802B08D
:1009200002F038BA30380240B000002070B51546E9
:100930000E46044606E02046641CA4B200F006F809
:1009400006F8010B6D1EADB2F5D270BD10B50446B0
:10095000134802F0BEFA200AA02101EB4000C1B208
:100960000F4802F073FA0E4802F0F1FAE1B20C48B7
:1009700002F06CFA0A4802F0EAFA094802F0A9FA11
:10098000A121074802F062FA054802F0E0FA0448A3
:1009900002F01AFA0446024802F0BAFA204610BDE4
:1009A000B000002070B514460D46064606E02978D2
:1009B000304600F007F8761CB6B26D1C641EA4B277
:1009C000F5D270BD70B504460D46124802F081FAAA
:1009D000200AA02101EB4000C1B20E4802F036FA15
:1009E0000C4802F0B4FAE1B20A4802F02FFA0948C2
:1009F00002F0ADFA2946074802F028FA054802F04D
:100A0000A6FA044802F084FABDE870400A2000F01B
:100A100090B80000B0000020012805D000224FF45B
:100A20008051024800F095BC0122F8E70014024012
:100A30004FF40051014800F07FBC00000014024058
:100A400005480068C16841F01001C1608022034977
:100A5000014801F026BE0000D8C3012050C5012086
:100A600070477047FEE70000014800F0B7B900008A
:100A7000E0C40120014800F0B1B9000020C4012009
:100A8000014800F0ABB9000080C4012001681823C0
:100A9000CAB2103AB2FBF3F2054B6FF30901032A15
:100AA0009B5CC36500D9091D81650846704700003D
:100AB00048840C0810B5014600208B698A6A4FF003
:100AC000C07453B1B3F5005F15D072B1012A0CD0D8
:100AD000022A0AD0032A09D104E01AB1012A06D059
:100AE000022A03D1C96AC90100D5012010BDC96A13
:100AF000A142FAD010BD002AF7D0012AF2D0022A72
:100B0000F3D0032AF3D010BD30B50468256825F46E
:100B100080252560046863608368402B036803D0E8
:100B200099600068C26030BD9A600068C16030BDE5
:100B3000704770B5054600244FF47A7603E03046DE
:100B400000F004F8641CAC42F9D370BD70B54FF0EE
:100B5000E02500216C696422AB695043AA699A427E
:100B6000FCD002D2A3EB020302E0A4EB0206334462
:100B7000194413468142F1D370BD7047704710B5D8
:100B80004FF4805000F0E4FABDE810404FF40050FC
:100B900000F0DEBA024901200870202000F0D8BA27
:100BA00004C0012072B6FEE730B5B3F5804F05D022
:100BB0006FF0704140F82210002030BD8C690B6846
:100BC0008D6823434C688989240144EA0524234322
:100BD00043EA014150F82230014C23401943E9E730
:100BE0000000F0CF10B50A6850F8223023F001035E
:100BF00040F822308B68082B23D000224C681C431D
:100C0000CB6813430A691C4314434A698B69144334
:100C1000CA6914430A6A14434A6A14438A6A144329
:100C2000CA6A14430A6B1443CA6B234309681A4304
:100C3000054C50F82130A343134340F821300020E5
:100C400010BD4022DAE700007FFF0F0030B5D1E988
:100C5000003443EA04138C688D89240244EA054475
:100C600023430C8A094D00EB820005EB0454234317
:100C70000C7D6D0105EB0464896923430B434168D6
:100C800001F040410B434360002030BD0000F0FF05
:100C90002DE9F84F89461E4690468246002471424F
:100CA00003220A9802EB4105C8B930E0274608E064
:100CB0003B46224649465046CDF8008003F03CFDB5
:100CC0007F1CB742F4DD002D03DA05EB8405AD1D72
:100CD00004E0A01B05EB80050A35761E641CB442B7
:100CE000E4DDBDE8F88F3346224649465046CDF84C
:100CF000008003F021FD002D03DA05EB8405AD1D16
:100D000004E0A01B05EB80050A35761E641CB44286
:100D1000E9DDE6E710B5144602F0A8FA2046BDE882
:100D2000104002F0B1BB2DE9F0410446876D00F0A0
:100D300015FB054694F835000026022806D08020D1
:100D4000606584F834600120BDE8F08120680168A6
:100D500021F0160101602068416921F080014161A4
:100D6000206C08B9A06C20B12068016821F008014E
:100D700001602068016821F0010101600CE000F0D1
:100D8000EDFA401B052807D920206065032084F870
:100D9000350084F83460D7E720680068C007EED1DA
:100DA00094F85C103F208840B860012084F835003A
:100DB00084F834600020C7E790F83510022903D08A
:100DC0008021416501207047052180F835100068B9
:100DD000016821F001010160002070472DE9F8430E
:100DE00004464FF00009CDF8009063484FF41651C7
:100DF000A56D0068B0FBF1F72E6894F85C2008211F
:100E000001FA02F030420FD02068026852070BD579
:100E1000026822F00402026094F85C008140A9603C
:100E2000606D40F00100606594F85C104FF00108BF
:100E300008FA01F0304208D021684969090604D552
:100E4000A860606D40F00200606594F85C100420BA
:100E50008840304208D021680968890704D5A86015
:100E6000606D40F00400606594F85C1010208840CC
:100E7000304218D021680968090714D5A860206895
:100E80000168490304D50068000308D5A16C07E098
:100E90000168C90503D4016821F008010160216CD3
:100EA00009B12046884794F85C10202088403042E1
:100EB00031D021680968C9062DD5A86094F835009D
:100EC00005282068016806D0490347D5006800035B
:100ED0001DD4616C1CE021F016010160206841699D
:100EE00021F080014161206C08B9A06C20B120681C
:100EF000016821F00801016094F85C103F208840EF
:100F0000A86084F8358084F83490216D1FE0E16B8F
:100F100009B120468847606D00282BD0606DC0075E
:100F200014D0052084F835002068016821F0010103
:100F300001600098401C0090B84203D82068006807
:100F4000C007F6D184F8358084F83490E16C00292C
:100F500010D001B02046BDE8F04308470168C9053C
:100F6000D5D4016821F01001016084F8358084F83F
:100F70003490CCE7BDE8F883AC0000202DE9F041C7
:100F8000044600F0EBF905465CB1022084F8350018
:100F9000002684F834602068016821F001010160B6
:100FA0000DE00120BDE8F08100F0D8F9401B0528D4
:100FB00005D920206065032084F83500F2E7206819
:100FC0000068C007F0D121680A6820480240D4E9CF
:100FD00001031843D4E903352B43184363691843CD
:100FE000A3691843E3691843236A18431043626AEC
:100FF000042A03D1D4E90B231A4310430860206864
:101000004069656A20F0070128460D43012704283E
:101010000CD1A06A0543E06A40B12046FFF74AFDC3
:1010200020B14020606584F83570BAE720684561DA
:101030002046FFF72BFD94F85C203F219140816012
:10104000666584F835700020ACE700003F8010F042
:101050002DE9F0410446866D90F834000025012802
:101060000DD0012084F8340094F835700020012F51
:1010700007D084F8340002252846BDE8F08102201C
:10108000FBE7022784F8357060652046FFF73CFDDA
:1010900094F85C103F208840B0602068016841F0FF
:1010A00016010160206C20B12068016841F0080140
:1010B00001602068016841F001010160DCE7000087
:1010C000F0B587B014216846FFF724F91A48016883
:1010D00000292FD10121016018480024016841F046
:1010E000010101600068022500F0010005904FF643
:1010F0008070CDE9000502AA03260C2782E8D00003
:1011000069460F4800F030F84CF23370CDE9000525
:1011100002AA694682E8D0000A4800F025F841F2A8
:101120000400CDE9000502AA694682E8D00006481D
:1011300000F01AF807B0F0BD000000203838024077
:1011400000100240000C02400018024070470000EE
:10115000044910B50A68024202D00860FFF7F6FFA2
:1011600010BD0000143C01402DE9F84FDFF89C91C0
:101170000022A9F1040B03274FF00F0C09F1040A18
:10118000ABF1040E01250B6895402B40AB426ED1AC
:101190000C7904F00304012C01D0022C15D18668CF
:1011A000540007FA04F826EA0806D1F80C8008FA79
:1011B00004F848EA0608C0F808804468AC430D7992
:1011C000C5F300159540254345600C79E443A40719
:1011D00008D0C568540007FA04F6B5438E68A640E7
:1011E0002E43C6600C7904F00304022C11D1D408FC
:1011F00000EB8406356A5407E40E0CFA04F825EA7D
:101200000805D1F8108008FA04F848EA0508C6F87D
:1012100020800568540007FA04F6B5430E7906F0FD
:101220000306A6402E4306604C6814F4403F66D087
:10123000374C256845F480452560246822F0030575
:1012400004F480440094334C05EB0408D8F80858A3
:101250009407260F0CFA06F4A5432F4CA04201D1A7
:10126000002424E02D4CA04202D101241FE046E0DE
:101270002B4CA04201D1022419E02A4CA04201D1FA
:10128000032414E0284CA04201D104240FE0274C91
:10129000A04201D105240AE0254CA04201D1062438
:1012A00005E0244CA04201D1072400E00824B4400A
:1012B0002C43C8F80848D9F800404D464E689C4376
:1012C000F60200D51C432C60DAF8004055464E6803
:1012D0009C43B60200D51C432C60DBF800405D4601
:1012E0004E689C43B60300D51C432C60DEF80040DA
:1012F00075464E689C43F60300D51C432C60521C77
:10130000102AFFF43FAFBDE8F88F0000083C014011
:101310004438024000300140000002400004024016
:1013200000080240000C024000100240001402407D
:1013300000180240001C02400069084000D0012053
:101340007047426921EA02030A4043EA024181618F
:1013500070470AB1816170470904FBE70148806862
:1013600070470000A0000020024881680278114404
:1013700081607047A00000200B4810B5016841F45F
:1013800000710160016841F480610160016841F40D
:1013900080710160032000F09FF80F2000F006F834
:1013A00000F050F8002010BD003C024030B505466A
:1013B0001F4887B00024016841F004010160006803
:1013C00006A900F004000590684600F0CFF90398E4
:1013D000A8B100F0EBF940001649174AB0FBF1F153
:1013E0001648491E026040F2E732C0E90324C0E912
:1013F0000114846101F03FF8040003D015E000F00F
:10140000D5F9E9E70D4801F065F804000DD11E207B
:1014100000F034F8102D07D2002229461E2000F0DB
:101420003BF80748056000E0012407B0204630BDC6
:101430004038024040420F0000080040AC0200204B
:10144000A40000200C4882B0016841F48041016092
:10145000006800F4804000900748001F016841F0D8
:10146000805101600068002200F0805000900F2140
:10147000901E02B000F010B844380240002809DB8A
:1014800000F01F02012191404009800000F1E0209E
:10149000C0F8001170470000F0B40E4B1B68C3F396
:1014A0000223C3F10704042C00D904241D1D072DB9
:1014B00001D2002300E0DB1E012606FA04F56D1EB2
:1014C0000D409D409E40761E164045EA0601F0BC48
:1014D00003F0FCB80CED00E0064A00F007011068CC
:1014E0004FF6FF03184040EA01200349084310600B
:1014F000704700000CED00E00000FA052DE9F8430C
:10150000044600684FF00109C1074FF0000501D102
:10151000400726D5DFF80C81C8F86850FFF71EFF9A
:101520000646414F04E0FFF719FF801B022857D8F9
:1015300038680001F7D46068217A800140EA0170C0
:10154000394984310860C8F86890FFF707FF0646FC
:1015500004E0FFF703FF801B022841D83868000130
:10156000F7D52078800752D52F484030016841F0E8
:101570008051016000682D4F00F080500090386865
:1015800040F480703860FFF7E9FE064604E0FFF79C
:10159000E5FE801B022823D83868C005F7D5224E07
:1015A0007036306810F4407020D0A18901F4407189
:1015B00081421BD030681E4920F44070C1F8009071
:1015C0000D6030603068C00710D0FFF7C7FE0546D9
:1015D00041F2883707E0FFF7C1FE401BB84202D94D
:1015E0000320BDE8F88330688007F4D5E0680E4931
:1015F000C0F301220831032A0BD0086820F4F81048
:1016000008603068A189C1F30B01084330600020F5
:10161000E7E70A68074B22F4F812184002430A6011
:10162000EFE7000000004742003802400070004031
:10163000400E4742FFFCFF0F2DE9F0470D46040026
:1016400065D0DFF81491D9F80000EFB200F0070080
:10165000A84207D289F80070D9F8000000F007000E
:10166000A84254D120683D4E810712D5400703D5CA
:10167000306840F4E05030602078000703D53068CF
:1016800040F4604030603068A16820F0F00008430A
:1016900030602078C0072DD03049606808390128B3
:1016A00012D0022813D0032811D009688907002915
:1016B0002DDA316821F0030101433160FFF74EFE5E
:1016C000804641F2883A0EE009688903EFE709682D
:1016D0008901ECE7FFF742FEA0EB0801514502D972
:1016E0000320BDE8F0873068616800F00C00B0EBC3
:1016F000810FEFD1D9F80010484601F00701A94247
:1017000007D90770006800F00700A84201D0012047
:10171000E7E72078400705D53068E16820F4E0501D
:10172000084330602078000706D53068216920F42E
:10173000604040EAC100306000F058F83168084A63
:10174000C1F30311515CC8400649086006480068AF
:10175000FFF72CFE0020C4E7003C0240083802409E
:1017600050840C08AC000020A40000200F2202606E
:101770000C4A136803F003034360136803F0F0039B
:101780008360136803F4E053C36012684FF4E053BE
:1017900003EAD20202610448006800F00700086012
:1017A0007047000008380240003C024004480549E8
:1017B00000680968044AC1F38221515CC84070473F
:1017C000AC0000200838024060840C080448054939
:1017D00000680968044AC1F34231515CC84070474F
:1017E000AC0000200838024060840C08154810B591
:1017F000006810F00C01144813D0431004290FD0D6
:1018000008290ED10F4C241F216801F03F022168E6
:10181000490207D52068C0F38810A0FB030106E049
:10182000184610BD2168C1F38811A1FB00010023F7
:10183000FEF726FD2168C1F30141491C4900B0FBB8
:10184000F1F010BD083802400024F4002DE9F84FF3
:10185000040075D02078DFF838A3C007AAF104058A
:1018600048D00AF104000168C1F38101012908D0C0
:101870000068C0F3810002280AD1DAF800004002B3
:1018800006D52868800335D560680028E1D031E0AE
:101890006068B0F5803F10D0B0F5A02F286810D058
:1018A00020F480302860286820F480202860606858
:1018B000A0B1FFF753FD06460CE0286840F48030E5
:1018C000F4E740F480202860F7E7FFF747FD801B2E
:1018D000642871D828688003F7D50BE0FFF73EFD38
:1018E000064604E0FFF73AFD801B6428F1D828681B
:1018F0008003F7D42078DFF89C9280074FF0000B2C
:101900003DD5A348001D016811F00C0F08D00068F8
:10191000C0F3810002280AD1DAF80000400206D4A0
:101920002868800715D5E068012809D111E0E06832
:10193000B8B10120C9F80000FFF710FD064605E028
:1019400022E1FFF70BFD801B0228C2D82868800720
:10195000F7D52868216920F0F80040EAC100286026
:101960000DE0C9F800B0FFF7F9FC064604E0FFF708
:10197000F5FC801B02281FD828688007F7D4207840
:10198000000722D5824F84486169703771B1012107
:101990000160FFF7E3FC064604E0FFF7DFFC801B75
:1019A000022809D838688007F7D50EE0C0F800B0E3
:1019B000FFF7D4FC064605E082E0FFF7CFFC801B72
:1019C00002287DD838688007F7D42078400765D58D
:1019D0006F484FF000083C300068C0000BD46C48E2
:1019E0003C30016841F08051016000684FF001080F
:1019F00000F080500090694F3868C0050FD43868F7
:101A000040F480703860FFF7A9FC064604E0FFF759
:101A1000A5FC801B022853D83868C005F7D55C4F59
:101A2000A0686C3701280FD00528386810D020F046
:101A300001003860386820F004003860A068B0B158
:101A4000FFF78CFC06460EE0386840F00100F4E732
:101A500040F004003860F7E7FFF780FC811B41F29B
:101A60008830814263D838688007F5D50DE0FFF7EC
:101A700075FC064606E0FFF771FC811B41F28830D9
:101A8000814254D838688007F5D4B8F1000F05D0EA
:101A90003F483C30016821F080510160A069B8B333
:101AA0003B49091D0968C1F38101022946D002287A
:101AB000584606D0C9F86000FFF750FC044639E0EC
:101AC00035E04F46C9F86000FFF748FC064604E0E1
:101AD000FFF744FC801B022829D828688001F7D42E
:101AE000D4E907010843A16A2D4A490802EB0141E4
:101AF000626A41EA8211084394F82C1040EA0161BD
:101B0000CAF8001001203866FFF728FC044605E0FB
:101B10003CE0FFF723FC001B022808D8286880015E
:101B2000F7D533E0FFF71AFC001B022802D9032087
:101B3000BDE8F88F28688001F4D427E00128F7D0A9
:101B4000DAF80000E26900F4800191421CD1226AB7
:101B500000F03F01914217D147F6C071626A01401F
:101B6000B1EB821F10D1A26A4FF0FF3300F4403175
:101B700003EB5202B1EB024F06D194F82C1000F0A7
:101B80007060B0EB016F01D00120D1E70020CFE7FA
:101B90000438024000004742800E47420070004077
:101BA0000000FFFF2DE9F843894638494FF4FA4811
:101BB0004FF47A730E68B6FBF8F159430091017F38
:101BC00001295AD001270777022141770368CA21EA
:101BD000596203685321596201688B684FF0000411
:101BE0005B054FF0FF054FF0030C06D5009B5B1E15
:101BF000009344D0CB685B07F8D48B6823F48063F0
:101C00008B600168CB6803F0800363F49063CB6062
:101C1000B6FBF8F14FF47A73594300910168009BC9
:101C20005B1E00932BD0CB685B07F8D58B6823F045
:101C300007038B6001688B6813438B600268C2F8EE
:101C4000149013490A6842F480020A60104908316E
:101C50000A6842F480020A6001688A6842F480429D
:101C60008A6001688A6842F480628A6001684D6215
:101C7000477704770020BDE8F8830220FBE74D6238
:101C800080F81DC004770320F5E70000AC000020B9
:101C9000003C01407047000010B50A4904464FF46B
:101CA000800008602168C868400508D5C86800F051
:101CB000800060F49060C8602046FFF7EBFF0120D1
:101CC000607710BD143C014010B500680B464168B8
:101CD0000D480140080CD870C1F304245C7001F079
:101CE0003F049C70C1F34231197052B901F0D8FF22
:101CF000D870587801F0D4FF5870987801F0D0FF70
:101D00009870002010BD00003FFFFF0010B50B468B
:101D10000168896A596001680969C1F30E01996017
:101D2000006801680D480140C1F305401870C1F317
:101D300006245C7001F07F049C70890DD97052B943
:101D400001F0AEFF1870587801F0AAFF587098782B
:101D500001F0A6FF9870002010BD00007F7F7F007B
:101D600010B5040002D0607F10B106E0012010BD64
:101D700000202077204600F041F80220607720689C
:101D8000C168C943C90632D5CA21416221685320BE
:101D90004862204601F098FF20BB20688168164AFF
:101DA000114081602068816862681143D4E904238E
:101DB0001A43114381602168E06808612068016965
:101DC000228941EA02410161204601F0A0FF48B9A1
:101DD00021680A6C22F480220A6421680A6CA369D3
:101DE0001A430A642268FF21516208B110BD002025
:101DF0000121617710BD0000BFFF8FFF1FB50021DB
:101E0000009101910291039100680C49884214D11C
:101E100002200090C00103906846FFF76FFB08B1F5
:101E2000FEF7C0FE064901200860002205210320BC
:101E3000FFF732FB0320FFF721FB1FBD0028004006
:101E40003C0E474270B50446007F0B46012819D06E
:101E50000126267702206077B2B19878D97840EAD7
:101E6000014558781978000240EA4130054321685D
:101E7000CA204862216853204862204601F024FFAE
:101E8000D0B122E0022070BD5878C10603D500F021
:101E9000EF000A305870D87801F00BFF0204587830
:101EA00001F007FF42EA0022987801F002FF0243A6
:101EB000187842EA4035DAE707480540206845606F
:101EC000204601F024FF00B966772268FF215162A5
:101ED0000021217770BD00003FFFFF002DE9F04198
:101EE0000446007F0D46012823D04FF0010884F8F6
:101EF0001C80022060772068002780684FEA4060DD
:101F0000D2B1002800DBEF70A878297840EA0146BA
:101F10006878E978000240EA815006432168CA20C7
:101F20004862216853204862204601F0CDFEB8B1D6
:101F30002CE00220BDE8F081002800DBEF7028785B
:101F400001F0B7FE0204687801F0B3FE42EA002215
:101F5000A87801F0AEFE0243E87842EA8056DDE759
:101F60000D480640206806602068816821F48021C1
:101F70008160D5E9031001432068826811438160C4
:101F8000204601F0C4FE08B984F81D802268FF21B4
:101F900051622777CEE700007F7F7F0070B505464E
:101FA0000A482968C860FFF7D9F904464FF47A76E1
:101FB00006E0FFF7D3F9001BB04201D9032070BD42
:101FC0002868C0688006F4D5002070BD5F7F0100DE
:101FD0007047000038B5016804464A688868C04305
:101FE000430606D5C30704D1D3435B0601D4216C55
:101FF00005E0830708D4D3431B0605D4616C01B008
:102000002046BDE830400847830603D5430601D586
:10201000C30551D4D3439B064ED443060AD494F847
:102020005130032B49D0636D43F004036365CB68E3
:102030008B680093830609D4636D43F001036365E5
:102040008B6800930B6823F040030B60C00506D437
:10205000606D40F008006065206880680090606DE9
:10206000002829D02068416821F0E001416001206A
:1020700084F85100900701D4D00722D0206841682D
:1020800021F003014160114DE06C40B10565E06C49
:10209000FEF792FE18B1606D40F040006065A06CE4
:1020A000002809D00565A06CFEF786FE002803D045
:1020B000606D40F04000606538BDC8688868009079
:1020C00038BD2046FFF784FF38BD00006D3E000894
:1020D00070B5040009D0606A002540B125616561D2
:1020E000A56294F8510040B10CE0012070BD606819
:1020F000B0F5827FF4D0E561F2E784F850502046D5
:1021000000F044F8022084F851002068016821F0B2
:1021100040010160A088218900F4827001F404412B
:102120000843A18901F400610843217C01F0020108
:102130000843217D01F001010843218B01F4007166
:102140000843217F01F03801084394F8201001F082
:1021500080010843218D01F4005108432168086083
:10216000A069042101EA104094F8241001F0100144
:102170000843216848602068C16921F40061C16199
:102180006565012084F85100002070BDF0B587B06E
:10219000044614216846FEF7BDF8204920688842AD
:1021A0003AD11F480025016841F480410160006870
:1021B00000F4804005901A481038016841F004018D
:1021C0000160016801F004010591016841F002011C
:1021D00001600068022600F0020005900C20CDE9A5
:1021E0000006032705240295CDE9037469460D48CE
:1021F000FEF7BAFF3003CDE900060295CDE903747E
:1022000069460948FEF7B0FF002205212420FFF7A8
:1022100043F92420FFF732F907B0F0BD0038004041
:102220004038024000080240000402402DE9FF4F00
:1022300081B01F469346044601250E9EFFF78EF897
:10224000804694F851006168012806D0B1F5827F7C
:102250003CD1A168C9BB042838D10298002870D0AD
:10226000BBF1000FFBD0002FF9D094F850000128EB
:102270002CD04FF0010A84F850A094F851000428A3
:1022800002D0052084F851004FF00009C4F85490A2
:10229000C4F838B0E787A78702992163E786A78645
:1022A000C4F84090C4F8449020680168490603D4FB
:1022B000016841F040010160E068B0F5006F6068BE
:1022C00008D0E8B3012F47D07DE0FFE7022005B03A
:1022D000BDE8F08F08B1012F37D1206B216800884D
:1022E000C860206B801C2063E08E401EE0862CE0DE
:1022F0002068816889070DD5E18E59B1012D09D17A
:10230000216B0988C160206B801C2063E08E401E19
:10231000E086002520688168C9070BD0E18F49B1AC
:10232000C068A16B0880A06B801CA063E08F401E7A
:10233000E0870125FFF712F8A0EB0800B04201E0AA
:102340000AE064E001D3701C4ED1E08E0028CFD1AA
:10235000E08F0028CCD13CE0206B21680078087326
:10236000206B401C2063E08E401EE0862BE020683E
:10237000816889070DD5E18E59B1012D09D1216BF5
:1023800009780173206B401C2063E08E401EE086BC
:10239000002520688168C9070BD0E18F49B1C0686A
:1023A000A16B0870A06B401CA063E08F401EE0870B
:1023B0000125FEF7D3FFA0EB0800B04202D3701C4A
:1023C00001D011E086B1E08E0028D0D1E08F002846
:1023D000CDD142463146204601F050FD50B120207B
:1023E000606584F8509012E084F851A084F8509011
:1023F00003206CE7A06818B92068C1688068009065
:1024000084F851A084F85090606D0028F1D001202C
:102410005DE770B515460E46040003D094F84900F8
:1024200010B107E0012070BD002084F8480020466C
:1024300000F01DF804F108012068FEF7D3FB3146D7
:10244000A2682068FEF702FCD4E901022946236B4A
:10245000FEF7AAFBA168206850F8212042F0010293
:1024600040F82120012084F84900002070BDFEF7CB
:1024700027BE7047704710B5040003D094F83D00A4
:1024800010B107E0012010BD002084F83C00204678
:1024900000F01EF8022084F83D00211D206801F0A4
:1024A00007FE012084F8460084F83E0084F83F00CF
:1024B00084F8400084F8410084F8420084F8430026
:1024C00084F8440084F8450084F83D00002010BDE5
:1024D0007047000090F83D10012901D0012070479D
:1024E000022180F83D100168CA6842F00102CA600A
:1024F00000681149884214D0B0F1804F11D00F49C3
:1025000088420ED00E4988420BD00E49884208D02E
:102510000D49884205D00D49884202D00C498842B5
:1025200004D1816801F00701062903D0016841F058
:1025300001010160002070470000014000040040DC
:1025400000080040000C0040000401400040014031
:102550000018004070472DE9F04104460068C66845
:1025600005694FF00007A90713D5B10711D5F91E6A
:10257000016101202077206880698007204602D011
:10258000FFF7E8FF04E000F07EF8204600F07CF85A
:102590002777680716D5700714D521686FF00400F7
:1025A0000861022020772068806910F4407F20466F
:1025B00002D0FFF7CFFF04E000F065F8204600F0FE
:1025C00063F82777280715D5300713D521686FF0F2
:1025D00008000861042020772068C0698007204631
:1025E00002D0FFF7B7FF04E000F04DF8204600F0FE
:1025F0004BF82777E80616D5F00614D521686FF05A
:1026000010000861082020772068C06910F4407F1E
:10261000204602D0FFF79EFF04E000F034F8204689
:1026200000F032F82777E80708D0F00706D02168D5
:102630006FF001000861204600F028F8280608D550
:10264000300606D521686FF0800008612046FFF74C
:1026500010FF680608D5700606D521686FF04000A7
:102660000861204600F01CF8A8060AD5B00608D577
:1026700021686FF0200008612046BDE8F041FFF7B7
:10268000F9BEBDE8F081704770470000006803495B
:10269000884201D1FEF768BE704700000008004084
:1026A000704738B5044690F84200202801D0022037
:1026B00038BD51B14AB1012020630020606320463B
:1026C00001F008FF010002D005E0012038BD206BB9
:1026D000012802D00121084638BD20680268406800
:1026E000009020680C3050E8002F42F0100240E8C3
:1026F0000023002BF5D1EEE710B500680A498842A7
:1027000011D10A48006840684FF0FF33C0F18000E3
:10271000C2B20749074800F05BFABDE810408021CB
:102720000348FDF7F7BD10BD00480040E0C401209C
:1027300050C50120D8C3012070470000F8B50168DA
:1027400004460868CA684B6910F00F0F4FF0000587
:1027500059D003F0010602F49077374365D0C107E2
:1027600005D0D10503D5616C41F0010161644107D9
:1027700005D5D90703D0616C41F00201616481077E
:1027800005D5D90703D0616C41F0040161640107EC
:1027900007D502F02001314303D0616C41F00801FC
:1027A0006164616C00293AD0800604D5900602D598
:1027B000204601F0A7FD20684069616CC0F38010DD
:1027C000090700D460B3204601F067FD2068406926
:1027D000400621D52068143050E8001F21F0400148
:1027E00040E80012002AF5D1E06BA8B16E490165FE
:1027F000E06BFEF7E1FA002811D0E06B016D01B04B
:10280000BDE8F040084783060FD593060DD5204656
:10281000BDE8F84001F076BD2046FFF78DFFF8BD1A
:102820002046FFF789FF6564F8BD266B2023012E43
:102830007DD1C6067BD5D60679D508684868009054
:1028400048694FF00206400641D5E16B08684068D0
:102850000004000CE8D0A28D8242E5D9E085C86969
:10286000B0F5807F2DD020680C3050E8001F21F497
:10287000807140E80012002AF5D12068143050E839
:10288000001F21F0010140E80012002AF5D1206864
:10289000143050E8001F21F0400140E80012002AE7
:1028A000F5D184F84230256320680C3050E8001FD1
:1028B00021F0100140E80012002AF5D1E06BFEF78C
:1028C00032FA6663A08DE18D401A81B22AE0A08DB4
:1028D000E18D401A81B2E08D0028A5D00029A3D057
:1028E00020680C3050E8002F22F4907240E8002756
:1028F000002FF5D12068143050E8002F22F001029B
:1029000040E80027002FF5D184F842302563206885
:102910000C3050E8002F22F0100240E80023002B7A
:10292000F5D166632046FFF7E7FEF8BDFFE7050631
:102930002BD5150629D594F841002128F5D1A0689A
:10294000B0F5805F01D12069B0B1206A411C2162DD
:10295000216800784860E08C401E0004000CE08490
:10296000E3D12068C16821F08001C1602068C1689E
:1029700041F04001C160D8E7206A0088C0F3080038
:102980004860206A801C2062E5E74006CDD55006ED
:10299000CBD5CA68204622F04002CA6084F8413094
:1029A00000F066F9C1E700009D41000870B5040021
:1029B00004D094F84100002510B106E0012070BD5C
:1029C00084F84050204600F023F8242084F8410089
:1029D0002068C16821F40051C160204601F0F4FC78
:1029E0002068016921F4904101612068416921F06A
:1029F0002A0141612068C16841F40051C1606564E9
:102A0000202084F8410084F842006563002070BDF6
:102A10002DE9F04786B0044614216846FDF77AFC9C
:102A20006349DFF888C102232068614E1039032210
:102A3000DFF880A100259F064FF4806960454CD1E6
:102A4000306840F400203060306800F400200590C9
:102A5000086840F0010008600868694600F001005D
:102A600005908DE82C000820CDE903205046FEF7A4
:102A70007BFB524E5048B8463060C6E90175C6E946
:102A800003597561B561F56135624F46304675622F
:102A9000FEF774FA08B1FEF785F8E663B463474EB3
:102AA000454860363030E6E802084020A1C6434879
:102AB00046F814596030B561F56135627562FEF70C
:102AC0005DFA08B1FEF76EF8A663002205213420F6
:102AD000B463FEF7E1FC342027E0DFF8E4804FF038
:102AE000070C404526D13248001D046844F010040C
:102AF0000460006800F010000590086840F00100D4
:102B000008600868694600F0010005904FF4C06055
:102B10008DE82900CDE9032C5046FEF725FB002265
:102B200005212520FEF7B8FC2520FEF7A7FC06B0FE
:102B3000BDE8F087DFF88C804045F8D1306840F47C
:102B400080203060306800F480200590086840F0F4
:102B5000020008600868694600F0020005904FF422
:102B600040608DE82900CDE9032C1748FEF7FCFAF8
:102B7000124E1148C03618383060C6E90175C6E9F2
:102B8000035980157561C6E9065035623046756295
:102B9000FEF7F4F908B1FEF705F8E6630022052117
:102BA0002720B463FEF778FC2720BEE7004C0040E6
:102BB00040380240000002404060024020C4012032
:102BC0000010014000480040000402407047704778
:102BD0002DE9F843044690F841001F4615460E467D
:102BE000202802D00220BDE8F8838EB185B10020F4
:102BF0006064212084F84100FEF7B0FBA584814683
:102C0000E584A0684FF02008B0F5805F02D003E0B3
:102C10000120E8E7206910B1354600260EE00025C6
:102C20000CE08021204601F09FFCA0B9BDB115F851
:102C3000010B21684860E08C401EE084E08C4B462C
:102C40004FF0000200970028EBD14FF040012046E2
:102C500001F08AFC40B184F841800320C3E736F8D4
:102C6000020BC0F30800E4E784F841800020BAE7D3
:102C70007047FEE70EB5374D4FF47A7610F0F0FD51
:102C800010F09BFC032409E0641EE86BE4B280476B
:102C900085F838006420FDF759FF1CB195F838001D
:102CA0000028F1D1E86A8047296B01208847304627
:102CB000FDF73FFF03244FF4967708E0641EA868F1
:102CC000E4B2804728703846FDF733FF14B1287806
:102CD0000028F3D100F002FA4FF6E0704FF4A07430
:102CE000002100902346F022084600F0CDF930463E
:102CF000FDF71FFF4FF6FF70002100902346F022E2
:102D0000084600F0C1F94FF61F0213A110208DE80C
:102D100007009C2374228C21502000F04FFB4FF4BD
:102D2000FA60FDF706FF0F480068804718F09EFF25
:102D30001FF03CF91FF05EF92BF060FF0AA010F0C5
:102D400091FF1348006823F0CFFC4FF4FA7023F092
:102D50004BFC93E710C0012057656C636F6D6521D4
:102D6000000000001CC10120486172647761726537
:102D700020696E6974696174652068617320626599
:102D8000656E20636F6D706C657465642100000072
:102D900008C0012010B586B0044614216846FDF72E
:102DA000B9FA20890090012001900290022003903E
:102DB00069462068FEF7D8F9608900906946606826
:102DC000FEF7D2F906B010BD2DE9F0410646082401
:102DD000002500F0FFFF14E06806070E00213046D2
:102DE00000F0E6FF0220FDF7B1FE0121304600F0C1
:102DF000DFFF0120FDF7AAFE304600F0E2FF40EAC7
:102E00000705641EE4B2E7D20021304600F0D0FF8F
:102E1000304600F0FDFF2846BDE8F08110B50446BD
:102E2000002100F0ECFF0120FDF790FE012120467B
:102E300000F0BEFF0120FDF789FE0021204600F0D2
:102E4000B7FFBDE810400120FDF780BE70B50D460C
:102E50000646082418E000F0ABFF0220FDF776FEDE
:102E600005F08001304600F0CAFF0120FDF76EFE3C
:102E70006806050E0120FDF769FE0121304600F0CD
:102E800097FF0120FDF762FE641EE4B24FF00001DF
:102E90003046E0D200F08CFFBDE870400220FDF724
:102EA00055BE10B50446012100F0A9FF0120FDF731
:102EB0004DFE0121204600F07BFF0120FDF746FE7C
:102EC0000021204600F074FFBDE810400220FDF70D
:102ED0003DBE10B50446012100F091FF0220FDF730
:102EE00035FE0121204600F063FF0120FDF72EFE94
:102EF0000021204600F083FF0120FDF727FE00217E
:102F0000204600F055FFBDE810400120FDF71EBE31
:102F100010B50446002100F04BFF0220FDF716FE1D
:102F20000021204600F06BFF0120FDF70FFE01217C
:102F3000204600F03DFF0120FDF708FE012120465C
:102F400000F05DFFBDE810400120FDF7FFBD70B54A
:102F50000546052400F03EFF0121284600F028FF29
:102F600005E0641EA4B20120FDF7F0FD84B12846FF
:102F700000F027FF0028F4D1284600F049FF002187
:102F8000284600F015FF0220FDF7E0FD002070BD8F
:102F9000284600F03DFF2846FFF7BAFF012070BD2C
:102FA00030B505460A480488408821464443491EF6
:102FB000401E8AB283B20021084600F05BF900216E
:102FC000044801E00580491CA142FBD330BD00004C
:102FD00040C501200020006C2DE9FE4F0026A2EB29
:102FE000000882465F1A701E35468946B8F1000F08
:102FF00002DD4FF0010102E003D14FF00001019129
:1030000002E0C8F100080190002F02DD4FF001003E
:1030100002E003D14FF00000009002E0C7F100078A
:1030200000904046B84501DD044600E03C46601C87
:103030004FF0000B029015E01FFA89F11FFA8AF099
:1030400000F016F846443D44A64202DD0199361BC5
:103050008A44A54202DD00992D1B89440BF1010031
:103060001FFA80FB02998B45E6DDBDE8FE8F00006C
:1030700000B500F0FBF8024802490088088000BD56
:10308000BC0000200020006C2DE9F041141A641CE3
:10309000A6B25C1A641CA7B2DDF8188000F0EAF84A
:1030A00000250AE0002404E0404600F0EDF9641C2D
:1030B000A4B2B442F8D36D1CADB2BD42F2D30648FF
:1030C00041880088491EBDE8F041401E8BB282B2A3
:1030D0000021084600F0CEB840C5012010B564209C
:1030E000FDF727FD5F4CCF2020800021A01C018030
:1030F000C921018030210180ED21218064210180DE
:10310000032101801221018081210180E821218099
:1031100085210180102101807A210180CB2121802D
:10312000392101802C21018000210180342101807E
:1031300002210180F721218020210180EA212180C4
:10314000002101800180C02121801B210180C1213B
:10315000218000210180C521218030210180018052
:10316000C7212180B72101803621218008210180DB
:103170003A21218055210180B12121800021018047
:103180001A210180B62121800A210180A22101801B
:10319000F22121800021018026212180012101804E
:1031A000E02121800F2101802A2101802821018036
:1031B000082101800E210180082101805421018015
:1031C000A9210180432101800A2101800F21018072
:1031D00000210180018001800180E1212180002106
:1031E0000180152101801721018007210180112113
:1031F0000180062101802B210180562101803C2184
:10320000018005210180102101800F2101803F21D3
:10321000018001800F2101802B212180002101806C
:103220000180012101803F2101802A21218000218C
:10323000018001800180EF21018011202080782011
:10324000FDF777FC29202080002000F0F5F801220E
:1032500091020548FEF77DF8BDE810404FF6FF707B
:10326000FFF79EBEFE1F006C001402400B46024694
:10327000AFF30080F0B40D4E0D4FB4893C80050AC9
:10328000BC1C2580C0B22080100A2080D0B22080D3
:10329000F0893880080A2080C8B22080180A20806F
:1032A000D8B22080F0BC00F0B5B8000040C50120C5
:1032B000FE1F006C2DE9FF4F81B00EAE824696E8EE
:1032C0003100203800F0FF080298DFF8E0B0204419
:1032D000401E83B20AEB5400BBF80010401E009160
:1032E00082B250460299FFF7C5FF4FF000067DBB42
:1032F0002F4908EB480001EB800901F2744000EB14
:10330000081817E00C2C03D018F8065000270CE022
:1033100019F80650FAE7E80701D0039800E004988E
:1033200000F0B2F86D087F1CFFB2B7EB540FF2D378
:10333000761CF6B2A642E5D327E00C2C09D01D4836
:1033400000EB08100025875D029800EB060915E0E8
:1033500019E0174808EB480100EB8100F2E70398F9
:10336000ABF80000F80706D00AEB05001FFA89F158
:1033700080B2FFF77DFE7F086D1CEDB2B5EB540FF8
:10338000EDD3761CF6B2A642D7D30098ABF8000076
:1033900009484188008805B0491EBDE8F04F401E2D
:1033A0008BB282B200210846FFF764BFBC00002048
:1033B00068840C08DC880C0840C501202DE9FE4F0C
:1033C000044600F0FF0810190D46DDE90C761FFADF
:1033D00080FA58191FFA80F94FF0000B13E054459A
:1033E00002D3E91944468DB24D4511D28DE88108CA
:1033F0004FF6FF73294620460E9AFFF75BFF04EB5A
:10340000570084B2761C3078A0F120015E29E6D9FD
:10341000BDE8FE8F0248034900890880704700001C
:1034200040C50120FE1F006C024A1080901C0180E4
:1034300070470000FE1F006C12492A224FF4A0734F
:103440008A812B22CA812C220A812E224A81F022D3
:1034500058B101280DD002280FD0032811D10B80BC
:103460004A80B8213620FFF7DFBF0A804B80082151
:10347000F8E70B804A806821F4E70A804B80D82166
:10348000F0E7704740C501200149088070470000FF
:103490000020006C21F00EFA012023F0A5F8F9E7D6
:1034A00070B50C46054600F017F820EA04012846DE
:1034B000BDE8704000F038B810B5064C012240213C
:1034C0002046FDF746FF20460122BDE81040114688
:1034D000FDF73FBF0008024070B57E2101EA4000C1
:1034E0000A4D40F08004002240212846FDF731FFBC
:1034F000204600F0A9FC002000F0A6FC04460122B2
:1035000040212846FDF725FF204670BD00080240F7
:1035100070B50C460546FFF7DFFF40EA0401284678
:10352000BDE87040AFF3008070B50D467E2101EA22
:103530004004094E002240213046FDF70AFF204694
:1035400000F082FC284600F07FFC3046BDE8704069
:1035500001224021FDF7FDBE00080240064882B06E
:10356000016841F040010160006800F040000090F7
:10357000024802B0FFF70EBC303802408CC1012077
:103580002DE9F04106461C4615460F462048FFF738
:10359000A0FC7006010E1E48FFF758FC1C48FFF700
:1035A000D6FC28B11A48FFF7B3FC0120BDE8F08132
:1035B00039461748FFF74AFC1548FFF7C8FC14487E
:1035C000FFF787FC012000EB4600C1B21048FFF76F
:1035D0003DFC0F48FFF7BBFC0BE00D48012D0FD061
:1035E000FFF7F2FB20700A48FFF718FC6D1EEDB2E2
:1035F000641C002DF1D10648FFF78AFC0020D5E7B6
:10360000FFF7E2FB20700248FFF74BFCEEE70000FB
:103610008CC101202DE9F04107461D4616460C4697
:103620001548FFF756FC7806010E1348FFF70EFC0D
:103630001148FFF78CFC80B921460F48FFF706FCC4
:103640000D48FFF784FC00240FE0295D0A48FFF7CE
:10365000FDFB0948FFF77BFC28B10748FFF758FC42
:103660000120BDE8F081641CE4B2B442EDD302480D
:10367000FFF74EFC0020F4E78CC10120FDF7CCB928
:10368000FDF7D6B9FDF7DCB908B500200090044875
:10369000007810B9684605F03EFC009880B208BD7D
:1036A00010C0012022F044B90349097809B109206A
:1036B000704705F085BC000010C0012001490020C2
:1036C0004871704710C001200149012048717047BE
:1036D00010C0012000F099BA10B586B004001FD0C8
:1036E000002269460F48FEF711FB002205A90D488C
:1036F000FEF7EAFA9DF81700E0709DF8151061706A
:103700009DF81620A27014232BF0C2FE20709DF8A5
:10371000000020719DF8010060719DF80200A07109
:1037200006B010BD8C02002000F006BB00F01EBBEE
:1037300010B5012901D0022903D1401E0C31C0B2BD
:10374000C9B21A24491C11FB04F10A24B1FBF4F19B
:1037500000EB900000EB930008441044594200EB4A
:103760004100401E00E0C01D0028FCDB072190FB4B
:10377000F1F201FB120000B90720C0B210BD000039
:10378000114808B5016841F4001101600068002289
:1037900000F40010009005210C20FDF77DFE0C20A8
:1037A000FDF76CFE002205210D20FDF775FE0D20B2
:1037B000FDF764FE002205210F20FDF76DFEBDE838
:1037C00008400F20FDF75ABE3038024010B500F017
:1037D00025FF044A0021044822F042FF0349086003
:1037E00010BD000050FF0208A13F000800C00120EA
:1037F00010B58EB01C216846FCF78CFD1C2107A873
:10380000FCF788FD1A484FF0204110220160194949
:103810004160062181600021C160C0E9041281611C
:10382000C16113020162C0E909139302C0E90B13DD
:103830004163816341640F203C230090CDE9010383
:1038400003AC112384E80E0009240691CDE907405A
:1038500009AC082084E80F000D9107AA69460448C6
:10386000FEF7D7FD002801D0FDF79CF90EB010BD82
:103870003C020020040100A02DE9F04F87B0142184
:103880006846FCF747FD6C480025016841F01001CF
:103890000160016801F010010591016841F0040127
:1038A0000160016801F004010591016841F0200107
:1038B0000160016801F020010591016841F080017B
:1038C0000160016801F080010591016841F001018A
:1038D0000160016801F001010591016841F00201F8
:1038E0000160016801F002010591016841F00801E1
:1038F0000160016801F008010591016841F0400193
:10390000016000684D4E00F0400005900122182132
:103910003046FDF71EFDDFF828B100224FF4A0511C
:103920005846FDF716FD474F012241213846FDF765
:1039300010FDDFF81491012220214846FDF709FD12
:10394000DFF808A1012203215046FDF702FD012402
:103950001820CDE9000469463046CDE90245FDF75F
:1039600003FCA002CDE900040326CDE90246694626
:103970005846FDF7F9FB41204FF002088DE8310170
:1039800069463846FDF7F0FB2027CDE90074CDE904
:10399000024669464846FDF7E7FBCDE90064CDE9FC
:1039A000024669465046FDF7DFFB0420CDE90005DD
:1039B000694602945046FDF7D7FBE002CDE90005C9
:1039C000694602945846FDF7CFFB200303958DE826
:1039D000110169465846FDF7C7FB6003CDE90005B4
:1039E000694658460295FDF7BFFB300300904FF43F
:1039F0000410CDE9010469461548FDF7B5FB4FF405
:103A000088100097CDE9010569461248FDF7ACFB27
:103A1000002205211720FDF73FFD1720FDF72EFDA1
:103A2000002205212820FDF737FD2820FDF726FD7F
:103A300007B0BDE8F08F00003038024000100240AF
:103A4000001402400008024000000240000402404E
:103A5000000C02400018024010B586B014216846E0
:103A6000FCF758FC214800241F490594C0E90014C4
:103A70007F218160FF21C0E9031444618461FEF766
:103A80006FF908B1FDF78EF812208DF800008DF85F
:103A900001408DF8024003940122694613480494C2
:103AA000FEF71CFA08B1FDF77DF807208DF8140029
:103AB00009208DF8150015208DF8160024208DF8AA
:103AC0001700012205A90948FEF7BCF908B1FDF766
:103AD00069F8002211460548FEF764F8002801D075
:103AE000FDF760F806B010BD002800408C020020F1
:103AF000104810B50E4901604FF4827141600021F9
:103B00008160C1604FF400720161C0E90512282292
:103B1000C0E90721416281620A21C162FEF7D8FA39
:103B2000002803D0BDE81040FDF73CB810BD0000F0
:103B300000380040F0C201200C4810B50A4901606D
:103B40004FF4E1314160002181600C22C160C0E985
:103B500004128161C161FEF729FF002803D0BDE88E
:103B60001040FDF71FB810BD004C004048C30120B5
:103B70000C4810B50A4901604FF4E1314160002161
:103B800081600C22C160C0E904128161C161FEF74D
:103B90000DFF002803D0BDE81040FDF703B810BDAD
:103BA0000010014090C301200C4810B50A49016083
:103BB0004FF4E1314160002181600C22C160C0E915
:103BC00004128161C161FEF7F1FE002803D0BDE857
:103BD0001040FCF7E7BF10BD00480040D8C30120EB
:103BE000FEE770477047FEE703211420FFF758BC3B
:103BF00010B51420FFF770FC800705D10321BDE844
:103C000010401420FFF784BC10BD10B5FFF754FC22
:103C100000F002F8002010BD10B5204C0122114622
:103C20002046FDF796FB0220FCF783FF00220121CE
:103C30002046FDF78EFB0220FCF77BFF0122114698
:103C40002046FDF786FB0220FCF773FF0F210120C1
:103C5000FFF76AFC0220FCF76CFF3D211120FFF703
:103C600063FC1E212D20FFF75FFC00212C20FFF7B5
:103C70005BFC8D212A20FFF757FC3E212B20FFF70C
:103C800053FC40211520FFF74FFCFFF7ADFF02204A
:103C9000FCF74FFFBDE81040FFF7AABF0008024045
:103CA000010901EB810100F00F0000EB4100C0B2FF
:103CB0007047002102E00A38C0B2491C0A28FAD233
:103CC000090740EA116070472DE9F0410546006898
:103CD0000024C168490617D4C16841F08001C16061
:103CE000FDF73CFB06464FF47A78042706E0FDF723
:103CF00035FB801B404501D96F7701242868C068D7
:103D0000400601D4002CF2D02046BDE8F08170B509
:103D1000044600680025C16821F08001C160206868
:103D20008068800606D42046FEF738F910B10420DA
:103D300060770125284670BD08B5002300938DF8F3
:103D400002208DF801108DF8030014232BF0A0FB46
:103D50008DF80000002269460348FEF773F800283A
:103D600001D0FCF71FFF08BD8C02002070B586B0A3
:103D70000D460446164614216846FCF7CBFA8DF82A
:103D800000408DF801508DF8026000226946044819
:103D9000FEF7A4F8002801D0FCF704FF06B070BDC0
:103DA0008C0200200148FDF777BF00008C02002044
:103DB0004289406811B18169114300E011048161B9
:103DC000704710B501890068FDF7B6FA012800D0E8
:103DD000002010BD10B586B0044614216846FCF7DB
:103DE00099FA208900900020019001200290022081
:103DF000039069462068FDF7B7F906B010BD028947
:103E0000006811B18169114300E0110481617047BC
:103E100010B586B0044614216846FCF77BFA208969
:103E2000009011200190002002900220039069462A
:103E30002068FDF799F906B010BD00000148FEF7B3
:103E4000C9B80000F0C2012001B582B00A2000907C
:103E50000123044A02A90448FEF7E8F90148007862
:103E60000EBD000064C10120F0C2012010B5806BBE
:103E70000021C187C186FEF7ABF810BDF8B5154625
:103E80000E460B46009204460122022100F02CF857
:103E9000A0B9134813490068B0FBF1F04FF47A71F0
:103EA000484300906068B0F5827F0DD13346002210
:103EB00080212046009500F017F870B1606D40F049
:103EC000200060650320F8BD009830B1401E0090CE
:103ED00020688068C0430006F6D50020F8BD0000C9
:103EE000AC00002000366E012DE9F8431E469146D5
:103EF00088460446089DFDF731FA401B351AFDF748
:103F00002DFA074625480068C0F3CB30684338E0F7
:103F1000701C37D0FDF722FAC01BA84203D215B19E
:103F2000009860B32CE02068416821F0E001416016
:103F30006068B0F5827F0BD1A068B0F5004F02D069
:103F4000B0F5806F04D12068016821F04001016064
:103F5000A06AB0F5005F09D12068016821F4005122
:103F600001602068016841F400510160012084F87B
:103F70005100002084F850000320BDE8F88300259C
:103F8000401E00902068816838EA010004D00020BB
:103F90004845BDD10020F0E70120F9E7AC00002042
:103FA000074D4FF400544FF4FA7606A00FF072FE5E
:103FB00021462846FDF7C5F9304622F015FBF4E707
:103FC0000008024044656661756C74207461736B0F
:103FD0002069732072756E6E696E67210D0A00008C
:103FE00010B54FF0E02000692BF0C6FD012803D08A
:103FF000BDE810402BF0F0BA10BD000030B593B012
:1040000030216846FCF786F914210CA8FCF782F9E8
:104010001E480025016841F080510160006800F0F1
:10402000805011901A48016841F480410160006895
:10403000022400F48040119006200090012002909C
:1040400003901020049006940820CDE90750A82082
:10405000CDE9090404200B906846FDF7F7FB08B191
:1040600072B6FEE70CA90F2081E831004FF4A05092
:104070000F904FF48050109005210CA8FDF7DCFA4A
:10408000002801D072B6FEE713B030BD40380240C0
:10409000007000400248016841F4700101607047FF
:1040A00088ED00E00148FEF756BA0000AC0200209F
:1040B000F0B50268294D2A4E2A4FDFF8ACC02B4BD1
:1040C0004FF0804EA84209D0704507D0B04205D0CD
:1040D000B84203D0604501D0984203D122F0700469
:1040E0004A682243A8421BD0704519D0B04217D06D
:1040F000B84215D0604513D0984211D01C4CA04254
:104100000ED01C4CA0420BD01B4CA04208D01B4C24
:10411000A04205D01A4CA04202D01A4CA04203D1B2
:1041200022F44074CA6822434C6922F08002224380
:1041300002608A68C2620A688262A84201D098421C
:1041400001D109690163012141610169C90703D0F6
:10415000016921F001010161F0BD00000000014092
:104160000004004000080040000C00400004014032
:104170000040014000440140004801400018004058
:10418000001C004000200040012020F001BB000086
:104190000148FEF7D3BA000048C3012010B5806B78
:1041A0000021C185C184FEF7C7FA10BD70B5846BCC
:1041B0002068406994F84110C0F3C01000252129FF
:1041C00004D118B1E584204600F08EF820684069DB
:1041D00094F84210C0F38010222904D118B1E5856B
:1041E000204600F05AF8606C40F0100060642046F1
:1041F000FEF7A2FA70BD10B50146806B0968096828
:104200004FF00003C9052ED4C38501680C3151E875
:10421000002F22F4807241E80024002CF5D10168BF
:10422000143151E8002F22F0010241E80024002C53
:10423000F5D10168143151E8002F22F0400241E825
:104240000024002CF5D1202180F84210016B0129B7
:1042500009D101680C3151E8002F22F0100241E829
:104260000024002CF5D14363016B012902D0FEF735
:10427000ADFC10BD818DFEF73FFA10BD10B5806B0F
:1042800001214163016B012902D0FEF7A0FC10BDA2
:10429000818D4908FEF730FA10BD01680C3151E8F4
:1042A000002F22F4907241E80023002BF5D1016821
:1042B000143151E8002F22F0010241E80023002BC5
:1042C000F5D1016B012909D101680C3151E8002FAA
:1042D00022F0100241E80023002BF5D1202180F8C4
:1042E000421000210163704701680C3151E8002F32
:1042F00022F0C00241E80023002BF5D1202180F8F4
:104300004110704708B590F84210222901D00220D0
:1043100008BD81684FF48053994201D1026922B1EE
:10432000826A99421BD049B10AE00268816A5268E8
:10433000C2F308020A80816A891C08E0016971B130
:104340000168496801F07F011170816A491C81622E
:10435000C18D491E0904090CC18503D01BE0016809
:104360004968F1E70168CA6822F02002CA60016862
:10437000CA6822F48072CA6001684A6922F00102A8
:104380004A61202180F8421000214163026B012A1A
:1043900003D0FEF71BFC002008BD016301680C314F
:1043A00051E8002F22F0100241E80023002BF5D144
:1043B00001680A68D20602D50A6849680091818DB1
:1043C000FEF79AF9E7E7000070B504460068016956
:1043D000E26821F4405111430161A1682069E2695A
:1043E00001436069104301432068C26849F20C63CD
:1043F0009A430A43C26020684169A26921F440716E
:104400001143416131492068884202D030498842D5
:1044100002D1FDF7DBF901E0FDF7C8F9E2690023FD
:10442000192164253226B2F5004F626828D0A0FB1E
:104430000101930F9200FBF723FF0146B0FBF5F05B
:104440006FF01802504301EB800006EB0010B0FB48
:10445000F5F000F0F002B1FBF5F002EB0012B1FB59
:10446000F5F06FF01803584301EB800006EB0010E5
:10447000B0FBF5F000F00F0021681044886070BDBB
:10448000A0FB010192185B41FBF7FAFE0146B0FB6D
:10449000F5F00201B1FBF5F06FF01803584301EBA2
:1044A000800006EBC000B0FBF5F000F0F80002EB76
:1044B0004002B1FBF5F0584301EB800006EBC00071
:1044C000B0FBF5F000F00700D6E700000010014057
:1044D0000014014037B582B01346039A8262044645
:1044E000838500206064222184F84210E56B1B491B
:1044F000E963E56B1A492964E56B1A49E964E16BE4
:1045000008652168E06B091DFCF7A2FD20680168C1
:1045100040680090206948B120680C3050E8001FC6
:1045200041F4807140E80012002AF5D1206814306F
:1045300050E8001F41F0010140E80012002AF5D1C7
:104540002068143050E8001F41F0400140E800129C
:10455000002AF5D105B0002030BD0000F741000869
:104560007D420008AD4100082DE9F8431F46904602
:104570000D460446089E23E0701C21D0FCF7EEFE99
:10458000C01BB0421AD8CEB12068C168490717D500
:10459000802D15D0402D13D00168C94309070FD4D1
:1045A00001680025406800902046FFF776FE08204D
:1045B000606484F840500120BDE8F8830320FBE7E5
:1045C0002068006835EA000004D000204045D3D0C0
:1045D0000020F1E70120F9E70148FEF7AFB800003D
:1045E00090C3012010B50548FEF7A8F8BDE81040BB
:1045F000802203490148FEF754B80000D8C30120C7
:1046000050C501207047704770477047704770472A
:104610007047704770477047FEE7000010B5074AC3
:104620000021074822F01CF8064C044A00212060B3
:104630002432054822F014F8606010BD74FF0208AF
:10464000752C000808C00120953400087047704799
:104650000FB4024610B504A9034B039801F03EFEC7
:1046600010BC5DF814FB00008D1001080FB4054B61
:1046700010B503A9044A029801F030FE10BC5DF8A1
:1046800014FB00008D100108ECC201200FB4084B90
:1046900010B504A902AA039801F020FE044602A95D
:1046A000002002F0B2F9204610BC5DF814FB0000B7
:1046B0000B6A000830B414460D46024621462846CF
:1046C00030BC014B01F00ABE8D1001080907090E2C
:1046D000002804DB00F1E02080F80014704700F0AF
:1046E0000F0000F1E02080F8141D704702E008C8B8
:1046F000121F08C1002AFAD170477047002001E05C
:1047000001C1121F002AFBD1704770B50446002575
:104710006FF02F0608E02068411C2160007805EB4F
:10472000850106EB410145182068007800F012F978
:104730000028F0D1284670BD2DE9F05F15461C46D3
:10474000DDF828B00E46074601EB040800EB050A29
:104750001FFA88F11FFA8AF05A46FCF7DBFA1FFAB3
:1047600088F1A7EB05081FFA88F05A46FCF7D2FA41
:10477000A6EB04091FFA89F11FFA8AF05A46FCF7E2
:10478000C9FA1FFA89F11FFA88F05A46FCF7C2FAF3
:1047900006EB050907EB04081FFA89F11FFA88F0F8
:1047A0005A46FCF7B7FA3C1B1FFA89F1A0B25A46E9
:1047B000FCF7B0FA751BA9B21FFA88F05A46FCF74D
:1047C000A9FAA9B2A0B25A46BDE8F05FFCF7A2BAB6
:1047D0002DE9FF5F82B00021DDE90430020DDDF834
:1047E00040B0034318D044F61050A2F2FF324243C7
:1047F0001514119801281FD0A5EB0B00401C5FEA8F
:10480000000A4FF000064E4FDFF83891B046504690
:1048100015D5CAF1000413E0119801244AA3012818
:1048200001D16FEA0B010298119AC0E90031C0E989
:10483000024206B0BDE8F09FCBF10000DFE704467E
:104840000021404A491842EB0450CDE9001012E023
:10485000E00707D032463B4640464946FBF737FE65
:104860008046894632463B4610461946FBF72FFEE6
:1048700006460F466410002CEAD1DDE90401DDE9AB
:104880000023BAF1000F06DAFBF721FE42464B4641
:10489000FBF71DFE05E0FBF78CFE42464B46FBF79F
:1048A00088FE04460E460022284BFBF71BFF03D868
:1048B0004FF0FF30014607E00022254B20463146ED
:1048C000FBF75EFDFBF7CAFF102409E0002C0ADBB2
:1048D0000A220023FBF7D4FC039B30321A55641ED6
:1048E00050EA0102F2D1641C039AC4F1110314448A
:1048F000119A012A03D0012208430DD10AE008438E
:1049000004D000204FF0110B119072E7A3EB0B05C0
:104910006D1E0DE05B4504DD4FF0000205F1010561
:1049200004E003DA4FF00002A5F10105002AECD003
:1049300002981199C0E90231C0E9004579E7000009
:10494000000014400000F03F300000000000F04381
:104950000000E03F3038092801D8012070470020CE
:104960007047000010B54421074800F075FF002291
:104970001E2106481FF066FF054CA06002F0D0FB28
:104980000020207010BD000064400020D571000898
:104990004C0100202DE9F0470F4681469046114614
:1049A000384600F00CF940B100224146384600F08C
:1049B000B2F828B10020BDE8F0874FF0FF30FAE7E9
:1049C0000026384610F036F8401E0FFA80FA3846B6
:1049D0000FF0E0FF401E02B2B8F80210B7F9020073
:1049E000091A09B200290FDD3B88012663F30F0481
:1049F00060F31F44BB88084463F30F0560F31F4551
:104A0000C9F80040C9F80450B8F906007988411A7D
:104A1000511A09B2002913DDB7F9062090420FDAC6
:104A20003A8862F30F04BA8860F31F4462F30F05FB
:104A3000084460F31F4509EBC600761C046045601E
:104A4000B8F90200B7F90210884200DC0846B8F94C
:104A50000610B7F90620914200DB1146B8F8003085
:104A6000B7F90020091A9B1A1BB209B2002B10DDFE
:104A700000290EDD62F30F041A4462F30F05421899
:104A800062F31F4509EBC60260F31F4414605560D2
:104A9000761CB8F904203B88D71AAAEB07031BB28F
:104AA000002B0EDD62F30F0460F31F441A4462F31F
:104AB0000F05084460F31F4509EBC600761C04602F
:104AC0004560304677E770B5B1F90040B2F9003083
:104AD0009C4200DD23460380B1F90240B2F9025046
:104AE000AC4200DC2C464480B1F90450B2F90460B9
:104AF000B54200DB35468580B1F90610B2F90620D3
:104B0000914200DB1146C1800120AB4201DC8C42A6
:104B100000DD002070BDF8B50D460446B0F9000078
:104B2000B1F900101646884247DBB4F90210B5F916
:104B30000220914241DBB4F90410B5F904209142FE
:104B40003BDCB4F90610B5F90620914235DC96B38A
:104B5000ADF800006088ADF802003246694628468C
:104B600000F099F8002827D0A088ADF800006088F0
:104B7000ADF8020032466946284600F08CF800285D
:104B80001AD02088ADF80000E088ADF80200324667
:104B90006946284600F07FF800280DD0A088ADF8BF
:104BA0000000E088ADF8020032466946284600F071
:104BB00072F8002800D00120F8BD0020F8BDB0F93F
:104BC0000020B1F904309A4213DCB0F90420B1F9A5
:104BD00000309A420DDBB0F90220B1F906309A425A
:104BE00007DCB0F90600B1F90210884201DB0120B0
:104BF000704700207047F8B50D460446B0F9040030
:104C0000B1F900101646884243DBB4F90600B5F945
:104C1000021088423DDBB4F90000B5F90410884267
:104C200037DCB4F90210B5F90620914231DC76B3D5
:104C3000ADF800006088ADF80200324669462846AB
:104C400000F029F818BBA088ADF800006088ADF826
:104C5000020032466946284600F01DF8B8B920889F
:104C6000ADF80000E088ADF80200324669462846FB
:104C700000F011F858B9A088ADF80000E088ADF850
:104C8000020032466946284600F005F808B10020C7
:104C9000F8BD0120F8BD2DE9FC4105460F46B1F9EC
:104CA0000000B5F90010144688423BDBB5F904104A
:104CB000884237DCB7F90200B5F90210884231DBCF
:104CC000B5F9061088422DDC002C76DD28460FF061
:104CD000B1FE00EBD070461028460FF05BFE00EBF3
:104CE000D0704010864200DA3046844200DD04462F
:104CF0002888ADF80000288800222044ADF8040080
:104D00006888ADF80200688839462044ADF806008E
:104D10006846FFF7C0FF40B1BDF804002044ADF87D
:104D200004003FE00020BDE8FC81E8880022001B71
:104D3000ADF80200E888ADF8060039466846FFF78E
:104D4000AAFF28B1BDF804002044ADF8040011E02A
:104D5000A8880022001BADF80000A888ADF8040068
:104D600039466846FFF797FF50B1BDF80000001BB9
:104D7000ADF80000BDF80200001BADF8020016E01F
:104D80006888ADF80200688800222044ADF806006B
:104D900039466846FFF77FFF70B1BDF80000001B81
:104DA000ADF80000BDF806002044ADF80600394615
:104DB00068461DF0DFF8B6E7FFE70120B3E710B55E
:104DC000B1F90030B2F90040A34200DB2346038072
:104DD000B1F90230B2F90240A34200DB234643801E
:104DE000B1F90430B2F90440A34200DC23468380C9
:104DF000B1F90610B2F90620914200DC1146C180DB
:104E000010BD00002DE9F0418AB004461FF0B6FC49
:104E10000026A34D074600960CB1E06801E012F0B1
:104E20008DF8686000691CF0A3FF6868406908B1EC
:104E30001CF09EFF6868C0691CF09AFF6868006AF1
:104E40001CF096FF6868016991B11DF03DF922F0F0
:104E500017FF22F039FC6868B0F85011E9B3006818
:104E6000017CC9071FD0C0684068E0B1002415E08C
:104E7000A0F850610AB0BDE8F081011991F8301135
:104E800051B900F5AC7000F03EFD696801EBC4015A
:104E90000A6B0260496B4160641CA4B26868B0F898
:104EA0005011A142E9D868684FF48071303018F091
:104EB0008EFB6868202100F5987018F088FB686800
:104EC000A0F8506138461FF053FC009068680068F5
:104ED000436A13B12A680099984718F0BFF900F0A7
:104EE00029F900F0FDF86F4F7C69D4BB17F069FF1A
:104EF00017F096F8044600227F211CF013FE11F0F3
:104F0000B9F90146002220461CF0CFFD11F07DFCCE
:104F10000146002220461CF090FE0022032120467C
:104F20001CF07CFE0022032120461CF068FE0022BB
:104F3000032120461CF068FE0022032120461CF0BD
:104F400068FE0022032120461CF072FE56A1204676
:104F500017F0B8FE00231A460621204618F01DFF60
:104F60007C6138681FF004FC4FF4967840450CD201
:104F7000286841F28831884234D979680098084419
:104F80007860B868401CB8602CE01FF0F7FB386010
:104F90006868406828B100684FF47A71B1FBF0F09E
:104FA00000E02120796809B901217960B968F1B17F
:104FB0004FF47A7251437A68B1FBF2F57E60BE60BD
:104FC000854200D90546386928443861F868401C94
:104FD000F8601FF069FCC0F164032A4633A1204643
:104FE00017F0A7FE2E4D08356C6814B137E0054662
:104FF000E4E717F0E6FE17F013F8044600227F21DD
:105000001CF090FD11F036F90146002220461CF0FC
:105010004CFD11F0FAFB0146002220461CF00DFE6B
:105020000022032120461CF0F9FD00220321204626
:105030001CF0E5FD0022032120461CF0E5FD0022C6
:10504000032120461CF0E5FD17A1204617F03AFE8B
:1050500000231A460421204618F09FFE6C60286841
:105060001FF086FB40457FF605AF1FF087FB2860E9
:1050700002A818F08BF904990298401A820A51424A
:1050800000EB81206621B0FBF1F39DF821109DF823
:105090002000CDE9000109A1204617F04AFEE9E60B
:1050A00004C201201C4000203F000000257520465E
:1050B00050530A25752525204350550025752E256A
:1050C00075206B4220757365642028256420252592
:1050D000290A2564252520667261672E00000000DC
:1050E00070B5094E0024C4EBC40556F8250008B17C
:1050F00018F028F906EB85001C2118F068FA641CEA
:10510000E4B2042CEFD370BD404100200849496847
:105110000AE04A68824202D00A68824203D10A7ECB
:1051200042F001020A7649690029F2D17047000075
:1051300018010020704700000421014800F08CBBDA
:10514000584000202021014800F086BB704000201C
:105150002DE9FF410446DDE90A571E004FF000002B
:1051600002D1B5F5807F2BD0039001900290ADF86D
:105170000C100090ADF80410ADF80A20ADF80E2028
:105180003B462A46314668461CF056FE3B462A46B8
:10519000314601A81CF050FE3B462A46314602A883
:1051A0001CF04AFE3B462A46314603A81CF044FE4A
:1051B000BDF90030BDF90420934209DA1D4608E02C
:1051C0002080491E6080A180521EE280BDE8FF81E0
:1051D0001546BDF90800BDF90C10884201DA0646F3
:1051E00000E00E46B54205DA934201DA184604E0C3
:1051F000104602E0884200DB0846801E2080BDF990
:105200000030BDF90400834201DD1D4600E0054683
:10521000BDF90820BDF90C108A4201DD164600E0F8
:105220000E46B54203DD834206DD184604E08A429D
:1052300001DD104600E00846801CA080BDF9023068
:10524000BDF90620934201DA1D4600E01546BDF97E
:105250000A10BDF90E00814201DA0E4600E0064652
:10526000B54205DA934201DA184604E0104602E03E
:10527000814200DA0846801E6080BDF90230BDF927
:105280000620934201DD1D4600E01546BDF90A10D7
:10529000BDF90E00814201DD0E4600E00646B54232
:1052A00005DD934201DD184604E0104602E081422C
:1052B00000DD0846801CE08088E700002DE9F04111
:1052C00015460E460746114C1FF058FA80462B46ED
:1052D00032463946204616F029F820B10020A06257
:1052E000E06950B110E02C21204618F070F94FF021
:1052F0000040A0620020BDE8F08140461FF038FA6F
:10530000E06108B90120E0612046F4E79440002004
:1053100010B51421074800F09FFA15F0CDFF40B1F9
:105320000549016005494160054981600549C16041
:1053300010BDFEE77C40002099AC01080DB00108CB
:10534000D9B1010865AC010870B50D4604461021BD
:10535000284618F03CF920680078012804D002287B
:1053600007D0042807D008E0A08A2880E08A688057
:1053700003E0E06800E00A20686020684268002AD4
:1053800003D02946BDE87040104770BD2DE9FE43AB
:105390000446808A10B9E08A002874D0D4F82C80A2
:1053A0005FEA080010D120460BF062F95FEA0008BE
:1053B00069D020460DF0F2FC00220921404614F08D
:1053C000ABFE607880075ED44FF4807900274D46AD
:1053D0004646002130461AF054FD384407B20021F9
:1053E00030461AF06CFDC11700EB1160001210FB83
:1053F00005F005B2304619F043FD0600E9D10FB9BA
:105400004D450CD0784201B24FF4803090FBF5F05E
:1054100002B26B4604F1140000961CF00DFDADF8CD
:105420000860ADF8046094F8400000F00F00032815
:10543000404616D019F076FE0546404619F02CFD80
:1054400003460C200090B4F916102A4640460AF094
:10545000E5FCADF80400404619F070FDC10713D01B
:1054600018E019F0F3FD0546404619F08FFD02469D
:1054700003200090B4F914102B4640460AF0CEFCED
:10548000ADF80800E7E736E0BDF90810002901DDB6
:10549000ADF80860810705D4BDF90810002901DACC
:1054A000ADF80860410705D4BDF90410002901DDFD
:1054B000ADF80460000705D4BDF90400002801DA46
:1054C000ADF8046001AA02A9204622F073FFBDF9DD
:1054D0000420BDF90810404600F08AFA6078800781
:1054E00009D4208BBDF8081008442083608BBDF8D8
:1054F000041008446083BDE8FE832DE9FC5F044688
:10550000C06A5FEA000B71D094F8400000076DD0CC
:1055100016F04CFA019000684021457E58461AF07A
:10552000F7FD4FF0000818B9A4F81E80A4F81C80FD
:10553000584619F0E9FD8246584619F0ECFD06463A
:1055400094F840004FF0640900F00F000C2802D0DE
:1055500003284CD09AE0A4F81C8056B1B4F91E5030
:10556000002716F023FA00684946407EC0F1640027
:1055700022E0E08BC5F1640110FB01F191FBF9F031
:10558000E083584619F088FC0546584619F0CAFDD4
:1055900002460C200090B4F91E102B4658460AF023
:1055A0003DFCE083024600231EE07A1917B210FB8F
:1055B00005F292FBF1F215B2002DF6D1ADF80070B4
:1055C000A4F81E806A460021204622F0F3FE41F630
:1055D000FF72BDF90030514258460BF0DFF9BDF8BB
:1055E00000100123084402B200214CE09AE0A4F824
:1055F0001E80BAF1000F0AD0B4F91C50002716F033
:10560000D5F900684946407EC0F1640022E0A08BD5
:10561000C5F1640110FB01F191FBF9F0A08358463C
:1056200019F0B4FC0546584619F010FD0346032056
:105630000090B4F91C102A4658460AF0EFFBA083EC
:10564000014600231EE07A1917B210FB05F292FB07
:10565000F1F215B2002DF6D1ADF80070A4F81C805F
:1056600000226946204622F0A5FE41F6FF72BDF9F0
:105670000030514258460BF00FF9BDF800100123DD
:10568000084401B2002258461BF078FEA08B002887
:1056900048D1E08B002845D1C6B9584619F042FDE3
:1056A0000546584619F0F8FB002D06DC00280DDDF4
:1056B000002D02DA01232A4604E0002806DA01233D
:1056C000404202B2002158461BF058FEBAF1000FCA
:1056D00019D1584619F05AFC0546584619F0B6FC3F
:1056E000002D07DC00280EDD002D03DA0123002247
:1056F000294605E0002806DA01230022404201B2D3
:1057000058461BF03BFE0A215846019A14F004FD4E
:105710006078800706D414F8400F20F00F00207046
:1057200044F8148CBDE8FC9F7FB50D46040003D1FE
:1057300011F004FC04002CD011F074FC002828D0D7
:1057400094F82800400724D4002605B3ADF8006083
:10575000ADF80260204611F009FC401EADF80400CF
:10576000204611F049FC401EADF806006A46294665
:1057700002A8FFF7A8F900280BD02068017C890750
:1057800008D5DDE90001C4E90C01012029E0A4F8F5
:1057900050617FBD82690AB102A9904700250AE0E5
:1057A00004EBC501002202A83031FFF7B4F900284C
:1057B000EFD16D1CADB2B4F85001A842F0D880B260
:1057C000202804D204EBC00002A9303004E0A4F881
:1057D000506104F1300069460FF070F8B4F85001E0
:1057E000401CA4F8500160680028D2D01FF00AF9CC
:1057F0007FBD70B5054600F012F804460CE0214666
:10580000284600F01EF806462146284600F0A2F879
:10581000204617F097FD3446002CF0D170BD0028CB
:1058200000D04068704700B503460022FFF7F7FF3D
:1058300003E01846521C00F004F80100F9D11046AC
:1058400000BD0068091D4058704700684058704707
:10585000002800D08068704700224260C91C21F0F7
:10586000030182600160704770B50446006808302B
:1058700017F0DCFC050013D001460022204620F082
:1058800014FE29462046626820F006FE616819B1C0
:105890002A46204620F009FE6560A06800B9A56090
:1058A000284670BD2DE9F0410D4606000AD04DB1E5
:1058B000FFF7B5FFA84208D13046FFF7D5FF041E19
:1058C00001D01EE00020BDE8F0813068083017F0FC
:1058D000ADFC041EF7D030682246475930463946A1
:1058E00020F0DAFD3A462146304620F0DEFD224621
:1058F0002946304620F0D9FD2A462146304620F080
:10590000CBFD2046DFE770B504460068083017F08D
:105910008DFC050013D001460022204620F0BCFD7E
:1059200029462046A26820F0C0FDA16819B12A4688
:10593000204620F0B1FDA560606800B9656028468A
:1059400070BD28B1416809B9806808B1002070476E
:105950000120704770B504000DD0FFF760FF0022F2
:105960008842204608D1FFF76CFF606010B100222A
:1059700001461EE0A26070BDFFF76AFF8842206802
:1059800008440AD10168A16029B12046BDE87040F1
:10599000002220F081BD626070BD05682046FFF7DF
:1059A00050FF064602462946204620F075FD2A464D
:1059B00031462046BDE8704020F077BD10B5044662
:1059C000006882680AB12146904720680068002874
:1059D00001D02060F5E710BD8068002801D0B0F943
:1059E000160070478068002801D0807E80097047CB
:1059F00070B5154606460C4651EA05001AD03046E9
:105A000018F04AFBB06801232A46018A214401822A
:105A1000B068418A29444182214630461AF00EFF7F
:105A200000220B21304614F077FB012803D13046C9
:105A30001AF05DFE012070BD77B581B00E460500FD
:105A400017D062221AF04EF9040012D0206880B1FB
:105A50002846314663221AF045F910F0FF0208D0BB
:105A600023682046039998470090BDF80000ADF8E0
:105A70000C00039804B070BD2DE9F047054692B0C4
:105A8000408C1A9C40F00800688490462A8499460D
:105A90008A46228928461AF025F90646A5F820905C
:105AA0002289514628461AF01DF90746688CBE42E5
:105AB00020F00800688403D13104B1EB074F68D0AF
:105AC000A5F820802289514628461AF00BF906468F
:105AD0008046A5F82090514628460CF0C2F921894D
