:020000040800F2
:1000000098DF01205D020008454F0008973800087E
:10001000CD4D0008350C0008096200080000000002
:100020000000000000000000000000009D0100082A
:10003000DD0F000800000000F90100084F5900081A
:1000400077020008770200087702000805540008CC
:10005000770200087702000877020008770200089C
:10006000770200087702000877020008770200088C
:10007000710E00087D0E000877020008890E000846
:10008000770200087702000877020008770200086C
:100090007702000877020008770200084D10000878
:1000A000770200087702000877020008770200084C
:1000B00077020008770200081D5A0008770200083E
:1000C000770200087702000877020008770200082C
:1000D0009D540008DD61000877020008E96100080E
:1000E0003510000877020008770200087702000840
:1000F00077020008770200087702000877020008FC
:1001000077020008770200087702000877020008EB
:10011000955D000877020008770200087702000862
:1001200077020008770200087702000877020008CB
:1001300077020008770200087702000877020008BB
:1001400077020008770200087702000877020008AB
:10015000770200087702000877020008770200089B
:10016000770200087702000877020008770200088B
:1001700077020008770200087702000800000000FC
:100180007702000877020008DFF80CD000F090FB3F
:10019000004800478771020898DF01202C4B19683E
:1001A0000868B0E8F04F80F30988BFF36F8F4FF015
:1001B000000080F3118870470000000008480068C4
:1001C000006880F308884FF0000080F3148862B65E
:1001D00061B6BFF34F8FBFF36F8F00DF00BF00BF6B
:1001E00008ED00E0DFF80C00016841F470010160E7
:1001F000704700BF88ED00E0EFF30980BFF36F8F19
:10020000134B1A681EF0100F08BF20ED108A20E96A
:10021000F04F106009B44FF0500080F31188BFF325
:100220004F8FBFF36F8F31F08DF84FF0000080F3E8
:10023000118809BC19680868B0E8F04F1EF0100F6B
:1002400008BFB0EC108A80F30988BFF36F8F704746
:10025000E0C30120EFF305807047000006488047A7
:1002600006480047FEE7FEE7FEE7FEE7FEE7FEE79B
:10027000FEE7FEE7FEE7FEE7015A000889010008F5
:100280002DE9F05F0546002092469B4688460646CB
:10029000814640241BE0284641464746224600F05E
:1002A00070FA53465A46C01A914110D31146184667
:1002B000224600F057FA2D1A67EB01084F462246F6
:1002C0000120002100F04EFA17EB00094E41201EDC
:1002D000A4F10104DFDC484631462A464346BDE826
:1002E000F09F40EA01039B0703D009E008C9121FF1
:1002F00008C0042AFAD203E011F8013B00F8013BE0
:10030000521EF9D27047D2B201E000F8012B491E0B
:10031000FBD270470022F6E710B513460A460446A2
:100320001946FFF7F0FF204610BD421C10F8011BD4
:100330000029FBD1801A704710B5002200E0521C42
:10034000835C8C5CA34201D1002BF8D1D8B2E1B21E
:10035000401A10BD30B504460020034600E05B1C87
:10036000934203D2E05CCD5C401BF8D030BD034625
:1003700011F8012B00F8012B002AF9D1184670471B
:100380002DE9FE4F804681EA0300C00F0C46009025
:1003900021F0004123F00045B8EB0200A94105D24D
:1003A0004046214690461C460B46024623F000403C
:1003B000104347D0270DC7F30A00C3F30A51029038
:1003C000401A019040286BDAC3F3130040F4801BFD
:1003D0000098924620B10023D2EB030A63EB0B0B8B
:1003E00001985946C0F14002504600F0BBF906465C
:1003F0000D4650465946019A00F0D3F910EB08001B
:100400006141002487EA115284EAE7731A4340D01D
:10041000009A62B3019A012A4FEA075215DC001BC9
:1004200061EB02014FF0004202EA0752CDE90042BF
:10043000001C41F5801132462B4600F0D3F903B081
:10044000BDE8F08F40462146F9E7001B61EB020151
:10045000001C41F5801300185B412018A2F500171D
:1004600047EB030140EAD570B6196D4111E06D0804
:100470004FEA360645EAC0754FEA0752001B61EBAA
:100480000201001C41F5801149084FEA30000019B3
:10049000514132462B4603B0BDE8F04F00F093B90E
:1004A0000098012240000023D0EB020263EBE073CE
:1004B000009821464FEAE074B8EB000061EB0401BC
:1004C000E9E783F000435BE781F0004158E72DE95D
:1004D000FE4F81EA030404F0004421F0004100943F
:1004E0004FF0000B23F0004350EA01045ED052EAC3
:1004F00003045BD0C3F30A54C1F30A552C44A4F29D
:10050000F3340194A0FB0254C1F3130141F48011B0
:10051000C3F3130343F4801301FB024400FB034EB7
:10052000840A970A44EA815447EA8357A4FB076880
:1005300002958D0A05FB07854FEA932C04FB0C54AA
:100540002705029D4FEA065847EA1637B5EB08051E
:100550006EEB070C870E920E47EA811742EA831270
:10056000A7FB0201B6EB0B0164EB00042B0D43EA81
:100570000C335E1844EB1C50DA465146E7FB02018F
:10058000C5F313044FEA0B3343EA14534FEA043222
:10059000019C43EA0603A4F10C040294009CCDE9FB
:1005A00000B400F01FF903B0BDE8F08F0020014651
:1005B000F9E72DE9F04D81EA030404F0004B21F046
:1005C000004514464FF0000A23F0004150EA0502AE
:1005D00020D054EA01021DD0C5F30A570246C5F3E4
:1005E0001303C1F31300C1F30A5640F4801543F41A
:1005F0008013A7EB0608101BD64608F2FD3873EBF4
:10060000050002D308F1010801E092185B41B8F13E
:10061000000F03DA00200146BDE8F08D00204FF402
:100620008011064684460EE0171B73EB050705D3C1
:10063000121B63EB050306434CEA010C49084FEA21
:10064000300092185B4150EA0107EDD152EA0300F5
:1006500012D082EA040083EA0501084305D0101B8A
:10066000AB4106D20122002306E000224FF00043F6
:1006700002E06FF0010253101AEB06004CEB085138
:1006800010EB0A0041EB0B01BDE8F04D00F09BB808
:100690000EB5C10F80EAE0700844CA07002140F29D
:1006A00033438DE80E000A460B4600F09BF803B07A
:1006B00000BD00F0004230F000400AD0C10D01F54D
:1006C0006071C0F3160042EA0151C20840071143AD
:1006D000704700200146704730B5041E71F10004D8
:1006E00004DB4FF00044404264EB0101141E73F13F
:1006F000000405DB1C464FF00043524263EB040349
:100700008B4208BF824230BD30B5041E71F1000437
:1007100004DB4FF00044404264EB0101141E73F10E
:10072000000405DB1C464FF00043524263EB040318
:10073000994208BF904230BD30B50B4601460020BB
:100740002022012409E021FA02F59D4205D303FA93
:1007500002F5491B04FA02F52844151EA2F1010214
:10076000F1DC30BD202A04DB203A00FA02F100203F
:1007700070479140C2F1200320FA03F319439040DF
:100780007047202A04DB203A21FA02F0002170474A
:1007900021FA02F3D040C2F12002914008431946E9
:1007A0007047202A06DBCB17203A41FA02F043EAD1
:1007B000E07306E041FA02F3D040C2F1200291401A
:1007C00008431946704710B5141E73F1000408DA87
:1007D000401C41F1000192185B411A4301D120F005
:1007E000010010BD2DE9F04D92469B4611B1B1FAC2
:1007F00081F202E0B0FA80F220329046FFF7B2FFB9
:1008000004460F4640EA0A0041EA0B0153465A46A5
:10081000084313D0114653EA010019D0C8F1400231
:100820005046FFF7AEFF05460E4650465946424633
:10083000FFF798FF084305D0012004E02046394621
:10084000BDE8F08D0020054346EAE0762C433743AF
:100850000A986305E40AA0EB08000022FD0A44EAB6
:1008600047540A3002D500200146E9E70105101976
:100870006941DDE9084500196941BDE8F04DA2E78D
:10088000C1F30A52C1F3130140F2FF3341F4801166
:100890009A4202DA00200146704740F233439A42FE
:1008A000A2F2334202DC5242FFF76BBFFFF75ABF9E
:1008B000064C074D06E0E06840F0010394E80700AD
:1008C00098471034AC42F6D3FFF762FCD8E90E0823
:1008D00008EA0E0870B58C1810F8015B15F00703D4
:1008E00001D110F8013B2A1106D110F8012B03E0C9
:1008F00010F8016B01F8016B5B1EF9D12B0705D4D1
:100900000023521E0DD401F8013BFAE710F8013B19
:10091000CB1A921C03E013F8015B01F8015B521E35
:10092000F9D5A142D8D3002070BD0000464910B5CA
:100930004A6822F440324A604A6843681A434A606F
:1009400001684A6822F480724A6001684A68036953
:1009500042EA03224A6001684A6822F040724A6013
:1009600001684A6883681A434A6001688A6822F409
:1009700000628A6001688A68C3681A438A60816A73
:100980006FF07062D14201688A6822F070628A60FA
:1009900001688A680CD0836A1A438A6001688A6891
:1009A00022F040528A6001688A68C36A1A4301E0F3
:1009B00022F040528A6001688A6822F002028A604E
:1009C00001688A68037E42EA43028A6090F8201038
:1009D000002901684A680FD042F400624A60016849
:1009E0004A6822F460424A6001684A68174C436AC8
:1009F00004EB43331A4301E022F400624A600168C9
:100A0000CA6A22F47002CA620168CA6A838B104CF7
:100A100004EB03531A43CA6201688A6822F4007225
:100A20008A6001688A6890F8303042EA43228A601E
:100A300001688A6822F480628A6001688A68406975
:100A400042EA8020886010BD0023014000E0FFFFE3
:100A50000000F0FF08B50A2000F0C1FA0222694642
:100A6000002000F03FF89DF80000552803D19DF8C4
:100A70000100AA2821D055208DF80000AA208DF869
:100A800001000A2000F0ABFA02226946002000F0C3
:100A900065F8002000900A2000F0A1FA02226946C1
:100AA000002000F01FF89DF80000552803D19DF8A4
:100AB0000100AA2801D0012008BD002008BD0000C7
:100AC000064882B0016841F002010160006800F050
:100AD00002000090024802B003F006B8303802402D
:100AE00020C3012070B515460E46044606E0204698
:100AF000641CA4B200F006F806F8010B6D1EADB23E
:100B0000F5D270BD10B50446134803F08CF8200AE6
:100B1000A02101EB4000C1B20F4803F041F80E489C
:100B200003F0BFF8E1B20C4803F03AF80A4803F0CA
:100B3000B8F8094803F077F8A121074803F030F826
:100B4000054803F0AEF8044802F0E8FF0446024806
:100B500003F088F8204610BD20C3012070B514466C
:100B60000D46064606E02978304600F007F8761C68
:100B7000B6B26D1C641EA4B2F5D270BD70B5044649
:100B80000D46124803F04FF8200AA02101EB400067
:100B9000C1B20E4803F004F80C4803F082F8E1B249
:100BA0000A4802F0FDFF094803F07BF82946074890
:100BB00002F0F6FF054803F074F8044803F052F819
:100BC000BDE870400A2000F00ABA000020C30120EE
:100BD000012805D000224FF48051024800F0EFBFF9
:100BE0000122F8E70014024005480068C16841F09E
:100BF0001001C16080220349014802F03ABB0000A5
:100C000080C80120C4CA012080210148FFF782BBAF
:100C1000C4CA01200249002081F834007047000056
:100C200060C001200249012081F8340070470000B3
:100C300060C00120FEE710B50C4603464979601EEE
:100C4000085C2B2806D02D280ED02A2816D02F2855
:100C50001ED026E0187D03EB800010ED020A50ED57
:100C6000010A70EE200A1CE0187D03EB800010EDF5
:100C7000020A50ED010A70EE600A12E0187D03EBE3
:100C8000800010ED020A50ED010A60EE200A08E033
:100C9000187D03EB800010ED020A10ED011AC0EE82
:100CA000010A184604F05CF9184604F059F9B0EE50
:100CB000600A184604F064F92046BDE8104004F0CC
:100CC0001BBE10B500F090F800F0A6F8C0B210BD41
:100CD00000B585B014216846FFF71CFB0820009082
:100CE000002001900290022003906946024800F023
:100CF00071FE05B000BD0000000C024000B585B0DB
:100D000014216846FFF706FB08200090012001909F
:100D10000290022003906946024800F05BFE05B095
:100D200000BD0000000C024070B5002004464006E3
:100D3000050E00F007F8641C2843E4B2082CF6D333
:100D400070BD000070B50024134D04E0641CE4B2D3
:100D5000012000F051F90821284600F023FF08B1D6
:100D6000642CF3D3002404E0641CE4B2012000F0FE
:100D700043F90821284600F015FF08B9642CF3D385
:100D8000282000F039F90821284600F00BFF002840
:100D900000D0012070BD0000000C0240F0B585B00D
:100DA0000E46074600F020F800F036F810B101209A
:100DB00005B0F0BD00246D46FFF7B6FF45F82400EE
:100DC000641CE4B2052CF7D3DDE900010844DDE939
:100DD0000212114408440499884203D100983060FB
:100DE000029838600020E3E710B5FFF787FF094C51
:100DF00000220821204600F0E2FE142000F0EFF867
:100E000001220821204600F0DAFEBDE810401E2035
:100E100000F0F2B8000C024070B50024FFF758FF54
:100E2000124D04E0641CE4B2012000F0E5F8082152
:100E3000284600F0B7FE10B1642CF3D30FE0642C09
:100E40000DD2002404E0641CE4B2012000F0D4F8C8
:100E50000821284600F0A6FE18B1642C04D3012016
:100E600070BD642CEFD3FAE7002070BD000C024087
:100E7000014800F0E9BB000088C90120014800F0EA
:100E8000E3BB0000C8C80120014800F0DDBB000042
:100E900028C9012001681823CAB2103AB2FBF3F244
:100EA000054B6FF30901032A9B5CC36500D9091D3B
:100EB0008165084670470000E8B10C0810B501468E
:100EC00000208B698A6A4FF0C07453B1B3F5005F9C
:100ED00015D072B1012A0CD0022A0AD0032A09D1F6
:100EE00004E01AB1012A06D0022A03D1C96AC90155
:100EF00000D5012010BDC96AA142FAD010BD002A58
:100F0000F7D0012AF2D0022AF3D0032AF3D010BD81
:100F100030B50468256825F4802525600468636081
:100F20008368402B036803D099600068C26030BDBD
:100F30009A600068C16030BD0EB5254E254C002575
:100F40008DF808500123002202A9306827F034FBF5
:100F500068BB60798DF8000094F834008DF80100CA
:100F600002221021684604F0DEFB002201A91A4883
:100F700001F0FEFA03222021684604F0C1FB9DF82F
:100F800000009DF80610884215D0207810B9A1699C
:100F9000002088479DF806008DF800008DF802506B
:100FA0008DF8015003222021684604F0BCFB642028
:100FB00027F0C6FAC4E7606980479DF806108DF8EF
:100FC00000108DF80200000A8DF80100EAE7000029
:100FD00044C0012060C0012030C70120704770B5B7
:100FE000054600244FF47A7603E0304600F004F81A
:100FF000641CAC42F9D370BD30B50C4A00211468B2
:10100000E36A4FF47A725843B0FBF2F5626A606AA1
:101010009042FCD002D9A0EB020202E0A3EB020254
:10102000024411440246A942F1D330BDE8C901206F
:101030007047704710B54FF4805000F0BFFCBDE81A
:1010400010404FF4005000F0B9BC000002490120EC
:101050000870202000F0B2BC0CC0012072B6FEE780
:1010600030B5B3F5804F05D06FF0704140F82210D5
:10107000002030BD8C690B688D6823434C688989DA
:10108000240144EA0524234343EA014150F8223075
:10109000014C23401943E9E70000F0CF10B50A687E
:1010A00050F8223023F0010340F822308B68082BDF
:1010B00023D000224C681C43CB6813430A691C43AD
:1010C00014434A698B691443CA6914430A6A144376
:1010D0004A6A14438A6A1443CA6A14430A6B144363
:1010E000CA6B234309681A43054C50F82130A343C7
:1010F000134340F82130002010BD4022DAE7000001
:101100007FFF0F0030B5D1E9003443EA04138C6847
:101110008D89240244EA054423430C8A094D00EBDF
:10112000820005EB045423430C7D6D0105EB046440
:10113000896923430B43416801F040410B434360FD
:10114000002030BD0000F0FF2DE9F84F89461E4613
:10115000904682460024714203220A9802EB410520
:10116000C8B930E0274608E03B462246494650468B
:10117000CDF8008005F051FA7F1CB742F4DD002D58
:1011800003DA05EB8405AD1D04E0A01B05EB80052B
:101190000A35761E641CB442E4DDBDE8F88F3346A0
:1011A000224649465046CDF8008005F036FA002D1B
:1011B00003DA05EB8405AD1D04E0A01B05EB8005FB
:1011C0000A35761E641CB442E9DDE6E710B5144624
:1011D00002F094FF2046BDE8104003F0BBB80000C9
:1011E00078B50024009490F83C20012A19D00122FF
:1011F00080F83C200A6807250368092A13D9DE68AD
:101200000A3A02EB42029540AE43DE600A788B68F0
:101210000A3A02EB420293400268D5682B43D3603E
:1012200010E0022078BD1E6902EB42029540AE43F9
:101230001E610A788B6802EB4202934002681569CE
:101240002B4313614A681F25072A13D203685E6B7C
:10125000521E02EB82029540AE435E630A8893B24F
:101260000A79521E02EB820293400268556B2B43AF
:10127000536327E003680D2A12D21E6BD21F02EBC4
:1012800082029540AE431E630A8893B20A79D21F48
:1012900002EB820293400268156B2B43136311E04B
:1012A000DE6A0D3A02EB82029540AE43DE620A88A6
:1012B00093B20A790D3A02EB820293400268D56A32
:1012C0002B43D362164B0568144A9D4206D10D6824
:1012D000122D03D1556845F48005556005689D427F
:1012E00018D10B68102B01D0112B13D1536843F484
:1012F00000035360096810290CD10A490A4A096899
:10130000B1FBF2F101EB8101490000E0491E0091BF
:101310000029FBD180F83C40002078BD002301402B
:10132000002001401CC3012040420F000068C06C37
:10133000704770B504004FF0000603D0206C002504
:1013400010B107E0012070BD204600F01DF8656473
:1013500084F83C50206CC00610D4206C20F48850D7
:1013600040F0020020642046FFF7E0FA6564206C3C
:1013700020F0020040F00100206400E0012684F823
:101380003C50304670BD000010B586B004461421B4
:101390006846FEF7BFFF1149206888421CD11048FB
:1013A0000021026842F480720260006800F48070DC
:1013B00005900B481438026842F001020260006890
:1013C00000F001000590102000900320CDE90101FC
:1013D0006946044800F0FEFA06B010BD0020014046
:1013E00044380240000002402DE9F0410446006804
:1013F0000D4681684FF0000749050BD58068C00590
:1014000008D5206C40F02000206484F83C70012056
:10141000BDE8F08100F0D8FB064613E0681C11D04F
:1014200025B100F0D1FB801BA8420BD920680068D1
:10143000800707D4206C40F00400206484F83C70DE
:101440000320E5E7206800688007E7D521686FF092
:1014500012000860206C40F40070206420688168ED
:1014600011F0405F13D1217E89B9C16A11F4700F68
:1014700002D0806840050AD4206C20F4807020647B
:10148000206CC00403D4206C40F0010020640020D4
:10149000BEE7000018B50022009290F83C10012928
:1014A00007D0012180F83C1001688B68DB0702D06F
:1014B00011E0022018BD8B6843F001038B602E49B8
:1014C0002E4B0968B1FBF3F101EB410100E0491E2D
:1014D00000910029FBD101688B68DB0742D0036CC7
:1014E00040F20164A34343F4807303644B685B05DB
:1014F00005D5036C23F4005343F480530364036C59
:10150000DB0404D5436C23F00603436400E042642B
:1015100080F83C201A4A6FF022030B605168006883
:10152000CA06184906D0884224D1816811F0405F6C
:1015300013D01FE08842F8D0134A904203D1D1F86B
:101540000423D206F1D0114A904213D1D1F80413EA
:1015500001F01F011029E8D30CE0816841F08041BF
:10156000816007E0016C41F010010164416C41F0C1
:1015700001014164002018BD1CC3012040420F003E
:1015800000230140002001400021014000220140D1
:101590002DE9F0410446876D00F016FB054694F8EE
:1015A00035000026022806D08020606584F834606B
:1015B0000120BDE8F0812068016821F0160101607A
:1015C0002068416921F080014161206C08B9A06C5C
:1015D00020B12068016821F00801016020680168DD
:1015E00021F0010101600CE000F0EEFA401B05283B
:1015F00007D920206065032084F8350084F8346022
:10160000D7E720680068C007EED194F85C103F204F
:101610008840B860012084F8350084F834600020E8
:10162000C7E790F83510022903D0802141650120D9
:101630007047052180F835100068016821F001012C
:1016400001600020704700002DE9F84304464FF088
:101650000009CDF8009063484FF41651A56D00685D
:10166000B0FBF1F72E6894F85C20082101FA02F033
:1016700030420FD02068026852070BD5026822F072
:101680000402026094F85C008140A960606D40F043
:101690000100606594F85C104FF0010808FA01F051
:1016A000304208D021684969090604D5A860606DF8
:1016B00040F00200606594F85C10042088403042DD
:1016C00008D021680968890704D5A860606D40F0DA
:1016D0000400606594F85C1010208840304218D0F7
:1016E00021680968090714D5A860206801684903C2
:1016F00004D50068000308D5A16C07E00168C9059E
:1017000003D4016821F008010160216C09B1204671
:10171000884794F85C1020208840304231D02168FE
:101720000968C9062DD5A86094F8350005282068F9
:10173000016806D0490347D5006800031DD4616CD9
:101740001CE021F0160101602068416921F0800150
:101750004161206C08B9A06C20B12068016821F0BB
:101760000801016094F85C103F208840A86084F86C
:10177000358084F83490216D1FE0E16B09B120467B
:101780008847606D00282BD0606DC00714D00520FD
:1017900084F835002068016821F00101016000989B
:1017A000401C0090B84203D820680068C007F6D1FA
:1017B00084F8358084F83490E16C002910D001B0B1
:1017C0002046BDE8F04308470168C905D5D4016843
:1017D00021F01001016084F8358084F83490CCE762
:1017E000BDE8F8831CC301202DE9F041044600F058
:1017F000EBF905465CB1022084F83500002684F838
:1018000034602068016821F0010101600DE00120D1
:10181000BDE8F08100F0D8F9401B052805D920204B
:101820006065032084F83500F2E720680068C0078F
:10183000F0D121680A6820480240D4E90103184326
:10184000D4E903352B43184363691843A36918434C
:10185000E3691843236A18431043626A042A03D1D8
:10186000D4E90B231A431043086020684069656A75
:1018700020F0070128460D43012704280CD1A06A57
:101880000543E06A40B12046FFF718FB20B1402035
:10189000606584F83570BAE7206845612046FFF737
:1018A000F9FA94F85C203F2191408160666584F8E4
:1018B00035700020ACE700003F8010F02DE9F041CA
:1018C0000446866D90F83400002501280DD00120D3
:1018D00084F8340094F835700020012F07D084F884
:1018E000340002252846BDE8F0810220FBE70227EC
:1018F00084F8357060652046FFF70AFB94F85C10A9
:101900003F208840B0602068016841F01601016006
:10191000206C20B12068016841F008010160206856
:10192000016841F001010160DCE70000F0B587B01B
:1019300014216846FEF7EEFC1A48016800292FD1F1
:101940000121016018480024016841F00101016093
:101950000068022500F0010005904FF68070CDE987
:10196000000502AA03260C2782E8D00069460F482A
:1019700000F030F84CF23370CDE9000502AA694658
:1019800082E8D0000A4800F025F841F20400CDE9D1
:10199000000502AA694682E8D000064800F01AF85D
:1019A00007B0F0BD04C001203838024000100240EA
:1019B000000C02400018024070470000044910B5B6
:1019C0000A68024202D00860FFF7F6FF10BD00006F
:1019D000143C01402DE9F84FDFF89C910022A9F159
:1019E000040B03274FF00F0C09F1040AABF1040EAE
:1019F00001250B6895402B40AB426ED10C7904F069
:101A00000304012C01D0022C15D18668540007FA7A
:101A100004F826EA0806D1F80C8008FA04F848EA27
:101A20000608C0F808804468AC430D79C5F300157A
:101A30009540254345600C79E443A40708D0C56868
:101A4000540007FA04F6B5438E68A6402E43C660DC
:101A50000C7904F00304022C11D1D40800EB8406A5
:101A6000356A5407E40E0CFA04F825EA0805D1F8A3
:101A7000108008FA04F848EA0508C6F820800568CE
:101A8000540007FA04F6B5430E7906F00306A640A3
:101A90002E4306604C6814F4403F66D0374C2568EE
:101AA00045F480452560246822F0030504F4804451
:101AB0000094334C05EB0408D8F808589407260F17
:101AC0000CFA06F4A5432F4CA04201D1002424E0D7
:101AD0002D4CA04202D101241FE046E02B4CA04235
:101AE00001D1022419E02A4CA04201D1032414E0C0
:101AF000284CA04201D104240FE0274CA04201D180
:101B000005240AE0254CA04201D1062405E0244C1E
:101B1000A04201D1072400E00824B4402C43C8F8B7
:101B20000848D9F800404D464E689C43F60200D55F
:101B30001C432C60DAF8004055464E689C43B602C0
:101B400000D51C432C60DBF800405D464E689C438A
:101B5000B60300D51C432C60DEF8004075464E6885
:101B60009C43F60300D51C432C60521C102AFFF442
:101B70003FAFBDE8F88F0000083C01404438024008
:101B80000030014000000240000402400008024012
:101B9000000C0240001002400014024000180240F5
:101BA000001C02400069084000D0012070474269D3
:101BB00021EA02030A4043EA0241816170470AB107
:101BC000816170470904FBE70148806870470000A5
:101BD00010C3012002488168027811448160704777
:101BE00010C301200B4810B5016841F40071016079
:101BF000016841F480610160016841F48071016015
:101C0000032000F09FF80F2000F006F800F050F8D5
:101C1000002010BD003C024030B505461F4887B08B
:101C20000024016841F004010160006806A900F089
:101C300004000590684600F0EDF90398A8B100F0A3
:101C400009FA40001649174AB0FBF1F11648491E3F
:101C5000026040F2E732C0E90324C0E90114846164
:101C600001F0BAF8040003D015E000F0F3F9E9E759
:101C70000D4801F0DFF804000DD11E2000F034F80B
:101C8000102D07D2002229461E2000F03BF80748FD
:101C9000056000E0012407B0204630BD4038024016
:101CA00040420F0000080040E8C9012014C3012091
:101CB0000C4882B0016841F480410160006800F482
:101CC000804000900748001F016841F0805101608A
:101CD0000068002200F0805000900F21901E02B09A
:101CE00000F010B844380240002809DB00F01F0261
:101CF000012191404009800000F1E020C0F800116E
:101D000070470000F0B40E4B1B68C3F30223C3F10D
:101D10000704042C00D904241D1D072D01D2002323
:101D200000E0DB1E012606FA04F56D1E0D409D4005
:101D30009E40761E164045EA0601F0BC04F057BBF3
:101D40000CED00E0064A00F0070110684FF6FF03B3
:101D5000184040EA01200349084310607047000022
:101D60000CED00E00000FA050C4A136823F00303B1
:101D7000034313600A48026842F00402026001292A
:101D800009D0032901D040BF20BF20BF016821F046
:101D900004010160704730BFF8E7000000700040A8
:101DA00010ED00E02DE9F843044600684FF001090A
:101DB000C1074FF0000501D1400726D5DFF80C819F
:101DC000C8F86850FFF700FF0646414F04E0FFF7F0
:101DD000FBFE801B022857D838680001F7D46068E2
:101DE000217A800140EA0170394984310860C8F8DD
:101DF0006890FFF7E9FE064604E0FFF7E5FE801B6A
:101E0000022841D838680001F7D52078800752D5DC
:101E10002F484030016841F08051016000682D4F2B
:101E200000F080500090386840F480703860FFF710
:101E3000CBFE064604E0FFF7C7FE801B022823D82E
:101E40003868C005F7D5224E7036306810F44070FF
:101E500020D0A18901F4407181421BD030681E4915
:101E600020F44070C1F800900D6030603068C00709
:101E700010D0FFF7A9FE054641F2883707E0FFF7CB
:101E8000A3FE401BB84202D90320BDE8F8833068A6
:101E90008007F4D5E0680E49C0F301220831032A17
:101EA0000BD0086820F4F81008603068A189C1F3ED
:101EB0000B01084330600020E7E70A68074B22F473
:101EC000F812184002430A60EFE7000000004742A2
:101ED0000038024000700040400E4742FFFCFF0FF8
:101EE0002DE9F0470D46040065D0DFF81491D9F8CC
:101EF0000000EFB200F00700A84207D289F8007096
:101F0000D9F8000000F00700A84254D120683D4EE7
:101F1000810712D5400703D5306840F4E0503060A7
:101F20002078000703D5306840F4604030603068A6
:101F3000A16820F0F000084330602078C0072DD061
:101F4000304960680839012812D0022813D00328CC
:101F500011D00968890700292DDA316821F00301C1
:101F600001433160FFF730FE804641F2883A0EE0CF
:101F700009688903EFE709688901ECE7FFF724FEA8
:101F8000A0EB0801514502D90320BDE8F087306875
:101F9000616800F00C00B0EB810FEFD1D9F80010B0
:101FA000484601F00701A94207D90770006800F010
:101FB0000700A84201D00120E7E72078400705D5B7
:101FC0003068E16820F4E050084330602078000772
:101FD00006D53068216920F4604040EAC1003060D5
:101FE00000F058F83168084AC1F30311515CC84049
:101FF0000649086006480068FFF70EFE0020C4E7A7
:10200000003C024008380240F0B10C081CC301201B
:1020100014C301200F2202600C4A136803F003036B
:102020004360136803F0F0038360136803F4E05324
:10203000C36012684FF4E05303EAD202026104481D
:10204000006800F007000860704700000838024090
:10205000003C02400448054900680968044AC1F38D
:102060008221515CC84070471CC3012008380240DF
:1020700000B20C080448054900680968044AC1F325
:102080004231515CC84070471CC3012008380240EF
:1020900000B20C08154810B5006810F00C01144887
:1020A00013D0431004290FD008290ED10F4C241F40
:1020B000216801F03F022168490207D52068C0F37A
:1020C0008810A0FB030106E0184610BD2168C1F38B
:1020D0008811A1FB00010023FEF7D2F82168C1F3AB
:1020E0000141491C4900B0FBF1F010BD0838024025
:1020F0000024F4002DE9F84F040075D02078DFF8B3
:1021000038A3C007AAF1040548D00AF10400016809
:10211000C1F38101012908D00068C0F381000228C1
:102120000AD1DAF80000400206D52868800335D5C8
:1021300060680028E1D031E06068B0F5803F10D0E1
:10214000B0F5A02F286810D020F4803028602868CF
:1021500020F4802028606068A0B1FFF735FD0646B6
:102160000CE0286840F48030F4E740F480202860D8
:10217000F7E7FFF729FD801B642871D828688003E2
:10218000F7D50BE0FFF720FD064604E0FFF71CFD46
:10219000801B6428F1D828688003F7D42078DFF802
:1021A0009C9280074FF0000B3DD5A348001D0168AD
:1021B00011F00C0F08D00068C0F3810002280AD18A
:1021C000DAF80000400206D42868800715D5E068D8
:1021D000012809D111E0E068B8B10120C9F8000078
:1021E000FFF7F2FC064605E022E1FFF7EDFC801B5D
:1021F0000228C2D828688007F7D52868216920F00E
:10220000F80040EAC10028600DE0C9F800B0FFF70F
:10221000DBFC064604E0FFF7D7FC801B02281FD832
:1022200028688007F7D42078000722D5824F844899
:102230006169703771B101210160FFF7C5FC064685
:1022400004E0FFF7C1FC801B022809D8386880072A
:10225000F7D50EE0C0F800B0FFF7B6FC064605E083
:1022600082E0FFF7B1FC801B02287DD83868800728
:10227000F7D42078400765D56F484FF000083C3010
:102280000068C0000BD46C483C30016841F08051BC
:10229000016000684FF0010800F080500090694F25
:1022A0003868C0050FD4386840F480703860FFF794
:1022B0008BFC064604E0FFF787FC801B022853D8FE
:1022C0003868C005F7D55C4FA0686C3701280FD07F
:1022D0000528386810D020F001003860386820F0F8
:1022E00004003860A068B0B1FFF76EFC06460EE04F
:1022F000386840F00100F4E740F004003860F7E788
:10230000FFF762FC811B41F28830814263D8386854
:102310008007F5D50DE0FFF757FC064606E0FFF70E
:1023200053FC811B41F28830814254D838688007C1
:10233000F5D4B8F1000F05D03F483C30016821F0DA
:1023400080510160A069B8B33B49091D0968C1F318
:102350008101022946D00228584606D0C9F86000FB
:10236000FFF732FC044639E035E04F46C9F860001B
:10237000FFF72AFC064604E0FFF726FC801B022834
:1023800029D828688001F7D4D4E907010843A16A55
:102390002D4A490802EB0141626A41EA8211084371
:1023A00094F82C1040EA0161CAF800100120386648
:1023B000FFF70AFC044605E03CE0FFF705FC001BC4
:1023C000022808D828688001F7D533E0FFF7FCFB26
:1023D000001B022802D90320BDE8F88F286880017D
:1023E000F4D427E00128F7D0DAF80000E26900F41D
:1023F000800191421CD1226A00F03F01914217D125
:1024000047F6C071626A0140B1EB821F10D1A26A27
:102410004FF0FF3300F4403103EB5202B1EB024FB7
:1024200006D194F82C1000F07060B0EB016F01D071
:102430000120D1E70020CFE70438024000004742E6
:10244000800E4742007000400000FFFF2DE9F84376
:10245000894638494FF4FA484FF47A730E68B6FB50
:10246000F8F159430091017F01295AD001270777DC
:10247000022141770368CA215962036853215962D6
:1024800001688B684FF000045B054FF0FF054FF0CB
:10249000030C06D5009B5B1E009344D0CB685B0702
:1024A000F8D48B6823F480638B600168CB6803F0F9
:1024B000800363F49063CB60B6FBF8F14FF47A735A
:1024C000594300910168009B5B1E00932BD0CB68A1
:1024D0005B07F8D58B6823F007038B6001688B6876
:1024E00013438B600268C2F8149013490A6842F4DF
:1024F00080020A60104908310A6842F480020A60CA
:1025000001688A6842F480428A6001688A6842F4FD
:1025100080628A6001684D62477704770020BDE8D9
:10252000F8830220FBE74D6280F81DC0047703208A
:10253000F5E700001CC30120003C0140704700008B
:1025400010B50A4904464FF4800008602168C86845
:10255000400508D5C86800F0800060F49060C8604D
:102560002046FFF7EBFF0120607710BD143C0140CF
:1025700010B500680B4641680D480140080CD87042
:10258000C1F304245C7001F03F049C70C1F342313C
:10259000197052B902F0B4FED870587802F0B0FE4B
:1025A0005870987802F0ACFE9870002010BD0000C2
:1025B0003FFFFF0010B50B460168896A596001684A
:1025C0000969C1F30E019960006801680D48014076
:1025D000C1F305401870C1F306245C7001F07F045C
:1025E0009C70890DD97052B902F08AFE1870587823
:1025F00002F086FE5870987802F082FE98700020F3
:1026000010BD00007F7F7F0010B5040002D0607F06
:1026100010B106E0012010BD00202077204600F018
:1026200041F8022060772068C168C943C90632D5E5
:10263000CA214162216853204862204602F074FE9C
:1026400020BB20688168164A11408160206881683B
:1026500062681143D4E904231A431143816021685D
:10266000E068086120680169228941EA024101614C
:10267000204602F07CFE48B921680A6C22F48022D0
:102680000A6421680A6CA3691A430A642268FF215C
:10269000516208B110BD00200121617710BD00001A
:1026A000BFFF8FFF1FB5002100910191029103919F
:1026B00000680C49884214D102200090C0010390A8
:1026C0006846FFF76FFB08B1FEF7C8FC064901201A
:1026D0000860002205210320FFF714FB0320FFF709
:1026E00003FB1FBD002800403C0E474270B5044666
:1026F000007F0B46012819D001262677022060773B
:10270000B2B19878D97840EA014558781978000232
:1027100040EA413005432168CA20486221685320BD
:102720004862204602F000FED0B122E0022070BDD7
:102730005878C10603D500F0EF000A305870D878F9
:1027400002F0E7FD0204587802F0E3FD42EA0022BD
:10275000987802F0DEFD0243187842EA4035DAE765
:102760000748054020684560204602F000FE00B999
:1027700066772268FF2151620021217770BD000039
:102780003FFFFF002DE9F0410446007F0D46012880
:1027900023D04FF0010884F81C8002206077206865
:1027A000002780684FEA4060D2B1002800DBEF705C
:1027B000A878297840EA01466878E978000240EA7A
:1027C000815006432168CA2048622168532048622C
:1027D000204602F0A9FDB8B12CE00220BDE8F0814E
:1027E000002800DBEF70287802F093FD020468787F
:1027F00002F08FFD42EA0022A87802F08AFD02432F
:10280000E87842EA8056DDE70D4806402068066019
:102810002068816821F480218160D5E9031001439B
:102820002068826811438160204602F0A0FD08B94B
:1028300084F81D802268FF2151622777CEE70000CF
:102840007F7F7F0070B505460A482968C860FFF79A
:10285000BBF904464FF47A7606E0FFF7B5F9001BA2
:10286000B04201D9032070BD2868C0688006F4D545
:10287000002070BD5F7F01007047000038B501681F
:1028800004464A688868C043430606D5C30704D196
:10289000D3435B0601D4216C05E0830708D4D343FE
:1028A0001B0605D4616C01B02046BDE830400847E6
:1028B000830603D5430601D5C30551D4D3439B06F4
:1028C0004ED443060AD494F85130032B49D0636D9B
:1028D00043F004036365CB688B680093830609D4D7
:1028E000636D43F0010363658B6800930B6823F00D
:1028F00040030B60C00506D4606D40F008006065C1
:10290000206880680090606D002829D020684168A8
:1029100021F0E0014160012084F85100900701D4CA
:10292000D00722D02068416821F003014160114D99
:10293000E06C40B10565E06CFEF773FE18B1606DA8
:1029400040F040006065A06C002809D00565A06CCF
:10295000FEF767FE002803D0606D40F04000606520
:1029600038BDC8688868009038BD2046FFF784FFEE
:1029700038BD0000CD54000870B5040009D0606A6D
:10298000002540B125616561A56294F8510040B110
:102990000CE0012070BD6068B0F5827FF4D0E56185
:1029A000F2E784F85050204600F044F8022084F802
:1029B00051002068016821F040010160A088218950
:1029C00000F4827001F404410843A18901F400611C
:1029D0000843217C01F002010843217D01F001013F
:1029E0000843218B01F400710843217F01F0380175
:1029F000084394F8201001F080010843218D01F470
:102A00000051084321680860A069042101EA1040D0
:102A100094F8241001F010010843216848602068F0
:102A2000C16921F40061C1616565012084F851002C
:102A3000002070BDF0B587B0044614216846FDF74C
:102A400069FC2049206888423AD11F480025016866
:102A500041F480410160006800F4804005901A480C
:102A60001038016841F004010160016801F00401BF
:102A70000591016841F0020101600068022600F042
:102A8000020005900C20CDE90006032705240295DD
:102A9000CDE9037469460D48FEF79CFF3003CDE98C
:102AA00000060295CDE9037469460948FEF792FFD6
:102AB000002205212420FFF725F92420FFF714F92F
:102AC00007B0F0BD00380040403802400008024026
:102AD000000402402DE9FF4F81B01F469346044693
:102AE00001250E9EFFF770F8804694F8510061684A
:102AF000012806D0B1F5827F3CD1A168C9BB04286A
:102B000038D10298002870D0BBF1000FFBD0002F05
:102B1000F9D094F8500001282CD04FF0010A84F825
:102B200050A094F85100042802D0052084F85100E8
:102B30004FF00009C4F85490C4F838B0E787A7876D
:102B400002992163E786A786C4F84090C4F84490B0
:102B500020680168490603D4016841F04001016022
:102B6000E068B0F5006F606808D0E8B3012F47D087
:102B70007DE0FFE7022005B0BDE8F08F08B1012F2E
:102B800037D1206B21680088C860206B801C2063CF
:102B9000E08E401EE0862CE02068816889070DD514
:102BA000E18E59B1012D09D1216B0988C160206BDB
:102BB000801C2063E08E401EE0860025206881682E
:102BC000C9070BD0E18F49B1C068A16B0880A06B29
:102BD000801CA063E08F401EE0870125FEF7F4FF14
:102BE000A0EB0800B04201E00AE064E001D3701CF1
:102BF0004ED1E08E0028CFD1E08F0028CCD13CE030
:102C0000206B216800780873206B401C2063E08EE5
:102C1000401EE0862BE02068816889070DD5E18E93
:102C200059B1012D09D1216B09780173206B401C2A
:102C30002063E08E401EE086002520688168C90779
:102C40000BD0E18F49B1C068A16B0870A06B401C2C
:102C5000A063E08F401EE0870125FEF7B5FFA0EBE3
:102C60000800B04202D3701C01D011E086B1E08EA2
:102C70000028D0D1E08F0028CDD1424631462046F1
:102C800002F02CFC50B12020606584F8509012E0D6
:102C900084F851A084F8509003206CE7A06818B91C
:102CA0002068C1688068009084F851A084F8509032
:102CB000606D0028F1D001205DE770B515460E4625
:102CC000040003D094F8490010B107E0012070BD62
:102CD000002084F84800204600F01DF804F10801A7
:102CE0002068FEF7DBF93146A2682068FEF70AFA91
:102CF000D4E901022946236BFEF7B2F9A1682068E6
:102D000050F8212042F0010240F82120012084F8EF
:102D10004900002070BDFEF709BE10B5401EB0F19D
:102D2000807F01D3012010BD4FF0E02460610F21AE
:102D3000601703F05CFB0020A061072020610020E9
:102D400010BD70477047000070B590F83C20012A14
:102D500032D0012580F83C50022280F83D200268E4
:102D60005368946823F070060B6833435360134B29
:102D700002689A4214D0B2F1804F11D0104B9A429F
:102D80000ED0104B9A420BD00F4B9A4208D00F4BEB
:102D90009A4205D00E4B9A4202D00E4B9A4204D171
:102DA000496824F080031943916080F83D50002168
:102DB00080F83C10084670BD022070BD0000014044
:102DC0000004004000080040000C004000040140E6
:102DD000004001400018004010B5040003D094F8F2
:102DE0003D0010B107E0012010BD002084F83C0038
:102DF000204600F01EF8022084F83D00211D2068C6
:102E000002F012FE012084F8460084F83E0084F8A7
:102E10003F0084F8400084F8410084F8420084F8C0
:102E2000430084F8440084F8450084F83D00002005
:102E300010BD704790F83D10012901D00120704766
:102E4000022180F83D100168CA6842F00102CA60A0
:102E500000681149884214D0B0F1804F11D00F4959
:102E600088420ED00E4988420BD00E49884208D0C5
:102E70000D49884205D00D49884202D00C4988424C
:102E800004D1816801F00701062903D0016841F0EF
:102E90000101016000207047000001400004004073
:102EA00000080040000C00400004014000400140C8
:102EB0000018004070472DE9F04104460068C668DC
:102EC00005694FF00007A90713D5B10711D5F91E01
:102ED000016101202077206880698007204602D0A8
:102EE000FFF7E8FF04E000F0A7F8204600F04CF9F7
:102EF0002777680716D5700714D521686FF004008E
:102F00000861022020772068806910F4407F204605
:102F100002D0FFF7CFFF04E000F08EF8204600F06B
:102F200033F92777280715D5300713D521686FF0B7
:102F300008000861042020772068C06980072046C7
:102F400002D0FFF7B7FF04E000F076F8204600F06B
:102F50001BF92777E80616D5F00614D521686FF01F
:102F600010000861082020772068C06910F4407FB5
:102F7000204602D0FFF79EFF04E000F05DF82046F7
:102F800000F002F92777E80708D0F00706D021689B
:102F90006FF001000861204600F060F9280608D5AE
:102FA000300606D521686FF0800008612046FFF7E3
:102FB000C8FE680608D5700606D521686FF0400087
:102FC0000861204600F054F9A8060AD5B00608D5D5
:102FD00021686FF0200008612046BDE8F041FFF74E
:102FE000B1BEBDE8F081000010B586B004461421E2
:102FF0006846FDF78FF90D492068884214D10C48C6
:103000000021026842F004020260006800F004003F
:103010000590802000900220CDE90101CDE9031048
:1030200069460448FEF7D6FC06B010BD0004004017
:103030003038024000080240704770B5044690F8EE
:103040003C0000260D4601280FD0012084F83C00EA
:103050006AB1042A1DD0082A2FD00C2A3FD001269D
:10306000002084F83C00304670BD022070BD20680E
:1030700002F054FD2068816941F0080181612068F7
:10308000816921F004018161206881692A69114305
:1030900011E0206802F072FD2068816941F400614E
:1030A00081612068816921F4806181612068816982
:1030B0002A6941EA02218161D2E7206802F094FD89
:1030C0002068C16941F00801C1612068C16921F02F
:1030D0000401C1612068C1692A69114311E02068B7
:1030E00002F0B6FD2068C16941F40061C161206849
:1030F000C16921F48061C1612068C1692A6941EA1E
:103100000221C161ACE710B5040003D094F83D0082
:1031100010B107E0012010BD002084F83C002046DB
:1031200000F01EF8022084F83D00211D206802F006
:103130007BFC012084F8460084F83E0084F83F00C0
:1031400084F8400084F8410084F8420084F8430089
:1031500084F8440084F8450084F83D00002010BD48
:1031600008B500680649884208D10648016841F060
:1031700002010160006800F00200009008BD00003C
:1031800000040040403802407047000010B504467B
:1031900049B104290AD008290BD094F8410001282C
:1031A0000AD0012010BD94F83E00F8E794F83F00E3
:1031B000F5E794F84000F2E70220B1B3042938D0D3
:1031C000082939D084F841000122206802F098FCD7
:1031D0001B4920681B4A884201D0904203D1436CAE
:1031E00043F4004343642068884213D0B0F1804F19
:1031F00010D0154988420DD0144988420AD014498C
:10320000884207D0904205D01249884202D0124924
:10321000884204D1816801F00701062903D00168C2
:1032200041F001010160002010BDFFE784F83E007D
:10323000CAE784F83F00C7E784F84000C4E700000D
:10324000000001400004014000040040000800406C
:10325000000C004000400140001800400068034995
:10326000884201D1FEF7B6BC70470000000800405C
:10327000704738B5044690F84200202801D002205B
:1032800038BD51B14AB1012020630020606320465F
:1032900002F022FF010002D005E0012038BD206BC2
:1032A000012802D00121084638BD20680268406824
:1032B000009020680C3050E8002F42F0100240E8E7
:1032C0000023002BF5D1EEE700680549884205D1BF
:1032D000044901200870044800F008B87047000055
:1032E00000480040D9C3012080C8012010B5044621
:1032F0000068406994F84110C0F3C010212911D131
:1033000080B12068143050E8001F21F0800140E8AF
:103310000012002AF5D1A06B08B1FEF739F920465A
:1033200002F0E4FD2068406994F84210C0F3801078
:10333000222911D180B12068143050E8001F21F0FB
:10334000400140E80012002AF5D1E06B08B1FEF719
:103350001FF9204602F0A3FD002010BD70470000B9
:10336000F8B5016804460868CA684B6910F00F0F89
:103370004FF0000559D003F0010602F4907737436F
:1033800065D0C10705D0D10503D5616C41F00101BD
:103390006164410705D5D90703D0616C41F0020192
:1033A0006164810705D5D90703D0616C41F0040140
:1033B0006164010707D502F02001314303D0616C3D
:1033C00041F008016164616C00293AD0800604D59F
:1033D000900602D5204602F097FD20684069616C96
:1033E000C0F38010090700D460B3204602F057FDF7
:1033F00020684069400621D52068143050E8001F3D
:1034000021F0400140E80012002AF5D1E06BA8B19C
:103410006E490165E06BFEF704F9002811D0E06BFE
:10342000016D01B0BDE8F040084783060FD5930653
:103430000DD52046BDE8F84002F066BD2046FFF7F6
:103440008DFFF8BD2046FFF789FF6564F8BD266B48
:103450002023012E7DD1C6067BD5D60679D50868F6
:103460004868009048694FF00206400641D5E16B7C
:10347000086840680004000CE8D0A28D8242E5D9BB
:10348000E085C869B0F5807F2DD020680C3050E809
:10349000001F21F4807140E80012002AF5D1206855
:1034A000143050E8001F21F0010140E80012002A0A
:1034B000F5D12068143050E8001F21F0400140E8A9
:1034C0000012002AF5D184F84230256320680C30C0
:1034D00050E8001F21F0100140E80012002AF5D149
:1034E000E06BFEF755F86663A08DE18D401A81B25E
:1034F0002AE0A08DE18D401A81B2E08D0028A5D090
:103500000029A3D020680C3050E8002F22F49072DC
:1035100040E80027002FF5D12068143050E8002F34
:1035200022F0010240E80027002FF5D184F8423054
:10353000256320680C3050E8002F22F0100240E88C
:103540000023002BF5D166632046FFF7BDFEF8BDD2
:10355000FFE705062BD5150629D594F8410021284B
:10356000F5D1A068B0F5805F01D12069B0B1206AC3
:10357000411C2162216800784860E08C401E0004F4
:10358000000CE084E3D12068C16821F08001C160B3
:103590002068C16841F04001C160D8E7206A008816
:1035A000C0F308004860206A801C2062E5E74006FE
:1035B000CDD55006CBD5CA68204622F04002CA605D
:1035C00084F8413000F066F9C1E70000A15D000811
:1035D00070B5040004D094F84100002510B106E055
:1035E000012070BD84F84050204600F023F82420CC
:1035F00084F841002068C16821F40051C160204670
:1036000002F0E4FC2068016921F490410161206826
:10361000416921F02A0141612068C16841F40051EB
:10362000C1606564202084F8410084F8420065632D
:10363000002070BD2DE9F04786B00446142168468D
:10364000FCF768FE6349DFF888C102232068614EF9
:1036500010390322DFF880A100259F064FF480690E
:1036600060454CD1306840F400203060306800F490
:1036700000200590086840F001000860086869466D
:1036800000F0010005908DE82C000820CDE9032012
:103690005046FEF79FF9524E5048B8463060C6E992
:1036A0000175C6E903597561B561F56135624F462B
:1036B00030467562FEF798F808B1FDF7CFFCE66377
:1036C000B463474E454860363030E6E80208402093
:1036D000A1C6434846F814596030B561F5613562BA
:1036E0007562FEF781F808B1FDF7B8FCA663002209
:1036F00005213420B463FEF705FB342027E0DFF812
:10370000E4804FF0070C404526D13248001D046884
:1037100044F010040460006800F010000590086890
:1037200040F0010008600868694600F0010005905B
:103730004FF4C0608DE82900CDE9032C5046FEF718
:1037400049F9002205212520FEF7DCFA2520FEF7A5
:10375000CBFA06B0BDE8F087DFF88C804045F8D1A1
:10376000306840F480203060306800F4802005909C
:10377000086840F0020008600868694600F002002E
:1037800005904FF440608DE82900CDE9032C1748DF
:10379000FEF720F9124E1148C03618383060C6E9DD
:1037A0000175C6E9035980157561C6E90650356291
:1037B00030467562FEF718F808B1FDF74FFCE66376
:1037C000002205212720B463FEF79CFA2720BEE7DC
:1037D000004C00404038024000000240406002407F
:1037E000C8C8012000100140004800400004024009
:1037F000704770472DE9F843044690F841001F4692
:1038000015460E46202802D00220BDE8F8838EB16E
:1038100085B100206064212084F84100FEF7D4F9CE
:10382000A5848146E584A0684FF02008B0F5805F4C
:1038300002D003E00120E8E7206910B135460026F8
:103840000EE000250CE08021204602F08FFCA0B99C
:10385000BDB115F8010B21684860E08C401EE08482
:10386000E08C4B464FF0000200970028EBD14FF060
:103870004001204602F07AFC40B184F841800320E8
:10388000C3E736F8020BC0F30800E4E784F8418090
:103890000020BAE77047FEE70EB500265B4D4FF4F7
:1038A0007A7700F05DFD11F0F0FD032408E0641E5E
:1038B000286AE4B2804728776420FDF790FB14B1B2
:1038C000287F0028F3D1032409E0641EE86CE4B2E9
:1038D000804785F848006420FDF78EFB1CB195F801
:1038E00048000028F1D1A86B8047E96B0020884789
:1038F00085F834603846FDF772FB03244FF4967860
:1039000008E0641EA868E4B2804728704046FDF7CE
:1039100066FB14B128780028F3D1FDF7D1F8FDF744
:1039200099F868BB02221021684601F0E9FE9DF873
:10393000000008B1012804D19DF8011019B1012936
:1039400001D06E7100E0687185F83460002201A931
:103950002F48FEF70DFE03222021684601F0D0FE1D
:103960009DF800009DF80610884209D19DF80100DD
:103970009DF8021041EA0020297809B907F07AFA87
:1039800000F0F4FA4FF6E0704FF4A07400210090BC
:103990002346F022084600F0BFFA3846FDF71FFB29
:1039A0004FF6FF70002100902346F022084600F0F9
:1039B000B3FA4FF61F0217A110208DE807009C23D1
:1039C00074228C21542000F041FC4FF4FA60FDF782
:1039D00006FB00F0A9FC052000F0ACFC10480068D4
:1039E00080471AF0BFF820F063FA20F085FA2DF036
:1039F0003FF90CA012F0A8F81448006824F0B2FEB9
:103A00004FF4FA7024F09CFD4BE7000060C00120E9
:103A100030C7012057656C636F6D652100000000A1
:103A200030C30120486172647761726520696E69F4
:103A3000746961746520686173206265656E2063D6
:103A40006F6D706C657465642100000010C001200A
:103A500010B586B001F006FC80681C49884232D15E
:103A60001B48016D03A88847184C9DF81130083C8D
:103A7000A078834204D19DF81000617888420BD071
:103A8000A3709DF81020627012A1684602F07CFCC1
:103A90006946E0681BF092F89DF80E30E0788342AA
:103AA00011D0E37009499DF80C002071103101EB31
:103AB00080000BA150F8042C684602F065FC6946B2
:103AC00020691BF07BF806B010BD000050C101203A
:103AD00060C00120253032643A2530326400000095
:103AE000257320253032640010B586B004461421B9
:103AF0006846FCF70FFC208900900120019002909D
:103B00000220039069462068FDF764FF60890090F9
:103B100069466068FDF75EFF06B010BD2DE9F04113
:103B200006460824002501F085FC14E06806070E0F
:103B30000021304601F06CFC0220FDF75DFA012106
:103B4000304601F065FC0120FDF756FA304601F0E1
:103B500068FC40EA0705641EE4B2E7D20021304663
:103B600001F056FC304601F083FC2846BDE8F081A8
:103B700010B50446002101F072FC0120FDF73CFA6B
:103B80000121204601F044FC0120FDF735FA002117
:103B9000204601F03DFCBDE810400120FDF72CBAA5
:103BA00070B50D460646082418E001F031FC0220ED
:103BB000FDF722FA05F08001304601F050FC0120AB
:103BC000FDF71AFA6806050E0120FDF715FA012126
:103BD000304601F01DFC0120FDF70EFA641EE4B230
:103BE0004FF000013046E0D201F012FCBDE8704019
:103BF0000220FDF701BA10B50446012101F02FFCA7
:103C00000120FDF7F9F90121204601F001FC012016
:103C1000FDF7F2F90021204601F0FAFBBDE8104063
:103C20000220FDF7E9B910B50446012101F017FCA7
:103C30000220FDF7E1F90121204601F0E9FB012016
:103C4000FDF7DAF90021204601F009FC0120FDF71B
:103C5000D3F90021204601F0DBFBBDE81040012034
:103C6000FDF7CAB910B50446002101F0D1FB0220CE
:103C7000FDF7C2F90021204601F0F1FB0120FDF71C
:103C8000BBF90121204601F0C3FB0120FDF7B4F987
:103C90000121204601F0E3FBBDE810400120FDF7C3
:103CA000ABB970B50546052401F0C4FB01212846D7
:103CB00001F0AEFB05E0641EA4B20120FDF79CF903
:103CC00084B1284601F0ADFB0028F4D1284601F06C
:103CD000CFFB0021284601F09BFB0220FDF78CF969
:103CE000002070BD284601F0C3FB2846FFF7BAFF4D
:103CF000012070BD1CB500250F4E104F104C8DF8E3
:103D000000508DF80450012300226946306824F0E9
:103D100053FC10B9052000F00DFB0123002201A97E
:103D2000386824F049FC18B9A580A07800F002FB9F
:103D30000A2024F005FCE6E750C0012048C001201D
:103D400058C001207CB5164C03208DF80000A088D7
:103D50000025401C80B2A0802178884208D11148FB
:103D60008DF804500123002201A9006824F082FC90
:103D7000A088617888420AD101208DF804000346AA
:103D80000948A580002201A9006824F073FC0748B7
:103D9000012300226946006824F06CFC7CBD000011
:103DA00058C0012050C001204CC0012040C001205B
:103DB0000EB500201A4C1B4D8DF800008DF8040044
:103DC0008DF808000126002011F060FB012802D0C8
:103DD000022818D102E08DF800601BE001F042FAE1
:103DE00080681149884212D110488DF8046001237F
:103DF000002201A9006824F03DFC0123002202A951
:103E0000286824F037FC012024F09AFBDBE702202D
:103E10008DF800000123002269462068EBE70000CE
:103E200038C0012048C0012050C101203CC0012001
:103E300030B505460A480488408821464443491E57
:103E4000401E8AB283B20021084600F05BF90021CF
:103E5000044801E00580491CA142FBD330BD0000AD
:103E6000A4CA01200020006C2DE9FE4F0026A2EB21
:103E7000000882465F1A701E35468946B8F1000F69
:103E800002DD4FF0010102E003D14FF0000101918A
:103E900002E0C8F100080190002F02DD4FF00100A0
:103EA00002E003D14FF00000009002E0C7F10007EC
:103EB00000904046B84501DD044600E03C46601CE9
:103EC0004FF0000B029015E01FFA89F11FFA8AF0FB
:103ED00000F016F846443D44A64202DD0199361B27
:103EE0008A44A54202DD00992D1B89440BF1010093
:103EF0001FFA80FB02998B45E6DDBDE8FE8F0000CE
:103F000000B500F0FBF8024802490088088000BDB7
:103F10002CC301200020006C2DE9F041141A641C10
:103F2000A6B25C1A641CA7B2DDF8188000F0EAF8AB
:103F300000250AE0002404E0404600F00BFA641C6F
:103F4000A4B2B442F8D36D1CADB2BD42F2D3064860
:103F500041880088491EBDE8F041401E8BB282B204
:103F60000021084600F0CEB8A4CA012010B5642094
:103F7000FDF735F85F4CCF2020800021A01C018088
:103F8000C921018030210180ED212180642101803F
:103F9000032101801221018081210180E8212180FB
:103FA00085210180102101807A210180CB2121808F
:103FB000392101802C2101800021018034210180E0
:103FC00002210180F721218020210180EA21218026
:103FD000002101800180C02121801B210180C1219D
:103FE000218000210180C5212180302101800180B4
:103FF000C7212180B721018036212180082101803D
:104000003A21218055210180B121218000210180A8
:104010001A210180B62121800A210180A22101807C
:10402000F2212180002101802621218001210180AF
:10403000E02121800F2101802A2101802821018097
:10404000082101800E210180082101805421018076
:10405000A9210180432101800A2101800F210180D3
:1040600000210180018001800180E1212180002167
:104070000180152101801721018007210180112174
:104080000180062101802B210180562101803C21E5
:10409000018005210180102101800F2101803F2135
:1040A000018001800F2101802B21218000210180CE
:1040B0000180012101803F2101802A2121800021EE
:1040C000018001800180EF21018011202080782073
:1040D000FCF785FF29202080002000F0F5F8012260
:1040E00091020548FDF76BFDBDE810404FF6FF70EB
:1040F000FFF79EBEFE1F006C001402400B460246F6
:10410000AFF30080F0B40D4E0D4FB4893C80050A2A
:10411000BC1C2580C0B22080100A2080D0B2208034
:10412000F0893880080A2080C8B22080180A2080D0
:10413000D8B22080F0BC00F0B5B80000A4CA0120BD
:10414000FE1F006C2DE9FF4F81B00EAE824696E84F
:104150003100203800F0FF080298DFF8E0B020447A
:10416000401E83B20AEB5400BBF80010401E0091C1
:1041700082B250460299FFF7C5FF4FF000067DBBA3
:104180002F4908EB480001EB800901F2744000EB75
:10419000081817E00C2C03D018F8065000270CE084
:1041A00019F80650FAE7E80701D0039800E00498F0
:1041B00000F0D0F86D087F1CFFB2B7EB540FF2D3BC
:1041C000761CF6B2A642E5D327E00C2C09D01D4898
:1041D00000EB08100025875D029800EB060915E04A
:1041E00019E0174808EB480100EB8100F2E703985B
:1041F000ABF80000F80706D00AEB05001FFA89F1BA
:1042000080B2FFF77DFE7F086D1CEDB2B5EB540F59
:10421000EDD3761CF6B2A642D7D30098ABF80000D7
:1042200009484188008805B0491EBDE8F04F401E8E
:104230008BB282B200210846FFF764BF2CC3012075
:1042400008B20C087CB60C08A4CA01202DE9FE4F68
:10425000044600F0FF0810190D46DDE90C761FFA40
:1042600080FA58191FFA80F94FF0000B13E05445FB
:1042700002D3E91944468DB24D4511D28DE881082B
:104280004FF6FF73294620460E9AFFF75BFF04EBBB
:10429000570084B2761C3078A0F120015E29E6D95F
:1042A000BDE8FE8F0248034900890880704700007E
:1042B000A4CA0120FE1F006C024A1080901C0180DD
:1042C00070470000FE1F006C12492A224FF4A073B1
:1042D0008A812B22CA812C220A812E224A81F02235
:1042E00058B101280DD002280FD0032811D10B801E
:1042F0004A80B8213620FFF7DFBF0A804B800821B3
:10430000F8E70B804A806821F4E70A804B80D821C7
:10431000F0E77047A4CA01200249002009688863B9
:1043200070470000A8C7012004210148FEF72EBFF6
:10433000A8C70120411F5F2909D84FF4967110FBCF
:1043400001F06421B0FBF1F001490968886370470E
:10435000A8C7012001490880704700000020006CB8
:10436000184810B5016886B041F02001016001686D
:1043700001F020010591016841F020010160006811
:10438000114C00F0200005900820009001200190C1
:1043900002900220039069462046FDF71BFB102186
:1043A000009169462046FDF715FB012208212046B1
:1043B000FDF705FC012210212046FDF700FC06B0A8
:1043C00010BD0000303802400014024070B50F4D9F
:1043D00004460A212868FDF707F808B1012070BDDE
:1043E0002868FCF7A3FF00EE100A9FED091A0020D1
:1043F000B8EE400AC0EE010A9FED060A20EE800AE0
:10440000BCEEC00A10EE101A217070BDDCC3012092
:1044100000F07F450000C84208B500200A4C8DF826
:1044200000004FF47A75002014F016FDA84205D262
:1044300000231A466946A06B24F01CF922F0E4F927
:10444000012024F07DF8EEE710C0012070B50C4685
:10445000054600F017F820EA04012846BDE8704040
:1044600000F038B810B5064C012240212046FDF777
:10447000A6FB20460122BDE810401146FDF79FBB78
:104480000008024070B57E2101EA40000A4D40F06C
:104490008004002240212846FDF791FB204601F0D0
:1044A00003F8002001F000F80446012240212846CC
:1044B000FDF785FB204670BD0008024070B50C4634
:1044C0000546FFF7DFFF40EA04012846BDE87040DB
:1044D000AFF3008070B50D467E2101EA4004094E1D
:1044E000002240213046FDF76AFB204600F0DCFF49
:1044F000284600F0D9FF3046BDE870400122402137
:10450000FDF75DBB0008024008B50126DFF860A09A
:10451000184FDFF86480DFF86490194C00254FF4E1
:10452000967B6079F8B100F00FF908B126711AE0B6
:104530002079012816D1257100F094FE816851453B
:1045400009D000F08FFE8068B84204D000F08AFEE7
:104550008168414506D1012300226946D9F800004F
:1045600024F088F82571584623F0EAFFD9E70000C7
:1045700050C101208CC10120C8C201204CC00120C3
:1045800060C00120064882B0016841F0400101602E
:10459000006800F040000090024802B0FFF7A4BAA3
:1045A00030380240A0C301207CB514460D460646B3
:1045B0006B4606223B21682000F048F800280BD10A
:1045C000BDF8001049BA3180BDF8021049BA2980FF
:1045D000BDF8041049BA21807CBD3EB50C460546A5
:1045E00001AA694602A8FFF7DFFFBDF8002012FB11
:1045F00002F0BDF8042012FB020000EE100AB8EE33
:10460000C00A01F0B5FFBDF90800F0EE400A00EE67
:10461000100AB8EEC01A81EE200A01F0F9FEB1EEE0
:10462000400A84ED000ABDF9000000EE100ABDF951
:104630000400F8EEC00A00EE100AB8EEC01A80EED0
:10464000810A01F0E5FE85ED000A3EBD2DE9F0414D
:1046500006461C4615460F462048FFF7E4FA70064A
:10466000010E1E48FFF79CFA1C48FFF71AFB28B101
:104670001A48FFF7F7FA0120BDE8F08139461748DC
:10468000FFF78EFA1548FFF70CFB1448FFF7CBFA3B
:10469000012000EB4600C1B21048FFF781FA0F4835
:1046A000FFF7FFFA0BE00D48012D0FD0FFF736FAA8
:1046B00020700A48FFF75CFA6D1EEDB2641C002DF5
:1046C000F1D10648FFF7CEFA0020D5E7FFF726FA2A
:1046D00020700248FFF78FFAEEE70000A0C3012028
:1046E0002DE9F04107461D4616460C461548FFF7D2
:1046F0009AFA7806010E1348FFF752FA1148FFF7AD
:10470000D0FA80B921460F48FFF74AFA0D48FFF763
:10471000C8FA00240FE0295D0A48FFF741FA09486A
:10472000FFF7BFFA28B10748FFF79CFA0120BDE860
:10473000F081641CE4B2B442EDD30248FFF792FA70
:104740000020F4E7A0C301201CB501A96846FFF7CB
:1047500044FF00984FF07C5188420ADC4FF03F4202
:10476000904206D80198884203DC904201D801208B
:104770001CBD00201CBDFCF747BAFCF729BAFCF7AA
:1047800033BA0000044A0B46127F002A03D10146C7
:104790001846FCF703BB704760C00120FCF791BAD4
:1047A00008B5002000900448007810B9684606F06B
:1047B0000CFB009880B208BD60C0012023F064B8F3
:1047C0000349097809B10020704706F053BB000087
:1047D00060C00120014900204871704760C001207D
:1047E000014901204871704760C0012000F09EBC63
:1047F00010B586B004001FD0002269460F48FDF7AF
:10480000D9FE002205A90D48FDF7B2FE9DF817005C
:10481000E0709DF8151061709DF81620A2701423A9
:104820002CF090FE20709DF8000020719DF8010092
:1048300060719DF80200A07106B010BD30C7012064
:1048400000F0AABD00F0C2BD10B5012901D00229B7
:1048500003D1401E0C31C0B2C9B21A24491C11FB4D
:1048600004F10A24B1FBF4F100EB900000EB93009B
:1048700008441044594200EB4100401E00E0C01DB6
:104880000028FCDB072190FBF1F201FB120000B9CC
:104890000720C0B210BD00007FB500241548009469
:1048A000019402941249039401604FF40031C0E96D
:1048B00001140461047680F820400F49C0E90A140D
:1048C0000125C561C46080F830404561FCF731FDC9
:1048D00008B1FCF7C3FB0420CDE90005694602944A
:1048E0000448FCF77DFC002801D0FCF7B7FB7FBD36
:1048F0000020014098C601200100000F114808B5B2
:10490000016841F4001101600068002200F4001009
:10491000009005210C20FDF7F5F90C20FDF7E4F9D6
:10492000002205210D20FDF7EDF90D20FDF7DCF942
:10493000002205210F20FDF7E5F9BDE808400F2012
:10494000FDF7D2B93038024010B501F05FFC044ADF
:104950000021044823F0C2FE0349086010BD000096
:10496000442103084D57000800C0012010B58EB047
:104970001C216846FBF7CEFC1C2107A8FBF7CAFCEC
:104980001A484FF020411022016019494160062168
:1049900081600021C160C0E904128161C16113021C
:1049A0000162C0E909139302C0E90B1341638163FB
:1049B00041640F203C230090CDE9010303AC112397
:1049C00084E80E0009240691CDE9074009AC0820CF
:1049D00084E80F000D9107AA69460448FEF76DF9B7
:1049E000002801D0FCF73AFB0EB010BDE0C6012054
:1049F000040100A02DE9F04F87B014216846FBF7B1
:104A000089FC6B480025016841F0040101600168E0
:104A100001F004010591016841F020010160016885
:104A200001F020010591016841F0800101600168F9
:104A300001F080010591016841F001010160016808
:104A400001F001010591016841F002010160016876
:104A500001F002010591016841F010010160016857
:104A600001F010010591016841F008010160016841
:104A700001F008010591016841F040010160006802
:104A8000DFF830A100F04000059000224FF4A05163
:104A90005046FDF794F8484F012241213846FDF772
:104AA0008EF8DFF818B1012220215846FDF787F86B
:104AB000DFF80C91012203214846FDF780F800221F
:104AC00008214048FDF77BF801243815CDE90004A2
:104AD0000326CDE9024669465046FCF77BFF41209C
:104AE0004FF002088DE8310169463846FCF772FF45
:104AF0002027CDE90074CDE9024669465846FCF707
:104B000069FFCDE90064CDE9024669464846FCF7F5
:104B100061FF0420CDE90005694602944846FCF790
:104B200059FFE002CDE90005694602945046FCF7C2
:104B300051FF200303958DE8110169465046FCF7AB
:104B400049FF6003CDE90005694650460295FCF730
:104B500041FF300300904FF40410CDE90104694691
:104B60001848FCF737FF4FF488100097CDE901058E
:104B700069461548FCF72EFF08208DE8310069468C
:104B800010480394FCF726FF002205211720FDF7AB
:104B9000B9F81720FDF7A8F8002205212820FDF715
:104BA000B1F82820FDF7A0F807B0BDE8F08F0000AD
:104BB0003038024000140240000802400000024069
:104BC00000040240000C02400018024010B586B0FC
:104BD00014216846FBF79EFB2248002420490594D7
:104BE000C0E900147F218160FF21C0E90314446102
:104BF0008461FDF709FD08B1FCF730FA22208DF839
:104C0000000005208DF801008DF802400394012278
:104C1000694614480494FDF7B5FD08B1FCF71EFA87
:104C200004208DF8140009208DF8150019208DF846
:104C3000160024208DF81700012205A90948FDF768
:104C400055FD08B1FCF70AFA00224FF4FA61054855
:104C5000FDF7FCFB002801D0FCF700FA06B010BD00
:104C60000028004030C70120104810B50E490160EF
:104C70004FF48271416000218160C1604FF4007285
:104C80000161C0E905122822C0E907214162816261
:104C90000A21C162FDF770FE002803D0BDE8104074
:104CA000FCF7DCB910BD00000038004050C70120FF
:104CB00010B58AB0002407941C2168460894FBF7BD
:104CC00029FB1748154901606321C0E901144FF41D
:104CD0009671C0E903148461FEF715FA08B1FCF778
:104CE000BDF9079407A90E480894FEF72DF808B1FE
:104CF000FCF7B4F96020CDE9000402200290042200
:104D0000694604940648FEF798F908B1FCF7A6F93D
:104D10000348FEF769F90AB010BD00000004004026
:104D2000A8C701200C4810B50A4901604FF4E131D1
:104D30004160002181600C22C160C0E904128161E0
:104D4000C161FEF745FC002803D0BDE81040FCF728
:104D500085B910BD004C0040F0C701200C4810B5CB
:104D60000A4901604FF4E1314160002181600C2269
:104D7000C160C0E904128161C161FEF729FC00280D
:104D800003D0BDE81040FCF769B910BD0010014028
:104D900038C801200C4810B50A4901604FF4E131D0
:104DA0004160002181600C22C160C0E90412816170
:104DB000C161FEF70DFC002803D0BDE81040FCF7F0
:104DC0004DB910BD0048004080C80120FEE700003A
:104DD0001FB5374E374C00253078002862D0364852
:104DE00035708DF80C500123002203A9006823F0D0
:104DF00041FC32A13248FBF79FFA50B131A1304853
:104E0000FBF79AFA48B12E48FBF78FFA14282FD0F7
:104E100046E02EA001F0A8FA42E02E4F0022391DF4
:104E20002D48FDF7C7FB002239462B48FDF7A0FBB4
:104E3000A07F3876607F787660887883BA787978D2
:104E400026A010F081FEBB797A79397927A010F07D
:104E50007BFE97F918102BA010F076FE97F9191029
:104E60002CA010F071FE798B2FA010F06DFE17E0D2
:104E700000950195124B6A460020029502E01154FC
:104E8000401CC0B2195C3D29F9D194F8340038B106
:104E900029A11046FBF750FA10B9094800F004FFA9
:104EA000206C80474FF47A7023F04AFB94E70000AF
:104EB000D9C3012060C0012048C001204D57000027
:104EC000C4CA01204D572B53454E44004F4B0D0A89
:104ED0000000000030CA012030C701206461746105
:104EE0003A2532642D253032640D0A0074696D65EF
:104EF0003A253032643A253032643A253032640D36
:104F00000A00000068756D69646974793A25642542
:104F1000250D0A0074656D70657261747572653A6D
:104F200025640D0A000000005374657020746F64DE
:104F300061793A25640D0A004D572B535400000047
:104F400070477047FEE700B5034602E0184600F0E0
:104F500007F8184600F021F80028F7D000BD00003F
:104F6000017D49B100EB8102491E9FED040A0175E4
:104F700082ED000A00207047FF207047000000000B
:104F8000017D042907D000EB8102491C017582EDE7
:104F9000000A00207047FF207047007D08B1002004
:104FA0007047012070472DE9FF4F8246994617460A
:104FB0001046FFF7C8FF484600F092FC0025AB46BC
:104FC0006BF307040121204661F307009AF80010F3
:104FD0006BF3070630390A2903D3012004B0BDE87A
:104FE000F08F4FF00008F2EE041A88E01AF808205B
:104FF0002E2A08D1032161F3070410F0FF0F01D01E
:105000000220EBE72046A2F13003092B40D8397D7E
:10501000052903D899F80520052A01D90320DDE7E1
:1050200000EE103A6BF307046BF30706B8EEC00A04
:1050300010F0FF00F0EE400A02D0032824D01FE059
:105040001DB16D1CEDB228460CE007EB810050ED60
:10505000010A00EEA10AF0EE400A0CE080EEA10A7F
:10506000F0EE400A401EC0B2F8D207EB810010ED0E
:10507000010A70EE800A3846FFF772FFB0EE600A50
:105080003846FFF77DFF37E0C0EE210A0125ECE747
:105090002B2A05D02D2A03D02A2A01D02F2A2CD141
:1050A000397D052903D899F80510052901D904206F
:1050B00094E701210025C0B261F3070462F30706FB
:1050C000012804D0484600F02BFC10B110E0052068
:1050D00084E799F80510A9F10100085C114600F079
:1050E00025FC28B149463846FBF7A5FDF1B200E0A2
:1050F0001146484600F00AFC204608F10108019AD2
:105100009045FFF673AF002068E703211420FFF7F6
:105110009DB910B51420FFF7B5F9800705D103211B
:10512000BDE810401420FFF7C9B910BD10B5FFF756
:1051300099F900F003F8002010BD000010B5204CD4
:10514000012211462046FCF73AFD0220FBF747FFFB
:10515000002201212046FCF732FD0220FBF73FFF31
:10516000012211462046FCF72AFD0220FBF737FFFB
:105170000F210120FFF7AEF90220FBF730FF3D21A0
:105180001120FFF7A7F91E212D20FFF7A3F9002119
:105190002C20FFF79FF98D212A20FFF79BF93E2154
:1051A0002B20FFF797F940211520FFF793F9FFF720
:1051B000ACFF0220FBF713FFBDE81040FFF7A9BFCB
:1051C0000008024038B5124823F03AFB00281DD1F0
:1051D0000F4823F03BFB0E4823F032FB012528B19A
:1051E0000C490B4823F040FB0A4C05E00848017EBF
:1051F00000EB810050F8044C206880470095A068BF
:1052000000236422006809211FF00CF938BD00005A
:1052100064CA01203CC1012038B5114823F010FBBD
:105220000F4C00281BD102E00D4823F00FFB207E1D
:105230000128F9D8C0B204EB800050F8040C0068D3
:10524000804701200090207E002304EB8000642230
:1052500050F8040C0921806800681FF0E3F838BD9D
:1052600064CA01200448017E21B100EB810050F89E
:10527000040C70470020704764CA01200448017E76
:1052800021B100EB810050F8080C704700207047F6
:1052900064CA012038B504460D48027E052A15D29D
:1052A0002AB100EB820050F8040C40688047214688
:1052B000074823F0D9FA2068804701200090A068B1
:1052C00000236422006809211FF0ACF838BD0000FB
:1052D00064CA0120084910B500200876074906482D
:1052E00023F0C2FA054C20688047A0680068BDE83A
:1052F000104013F021BE000064CA01203CC101200F
:10530000010901EB810100F00F0000EB4100C0B288
:105310007047002102E00A38C0B2491C0A28FAD2BC
:10532000090740EA116070472DE9F0410546006821
:105330000024C168490617D4C16841F08001C160EA
:10534000FCF742FC06464FF47A78042706E0FCF7A7
:105350003BFC801B404501D96F7701242868C06859
:10536000400601D4002CF2D02046BDE8F08170B593
:10537000044600680025C16821F08001C1602068F2
:105380008068800606D42046FDF75CFA10B1042040
:1053900060770125284670BD08B5002300938DF87D
:1053A00002208DF801108DF8030014232CF0CAF8A8
:1053B0008DF80000002269460348FDF797F90028A0
:1053C00001D0FBF74BFE08BD30C7012070B586B099
:1053D0000D460446164614216846FAF79BFF8DF8E1
:1053E00000408DF801508DF80260002269460448A3
:1053F000FDF7C8F9002801D0FBF730FE06B070BDFC
:1054000030C701200148FDF79BB8000030C70120DC
:105410004289406811B18169114300E01104816142
:10542000704710B501890068FCF7BCFB012800D06B
:10543000002010BD10B586B0044614216846FAF766
:1054400069FF208900900020019001200290022035
:10545000039069462068FCF7BDFA06B010BD0289CA
:10546000006811B18169114300E011048161704746
:1054700010B586B0044614216846FAF74BFF208920
:1054800000901120019000200290022003906946B4
:105490002068FCF79FFA06B010BD00000148FDF738
:1054A000EDB9000050C7012001B582B00A2000907C
:1054B0000123044A02A90448FDF70CFB01480078C7
:1054C0000EBD000078C3012050C7012010B5806BCD
:1054D0000021C187C186FDF7CFF910BDF8B515468B
:1054E0000E460B46009204460122022100F02CF8E1
:1054F000A0B9134813490068B0FBF1F04FF47A717A
:10550000484300906068B0F5827F0DD13346002299
:1055100080212046009500F017F870B1606D40F0D2
:10552000200060650320F8BD009830B1401E009057
:1055300020688068C0430006F6D50020F8BD000052
:105540001CC3012000366E012DE9F8431E4691462A
:1055500088460446089DFCF737FB401B351AFCF7CC
:1055600033FB074625480068C0F3CB30684338E07A
:10557000701C37D0FCF728FBC01BA84203D215B122
:10558000009860B32CE02068416821F0E0014160A0
:105590006068B0F5827F0BD1A068B0F5004F02D0F3
:1055A000B0F5806F04D12068016821F040010160EE
:1055B000A06AB0F5005F09D12068016821F40051AC
:1055C00001602068016841F400510160012084F805
:1055D0005100002084F850000320BDE8F883002526
:1055E000401E00902068816838EA010004D0002045
:1055F0004845BDD10020F0E70120F9E71CC3012098
:105600001CB50020184C194D194E8DF800008DF86E
:10561000040000231A466946206822F0CDFF88B9AD
:105620009DF80000012802D0022809D00AE0FFF707
:1056300019FE8068A84203D10E48FFF72BFE01E057
:10564000FFF7EAFD00231A4601A9306822F0B4FFF3
:1056500030B99DF80400012802D10748FFF71AFE6F
:105660000A2022F06DFFD4E738C0012050C101208C
:105670003CC0012080C10120F4C101201FB51D4D97
:105680001D4C4FF4FA7600231A4603A9286822F02D
:1056900093FF58BB207810B9606980476080207FF5
:1056A00078B9626A02A901A89047029800F109013D
:1056B0003B2906D20199002903DD642901DAA1778B
:1056C0006077E06A804738B9216B01A8884718B92C
:1056D0009DF8040084F8280003208DF80000074896
:1056E000012300226946006822F0C4FF304622F000
:1056F00027FFC8E740C0012060C0012044C001204E
:1057000070B516460C460546FBF7A4F908B1012012
:1057100070BD0A20FBF763FC324629462046FBF7A2
:10572000E1F9002070BD70B516460C460546FBF742
:1057300091F908B1012070BD0A20FBF750FC3246F8
:1057400029462046FBF70AFA002070BD074D4FF4AA
:1057500000544FF4FA7606A010F0F6F921462846D8
:10576000FCF725FA304622F0EBFEF4E70008024091
:1057700044656661756C74207461736B2069732075
:1057800072756E6E696E67210D0A00001CB50024EB
:10579000DFF8EC90DFF8EC803B4F26463B480023D7
:1057A0001A466946006822F007FF002860D1DFF83A
:1057B000E0B04FF0E02ABE8000224FF48061404606
:1057C000FCF7FDF9FEF7A8FD2BF0B4FDDAF81000A8
:1057D000554620F00200CAF8100001210020FCF715
:1057E000C3FA286940F0020028619BF800104FF4CA
:1057F0007A70B0FBF1F127480068B0FBF1F0FDF7DB
:105800008CFA00F0B1F82CF075FB99F805004D46C4
:1058100058B1FEF799FF0028287904D028B9012053
:105820002871044601E0012826D01B4D4FF4805119
:105830002846FCF7B7F958B14FF400512846FCF759
:10584000B1F928B1E9144046FCF7ACF900B1A4B1B4
:105850000122002491024046FCF7B1F9B878FEF726
:1058600069FD0E480123002201A9006822F002FF11
:10587000642022F065FE91E72E71BE809BE7000058
:1058800060C001200014024058C001204CC001201B
:1058900010C301201CC30120000C024040C00120A5
:1058A00070B514460D460646FAF73FFDC1B22346D1
:1058B0002A463046FFF777FB58B12846FFF743FBEF
:1058C000204600F00DF8FF2070BD21462846FBF76A
:1058D000B2F9204600F024F80028F6D0002070BD70
:1058E00010B5044602E0204600F006F8204600F01D
:1058F00017F80028F7D010BD417929B100234A1EBE
:105900004271435418467047FF2070474279042A79
:1059100004D0531C4371815400207047FF2070470E
:10592000407908B100207047012070472A280CD028
:105930002F280AD02B2804D02D2805D12B2904D0BC
:1059400001E02D2901D0002070470120704710B5DB
:105950004FF0E02000692CF0D7F9012803D0BDE812
:1059600010402BF093BE10BD30B593B03021684687
:10597000FAF7D0FC14210CA8FAF7CCFC1E4800253D
:10598000016841F080510160006800F08050119082
:105990001A48016841F4804101600068022400F463
:1059A000804011900620009001200290039010206A
:1059B000049006940820CDE90750A820CDE90904F9
:1059C00004200B906846FCF795FB08B172B6FEE721
:1059D0000CA90F2081E831004FF4A0500F904FF434
:1059E0008050109005210CA8FCF77AFA002801D00D
:1059F00072B6FEE713B030BD403802400070004080
:105A00000248016841F470010160704788ED00E0D0
:105A100001480068FBF73EBDDCC301200148FDF7EB
:105A20004ABA0000E8C90120F0B50268294D2A4EA3
:105A30002A4FDFF8ACC02B4B4FF0804EA84209D064
:105A4000704507D0B04205D0B84203D0604501D0C0
:105A5000984203D122F070044A682243A8421BD026
:105A6000704519D0B04217D0B84215D0604513D058
:105A7000984211D01C4CA0420ED01C4CA0420BD01E
:105A80001B4CA04208D01B4CA04205D01A4CA0428F
:105A900002D01A4CA04203D122F44074CA682243B7
:105AA0004C6922F08002224302608A68C2620A685E
:105AB0008262A84201D0984201D1096901630121A3
:105AC00041610169C90703D0016921F00101016148
:105AD000F0BD00000000014000040040000800404C
