:020000040800F2
:10000000C00700209D010008F72A00080920000809
:10001000F52A00083D080008D92E0008000000005D
:10002000000000000000000000000000FB2A0008A3
:10003000ED08000800000000F92A0008FD2A000869
:10004000B7010008B7010008B7010008B7010008B0
:10005000B7010008B7010008B7010008B7010008A0
:10006000B7010008B7010008B7010008B701000890
:10007000410800084D0800085908000865080008F4
:10008000B7010008B7010008B7010008B701000870
:10009000B7010008B7010008B7010008B701000860
:1000A000B7010008B7010008B7010008B701000850
:1000B000B7010008B7010008A52B0008B701000828
:1000C000B7010008B7010008B7010008B701000830
:1000D000B7010008C12E0008B7010008CD2E0008A6
:1000E000B7010008B7010008B7010008B701000810
:1000F000B7010008B7010008B7010008B701000800
:10010000B7010008B7010008B7010008B7010008EF
:10011000892C0008B7010008B7010008B7010008E2
:10012000B7010008B7010008B7010008B7010008CF
:10013000B7010008B7010008B7010008B7010008BF
:10014000B7010008B7010008B7010008B7010008AF
:10015000B7010008B7010008B7010008B70100089F
:10016000B7010008B7010008B7010008B70100088F
:10017000B7010008B7010008B7010008000000003F
:10018000B7010008B7010008DFF80CD000F0D0FA82
:1001900000480047CD380008C007002006488047C7
:1001A00006480047FEE7FEE7FEE7FEE7FEE7FEE75C
:1001B000FEE7FEE7FEE7FEE7952B00088901000851
:1001C0002DE9F05F0546002092469B46884606468C
:1001D000814640241BE0284641464746224600F01F
:1001E00008F953465A46C01A914110D31146184691
:1001F000224600F0EFF82D1A67EB01084F46224621
:100200000120002100F0E6F817EB00094E41201E06
:10021000A4F10104DFDC484631462A464346BDE8E6
:10022000F09FD2B201E000F8012B491EFBD27047CB
:100230000022F6E710B513460A4604461946FFF7B2
:10024000F0FF204610BD2DE9F04D81EA030404F0D3
:10025000004B21F0004514464FF0000A23F0004106
:1002600050EA050220D054EA01021DD0C5F30A5716
:100270000246C5F31303C1F31300C1F30A5640F459
:10028000801543F48013A7EB0608101BD64608F22E
:10029000FD3873EB050002D308F1010801E0921864
:1002A0005B41B8F1000F03DA00200146BDE8F08D94
:1002B00000204FF48011064684460EE0171B73EBB6
:1002C000050705D3121B63EB050306434CEA010C3B
:1002D00049084FEA300092185B4150EA0107EDD11E
:1002E00052EA030012D082EA040083EA05010843BF
:1002F00005D0101BAB4106D20122002306E00022EC
:100300004FF0004302E06FF0010253101AEB0600B9
:100310004CEB085110EB0A0041EB0B01BDE8F04D2E
:1003200000F077B80EB5C10F80EAE0700844CA0744
:10033000002140F233438DE80E000A460B4600F0E0
:1003400077F803B000BD000030B5041E71F1000461
:1003500004DB4FF00044404264EB0101141E73F1D2
:10036000000405DB1C464FF00043524263EB0403DC
:100370008B4208BF824230BD30B5041E71F10004CB
:1003800004DB4FF00044404264EB0101141E73F1A2
:10039000000405DB1C464FF00043524263EB0403AC
:1003A000994208BF904230BD30B50B46014600204F
:1003B0002022012409E021FA02F59D4205D303FA27
:1003C00002F5491B04FA02F52844151EA2F10102A8
:1003D000F1DC30BD202A04DB203A00FA02F10020D3
:1003E00070479140C2F1200320FA03F31943904073
:1003F0007047202A04DB203A21FA02F000217047DE
:1004000021FA02F3D040C2F120029140084319467C
:10041000704710B5141E73F1000408DA401C41F156
:10042000000192185B411A4301D120F0010010BD78
:100430002DE9F04D92469B4611B1B1FA81F202E0EE
:10044000B0FA80F220329046FFF7C4FF04460F4610
:1004500040EA0A0041EA0B0153465A46084313D0CA
:10046000114653EA010019D0C8F140025046FFF787
:10047000C0FF05460E46504659464246FFF7AAFFC2
:10048000084305D0012004E020463946BDE8F08D40
:100490000020054346EAE0762C4337430A9863057B
:1004A000E40AA0EB08000022FD0A44EA47540A309F
:1004B00002D500200146E9E7010510196941DDE98F
:1004C000084500196941BDE8F04DA2E72DE9FE4F4E
:1004D000804681EA0300C00F0C46009021F00041E5
:1004E00023F00045B8EB0200A94105D24046214661
:1004F00090461C460B46024623F00040104347D06E
:10050000270DC7F30A00C3F30A510290401A019065
:1005100040286BDAC3F3130040F4801B0098924626
:1005200020B10023D2EB030A63EB0B0B0198594671
:10053000C0F140025046FFF74DFF06460D465046BB
:100540005946019A00F006F910EB080061410024B9
:1005500087EA115284EAE7731A4340D0009A62B3E3
:10056000019A012A4FEA075215DC001B61EB0201D8
:100570004FF0004202EA0752CDE90042001C41F56B
:10058000801132462B46FFF753FF03B0BDE8F08FD2
:1005900040462146F9E7001B61EB0201001C41F5D2
:1005A000801300185B412018A2F5001747EB0301E8
:1005B00040EAD570B6196D4111E06D084FEA360674
:1005C00045EAC0754FEA0752001B61EB0201001CAF
:1005D00041F5801149084FEA300000195141324677
:1005E0002B4603B0BDE8F04FFFF713BF0098012280
:1005F00040000023D0EB020263EBE0730098214639
:100600004FEAE074B8EB000061EB0401E9E783F026
:1006100000435BE781F0004158E72DE9FE4F81EA96
:10062000030404F0004421F0004100944FF0000B5B
:1006300023F0004350EA01045ED052EA03045BD089
:10064000C3F30A54C1F30A552C44A4F2F3340194C1
:10065000A0FB0254C1F3130141F48011C3F313034F
:1006600043F4801301FB024400FB034E840A970A03
:1006700044EA815447EA8357A4FB076802958D0A30
:1006800005FB07854FEA932C04FB0C542705029DBC
:100690004FEA065847EA1637B5EB08056EEB070C2C
:1006A000870E920E47EA811742EA8312A7FB0201E6
:1006B000B6EB0B0164EB00042B0D43EA0C335E1820
:1006C00044EB1C50DA465146E7FB0201C5F3130424
:1006D0004FEA0B3343EA14534FEA0432019C43EAD6
:1006E0000603A4F10C040294009CCDE900B4FFF7CA
:1006F0009FFE03B0BDE8F08F00200146F9E7C1F38B
:100700000A52C1F3130140F2FF3341F480119A42BF
:1007100002DA00200146704740F233439A42A2F2C7
:10072000334202DC5242FFF764BEFFF753BE0000C3
:10073000064C074D06E0E06840F0010394E807002E
:1007400098471034AC42F6D3FFF722FD88590008D1
:10075000A8590008202A06DBCB17203A41FA02F0FC
:1007600043EAE07306E041FA02F3D040C2F120020E
:10077000914008431946704701F072BC70B51546A8
:100780000E46044606E02046641CA4B200F006F8BB
:1007900006F8010B6D1EADB2F5D270BD10B5044662
:1007A00001F012FD200AA02101EB4000C0B201F0CF
:1007B000DBFC01F04FFDE0B201F0D6FC01F04AFD98
:1007C00001F002FDA12001F0CFFC01F043FD00206B
:1007D00001F096FC044601F01DFD204610BD70B5E9
:1007E00014460D46064606E02978304600F007F824
:1007F000761CB6B26D1C641EA4B2F5D270BD70B585
:100800000D46044601F0E0FC200AA02101EB400067
:10081000C0B201F0A9FC01F01DFDE0B201F0A4FCA2
:1008200001F018FD284601F09FFC01F013FD01F0D6
:10083000F1FCBDE870400A2000F059B8FEE7000066
:10084000014800F099B9000004030020014800F0BD
:1008500093B90000E4010020014800F08DB90000C8
:10086000A4020020014800F087B9000044020020E3
:1008700001681823CAB2103AB2FBF3F2054B6FF3CA
:100880000901032A9B5CC36500D9091D81650846DF
:10089000704700003042000810B5014600208B6907
:1008A0008A6A4FF0C07453B1B3F5005F15D072B1CE
:1008B000012A0CD0022A0AD0032A09D104E01AB175
:1008C000012A06D0022A03D1C96AC90100D5012034
:1008D00010BDC96AA142FAD010BD002AF7D0012A82
:1008E000F2D0022AF3D0032AF3D010BD704770B5BE
:1008F000054600244FF47A7603E0304600F004F811
:10090000641CAC42F9D370BD30B50C4A00211468A8
:10091000E36A4FF47A725843B0FBF2F5626A606A98
:100920009042FCD002D9A0EB020202E0A3EB02024B
:10093000024411440246A942F1D330BD64030020B1
:1009400072B6FEE730B5B3F5804F05D06FF0704159
:1009500040F82210002030BD8C690B688D6823435D
:100960004C688989240144EA0524234343EA014170
:1009700050F82230014C23401943E9E70000F0CF42
:1009800010B50A6850F8223023F0010340F82230F5
:100990008B68082B23D000224C681C43CB68134380
:1009A0000A691C4314434A698B691443CA69144396
:1009B0000A6A14434A6A14438A6A1443CA6A14438B
:1009C0000A6B1443CA6B234309681A43054C50F859
:1009D0002130A343134340F82130002010BD4022B2
:1009E000DAE700007FFF0F0030B5D1E9003443EAB9
:1009F00004138C688D89240244EA054423430C8A3D
:100A0000094D00EB820005EB045423430C7D6D017E
:100A100005EB0464896923430B43416801F04041BD
:100A20000B434360002030BD0000F0FF2DE9F84F7C
:100A300089461E46904682460024714203220A9847
:100A400002EB4105C8B930E0274608E03B462246A4
:100A500049465046CDF8008002F073FA7F1CB74239
:100A6000F4DD002D03DA05EB8405AD1D04E0A01BC9
:100A700005EB80050A35761E641CB442E4DDBDE852
:100A8000F88F3346224649465046CDF8008002F0A2
:100A900058FA002D03DA05EB8405AD1D04E0A01B18
:100AA00005EB80050A35761E641CB442E9DDE6E7F5
:100AB00010B5144601F068FD2046BDE8104001F075
:100AC00071BE2DE9F0410446876D00F0C7FA054676
:100AD00094F835000026022806D08020606584F84E
:100AE00034600120BDE8F0812068016821F0160122
:100AF00001602068416921F080014161206C08B9E2
:100B0000A06C20B12068016821F008010160206814
:100B1000016821F0010101600CE000F09FFA401B28
:100B2000052807D920206065032084F8350084F863
:100B30003460D7E720680068C007EED194F85C10F5
:100B40003F208840B860012084F8350084F8346084
:100B50000020C7E790F83510022903D080214165B5
:100B600001207047052180F835100068016821F0E8
:100B700001010160002070472DE9F84304464FF061
:100B80000009CDF8009063484FF41651A56D006838
:100B9000B0FBF1F72E6894F85C20082101FA02F00E
:100BA00030420FD02068026852070BD5026822F04D
:100BB0000402026094F85C008140A960606D40F01E
:100BC0000100606594F85C104FF0010808FA01F02C
:100BD000304208D021684969090604D5A860606DD3
:100BE00040F00200606594F85C10042088403042B8
:100BF00008D021680968890704D5A860606D40F0B5
:100C00000400606594F85C1010208840304218D0D1
:100C100021680968090714D5A8602068016849039C
:100C200004D50068000308D5A16C07E00168C90578
:100C300003D4016821F008010160216C09B120464C
:100C4000884794F85C1020208840304231D02168D9
:100C50000968C9062DD5A86094F8350005282068D4
:100C6000016806D0490347D5006800031DD4616CB4
:100C70001CE021F0160101602068416921F080012B
:100C80004161206C08B9A06C20B12068016821F096
:100C90000801016094F85C103F208840A86084F847
:100CA000358084F83490216D1FE0E16B09B1204656
:100CB0008847606D00282BD0606DC00714D00520D8
:100CC00084F835002068016821F001010160009876
:100CD000401C0090B84203D820680068C007F6D1D5
:100CE00084F8358084F83490E16C002910D001B08C
:100CF0002046BDE8F04308470168C905D5D401681E
:100D000021F01001016084F8358084F83490CCE73C
:100D1000BDE8F883140000202DE9F041044600F0FE
:100D20009DF905465CB1022084F83500002684F860
:100D300034602068016821F0010101600DE00120AC
:100D4000BDE8F08100F08AF9401B052805D9202074
:100D50006065032084F83500F2E720680068C0076A
:100D6000F0D121680A6820480240D4E90103184301
:100D7000D4E903352B43184363691843A369184327
:100D8000E3691843236A18431043626A042A03D1B3
:100D9000D4E90B231A431043086020684069656A50
:100DA00020F0070128460D43012704280CD1A06A32
:100DB0000543E06A40B12046FFF76EFD20B14020B8
:100DC000606584F83570BAE7206845612046FFF712
:100DD0004FFD94F85C203F2191408160666584F866
:100DE00035700020ACE700003F8010F0F0B587B010
:100DF00014216846FFF71CFA1A48016800292FD110
:100E00000121016018480024016841F001010160DE
:100E10000068022500F0010005904FF68070CDE9D2
:100E2000000502AA03260C2782E8D00069460F4875
:100E300000F022F84CF23370CDE9000502AA6946B1
:100E400082E8D0000A4800F017F841F20400CDE92A
:100E5000000502AA694682E8D000064800F00CF8B6
:100E600007B0F0BD000000203838024000100240FA
:100E7000000C0240001802402DE9F84FDFF89C9169
:100E80000022A9F1040B03274FF00F0C09F1040A0B
:100E9000ABF1040E01250B6895402B40AB426ED19F
:100EA0000C7904F00304012C01D0022C15D18668C2
:100EB000540007FA04F826EA0806D1F80C8008FA6C
:100EC00004F848EA0608C0F808804468AC430D7985
:100ED000C5F300159540254345600C79E443A4070C
:100EE00008D0C568540007FA04F6B5438E68A640DA
:100EF0002E43C6600C7904F00304022C11D1D408EF
:100F000000EB8406356A5407E40E0CFA04F825EA6F
:100F10000805D1F8108008FA04F848EA0508C6F870
:100F200020800568540007FA04F6B5430E7906F0F0
:100F30000306A6402E4306604C6814F4403F66D07A
:100F4000374C256845F480452560246822F0030568
:100F500004F480440094334C05EB0408D8F8085896
:100F60009407260F0CFA06F4A5432F4CA04201D19A
:100F7000002424E02D4CA04202D101241FE046E0D1
:100F80002B4CA04201D1022419E02A4CA04201D1ED
:100F9000032414E0284CA04201D104240FE0274C84
:100FA000A04201D105240AE0254CA04201D106242B
:100FB00005E0244CA04201D1072400E00824B440FD
:100FC0002C43C8F80848D9F800404D464E689C4369
:100FD000F60200D51C432C60DAF8004055464E68F6
:100FE0009C43B60200D51C432C60DBF800405D46F4
:100FF0004E689C43B60300D51C432C60DEF80040CD
:1010000075464E689C43F60300D51C432C60521C69
:10101000102AFFF43FAFBDE8F88F0000083C014004
:101020004438024000300140000002400004024009
:1010300000080240000C0240001002400014024070
:1010400000180240001C02400069084000D0012046
:1010500070470AB1816170470904FBE70148806865
:10106000704700000800002002488168027811449F
:1010700081607047080000200B4810B5016841F4FA
:1010800000710160016841F480610160016841F410
:1010900080710160032000F09BF80F2000F006F83B
:1010A00000F050F8002010BD003C024030B505466D
:1010B0001F4887B00024016841F004010160006806
:1010C00006A900F004000590684600F02DF9039889
:1010D000A8B100F049F940001649174AB0FBF1F1F8
:1010E0001648491E026040F2E732C0E90324C0E915
:1010F0000114846100F00CFC040003D015E000F042
:1011000033F9E9E70D4800F031FC04000DD11E2051
:1011100000F030F8102D07D2002229461E2000F0E2
:1011200037F80748056000E0012407B0204630BDCD
:101130004038024040420F00000800406403002095
:101140000C0000200A4808B5016841F480410160A4
:10115000006800F4804000900548001F016841F0DD
:1011600080510160006800F08050009008BD0000D0
:1011700044380240002809DB00F01F0201219140A1
:101180004009800000F1E020C0F800117047000025
:10119000F0B40E4B1B68C3F30223C3F10704042C05
:1011A00000D904241D1D072D01D2002300E0DB1E01
:1011B000012606FA04F56D1E0D409D409E40761EE8
:1011C000164045EA0601F0BC01F09CBE0CED00E0C3
:1011D000064A00F0070110684FF6FF03184040EA86
:1011E0000120034908431060704700000CED00E047
:1011F0000000FA052DE9F0470D46040065D0DFF840
:101200001491D9F80000EFB200F00700A84207D20D
:1012100089F80070D9F8000000F00700A84254D106
:1012200020683D4E810712D5400703D5306840F451
:10123000E05030602078000703D5306840F460400B
:1012400030603068A16820F0F000084330602078FA
:10125000C0072DD0304960680839012812D0022813
:1012600013D0032811D00968890700292DDA3168C5
:1012700021F0030101433160FFF7F0FE804641F2A7
:10128000883A0EE009688903EFE709688901ECE70D
:10129000FFF7E4FEA0EB0801514502D90320BDE8A9
:1012A000F0873068616800F00C00B0EB810FEFD17F
:1012B000D9F80010484601F00701A94207D9077084
:1012C000006800F00700A84201D00120E7E720787D
:1012D000400705D53068E16820F4E05008433060ED
:1012E0002078000706D53068216920F4604040EA84
:1012F000C100306000F058F83168084AC1F30311AA
:10130000515CC8400649086006480068FFF7CEFEF9
:101310000020C4E7003C0240083802403842000880
:10132000140000200C0000200F2202600C4A1368F9
:1013300003F003034360136803F0F0038360136852
:1013400003F4E053C36012684FF4E05303EAD2029F
:1013500002610448006800F0070008607047000060
:1013600008380240003C024004480549006809680A
:10137000044AC1F38221515CC84070471400002028
:1013800008380240484200080448054900680968D6
:10139000044AC1F34231515CC84070471400002038
:1013A0000838024048420008154810B5006810F09F
:1013B0000C01144813D0431004290FD008290ED172
:1013C0000F4C241F216801F03F022168490207D514
:1013D0002068C0F38810A0FB030106E0184610BD8A
:1013E0002168C1F38811A1FB00010023FEF7E8FE8C
:1013F0002168C1F30141491C4900B0FBF1F010BD67
:10140000083802400024F4002DE9F84F040075D09C
:101410002078DFF838A3C007AAF1040548D00AF104
:1014200004000168C1F38101012908D00068C0F3FC
:10143000810002280AD1DAF80000400206D52868A7
:10144000800335D560680028E1D031E06068B0F5F0
:10145000803F10D0B0F5A02F286810D020F4803045
:101460002860286820F4802028606068A0B1FFF719
:10147000F5FD06460CE0286840F48030F4E740F4BF
:1014800080202860F7E7FFF7E9FD801B642871D80A
:1014900028688003F7D50BE0FFF7E0FD064604E07F
:1014A000FFF7DCFD801B6428F1D828688003F7D49F
:1014B0002078DFF89C9280074FF0000B3DD5A348C1
:1014C000001D016811F00C0F08D00068C0F3810006
:1014D00002280AD1DAF80000400206D42868800702
:1014E00015D5E068012809D111E0E068B8B1012004
:1014F000C9F80000FFF7B2FD064605E022E1FFF75C
:10150000ADFD801B0228C2D828688007F7D528685F
:10151000216920F0F80040EAC10028600DE0C9F818
:1015200000B0FFF79BFD064604E0FFF797FD801B28
:1015300002281FD828688007F7D42078000722D512
:10154000824F84486169703771B101210160FFF7F2
:1015500085FD064604E0FFF781FD801B022809D8BF
:1015600038688007F7D50EE0C0F800B0FFF776FDC9
:10157000064605E082E0FFF771FD801B02287DD85A
:1015800038688007F7D42078400765D56F484FF05A
:1015900000083C300068C0000BD46C483C30016847
:1015A00041F08051016000684FF0010800F0805068
:1015B0000090694F3868C0050FD4386840F48070D7
:1015C0003860FFF74BFD064604E0FFF747FD801B40
:1015D000022853D83868C005F7D55C4FA0686C372F
:1015E00001280FD00528386810D020F0010038609D
:1015F000386820F004003860A068B0B1FFF72EFD15
:1016000006460EE0386840F00100F4E740F00400C0
:101610003860F7E7FFF722FD811B41F288308142F5
:1016200063D838688007F5D50DE0FFF717FD06464B
:1016300006E0FFF713FD811B41F28830814254D848
:1016400038688007F5D4B8F1000F05D03F483C302A
:10165000016821F080510160A069B8B33B49091DC0
:101660000968C1F38101022946D00228584606D0F4
:10167000C9F86000FFF7F2FC044639E035E04F4658
:10168000C9F86000FFF7EAFC064604E0FFF7E6FC55
:10169000801B022829D828688001F7D4D4E90701E3
:1016A0000843A16A2D4A490802EB0141626A41EAF6
:1016B0008211084394F82C1040EA0161CAF8001026
:1016C00001203866FFF7CAFC044605E03CE0FFF75E
:1016D000C5FC001B022808D828688001F7D533E034
:1016E000FFF7BCFC001B022802D90320BDE8F88FDD
:1016F00028688001F4D427E00128F7D0DAF8000048
:10170000E26900F4800191421CD1226A00F03F019D
:10171000914217D147F6C071626A0140B1EB821F56
:1017200010D1A26A4FF0FF3300F4403103EB5202B4
:10173000B1EB024F06D194F82C1000F07060B0EBC2
:10174000016F01D00120D1E70020CFE7043802402B
:1017500000004742800E4742007000400000FFFF3B
:1017600070B5040009D0606A002540B1256165614B
:10177000A56294F8510040B10CE0012070BD606892
:10178000B0F5827FF4D0E561F2E784F8505020464E
:1017900000F044F8022084F851002068016821F02C
:1017A00040010160A088218900F4827001F40441A5
:1017B0000843A18901F400610843217C01F0020182
:1017C0000843217D01F001010843218B01F40071E0
:1017D0000843217F01F03801084394F8201001F0FC
:1017E00080010843218D01F40051084321680860FD
:1017F000A069042101EA104094F8241001F01001BE
:101800000843216848602068C16921F40061C16112
:101810006565012084F85100002070BDF0B587B0E7
:10182000044614216846FEF703FD1C4920688842DF
:1018300032D11B480025016841F4804101600068F5
:1018400000F48040059016481038016841F004010A
:101850000160016801F004010591016841F0020195
:1018600001600068022600F0020005900C20CDE91E
:101870000006032705240295CDE90374694609484B
:10188000FFF7FAFA3003CDE900060295CDE90374BB
:1018900069460548FFF7F0FA07B0F0BD0038004090
:1018A00040380240000802400004024070B515466E
:1018B0000E46040003D094F8490010B107E001205F
:1018C00070BD002084F84800204600F01DF804F1A7
:1018D00008012068FFF754F83146A2682068FFF736
:1018E00083F8D4E901022946236BFFF72BF8A1689E
:1018F000206850F8212042F0010240F82120012008
:1019000084F84900002070BDFFF770BA7047704737
:1019100010B5040003D094F83D0010B107E0012099
:1019200010BD002084F83C00204600F01EF8022084
:1019300084F83D00211D206801F03AF9012084F867
:10194000460084F83E0084F83F0084F8400084F8A4
:10195000410084F8420084F8430084F8440084F88D
:10196000450084F83D00002010BD704790F83D1000
:10197000012901D001207047022180F83D10016843
:10198000CA6842F00102CA6000681149884214D056
:10199000B0F1804F11D00F4988420ED00E498842D5
:1019A0000BD00E49884208D00D49884205D00D4918
:1019B000884202D00C49884204D1816801F00701B5
:1019C000062903D0016841F0010101600020704741
:1019D000000001400004004000080040000C0040EE
:1019E00000040140004001400018004070472DE90C
:1019F000F04104460068C66805694FF00007A90772
:101A000013D5B10711D5F91E016101202077206897
:101A100080698007204602D0FFF7E8FF04E000F06D
:101A20007EF8204600F07CF82777680716D5700707
:101A300014D521686FF00400086102202077206827
:101A4000806910F4407F204602D0FFF7CFFF04E00A
:101A500000F065F8204600F063F82777280715D5D1
:101A6000300713D521686FF0080008610420207743
:101A70002068C0698007204602D0FFF7B7FF04E066
:101A800000F04DF8204600F04BF82777E80616D511
:101A9000F00614D521686FF0100008610820207747
:101AA0002068C06910F4407F204602D0FFF79EFFF7
:101AB00004E000F034F8204600F032F82777E80719
:101AC00008D0F00706D021686FF0010008612046B9
:101AD00000F028F8280608D5300606D521686FF0F2
:101AE000800008612046FFF711FF680608D57006E0
:101AF00006D521686FF040000861204600F01CF810
:101B0000A8060AD5B00608D521686FF02000086144
:101B10002046BDE8F041FFF7FABEBDE8F08170470E
:101B20007047000000680349884201D1FFF79CBA62
:101B30007047000000080040704770477047000081
:101B4000F8B5016804460868CA684B6910F00F0FC1
:101B50004FF0000559D003F0010602F490773743A7
:101B600065D0C10705D0D10503D5616C41F00101F5
:101B70006164410705D5D90703D0616C41F00201CA
:101B80006164810705D5D90703D0616C41F0040178
:101B90006164010707D502F02001314303D0616C75
:101BA00041F008016164616C00293AD0800604D5D7
:101BB000900602D5204601F09CF820684069616CCF
:101BC000C0F38010090700D460B3204601F06AF822
:101BD00020684069400621D52068143050E8001F75
:101BE00021F0400140E80012002AF5D1E06BA8B1D5
:101BF0006E490165E06BFEF7ADFF002811D0E06B88
:101C0000016D01B0BDE8F040084783060FD593068B
:101C10000DD52046BDE8F84001F06BB82046FFF72F
:101C20008DFFF8BD2046FFF789FF6564F8BD266B80
:101C30002023012E7DD1C6067BD5D60679D508682E
:101C40004868009048694FF00206400641D5E16BB4
:101C5000086840680004000CE8D0A28D8242E5D9F3
:101C6000E085C869B0F5807F2DD020680C3050E841
:101C7000001F21F4807140E80012002AF5D120688D
:101C8000143050E8001F21F0010140E80012002A42
:101C9000F5D12068143050E8001F21F0400140E8E1
:101CA0000012002AF5D184F84230256320680C30F8
:101CB00050E8001F21F0100140E80012002AF5D181
:101CC000E06BFEF7FEFE6663A08DE18D401A81B2E7
:101CD0002AE0A08DE18D401A81B2E08D0028A5D0C8
:101CE0000029A3D020680C3050E8002F22F4907215
:101CF00040E80027002FF5D12068143050E8002F6D
:101D000022F0010240E80027002FF5D184F842308C
:101D1000256320680C3050E8002F22F0100240E8C4
:101D20000023002BF5D166632046FFF706FFF8BDC0
:101D3000FFE705062BD5150629D594F84100212883
:101D4000F5D1A068B0F5805F01D12069B0B1206AFB
:101D5000411C2162216800784860E08C401E00042C
:101D6000000CE084E3D12068C16821F08001C160EB
:101D70002068C16841F04001C160D8E7206A00884E
:101D8000C0F308004860206A801C2062E5E7400636
:101D9000CDD55006CBD5CA68204622F04002CA6095
:101DA00084F8413000F02FF9C1E70000952C0008BD
:101DB00070B5040004D094F84100002510B106E08D
:101DC000012070BD84F84050204600F023F8242004
:101DD00084F841002068C16821F40051C1602046A8
:101DE00000F0E8FF2068016921F49041016120685A
:101DF000416921F02A0141612068C16841F4005124
:101E0000C1606564202084F8410084F84200656365
:101E1000002070BD2DE9F04F87B0044614216846BC
:101E2000FEF706FA6F486E4E0222D4F800C06D4BE2
:101E300010380321DFF8B0B1002597064FF0400AB3
:101E40004FF48069B4454AD11E6846F400261E60EE
:101E50001B6803F400230593036843F00103036048
:101E6000006800F0010005908DE826000820CDE90B
:101E7000031069465846FEF7FFFF5D4E5B48B846C3
:101E80003060C6E90175C6E903597561B561F56150
:101E900035624F4630467562FEF73EFF08B1FEF7E9
:101EA0004FFDE663B463524E504860363030C6E9A9
:101EB00003577561B561F5613562756286E80105A4
:101EC0003046FEF729FF08B1FEF73AFDA66300226F
:101ED00011463420B463FFF75BF9342027E0DFF8C4
:101EE00014810726C44527D13E4B1B1D1C6844F0B6
:101EF00010041C601B6803F010030593036843F093
:101F0000010303600068CDE9025100F00100059073
:101F10004FF4C060CDE90002049669465846FEF7CA
:101F2000ABFF002211462520FFF732F92520FFF7ED
:101F300021F907B0BDE8F08FDFF8BC80C445F8D1C7
:101F4000D3F800C04CF4802CC3F800C01B6803F425
:101F500080230593036843F0020303600068CDE922
:101F6000025100F0020005904FF44060CDE90002FC
:101F7000049669462148FEF77FFF1D4E1B48C03678
:101F8000B846C6E903597561B561F5613562183027
:101F9000756286E801054F463046FEF7BDFE08B182
:101FA000FEF7CEFCA663B4631048154E18383060B7
:101FB000C6E90185C6E903577561B561F56135620A
:101FC00030467562FEF7A8FE08B1FEF7B9FCE6637D
:101FD000002211462720B463FFF7DAF82720A6E78E
:101FE000004C004040380240000002404060024087
:101FF000E4010020001001400048004000040240BD
:102000000403002070477047FEE7000070B5134DD1
:102010004FF40074002221462846FFF71AF80220E8
:10202000FEF772FC0122160231462846FFF711F82E
:102030000220FEF769FC002231462846FFF709F826
:102040000220FEF761FC012221462846FFF701F835
:10205000BDE870400220FEF757BC000000040240BB
:10206000154810B5016886B041F0020101600168B1
:1020700001F002010591016841F002010160006870
:102080000E4C00F0020005904FF48070009001208B
:10209000019002900220039069462046FEF7ECFE74
:1020A000611500911121019169462046FEF7E4FE79
:1020B00000F0B0F806B010BD303802400004024015
:1020C00070B50E4C012251022046FEF7C2FF0220DD
:1020D000FEF71AFC0122150229462046FEF7B9FF39
:1020E0000220FEF711FC002229462046FEF7B1FF30
:1020F000BDE870400220FEF707BC0000000402406B
:102100002DE9F0470024174E804625464FF400790C
:102110004FF480776006040E012239463046FEF700
:1021200098FF0220FEF7F0FB49463046FEF78CFF91
:1021300008B1641CE4B2002239463046FEF789FF3C
:102140000220FEF7E1FB6D1CEDB2082DE2D3B8F1E1
:10215000000F04D0FFF75AFF2046BDE8F087FFF7D5
:10216000AFFFF9E7000402402DE9F041154F0024CC
:1021700005464FF40078BE15280601D5012200E07F
:10218000002241463846FEF764FF0220FEF7BCFB02
:10219000012231463846FEF75CFF0220FEF7B4FB11
:1021A000002231463846FEF754FF6806641C050ECF
:1021B000E4B2082CE0D341463846BDE8F0410122A4
:1021C000FEF747BF0004024070B50122104D5402D3
:1021D00021462846FEF73DFF0122160231462846D9
:1021E000FEF737FF0220FEF78FFB0022214628462C
:1021F000FEF72FFF0220FEF787FB0022314628461C
:10220000FEF727FFBDE870400220FEF77DBB00000F
:102210000004024070B50E4D4FF4007400222146B8
:102220002846FEF716FF0220FEF76EFB0122110280
:102230002846FEF70EFF0220FEF766FB012221462C
:102240002846FEF706FFBDE870400220FEF75CBBA3
:10225000000402402DE9F0410122174E00245702EC
:10226000254639463046FEF7F4FE0220FEF74CFBC9
:102270004FF48078012241463046FEF7EAFE022004
:10228000FEF742FB07E0641CE4B2FA2C03D9FFF727
:10229000C1FF012505E039463046FEF7D5FE00288E
:1022A000F1D1002241463046FEF7D3FE0220FEF770
:1022B0002BFB2846BDE8F0810004024030B50546FE
:1022C0000A480488408821464443491E401E8AB279
:1022D00083B20021084600F05BF90021044801E0C8
:1022E0000580491CA142FBD330BD0000AC03002097
:1022F0000020006C2DE9FE4F0026A2EB000882466C
:102300005F1A701E35468946B8F1000F02DD4FF0A6
:10231000010102E003D14FF00001019102E0C8F198
:1023200000080190002F02DD4FF0010002E003D110
:102330004FF00000009002E0C7F100070090404617
:10234000B84501DD044600E03C46601C4FF0000B40
:10235000029015E01FFA89F11FFA8AF000F016F8D2
:1023600046443D44A64202DD0199361B8A44A542FB
:1023700002DD00992D1B89440BF101001FFA80FB3F
:1023800002998B45E6DDBDE8FE8F000000B500F048
:10239000FBF8024802490088088000BD18000020B0
:1023A0000020006C2DE9F041141A641CA6B25C1ADE
:1023B000641CA7B2DDF8188000F0EAF800250AE0F6
:1023C000002404E0404600F0EDF9641CA4B2B442DD
:1023D000F8D36D1CADB2BD42F2D3064841880088E7
:1023E000491EBDE8F041401E8BB282B20021084672
:1023F00000F0CEB8AC03002010B56420FEF777FAE9
:102400005F4CCF2020800021A01C0180C9210180C9
:1024100030210180ED212180642101800321018090
:102420001221018081210180E82121808521018004
:10243000102101807A210180CB2121803921018066
:102440002C210180002101803421018002210180A2
:10245000F721218020210180EA21218000210180B3
:102460000180C02121801B210180C1212180002108
:102470000180C5212180302101800180C721218078
:10248000B721018036212180082101803A21218055
:1024900055210180B1212180002101801A21018074
:1024A000B62121800A210180A2210180F221218010
:1024B000002101802621218001210180E02121804D
:1024C0000F2101802A21018028210180082101801B
:1024D0000E2101800821018054210180A921018061
:1024E000432101800A2101800F2101800021018008
:1024F000018001800180E1212180002101801521DE
:10250000018017210180072101801121018006210E
:1025100001802B210180562101803C210180052171
:102520000180102101800F2101803F210180018065
:102530000F2101802B2121800021018001800121B8
:1025400001803F2101802A2121800021018001801A
:102550000180EF210180112020807820FEF7C7F94B
:1025600029202080002000F0F5F801229102054882
:10257000FEF76FFDBDE810404FF6FF70FFF79EBEFF
:10258000FE1F006C001402400B460246AFF30080B1
:10259000F0B40D4E0D4FB4893C80050ABC1C25805B
:1025A000C0B22080100A2080D0B22080F08938800C
:1025B000080A2080C8B22080180A2080D8B2208063
:1025C000F0BC00F0B5B80000AC030020FE1F006CAA
:1025D0002DE9FF4F81B00EAE824696E831002038DB
:1025E00000F0FF080298DFF8E0B02044401E83B2FC
:1025F0000AEB5400BBF80010401E009182B2504616
:102600000299FFF7C5FF4FF000067DBB2F4908EB8D
:10261000480001EB800901F2744000EB081817E054
:102620000C2C03D018F8065000270CE019F80650BF
:10263000FAE7E80701D0039800E0049800F0B2F848
:102640006D087F1CFFB2B7EB540FF2D3761CF6B2C5
:10265000A642E5D327E00C2C09D01D4800EB08105A
:102660000025875D029800EB060915E019E0174880
:1026700008EB480100EB8100F2E70398ABF800009B
:10268000F80706D00AEB05001FFA89F180B2FFF7C0
:102690007DFE7F086D1CEDB2B5EB540FEDD3761CBB
:1026A000F6B2A642D7D30098ABF80000094841889B
:1026B000008805B0491EBDE8F04F401E8BB282B2C3
:1026C00000210846FFF764BF1800002050420008B0
:1026D000C4460008AC0300202DE9FE4F044600F07C
:1026E000FF0810190D46DDE90C761FFA80FA58191B
:1026F0001FFA80F94FF0000B13E0544502D3E9199B
:1027000044468DB24D4511D28DE881084FF6FF73D6
:10271000294620460E9AFFF75BFF04EB570084B270
:10272000761C3078A0F120015E29E6D9BDE8FE8F45
:10273000024803490089088070470000AC0300206C
:10274000FE1F006C024A1080901C01807047000040
:10275000FE1F006C12492A224FF4A0738A812B229B
:10276000CA812C220A812E224A81F02258B10128E6
:102770000DD002280FD0032811D10B804A80B82138
:102780003620FFF7DFBF0A804B800821F8E70B8077
:102790004A806821F4E70A804B80D821F0E770472F
:1027A000AC03002001490880704700000020006C45
:1027B000154808B5016841F4001101600068002265
:1027C00000F40010009011460C20FEF7E1FC0C20F4
:1027D000FEF7D0FC002211460D20FEF7D9FC0D209B
:1027E000FEF7C8FC002211460E20FEF7D1FC0E2099
:1027F000FEF7C0FC002211460F20FEF7C9FCBDE821
:1028000008400F20FEF7B6BC3038024010B58EB03D
:102810001C216846FDF70CFD1C2107A8FDF708FDEB
:102820001A484FF0204110220160194941600621E9
:1028300081600021C160C0E904128161C16113029D
:102840000162C0E909139302C0E90B13416381637C
:1028500041640F203C230090CDE9010303AC112318
:1028600084E80E0009240691CDE9074009AC082050
:1028700084E80F000D9107AA69460448FFF716F88F
:10288000002801D0FEF75CF80EB010BD64000020F7
:10289000040100A02DE9F04F87B014216846FDF730
:1028A000C7FC52480025016841F010010160016831
:1028B00001F010010591016841F004010160016817
:1028C00001F004010591016841F0200101600168F7
:1028D00001F020010591016841F08001016001686B
:1028E00001F080010591016841F00101016001687A
:1028F00001F001010591016841F0020101600168E8
:1029000001F002010591016841F0080101600168D0
:1029100001F008010591016841F040010160006883
:10292000334F00F040000590012218213846FEF791
:1029300090FBDFF8C0B03E15002231465846FEF746
:1029400088FBDFF8B480012241214046FEF781FB7D
:10295000DFF8A890012220214846FEF77AFBDFF835
:10296000A0A0012203215046FEF773FB012418208A
:10297000CDE9000469463846CDE90245FEF77CFA08
:10298000CDE900640326CDE9024669465846FEF7C4
:1029900073FA41208DE831000220039069464046D9
:1029A000FEF76AFA2020CDE90004CDE90246694627
:1029B0004846FEF761FACDE90064CDE90246694672
:1029C0005046FEF759FA0420CDE900056946029405
:1029D0005046FEF751FAE002CDE90005694602943F
:1029E0005846FEF749FA07B0BDE8F08F303802408C
:1029F00000100240001402400008024000000240A3
:102A000000040240104810B50E4901604FF4827175
:102A1000416000218160C1604FF400720161C0E932
:102A200005121822C0E90721416281620A21C162B0
:102A3000FEF796FE002803D0BDE81040FDF780BFEA
:102A400010BD000000380040B40000200C4810B554
:102A50000A4901604FF4E1314160002181600C229C
:102A6000C160C0E904128161C161FFF7A1F90028CA
:102A700003D0BDE81040FDF763BF10BD004C00401F
:102A80000C0100200C4810B50A4901604FF4E131F7
:102A90004160002181600C22C160C0E904128161A3
:102AA000C161FFF785F9002803D0BDE81040FDF7AC
:102AB00047BF10BD00100140540100200C4810B564
:102AC0000A4901604FF4E1314160002181600C222C
:102AD000C160C0E904128161C161FFF769F9002892
:102AE00003D0BDE81040FDF72BBF10BD00480040EB
:102AF0009C010020FEE7FEE770477047704700002A
:102B000030B593B030216846FDF792FB14210CA834
:102B1000FDF78EFB1D480025016841F080510160E2
:102B2000006800F0805011901948016841F480411C
:102B300001600068022400F480401190012003909D
:102B400010200490009406940820CDE90750A82096
:102B5000CDE9090404200B906846FEF755FC08B146
:102B600072B6FEE70CA90F2081E831004FF4A050A7
:102B70000F904FF48050109005210CA8FEF73AFBFF
:102B8000002801D072B6FEE713B030BD40380240D5
:102B9000007000400248016841F470010160704714
:102BA00088ED00E00148FEF722BF0000640300202A
:102BB000F0B50268294D2A4E2A4FDFF8ACC02B4BE6
:102BC0004FF0804EA84209D0704507D0B04205D0E2
:102BD000B84203D0604501D0984203D122F070047E
:102BE0004A682243A8421BD0704519D0B04217D082
:102BF000B84215D0604513D0984211D01C4CA04269
:102C00000ED01C4CA0420BD01B4CA04208D01B4C39
:102C1000A04205D01A4CA04202D01A4CA04203D1C7
:102C200022F44074CA6822434C6922F08002224395
:102C300002608A68C2620A688262A84201D0984231
:102C400001D109690163012141610169C90703D00B
:102C5000016921F001010161F0BD000000000140A7
:102C60000004004000080040000C00400004014047
:102C7000004001400044014000480140001800406D
:102C8000001C0040002000400148FEF759BF000032
:102C90000C01002010B5806B0021C185C184FEF7B6
:102CA0004DFF10BD01680C3151E8002F22F49072E5
:102CB00041E80023002BF5D10168143151E8002FC1
:102CC00022F0010241E80023002BF5D1016B01291C
:102CD00009D101680C3151E8002F22F0100241E8BF
:102CE0000023002BF5D1202180F842100021016340
:102CF000704708B590F84210222901D0022008BD83
:102D000081684FF48053994201D1026922B1826AED
:102D100099421BD049B10AE00268816A5268C2F345
:102D200008020A80816A891C08E0016971B10168A2
:102D3000496801F07F011170816A491C8162C18D6F
:102D4000491E0904090CC18503D01BE001684968CC
:102D5000F1E70168CA6822F02002CA600168CA6807
:102D600022F48072CA6001684A6922F001024A6155
:102D7000202180F8421000214163026B012A03D018
:102D8000FFF740F9002008BD016301680C3151E8EC
:102D9000002F22F0100241E80023002BF5D101683A
:102DA0000A68D20602D50A6849680091818DFEF74B
:102DB000C4FEE7E770B5044600680169E26821F4E3
:102DC000405111430161A1682069E26901436069D2
:102DD000104301432068C26849F20C639A430A43D6
:102DE000C26020684169A26921F4407111434161C8
:102DF00031492068884202D03049884202D1FEF72A
:102E0000C3FA01E0FEF7B0FAE26900231921642554
:102E10003226B2F5004F626828D0A0FB0101930F63
:102E20009200FDF7CDF90146B0FBF5F06FF0180206
:102E3000504301EB800006EB0010B0FBF5F000F012
:102E4000F002B1FBF5F002EB0012B1FBF5F06FF010
:102E50001803584301EB800006EB0010B0FBF5F0BF
:102E600000F00F0021681044886070BDA0FB0101D4
:102E700092185B41FDF7A4F90146B0FBF5F00201A1
:102E8000B1FBF5F06FF01803584301EB800006EB3F
:102E9000C000B0FBF5F000F0F80002EB4002B1FB1F
:102EA000F5F0584301EB800006EBC000B0FBF5F0F5
:102EB00000F00700D6E700000010014000140140B8
:102EC0000148FEF73DBE0000540100200148FEF716
:102ED00037BE00009C010020FEE700000FB4084B45
:102EE00010B504A902AA039800F03AF9044602A911
:102EF000002000F0CCFC204610BC5DF814FB000064
:102F00008F3800080907090E002804DB00F1E020D3
:102F100080F80014704700F00F0000F1E02080F806
:102F2000141D704702E008C8121F08C1002AFAD118
:102F300070477047002001E001C1121F002AFBD139
:102F400070472DE9F05F15461C46DDF828B00E46A7
:102F5000074601EB040800EB050A1FFA88F11FFA87
:102F60008AF05A46FDF7A4FD1FFA88F1A7EB050881
:102F70001FFA88F05A46FDF79BFDA6EB04091FFADD
:102F800089F11FFA8AF05A46FDF792FD1FFA89F17E
:102F90001FFA88F05A46FDF78BFD06EB050907EB93
:102FA00004081FFA89F11FFA88F05A46FDF780FDE0
:102FB0003C1B1FFA89F1A0B25A46FDF779FD751B3B
:102FC000A9B21FFA88F05A46FDF772FDA9B2A0B265
:102FD0005A46BDE8F05FFDF76BBD00002DE9FF5FCD
:102FE00082B00021DDE90430020DDDF840B003437A
:102FF00018D044F61050A2F2FF3242431514119833
:1030000001281FD0A5EB0B00401C5FEA000A4FF01F
:1030100000064E4FDFF83891B046504615D5CAF13C
:10302000000413E0119801244AA3012801D16FEA9A
:103030000B010298119AC0E90031C0E9024206B0C2
:10304000BDE8F09FCBF10000DFE704460021404AD5
:10305000491842EB0450CDE9001012E0E00707D018
:1030600032463B4640464946FDF7D7FA80468946F8
:1030700032463B4610461946FDF7CFFA06460F4644
:103080006410002CEAD1DDE90401DDE90023BAF186
:10309000000F06DAFDF7C1FA42464B46FDF7BDFACE
:1030A00005E0FDF7D0F842464B46FDF7CCF8044664
:1030B0000E460022284BFDF75FF903D84FF0FF3092
:1030C000014607E00022254B20463146FDF7FEF978
:1030D000FDF715FB102409E0002C0ADB0A2200236F
:1030E000FDF76EF8039B30321A55641E50EA010258
:1030F000F2D1641C039AC4F111031444119A012AF9
:1031000003D0012208430DD10AE0084304D0002077
:103110004FF0110B119072E7A3EB0B056D1E0DE044
:103120005B4504DD4FF0000205F1010504E003DA20
:103130004FF00002A5F10105002AECD00298119988
:10314000C0E90231C0E9004579E700000000144001
:103150000000F03F300000000000F0430000E03FBE
:103160002DE9FF4F95B09B468946064600250FE2A4
:10317000252877D100242746F84A0121059400E04C
:10318000044316F8013F203B01FA03F01042F7D147
:1031900030782A2811D06FF02F033078A0F1300258
:1031A000092A16D8059A44F0020402EB820203EBC6
:1031B00042021044761C0590EFE759F8042B059263
:1031C000002A03DA504244F40054059044F002040B
:1031D000761C30782E2816D116F8010F44F004041E
:1031E0002A280DD06FF02F023078A0F13003092B80
:1031F00009D807EB870302EB4303C718761CF3E7F4
:1032000059F8047B761C30786C280FD006DC4C28EB
:1032100017D068280DD06A2814D104E0742810D083
:103220007A280FD10DE044F400140AE044F480142D
:1032300001E044F440147278824202D104F5801413
:10324000761C761C307866280BD013DC582877D093
:1032500009DC002875D04528F6D04628F4D0472848
:103260001AD19DE118E0632835D0642879D065280B
:1032700012D195E1702873D008DC6728F1D0692855
:103280006FD06E280DD06F2806D1B5E073282CD0F2
:10329000752875D0782874D05A46179990476D1CB8
:1032A00075E1C4F30250022809D003280DD0D9F8E3
:1032B000001004280DD00D6009F1040967E1D9F868
:1032C0000010EA17C1E90052F6E7D9F800100D80A6
:1032D000F2E70D70F0E719F8041B8DF800100020DC
:1032E0008DF80100EA46012003E059F804AB4FF0E5
:1032F000FF3061074FF0000102D40DE008F1010139
:103300008846B9420FDA8045F8DB1AF80810002920
:10331000F4D108E008F1010188468142FADB1AF88D
:1033200008100029F6D105985B46A0EB0807214656
:103330003846179A00F094FA284400EB080507E095
:103340004DE029E10DE01AF8010B5A461799904714
:10335000B8F10108F7D25B4621463846179A13E1C7
:1033600042E00A220092C4F302524FF0000A022AFD
:1033700008D059F804CB032A4FEAEC710AD00DE0CB
:1033800029E02AE009F1070121F00702F2E802C171
:10339000914609E00FFA8CFC4FEAEC71042A03D144
:1033A0004FFA8CFC4FEAEC71002907DA0A4600213B
:1033B000DCF1000C61EB02012D2202E0220504D5B4
:1033C0002B228DF80420012203E0E20701D0202205
:1033D000F7E7904659E00A2102E010220DE01021A3
:1033E0004FF0000A00910BE010224FF0000A44F069
:1033F00004040827009203E008224FF0000A00921C
:10340000C4F30252022A05D059F804CB0021032A42
:1034100008D009E009F1070121F00702F2E802C132
:10342000914605E01FFA8CFC042A01D10CF0FF0C38
:103430004FF00008220728D5702806D0009B83F0A3
:10344000100353EA0A0305D00EE040228DF8042051
:10345000012208E05CEA010206D030228DF8042047
:103460008DF8050002229046009B83F0080353EA82
:103470000A030AD15CEA010201D1620705D53022B4
:103480008DF804204FF001087F1E582804D034A086
:1034900003900EA802900DE036A0F9E7534660466F
:1034A000009AFCF78DFE84460398825C0298401EC9
:1034B000029002705CEA0100F0D1029806A9081A95
:1034C00000F1200A600702D524F4803400E00127CF
:1034D000574502DDA7EB0A0000E0002000EB0A01DF
:1034E000009005984144401A0590E00306D45B46DD
:1034F0002146179A059800F0B3F90544002706E025
:1035000001A85A46C05D179990476D1C7F1C47451E
:10351000F6DBE0030CD55B462146179A059800F0D0
:103520009FF9054404E030205A46179990476D1CD6
:103530000099481E00900029F5DC08E002980299E5
:103540005A460078491C0291179990476D1CBAF1B0
:103550000001AAF1010AF1DC65E10000092801007F
:1035600030313233343536373839616263646566F9
:1035700000000000303132333435363738394142BB
:10358000434445460000000000F058F90544761C0D
:10359000307800287FF4ECAD19B02846BDE8F08FF4
:1035A000620700D4062709F1070222F0070CFCE8A5
:1035B0000223E14603F000485FEA080C02D00FF254
:1035C000702C0DE05FEA045C02D50FF2682C07E076
:1035D0005FEAC47C02D00FF2602C01E0AFF2700C05
:1035E0004FF0FF3823F00043CDF850C065280CD0D1
:1035F00006DC452809D046281DD047283DD13DE0AE
:10360000662818D067287ED138E00021112F01DB11
:10361000112000E0781CCDE9000106A90EA8FFF7F3
:10362000DDFCDDE90F010E9A03910021009207F104
:10363000010A04914DE04FF000400097CDE90110E0
:1036400006A90EA8FFF7CAFCDDE90F0203920E9B44
:1036500011990022DDF80CA00093049211B9791C95
:1036600000EB010AB7EB0A0004D4C0F1FF3007F108
:10367000010A0490AAEB0700019044E0012F00DA50
:1036800001270021112F01DD112000E03846CDE98E
:10369000000106A90EA8FFF7A1FCDDE90F010E9AB3
:1036A0000391002104910092BA4621070CD403999A
:1036B000514500DA8A46BAF1010F05DD009AAAF1F8
:1036C0000101515C302908D0B84202DA10F1040F30
:1036D00006DA0121CDE9011015E0AAF10101E9E7BF
:1036E000002805DC049901440491AAEB000102E0E2
:1036F000411C514500DD8A460499401A401C019046
:103700004FF000400290200704D40198504501DB9F
:10371000CDF8048000208DF84F0002980DF14F077E
:10372000B0F1004F25D02B200E9002984FF00208E8
:1037300000280CDA404202902D200E9007E00A216A
:103740000298FCF731FE3031029007F8011DB8F104
:103750000001A8F10108F2DC02980028EFD1791EDF
:103760000E980870307800F0200040F0450007F80F
:10377000020D12A8C01B00F107081498007800B1D0
:10378000012000EB0A01019801EBE071059841442A
:10379000401A401E0590E00306D45B462146179A66
:1037A000059800F05DF805441498007818B15A4661
:1037B000179990476D1CE00324D55B462146179A64
:1037C000059800F04DF805441CE00498002807DB3C
:1037D000DDE90301884203DD0098405C179901E0B0
:1037E000179930205A469047049805F10105401C6E
:1037F00004900198401E019004D12E205A4617993A
:1038000090476D1CBAF10001AAF1010ADDDC05E068
:1038100017F8010B5A46179990476D1CB8F1000133
:10382000A8F10108F4DC5B462146179A0598ABE63F
:103830002D0000002B000000200000002DE9F041C9
:10384000044600251E461746880404D405E0394680
:103850002020B0476D1C641EF9D52846BDE8F081D4
:103860002DE9F041044600251E469046C80301D5C7
:10387000302700E02027880404D505E0414638467B
:10388000B0476D1C641EF9D52846BDE8F0810A6872
:10389000531C0B60107070470EB54FF6FF70FEF7AB
:1038A0000DFD4FF4FC6207A110208DE807000648CB
:1038B0001023C82200880021183880B2FEF70CFFC0
:1038C0000EBD000052535400AC0300200EB5FDF7AE
:1038D000D3FBFFF715F9FEF7DDFFFEF769FFFFF7F2
:1038E000D1F8FEF793FFFFF7B1F8FFF7E7F8FFF71E
:1038F00089F8FEF781FD00F009FB10264FF47845AA
:1039000025A00096CDE901053346C82232211E20AC
:10391000FEF7E2FE22A00096CDE901051023C822A1
:1039200046211E20FEF7D8FE20A00096CDE9010515
:103930001023C8225A211E20FEF7CEFE1F4C94F8F9
:103940004400FF2809D01EA00096CDE901051023F0
:10395000C8226E211E20FEF7BFFEFFF79DFF1E4D01
:103960004FF61F06616800208847A08E0004F9D535
:10397000A0892A889042F5D2218C6B889942F1D295
:10398000183A904204DD102902D2FFF785FFE9E7DB
:10399000324600F053FAE5E753544D33320000004D
:1039A000544F5543482054455354000041544F4D03
:1039B00040414C49454E54454B0000001C0000203E
:1039C0005072657373204B45593020746F204164E9
:1039D0006A75737400000000AC0300202DE9F04FFD
:1039E00000242DED0C8B89B025464FF6FF70FEF7B5
:1039F00065FC14214FF47842084600F039FAB648C5
:103A00000021824681869FEDB5AB9FEDB6BB9FED51
:103A1000B7CBDFF8E09241F6FE7BDAF804105646A9
:103A200001208847B08E0121B1EB903F52D120F4A4
:103A30008040B08603A8B18920F8241000EB8400F0
:103A4000641C0025318CE4B24180062C42D2DFE8B0
:103A500004F041031122335014214FF6FF7208463F
:103A600000F006FAB9F800004FF47842143880B23A
:103A700014212DE0B9F800004E46143880B24FF6FC
:103A8000FF72142100F0F4F970884FF47842143872
:103A900081B214201CE0B9F802004E46143881B2FD
:103AA0004FF6FF72142000F0E3F97088143881B2E9
:103AB0003088143880B209E04FF6FF70FEF7FEFB45
:103AC000B9F80210B9F80000490840084FF47842EC
:103AD00000F0CEF90A20FCF70AFF6D1CADB2B5F577
:103AE0007A7F9AD900F000FA09B0BDEC0C8BBDE8E2
:103AF000F08FBDF81000BDF80C10401A0FFA80F8D6
:103B0000BDF81800BDF81410401A06B2BDF81A002E
:103B1000BDF81210401A07B2BDF81600BDF80E101D
:103B2000401A04B23046FCF7FDFB41EC180B40464E
:103B3000FCF7F8FB53EC182BFCF785FB41EC190B59
:103B40002046FCF7EFFB41EC180B3846FCF7EAFB8C
:103B500053EC182BFCF777FB41EC180B53EC1A2BAA
:103B600051EC190BFCF7F0FB05D251EC190B81F06D
:103B7000004141EC190BB0EE4ADAF0EE6ADA53EC90
:103B80001D2B51EC180BFCF7DFFB05D251EC180B89
:103B900081F0004141EC180B53EC1B2B51EC190B3D
:103BA000FCF7D2FB7BD353EC1C2B51EC190BFCF72D
:103BB000E3FB74D3B0EE4BDAF0EE6BDA53EC1D2B73
:103BC00051EC180BFCF7C0FB69D3B0EE4C0AF0EED9
:103BD0006C0A53EC102B51EC180BFCF7CDFB5ED3A9
:103BE00008F6FF715846814259D807F6FF718142A5
:103BF00055D806F6FF71814251D804F6FF71594538
:103C00004DD8B8F1000F4AD0F7B3EEB3E4B3B9F82A
:103C100000004D464000503800EE100A08EB060048
:103C2000F8EEC00A00EE100AB8EEC00A80EE201AC4
:103C30008AED0E1AB9F802104900503900EE101A38
:103C400039194FF6FF74F8EEC00A00EE101A20463C
:103C5000B8EEC00A80EE201A8AED0F1ABDF81C10CB
:103C6000AAF84010BDF81E10AAF84210FEF726FB75
:103C70001F2221A110208DE807006B882A886E2161
:103C80002320FEF729FD00E009E04FF47A70FCF7ED
:103C90002EFE00F055FA2046FEF710FB24E7B9F897
:103CA0000210B9F800000024490840084FF6FF72DE
:103CB00000F0DEF814214FF47842084600F0D8F8FE
:103CC000B0EE481AF0EE681AB0EE490AF0EE690A52
:103CD00003A800F01DF8A0E61C0000200000000072
:103CE00000000000666666666666EE3FCDCCCCCC12
:103CF000CCCCF03FAC030020546F75636820536355
:103D00007265656E2041646A757374204F4B2100A3
:103D10002DE9F04F2DED048B89B0B0EE419A3C4D6A
:103D2000F0EE619AB0EE408AF0EE608A0746002419
:103D30000DF10C094FF478484FF0100A4FF0A00B2A
:103D400037F82430621C33A103A8FFF7C7F8CDF879
:103D500000A0CDE9019804EB84010BEB81066B8890
:103D60002A8831462820FEF7B7FC07EB8400621C46
:103D700043882AA103A8FFF7B1F8CDF800A0CDE948
:103D800001986B882A8831467820FEF7A5FC641CD0
:103D9000E4B2052CD4D34FF6FF700090288804EBD2
:103DA0008401401E82B20BEB81041023214628209F
:103DB000FEF7F8FA53EC182B1AA103A8FFF78EF8B8
:103DC0004FF0000B8DF813B0CDF800A0CDE90198AD
:103DD00046464F466B882A8821462820FEF77CFC01
:103DE00053EC192B12A103A8FFF778F88DF813B044
:103DF000CDF800A0CDE901766B882A88214678208D
:103E0000FEF76AFC09B0BDEC048BBDE8F08F000042
:103E1000AC0300207825643A256400007925643AD3
:103E20002564000070783A25302E326600000000CC
:103E300070793A25302E3266000000002DE9F041FD
:103E400017460E460546FCF733FE6C1CA0B23A46F8
:103E50003146FCF72DFE761CB1B23A462846FCF7F7
:103E600027FEB1B2A0B23A46BDE8F041FCF720BE51
:103E70002DE9F843044691460D3082B2A4F10C00BE
:103E80000D4680B20B46FEF735FA05F10D0083B200
:103E9000193881B222461046FEF72CFA6E1C04F146
:103EA0000108B1B21FFA88F04A46FCF701FEB1B230
:103EB000661EB0B24A46FCF7FBFD6F1EB9B21FFA90
:103EC00088F04A46FCF7F4FDB9B2B0B24A46FCF7B6
:103ED000EFFD0120009006234A4629462046FCF7C4
:103EE000A5FDBDE8F883000010B507490C22282085
:103EF000FCF744FC3420FCF751FC0A2801D00020D8
:103F000010BD012010BD0000540000200E4910B566
:103F10000C48897901F0010180F84410FCF72CFC71
:103F2000FFF7E2FF08B1002010BD4FF6FF70FEF76B
:103F3000C5F9FFF753FD00F003F9FFF7D5FF0120A6
:103F400010BD00001C000020AC0300202DE9F04152
:103F5000374E05460024224620213046FDF779F8E9
:103F6000DFF8D0800022022147464046FDF771F875
:103F7000002201213846FDF76CF80027280601D5FC
:103F8000012200E0002202214046FDF762F86806A7
:103F9000050E002220213046FDF75BF80120FCF7DA
:103FA000B3FC012220213046FDF753F87F1CFFB2FD
:103FB000082FE3D30620FCF7A7FC0022202130467F
:103FC000FDF747F80120FCF79FFC01222021304635
:103FD000FDF73FF80120FCF797FC00222021304636
:103FE000FDF737F800254FF6FF7707EA4404002273
:103FF00020213046FDF72DF80120FCF785FC012239
:1040000020213046FDF725F804214046FDF71CF835
:1040100008B1641CA4B26D1CEDB2102DE5D30122D1
:10402000240911464046FDF714F82046BDE8F0810A
:104030000000024000040240FEB5064600246D4622
:104040003046FFF783FF25F81400641CA4B2052C4A
:10405000F6D300214C1CA0B20BE035F8113035F836
:104060001020934203D925F8112025F81030401C68
:1040700080B20528F1D3A1B20429EBD3002101209D
:1040800035F81020401C114480B289B20428F7D3BF
:104090000320B1FBF0F0FEBD70B506460A480D46A0
:1040A00090F84400C00705D09020FFF7C5FF0446F4
:1040B000D02004E0D020FFF7BFFF04469020FFF798
:1040C000BBFF3480288070BD1C00002070B586B016
:1040D0000C460546694604A8FFF7DEFF01A903A8C0
:1040E000FFF7DAFFBDF80C30BDF81020934203D87B
:1040F00003F13200824205D39A421FD802F1320006
:1041000083421BD2BDF80410BDF80000814203D8E1
:1041100001F13206B04204D388420FD832308142D6
:104120000CD2D01840082880BDF80000BDF804105B
:10413000084440082080012006B070BD0020FBE745
:1041400010B505490C222820FCF749FB0A21BDE8DF
:1041500010403420FCF753BB5400002070B50546D6
:104160004FF400612F48FCF76FFF2F4C30B1A08E49
:1041700001044ED520F40040A08651E02A4800F109
:1041800020010C3015B1FFF7A1FF37E0FFF79EFFCC
:10419000A0B3A089B4F84010401A00B200EE100A93
:1041A0002248B8EEC01A94ED0E0A0188C1EE000A4A
:1041B000490800EE101AB8EE400A30EE800ABCEE54
:1041C000C00A10EE101AA181218CB4F8422094ED9F
:1041D0000F1A891A09B200EE101A4088B8EEC00A08
:1041E0004008C0EE010A00EE100AB8EE400A30EEB8
:1041F000800ABCEEC00A10EE100A2084A08E0004D3
:104200000ED44FF44040A086A089E083208C6086C5
:1042100006E00020E08360864FF6FF70A0812084D6
:10422000002070BD001402401C000020AC030020E0
:104230000006101600061016000000000000000026
:10424000010203040607080900000000010203043C
:104250000000000000000000000000000000040456
:10426000040404040004000000140A0A0000000012
:1042700000000000000014143F140A3F0A0A000066
:1042800000041E1505060C14150F0400000012157D
:104290000D0A142C2A1200000000040A0A1E15152B
:1042A00009360000000202010000000000000000CA
:1042B0000020100808080808081020000002040860
:1042C000080808080804020000000004150E0E1576
:1042D0000400000000000404041F040404000000A3
:1042E00000000000000000000002020100000000C9
:1042F000001F00000000000000000000000000009F
:104300000002000000100808080404020202010074
:1043100000000E1111111111110E00000000040611
:1043200004040404040E000000000E11110804022D
:10433000011F000000000E11100C1010110E0000E3
:104340000000080C0A0A091E0818000000001F01DE
:10435000010F1010110E000000000E09010F1111C5
:10436000110E000000001F090804040404040000EA
:1043700000000E11110E1111110E000000000E119F
:1043800011111E10120E00000000000004000000B9
:10439000000400000000000000040000000404000D
:1043A0000020100804020408102000000000000093
:1043B0001F00001F00000000000204081020100869
:1043C0000402000000000E111108040400040000A3
:1043D00000000E111915151D011E00000000040437
:1043E0000C0A0A1E1233000000000F12120E1212E5
:1043F000120F000000001E1101010101110E00004A
:1044000000000F1212121212120F000000001F12F1
:104410000A0E0A02121F000000001F120A0E0A02F2
:104420000207000000001C1201013911120C0000EB
:1044300000003312121E12121233000000001F047B
:1044400004040404041F000000003E0808080808D3
:1044500008090700000037120A060A0A123700008E
:104460000000070202020202223F000000001B1BA4
:104470001B1B15151515000000003B1216161A1A05
:104480001217000000000E1111111111110E000081
:1044900000000F12120E02020207000000000E11AF
:1044A00011111117190E180000000F12120E0A1226
:1044B0001237000000001E1101060810110F000045
:1044C00000001F1504040404040E00000000331251
:1044D00012121212120C000000003312120A0A0CFF
:1044E0000404000000001515150E0A0A0A0A00004F
:1044F00000001B0A0A04040A0A1B000000001B0A31
:104500000A040404040E000000001F090804040249
:10451000121F0000001C04040404040404041C0012
:10452000000202020404080808100000000E080837
:104530000808080808080E0000040A00000000002F
:104540000000000000000000000000000000003F2C
:104550000004000000000000000000000000000057
:10456000000C121C123C000000000302020E12128A
:10457000120E000000000000001C1202021C0000CD
:1045800000001810101C1212123C00000000000065
:10459000000C121E021C000000003804041E04045B
:1045A000041E000000000000003C120C021E221C31
:1045B00000000302020E1212123700000000040075
:1045C00000060404040E000000000800000C0808A7
:1045D0000808080700000302023A0A0E123700001A
:1045E0000000070404040404041F0000000000008D
:1045F000000F15151515000000000000000F121225
:104600001237000000000000000C1212120C000013
:1046100000000000000F1212120E0207000000003E
:10462000001C1212121C103800000000001B0602B1
:104630000207000000000000001E020C101E000017
:1046400000000004040E0404041800000000000030
:10465000001B1212123C0000000000000037120A7A
:104660000C040000000000000015150E0A0A0000EE
:1046700000000000001B0A040A1B000000000000EC
:104680000037120A0C04040300000000001E080496
:10469000041E00000018080808040808080818008C
:1046A000080808080808080808080808000604049C
:1046B0000408040404040600022518000000000099
:1046C00000000000000000000000000000000000EA
:1046D00000000000000000080808080808080000A2
:1046E0001818000000486C241200000000000000B0
:1046F000000000000000002424247F1212127F1208
:10470000121200000000081C2A2A0A0C1828282A65
:104710002A1C080800000022251515152A58545493
:10472000542200000000000C1212120A76252911F2
:10473000916E000000060604030000000000000067
:1047400000000000004020101008080808080810A9
:10475000102040000002040808101010101010086B
:10476000080402000000000008086B1C1C6B08080D
:104770000000000000000000080808087F08080882
:104780000800000000000000000000000000000021
:10479000060604030000000000000000FE00000008
:1047A0000000000000000000000000000000000009
:1047B0000606000000008040402020101008080479
:1047C00004020200000000182442424242424242D7
:1047D00024180000000000080E080808080808084F
:1047E000083E00000000003C424242202010080425
:1047F000427E00000000003C42422018204040421F
:10480000221C0000000000203028242422227E20C8
:10481000207800000000007E0202021A264040427A
:10482000221C0000000000382402021A26424242E4
:10483000241800000000007E22221010080808083A
:10484000080800000000003C424242241824424272
:10485000423C00000000001824424242645840409C
:10486000241C0000000000000000181800000000D8
:104870001818000000000000000000080000000000
:10488000000808040000004020100804020408107A
:10489000204000000000000000007F0000007F00BA
:1048A0000000000000000002040810204020100852
:1048B000040200000000003C42424640201010006C
:1048C000181800000000001C225A555555552D425D
:1048D000221C00000000000808181414243C224286
:1048E00042E700000000001F2222221E2242424214
:1048F000221F00000000007C424201010101014230
:10490000221C00000000001F22424242424242425A
:10491000221F00000000003F4212121E121202422B
:10492000423F00000000003F4212121E121202021B
:10493000020700000000003C222201010171212237
:10494000221C0000000000E7424242427E424242F6
:1049500042E700000000003E0808080808080808B0
:10496000083E00000000007C101010101010101005
:104970001010110F0000007722120A0E0A121222E4
:104980002277000000000007020202020202020277
:10499000427F000000000077363636362A2A2A2A5F
:1049A0002A6B0000000000E346464A4A5252526217
:1049B000624700000000001C224141414141414149
:1049C000221C00000000003F424242423E0202021E
:1049D000020700000000001C2241414141414D53AB
:1049E000321C60000000003F4242423E121222226E
:1049F00042C700000000007C4242020418204042EE
:104A0000423E00000000007F490808080808080826
:104A1000081C0000000000E742424242424242427B
:104A2000423C0000000000E74242222424141418F3
:104A3000080800000000006B4949494955553622D5
:104A400022220000000000E7422424181818242421
:104A500042E700000000007722221414080808082A
:104A6000081C00000000007E2120101008040442F1
:104A7000423F0000007808080808080808080808ED
:104A8000080878000000020204040808081010203A
:104A900020204040001E1010101010101010101098
:104AA00010101E000038440000000000000000004C
:104AB00000000000000000000000000000000000F6
:104AC000000000FF000608000000000000000000D9
:104AD00000000000000000000000003C427844425A
:104AE00042FC0000000000030202021A2642424279
:104AF000261A0000000000000000003844020202F4
:104B00004438000000000060404040784442424287
:104B100064D80000000000000000003C427E020259
:104B2000423C0000000000F08808087E08080808E1
:104B3000083E0000000000000000007C22221C0251
:104B40003C42423C000000030202023A464242421A
:104B500042E700000000000C0C00000E08080808E6
:104B6000083E0000000000303000003820202020E7
:104B70002020221E0000000302020272120A1612F6
:104B8000227700000000000E08080808080808083E
:104B9000083E0000000000000000007F9292929208
:104BA00092B70000000000000000003B4642424275
:104BB00042E70000000000000000003C4242424288
:104BC000423C0000000000000000001B2642424260
:104BD000221E02070000000000000078444242420A
:104BE000447840E000000000000000774C0404041A
:104BF000041F0000000000000000007C42023C4056
:104C0000423E0000000000000008083E08080808B6
:104C100008300000000000000000006342424242F1
:104C200062DC000000000000000000E742242414C1
:104C30000808000000000000000000EB494955553D
:104C4000222200000000000000000076241818183E
:104C5000246E000000000000000000E7422424143D
:104C600018080807000000000000007E2210080855
:104C7000447E000000C02020202020102020202082
:104C80002020C00010101010101010101010101064
:104C90001010101000060808080808100808080876
:104CA000080806000C32C2000000000000000000EE
:104CB00000000000C9EE000027FC140414A48110B9
:104CC00042084040104017FC2040E0E021502248BC
:104CD0002C4620400040DBDA110411241124112459
:104CE0001124FD24112411241124112411241D2424
:104CF000E124422402040404CAD00200010000009E
:104D00007FFC0100010001003FF821082108210873
:104D100021082128211001000100C8AB000000007B
:104D2000018002400430180860061FF901000100EC
:104D300001003FF80100010001007FFEB6AF000056
:104D4000000000203E20007C002200227F22102252
:104D5000102212221222224223423D82009CB5E7F9
:104D60000000010001001FF0610C410441047FFCC0
:104D70004104410441047FFC01000102010201FCE5
:104D8000D7D3000000003FF8001000600080010051
:104D900000807FFE004000400020002000201840DE
:104DA0000780BCBC10201020102013FEFC20102017
:104DB000102015FC18843088D04810501020105056
:104DC00051882606CAF501000120011001107FFC60
:104DD000038005400540092011102108410481028B
:104DE000010001000100D3D002000200FFFE040018
:104DF00004000FF0081018102FF0481088100FF062
:104E00000810081008500820CFDE00007BF84A0880
:104E1000520853F8620852084BF84A444A486A302C
:104E200052204210428843064200B9AB0080048001
:104E30000480084008401020201042088206040028
:104E40000440082010203FF010100000CBBE0000EE
:104E50003FF8000800087FE8000800081F88108855
:104E60001088108810881F88108800280010BBB692
:104E700000800080FC8004FC050449082A4014409E
:104E8000104028A024A04510811002080404080244
:104E9000D3AD00002080133C122402240224F2240B
:104EA0001224122412B4132812201020282047FEA6
:104EB0000000C4FA0900090011FC3204544899505A
:104EC0001148124414441140108002005104511240
:104ED00090120FF0B4BF00000020102013FE20201D
:104EE00026244A247A241224222423FC7C20002213
:104EF00004227822003CC9AB0000000004000FF03F
:104F0000102020207FFC20842084208420843FF8EF
:104F10002000200220021FFECCEE000000002040F6
:104F200023FE204079FC220423FC220423FC2204DB
:104F300023FC3A0465FA01980204B3E4000001007E
:104F400001007FFE02200410040808043FFC044214
:104F500004400440044208421042607EBED8000073
:104F60000000207E3E804880488048FE48827F8244
:104F700008820C8214FA12842280218040FED0CE56
:104F8000000000007F842208223022C02202220476
:104F90007FC8223022C2220222042208223040404E
:104FA000BBAD000000007FFE00000FF011101110DB
:104FB000111051125FF25112511251124FF2400270
:104FC0007FFCD4B2000000007FFE47E24812481286
:104FD00047E24FF250125012511251124292447253
:104FE000580A3FFCCDBC000000003FFE440247F2DF
:104FF0004C225362408243625E1A41824062430205
:1050000040C240223FFCC6AC00000040204020408F
:1050100020403FFE2000200020003FE02010201014
:105020002010201040104010CFD4000000003FFCA2
:10503000200420043FFC200420041FF824441448CA
:10504000144814480C5004407FFECABE0000000003
:105050003FFC0000000000007FFE008008900888F0
:10506000108810842084208240820780B2CB000008
:10507000002008207FFE002000783F88110808905B
:1050800009207FFE018003400D30310C4002B5A5A0
:1050900000000010081004203FF8210421043FFC08
:1050A000210421043FF801007FFE010001000100FE
:1050B000D6D000000100010001003FFC21042104C2
:1050C00021042104210421043FFC0100010001000E
:1050D0000100D3A20000000008207FFE0820092064
:1050E00001003FF82108210821081FF40140022097
:1050F0000C10700ECEC400000100010000803F7C47
:1051000008100810041004200220024001800180D1
:1051100002601C18E006D7DB00000000102011FE22
:105120002202220249FC5800300013FE252879246F
:1051300001240D24722202A2BACF000000000180D7
:1051400002400430180860061FF800001FF8200411
:1051500020042004200420041FF8C1C10000010025
:1051600001007FFE00003FF820083FF83FF84006AE
:1051700047C24824082008221022603EB6C800001A
:10518000000000803FFE44105FFC4410441043F0D8
:1051900040005FF84408423041C04360BC1EB2E2A8
:1051A0000000000067C2145205520552C552255234
:1051B0000552055215521752228222424442483E5D
:1051C000CAD4000000002014101417FE00120010B2
:1051D000601013F0109010901090149214EA1F0AAF
:1051E0000006B3CC0000000019FE72021202120287
:1051F0007DFC18001BFE3420502053FE1020102090
:10520000102013FED0F20000000000803FFE40009E
:1052100047FC4208413040C05FFE404240424044AB
:10522000404840404440B5F70000000023FE1222F1
:1052300002FA0222E22212FE1272128A128A128AE2
:1052400016BA1A421202040EB9E20000010001046B
:1052500011080908091009207FFE04400440044099
:105260000440084208421042607CB0E600000000A2
:1052700048FE4900490049007EFE4182414479448C
:10528000452845284510452846440382C8A8000003
:105290001000100013FC7D041104190418843488D4
:1052A0005048505010201050108813041402CBF9AD
:1052B000000000003F7C204020403E40227E2244EF
:1052C000224422443E8420842084408441044204B9
:1052D000C6C100003FF8200820083FF82410222013
:1052E0002FF8222022203FFC22204220442084202C
:1052F0000820C4BB04407FFC04401FF010101FF0C6
:1053000010101FF00400FFFE11103FF8D1161150CD
:1053100011200100D0FD2080108010FE0100FE0051
:1053200021FC20243C2424A024A024BC24A024A0CC
:105330004560553E8A00D7AA202020202020FDFC71
:105340004020504093FEFC40108011FC1C04F0886B
:105350005050102010101010BFAA00007FFC082031
:105360000820082008200820FFFE08200820082028
:1053700008201020102020204020D4B4000027FE58
:105380001420144085FC450445FC150415FC252417
:10539000E42024A829242A2230A00040D2BA008088
:1053A000204017FE11208120423C42441664129492
:1053B0002348E24822302220225022880306BEA73A
:1053C0000FE0082008200FE0082008200FE0000070
:1053D0007EFC428442847EFC428442847EFC428481
:1053E000CDF800007FFC40044004421452944A541B
:1053F000442444244A544A545294610440044014BE
:105400004008D5BE1020082008207E20003E042041
:105410004420442025FC290429040F04F1044104FC
:1054200001FC0104B0B410401020102013FEFA0259
:10543000144410401BFE3088D088110810D0102072
:10544000105050882304BCFC201020103B7C2114F9
:1054500041FE7A14A27C2710F97C251025FE22102B
:105460002A10350028FE0000D0A310401020102084
:1054700011FEFC00108831043A0254885088905084
:1054800010501020105010881306D7BC0140412046
:10549000212023FE022016201BFC1220222023FCA8
:1054A000E2202220222023FE22000200B4A5202098
:1054B0002020782049FC91247D24552455247DFC0E
:1054C000552454207C28542457FE45028C00C3FEEA
:1054D0001110111017FC1110FC0013F8120817F826
:1054E0001A0833F8D04017FC10A0111052082406F7
:1054F000B6C10020202011FC1020002003FEF00285
:10550000109410501110109013FE1428184410829B
:105510000302BACD04000E007800087C0844FF4462
:10552000084418441C442A442A444844887C0844BB
:1055300008000800D1D5100008FE7F102220147C3E
:105540007F4444544854525444544854515442287B
:10555000442488423082D6B5084008400FFC1040F1
:10556000104033F8320853F8920813F8120813F871
:10557000120812081FFE1000C9EE00000000000013
:105580001000000800080C7FFC04401001C8A002B5
:10559000186042301832231812C3001403000403A9
:1055A0000C047FF0080F80080B407813601833203C
:1055B00018631818831C190308180300000300005F
:1055C0000000DBDA00000000000004100C04180CDE
:1055D00004108C04108C04108C04108C04D08C3FAC
:1055E000108C04108C04108C04108C04108C04108B
:1055F0008C04108C05F08C0E208C78208C20408C34
:1056000000808C01000C02000C000000CAD00000D9
:105610000000000000300000180000180800001C06
:105620001FFFE000180000182007FFF004182004F6
:105630001820041820041820041820041820041826
:10564000200418200418200418E004184000180052
:10565000001800000000D6D000000000000000008C
:1056600000000000001800001800001800001800DA
:105670003FFFFE3018063018063018063018063086
:1056800018063FFFFE30180600180000180000182A
:1056900000001800001800000000000000000000DA
:1056A000CEC4000000000000000000003800001C14
:1056B00000000600FFFFFF06003006003003006018
:1056C0000300600180C000C18000E30000360000DC
:1056D0001C0000770003C1E01E003C6000070000D2
:1056E00000000000000000000000B2E20000000026
:1056F000000000000000000040000321FF33398358
:1057000033118333019B33C19B33719B33199B331B
:10571000019B33019B33119B3319B333303033304A
:105720006C0330C6036383032E01BE00000000003B
:1057300000000000CAD400000000000000000000CB
:1057400000004000D83000CE1800C21C00C001FF8D
:10575000FF0000C0F800C01800C019FFC0181840B2
:105760001818601918601B18611E18311C1FB139F8
:10577000F01910000F000000000000000000D7D654
:105780000000000000060000000300000000C00050
:105790000001C0C0000107C00001FF00021FFE00A1
:1057A00007F01C0007C070000F00E0000E03F000BF
:1057B0001C0FF0003C0F70003C00E0001800C0001F
:1057C0000000C0000000C0000000600000002000D9
:1057D000000037000001FF00007FF80007F83000EC
:1057E0001F8030000080300000C03000006060008A
:1057F0000018E000000FC0000006000000000000DC
:10580000CCE50000000000000000000000C0000027
:1058100000E0002001B800703FF80061FFC000C345
:10582000030001C60600038C060003080C000608EE
:105830000C000E18183F1E101BF31F903F0700802E
:105840003C1C0190707C019060FE01A0C3F801A097
:105850000FD803A00818036000180340001803C005
:105860000018038000180300001800000018000052
:1058700000100000003000000030000000000000B8
:105880000000B2E200000000000000000000000084
:1058900000000000020C1008071FF80403BFF0020C
:1058A00001BC300303EC3003015C600300D86003EB
:1058B00000D860038098620361B8430771B1430662
:1058C000313243063376C3063A64C7063EECC0065F
:1058D0003E78C0063C3040067C70000678E06006EA
:1058E0007BFFF006F7C00006E4000006400000065B
:1058F000000000060000007C00008FF000007C002B
:1059000000000000CAD400000000000000000000F9
:10591000000000003F0000007F80000001800000C8
:1059200000C0000000C0000000CE038000CFFFC018
:1059300000DD41800FFE0007FFFC000C00F00018A6
:105940000FC03E19FF40F311BC6083307FE003B10C
:10595000FE200333802003700030036000100360DA
:10596000001807C0000C07C00004078000020100F7
:105970000003000000010000000000000000000023
:105980000000000000000000A859000800000020EE
:1059900064000000242F00080C5A00086400002056
:1059A0005C070000342F0008000000000000000029
:1059B0000100000010000000000000000024F400BE
:1059C000000000000D3F00085D410008DD390008BF
:1059D00000000000000000000000000000000000C7
:1059E00000000000000000000000000000000000B7
:1059F00000000000000000000000000000000000A7
:0C5A00000000000000000000000000009A
:040000050800018965
:00000001FF
