:020000040800F2
:10000000787001205D0200088F3F0008DB2E000899
:10001000893F0008890A0008634E000800000000BC
:100020000000000000000000000000009D0100082A
:100030008D0D000800000000F90100080B480008C1
:100040007702000877020008770200084D44000894
:10005000770200087702000877020008770200089C
:10006000770200087702000877020008770200088C
:10007000C50C0008D10C000877020008DD0C000850
:10008000770200087702000877020008770200086C
:10009000770200087702000877020008FD0D0008CB
:1000A000770200087702000877020008770200084C
:1000B0007702000877020008CD48000877020008A0
:1000C000770200087702000877020008770200082C
:1000D000E5440008194E000877020008254E000884
:1000E000E50D000877020008770200087702000893
:1000F00077020008770200087702000877020008FC
:1001000077020008770200087702000877020008EB
:10011000D14900087702000877020008770200083A
:1001200077020008770200087702000877020008CB
:1001300077020008770200087702000877020008BB
:1001400077020008770200087702000877020008AB
:10015000770200087702000877020008770200089B
:10016000770200087702000877020008770200088B
:1001700077020008770200087702000800000000FC
:100180007702000877020008DFF80CD000F090FB3F
:10019000004800479F5B0208787001202C4B1968CB
:1001A0000868B0E8F04F80F30988BFF36F8F4FF015
:1001B000000080F3118870470000000008480068C4
:1001C000006880F308884FF0000080F3148862B65E
:1001D00061B6BFF34F8FBFF36F8F00DF00BF00BF6B
:1001E00008ED00E0DFF80C00016841F470010160E7
:1001F000704700BF88ED00E0EFF30980BFF36F8F19
:10020000134B1A681EF0100F08BF20ED108A20E96A
:10021000F04F106009B44FF0500080F31188BFF325
:100220004F8FBFF36F8F2FF00DFD4FF0000080F365
:10023000118809BC19680868B0E8F04F1EF0100F6B
:1002400008BFB0EC108A80F30988BFF36F8F704746
:1002500098030020EFF305807047000006488047B0
:1002600006480047FEE7FEE7FEE7FEE7FEE7FEE79B
:10027000FEE7FEE7FEE7FEE7BD480008890100084B
:100280002DE9F05F0546002092469B4688460646CB
:10029000814640241BE0284641464746224600F05E
:1002A00070FA53465A46C01A914110D31146184667
:1002B000224600F057FA2D1A67EB01084F462246F6
:1002C0000120002100F04EFA17EB00094E41201EDC
:1002D000A4F10104DFDC484631462A464346BDE826
:1002E000F09F40EA01039B0703D009E008C9121FF1
:1002F00008C0042AFAD203E011F8013B00F8013BE0
:10030000521EF9D27047D2B201E000F8012B491E0B
:10031000FBD270470022F6E710B513460A460446A2
:100320001946FFF7F0FF204610BD421C10F8011BD4
:100330000029FBD1801A704710B5002200E0521C42
:10034000835C8C5CA34201D1002BF8D1D8B2E1B21E
:10035000401A10BD30B504460020034600E05B1C87
:10036000934203D2E05CCD5C401BF8D030BD034625
:1003700011F8012B00F8012B002AF9D1184670471B
:100380002DE9FE4F804681EA0300C00F0C46009025
:1003900021F0004123F00045B8EB0200A94105D24D
:1003A0004046214690461C460B46024623F000403C
:1003B000104347D0270DC7F30A00C3F30A51029038
:1003C000401A019040286BDAC3F3130040F4801BFD
:1003D0000098924620B10023D2EB030A63EB0B0B8B
:1003E00001985946C0F14002504600F0BBF906465C
:1003F0000D4650465946019A00F0D3F910EB08001B
:100400006141002487EA115284EAE7731A4340D01D
:10041000009A62B3019A012A4FEA075215DC001BC9
:1004200061EB02014FF0004202EA0752CDE90042BF
:10043000001C41F5801132462B4600F0D3F903B081
:10044000BDE8F08F40462146F9E7001B61EB020151
:10045000001C41F5801300185B412018A2F500171D
:1004600047EB030140EAD570B6196D4111E06D0804
:100470004FEA360645EAC0754FEA0752001B61EBAA
:100480000201001C41F5801149084FEA30000019B3
:10049000514132462B4603B0BDE8F04F00F093B90E
:1004A0000098012240000023D0EB020263EBE073CE
:1004B000009821464FEAE074B8EB000061EB0401BC
:1004C000E9E783F000435BE781F0004158E72DE95D
:1004D000FE4F81EA030404F0004421F0004100943F
:1004E0004FF0000B23F0004350EA01045ED052EAC3
:1004F00003045BD0C3F30A54C1F30A552C44A4F29D
:10050000F3340194A0FB0254C1F3130141F48011B0
:10051000C3F3130343F4801301FB024400FB034EB7
:10052000840A970A44EA815447EA8357A4FB076880
:1005300002958D0A05FB07854FEA932C04FB0C54AA
:100540002705029D4FEA065847EA1637B5EB08051E
:100550006EEB070C870E920E47EA811742EA831270
:10056000A7FB0201B6EB0B0164EB00042B0D43EA81
:100570000C335E1844EB1C50DA465146E7FB02018F
:10058000C5F313044FEA0B3343EA14534FEA043222
:10059000019C43EA0603A4F10C040294009CCDE9FB
:1005A00000B400F01FF903B0BDE8F08F0020014651
:1005B000F9E72DE9F04D81EA030404F0004B21F046
:1005C000004514464FF0000A23F0004150EA0502AE
:1005D00020D054EA01021DD0C5F30A570246C5F3E4
:1005E0001303C1F31300C1F30A5640F4801543F41A
:1005F0008013A7EB0608101BD64608F2FD3873EBF4
:10060000050002D308F1010801E092185B41B8F13E
:10061000000F03DA00200146BDE8F08D00204FF402
:100620008011064684460EE0171B73EB050705D3C1
:10063000121B63EB050306434CEA010C49084FEA21
:10064000300092185B4150EA0107EDD152EA0300F5
:1006500012D082EA040083EA0501084305D0101B8A
:10066000AB4106D20122002306E000224FF00043F6
:1006700002E06FF0010253101AEB06004CEB085138
:1006800010EB0A0041EB0B01BDE8F04D00F09BB808
:100690000EB5C10F80EAE0700844CA07002140F29D
:1006A00033438DE80E000A460B4600F09BF803B07A
:1006B00000BD00F0004230F000400AD0C10D01F54D
:1006C0006071C0F3160042EA0151C20840071143AD
:1006D000704700200146704730B5041E71F10004D8
:1006E00004DB4FF00044404264EB0101141E73F13F
:1006F000000405DB1C464FF00043524263EB040349
:100700008B4208BF824230BD30B5041E71F1000437
:1007100004DB4FF00044404264EB0101141E73F10E
:10072000000405DB1C464FF00043524263EB040318
:10073000994208BF904230BD30B50B4601460020BB
:100740002022012409E021FA02F59D4205D303FA93
:1007500002F5491B04FA02F52844151EA2F1010214
:10076000F1DC30BD202A04DB203A00FA02F100203F
:1007700070479140C2F1200320FA03F319439040DF
:100780007047202A04DB203A21FA02F0002170474A
:1007900021FA02F3D040C2F12002914008431946E9
:1007A0007047202A06DBCB17203A41FA02F043EAD1
:1007B000E07306E041FA02F3D040C2F1200291401A
:1007C00008431946704710B5141E73F1000408DA87
:1007D000401C41F1000192185B411A4301D120F005
:1007E000010010BD2DE9F04D92469B4611B1B1FAC2
:1007F00081F202E0B0FA80F220329046FFF7B2FFB9
:1008000004460F4640EA0A0041EA0B0153465A46A5
:10081000084313D0114653EA010019D0C8F1400231
:100820005046FFF7AEFF05460E4650465946424633
:10083000FFF798FF084305D0012004E02046394621
:10084000BDE8F08D0020054346EAE0762C433743AF
:100850000A986305E40AA0EB08000022FD0A44EAB6
:1008600047540A3002D500200146E9E70105101976
:100870006941DDE9084500196941BDE8F04DA2E78D
:10088000C1F30A52C1F3130140F2FF3341F4801166
:100890009A4202DA00200146704740F233439A42FE
:1008A000A2F2334202DC5242FFF76BBFFFF75ABF9E
:1008B000064C074D06E0E06840F0010394E80700AD
:1008C00098471034AC42F6D3FFF762FCD4D10E083F
:1008D000F4D10E0870B58C1810F8015B15F0070301
:1008E00001D110F8013B2A1106D110F8012B03E0C9
:1008F00010F8016B01F8016B5B1EF9D12B0705D4D1
:100900000023521E0DD401F8013BFAE710F8013B19
:10091000CB1A921C03E013F8015B01F8015B521E35
:10092000F9D5A142D8D3002070BD0000064882B09E
:10093000016841F002010160006800F002000090CF
:10094000024802B002F0AABB30380240DC020020AC
:1009500070B515460E46044606E02046641CA4B257
:1009600000F006F806F8010B6D1EADB2F5D270BDB1
:1009700010B50446134802F030FC200AA02101EB18
:100980004000C1B20F4802F0E5FB0E4802F063FCE4
:10099000E1B20C4802F0DEFB0A4802F05CFC0948B8
:1009A00002F01BFCA121074802F0D4FB054802F02D
:1009B00052FC044802F08CFB0446024802F02CFC76
:1009C000204610BDDC02002070B514460D460646D8
:1009D00006E02978304600F007F8761CB6B26D1CA8
:1009E000641EA4B2F5D270BD70B504460D4612481F
:1009F00002F0F3FB200AA02101EB4000C1B20E4837
:100A000002F0A8FB0C4802F026FCE1B20A4802F012
:100A1000A1FB094802F01FFC2946074802F09AFB97
:100A2000054802F018FC044802F0F6FBBDE87040EF
:100A30000A2000F0ACB90000DC020020012805D03B
:100A400000224FF48051024800F0B7BD0122F8E7C0
:100A5000001402404FF40051014800F0A1BD000015
:100A60000014024005480068C16841F01001C160EF
:100A700080220349014801F048BF0000A40700207C
:100A8000B409002070477047FEE710B50C460346D6
:100A90004979601E085C2B2806D02D280ED02A2804
:100AA00016D02F281ED026E0187D03EB800010ED15
:100AB000020A50ED010A70EE200A1CE0187D03EBDB
:100AC000800010ED020A50ED010A70EE600A12E09B
:100AD000187D03EB800010ED020A50ED010A60EE74
:100AE000200A08E0187D03EB800010ED020A10EDEB
:100AF000011AC0EE010A184603F056FA184603F030
:100B000053FAB0EE600A184603F05EFA2046BDE8DC
:100B1000104003F04FBE10B500F090F800F0A6F8BA
:100B2000C0B210BD00B585B014216846FFF7F2FBD6
:100B30000820009000200190029002200390694656
:100B4000024800F045FC05B000BD0000000C02406A
:100B500000B585B014216846FFF7DCFB0820009043
:100B6000012001900290022003906946024800F0A3
:100B70002FFC05B000BD0000000C024070B5002045
:100B800004464006050E00F007F8641C2843E4B252
:100B9000082CF6D370BD000070B50024134D04E09E
:100BA000641CE4B2012000F0FFF80821284600F0A0
:100BB000F7FC08B1642CF3D3002404E0641CE4B215
:100BC000012000F0F1F80821284600F0E9FC08B9FE
:100BD000642CF3D3282000F0E7F80821284600F021
:100BE000DFFC002800D0012070BD0000000C024096
:100BF000F0B585B00E46074600F020F800F036F854
:100C000010B1012005B0F0BD00246D46FFF7B6FF1E
:100C100045F82400641CE4B2052CF7D3DDE900019B
:100C20000844DDE90212114408440499884203D1C2
:100C300000983060029838600020E3E710B5FFF7B5
:100C400087FF094C00220821204600F0B6FC142042
:100C500000F09DF801220821204600F0AEFCBDE81E
:100C600010401E2000F0A0B8000C024070B5002417
:100C7000FFF758FF124D04E0641CE4B2012000F0BD
:100C800093F80821284600F08BFC10B1642CF3D3B4
:100C90000FE0642C0DD2002404E0641CE4B20120B7
:100CA00000F082F80821284600F07AFC18B1642C84
:100CB00004D3012070BD642CEFD3FAE7002070BD8F
:100CC000000C0240014800F0BDB90000AC08002053
:100CD000014800F0B7B90000EC070020014800F01F
:100CE000B1B900004C08002001681823CAB2103ABC
:100CF000B2FBF3F2054B6FF30901032A9B5CC3655A
:100D000000D9091D8165084670470000349A0C0817
:100D100010B5014600208B698A6A4FF0C07453B148
:100D2000B3F5005F15D072B1012A0CD0022A0AD0A7
:100D3000032A09D104E01AB1012A06D0022A03D1FC
:100D4000C96AC90100D5012010BDC96AA142FAD003
:100D500010BD002AF7D0012AF2D0022AF3D0032ACC
:100D6000F3D010BD30B50468256825F480252560D2
:100D7000046863608368402B036803D0996000684F
:100D8000C26030BD9A600068C16030BD704770B508
:100D9000054600244FF47A7603E0304600F004F86C
:100DA000641CAC42F9D370BD30B50C4A0021146804
:100DB000E36A4FF47A725843B0FBF2F5626A606AF4
:100DC0009042FCD002D9A0EB020202E0A3EB0202A7
:100DD000024411440246A942F1D330BD0C0900205F
:100DE0007047704710B54FF4805000F0E5FABDE849
:100DF00010404FF4005000F0DFBA0000024901201B
:100E00000870202000F0D8BA0C00002072B6FEE76F
:100E100030B5B3F5804F05D06FF0704140F8221027
:100E2000002030BD8C690B688D6823434C6889892C
:100E3000240144EA0524234343EA014150F82230C7
:100E4000014C23401943E9E70000F0CF10B50A68D0
:100E500050F8223023F0010340F822308B68082B31
:100E600023D000224C681C43CB6813430A691C43FF
:100E700014434A698B691443CA6914430A6A1443C8
:100E80004A6A14438A6A1443CA6A14430A6B1443B5
:100E9000CA6B234309681A43054C50F82130A34319
:100EA000134340F82130002010BD4022DAE7000053
:100EB0007FFF0F0030B5D1E9003443EA04138C689A
:100EC0008D89240244EA054423430C8A094D00EB32
:100ED000820005EB045423430C7D6D0105EB046493
:100EE000896923430B43416801F040410B43436050
:100EF000002030BD0000F0FF2DE9F84F89461E4666
:100F0000904682460024714203220A9802EB410572
:100F1000C8B930E0274608E03B46224649465046DD
:100F2000CDF8008004F06CF87F1CB742F4DD002D92
:100F300003DA05EB8405AD1D04E0A01B05EB80057D
:100F40000A35761E641CB442E4DDBDE8F88F3346F2
:100F5000224649465046CDF8008004F051F8002D55
:100F600003DA05EB8405AD1D04E0A01B05EB80054D
:100F70000A35761E641CB442E9DDE6E710B5144676
:100F800002F02EFB2046BDE8104002F037BC2DE9F0
:100F9000F0410446876D00F015FB054694F83500D6
:100FA0000026022806D08020606584F83460012085
:100FB000BDE8F0812068016821F016010160206819
:100FC000416921F080014161206C08B9A06C20B119
:100FD0002068016821F0080101602068016821F0A3
:100FE000010101600CE000F0EDFA401B052807D973
:100FF00020206065032084F8350084F83460D7E74A
:1010000020680068C007EED194F85C103F2088404B
:10101000B860012084F8350084F834600020C7E708
:1010200090F83510022903D08021416501207047D6
:10103000052180F835100068016821F00101016088
:10104000002070472DE9F84304464FF00009CDF821
:10105000009063484FF41651A56D0068B0FBF1F79E
:101060002E6894F85C20082101FA02F030420FD07B
:101070002068026852070BD5026822F00402026061
:1010800094F85C008140A960606D40F001006065EB
:1010900094F85C104FF0010808FA01F0304208D0D3
:1010A00021684969090604D5A860606D40F0020016
:1010B000606594F85C1004208840304208D02168B4
:1010C0000968890704D5A860606D40F00400606578
:1010D00094F85C1010208840304218D021680968CC
:1010E000090714D5A86020680168490304D5006881
:1010F000000308D5A16C07E00168C90503D40168A5
:1011000021F008010160216C09B12046884794F85C
:101110005C1020208840304231D021680968C9061F
:101120002DD5A86094F8350005282068016806D000
:10113000490347D5006800031DD4616C1CE021F011
:10114000160101602068416921F080014161206C35
:1011500008B9A06C20B12068016821F00801016085
:1011600094F85C103F208840A86084F8358084F8AB
:101170003490216D1FE0E16B09B120468847606D16
:1011800000282BD0606DC00714D0052084F83500EE
:101190002068016821F0010101600098401C009066
:1011A000B84203D820680068C007F6D184F83580BB
:1011B00084F83490E16C002910D001B02046BDE8DD
:1011C000F04308470168C905D5D4016821F0100132
:1011D000016084F8358084F83490CCE7BDE8F8836A
:1011E000D80200202DE9F041044600F0EBF9054655
:1011F0005CB1022084F83500002684F83460206851
:10120000016821F0010101600DE00120BDE8F081DD
:1012100000F0D8F9401B052805D92020606503207F
:1012200084F83500F2E720680068C007F0D1216833
:101230000A6820480240D4E901031843D4E9033581
:101240002B43184363691843A3691843E3691843A0
:10125000236A18431043626A042A03D1D4E90B239A
:101260001A431043086020684069656A20F007014E
:1012700028460D43012704280CD1A06A0543E06AE3
:1012800040B12046FFF744FD20B14020606584F85E
:101290003570BAE7206845612046FFF725FD94F8D0
:1012A0005C203F2191408160666584F835700020A4
:1012B000ACE700003F8010F02DE9F0410446866D58
:1012C00090F83400002501280DD0012084F8340066
:1012D00094F835700020012F07D084F834000225DF
:1012E0002846BDE8F0810220FBE7022784F835702C
:1012F00060652046FFF736FD94F85C103F2088407B
:10130000B0602068016841F016010160206C20B1D6
:101310002068016841F0080101602068016841F01F
:1013200001010160DCE70000F0B587B014216846D8
:10133000FEF7F0FF1A48016800292FD10121016052
:1013400018480024016841F001010160006802258D
:1013500000F0010005904FF68070CDE9000502AA6B
:1013600003260C2782E8D00069460F4800F030F8C9
:101370004CF23370CDE9000502AA694682E8D0003C
:101380000A4800F025F841F20400CDE9000502AA60
:10139000694682E8D000064800F01AF807B0F0BDB0
:1013A000040000203838024000100240000C0240C7
:1013B0000018024070470000044910B50A68024254
:1013C00002D00860FFF7F6FF10BD0000143C01409A
:1013D0002DE9F84FDFF89C910022A9F1040B0327B7
:1013E0004FF00F0C09F1040AABF1040E01250B6854
:1013F00095402B40AB426ED10C7904F00304012CD4
:1014000001D0022C15D18668540007FA04F826EAA8
:101410000806D1F80C8008FA04F848EA0608C0F873
:1014200008804468AC430D79C5F300159540254309
:1014300045600C79E443A40708D0C568540007FA56
:1014400004F6B5438E68A6402E43C6600C7904F0BE
:101450000304022C11D1D40800EB8406356A54072A
:10146000E40E0CFA04F825EA0805D1F8108008FA11
:1014700004F848EA0508C6F820800568540007FA11
:1014800004F6B5430E7906F00306A6402E43066027
:101490004C6814F4403F66D0374C256845F48045CD
:1014A0002560246822F0030504F480440094334C42
:1014B00005EB0408D8F808589407260F0CFA06F430
:1014C000A5432F4CA04201D1002424E02D4CA04282
:1014D00002D101241FE046E02B4CA04201D102249E
:1014E00019E02A4CA04201D1032414E0284CA04268
:1014F00001D104240FE0274CA04201D105240AE0C9
:10150000254CA04201D1062405E0244CA04201D183
:10151000072400E00824B4402C43C8F80848D9F850
:1015200000404D464E689C43F60200D51C432C609B
:10153000DAF8004055464E689C43B60200D51C437D
:101540002C60DBF800405D464E689C43B60300D536
:101550001C432C60DEF8004075464E689C43F60341
:1015600000D51C432C60521C102AFFF43FAFBDE88D
:10157000F88F0000083C0140443802400030014030
:10158000000002400004024000080240000C02403B
:10159000001002400014024000180240001C0240EB
:1015A0000069084000D001207047426921EA020327
:1015B0000A4043EA0241816170470AB18161704784
:1015C0000904FBE70148806870470000CC02002056
:1015D000024881680278114481607047CC02002083
:1015E0000B4810B5016841F400710160016841F4D5
:1015F00080610160016841F480710160032000F0A6
:101600009FF80F2000F006F800F050F8002010BD01
:10161000003C024030B505461F4887B000240168F1
:1016200041F004010160006806A900F00400059083
:10163000684600F0CFF90398A8B100F0EBF940003C
:101640001649174AB0FBF1F11648491E026040F2F4
:10165000E732C0E90324C0E90114846101F03FF8D6
:10166000040003D015E000F0D5F9E9E70D4801F0DA
:1016700065F804000DD11E2000F034F8102D07D2BB
:10168000002229461E2000F03BF80748056000E0D4
:10169000012407B0204630BD4038024040420F00D0
:1016A000000800400C090020D00200200C4882B045
:1016B000016841F480410160006800F480400090BE
:1016C0000748001F016841F0805101600068002256
:1016D00000F0805000900F21901E02B000F010B872
:1016E00044380240002809DB00F01F02012191402C
:1016F0004009800000F1E020C0F8001170470000B0
:10170000F0B40E4B1B68C3F30223C3F10704042C8F
:1017100000D904241D1D072D01D2002300E0DB1E8B
:10172000012606FA04F56D1E0D409D409E40761E72
:10173000164045EA0601F0BC03F02CBC0CED00E0BD
:10174000064A00F0070110684FF6FF03184040EA10
:101750000120034908431060704700000CED00E0D1
:101760000000FA052DE9F843044600684FF001092E
:10177000C1074FF0000501D1400726D5DFF80C81E5
:10178000C8F86850FFF71EFF0646414F04E0FFF718
:1017900019FF801B022857D838680001F7D4606809
:1017A000217A800140EA0170394984310860C8F823
:1017B0006890FFF707FF064604E0FFF703FF801B72
:1017C000022841D838680001F7D52078800752D523
:1017D0002F484030016841F08051016000682D4F72
:1017E00000F080500090386840F480703860FFF757
:1017F000E9FE064604E0FFF7E5FE801B022823D839
:101800003868C005F7D5224E7036306810F4407045
:1018100020D0A18901F4407181421BD030681E495B
:1018200020F44070C1F800900D6030603068C0074F
:1018300010D0FFF7C7FE054641F2883707E0FFF7F3
:10184000C1FE401BB84202D90320BDE8F8833068CE
:101850008007F4D5E0680E49C0F301220831032A5D
:101860000BD0086820F4F81008603068A189C1F333
:101870000B01084330600020E7E70A68074B22F4B9
:10188000F812184002430A60EFE7000000004742E8
:101890000038024000700040400E4742FFFCFF0F3E
:1018A0002DE9F0470D46040065D0DFF81491D9F812
:1018B0000000EFB200F00700A84207D289F80070DC
:1018C000D9F8000000F00700A84254D120683D4E2E
:1018D000810712D5400703D5306840F4E0503060EE
:1018E0002078000703D5306840F4604030603068ED
:1018F000A16820F0F000084330602078C0072DD0A8
:10190000304960680839012812D0022813D0032812
:1019100011D00968890700292DDA316821F0030107
:1019200001433160FFF74EFE804641F2883A0EE0F7
:1019300009688903EFE709688901ECE7FFF742FED0
:10194000A0EB0801514502D90320BDE8F0873068BB
:10195000616800F00C00B0EB810FEFD1D9F80010F6
:10196000484601F00701A94207D90770006800F056
:101970000700A84201D00120E7E72078400705D5FD
:101980003068E16820F4E0500843306020780007B8
:1019900006D53068216920F4604040EAC10030601B
:1019A00000F058F83168084AC1F30311515CC8408F
:1019B0000649086006480068FFF72CFE0020C4E7CF
:1019C000003C0240083802403C9A0C08D802002033
:1019D000D00200200F2202600C4A136803F00303B8
:1019E0004360136803F0F0038360136803F4E0536B
:1019F000C36012684FF4E05303EAD2020261044864
:101A0000006800F0070008607047000008380240D6
:101A1000003C02400448054900680968044AC1F3D3
:101A20008221515CC8407047D8020020083802402B
:101A30004C9A0C080448054900680968044AC1F337
:101A40004231515CC8407047D8020020083802403B
:101A50004C9A0C08154810B5006810F00C01144899
:101A600013D0431004290FD008290ED10F4C241F86
:101A7000216801F03F022168490207D52068C0F3C0
:101A80008810A0FB030106E0184610BD2168C1F3D1
:101A90008811A1FB00010023FEF7F2FB2168C1F3CE
:101AA0000141491C4900B0FBF1F010BD083802406B
:101AB0000024F4002DE9F84F040075D02078DFF8F9
:101AC00038A3C007AAF1040548D00AF10400016850
:101AD000C1F38101012908D00068C0F38100022808
:101AE0000AD1DAF80000400206D52868800335D50F
:101AF00060680028E1D031E06068B0F5803F10D028
:101B0000B0F5A02F286810D020F480302860286815
:101B100020F4802028606068A0B1FFF753FD0646DE
:101B20000CE0286840F48030F4E740F4802028601E
:101B3000F7E7FFF747FD801B642871D8286880030A
:101B4000F7D50BE0FFF73EFD064604E0FFF73AFD50
:101B5000801B6428F1D828688003F7D42078DFF848
:101B60009C9280074FF0000B3DD5A348001D0168F3
:101B700011F00C0F08D00068C0F3810002280AD1D0
:101B8000DAF80000400206D42868800715D5E0681E
:101B9000012809D111E0E068B8B10120C9F80000BE
:101BA000FFF710FD064605E022E1FFF70BFD801B65
:101BB0000228C2D828688007F7D52868216920F054
:101BC000F80040EAC10028600DE0C9F800B0FFF756
:101BD000F9FC064604E0FFF7F5FC801B02281FD83D
:101BE00028688007F7D42078000722D5824F8448E0
:101BF0006169703771B101210160FFF7E3FC0646AE
:101C000004E0FFF7DFFC801B022809D83868800752
:101C1000F7D50EE0C0F800B0FFF7D4FC064605E0AB
:101C200082E0FFF7CFFC801B02287DD83868800750
:101C3000F7D42078400765D56F484FF000083C3056
:101C40000068C0000BD46C483C30016841F0805102
:101C5000016000684FF0010800F080500090694F6B
:101C60003868C0050FD4386840F480703860FFF7DA
:101C7000A9FC064604E0FFF7A5FC801B022853D808
:101C80003868C005F7D55C4FA0686C3701280FD0C5
:101C90000528386810D020F001003860386820F03E
:101CA00004003860A068B0B1FFF78CFC06460EE077
:101CB000386840F00100F4E740F004003860F7E7CE
:101CC000FFF780FC811B41F28830814263D838687D
:101CD0008007F5D50DE0FFF775FC064606E0FFF737
:101CE00071FC811B41F28830814254D838688007EA
:101CF000F5D4B8F1000F05D03F483C30016821F021
:101D000080510160A069B8B33B49091D0968C1F35E
:101D10008101022946D00228584606D0C9F8600041
:101D2000FFF750FC044639E035E04F46C9F8600043
:101D3000FFF748FC064604E0FFF744FC801B02283E
:101D400029D828688001F7D4D4E907010843A16A9B
:101D50002D4A490802EB0141626A41EA82110843B7
:101D600094F82C1040EA0161CAF80010012038668E
:101D7000FFF728FC044605E03CE0FFF723FC001BCE
:101D8000022808D828688001F7D533E0FFF71AFC4D
:101D9000001B022802D90320BDE8F88F28688001C3
:101DA000F4D427E00128F7D0DAF80000E26900F463
:101DB000800191421CD1226A00F03F01914217D16B
:101DC00047F6C071626A0140B1EB821F10D1A26A6E
:101DD0004FF0FF3300F4403103EB5202B1EB024FFE
:101DE00006D194F82C1000F07060B0EB016F01D0B8
:101DF0000120D1E70020CFE704380240000047422D
:101E0000800E4742007000400000FFFF2DE9F843BC
:101E1000894638494FF4FA484FF47A730E68B6FB96
:101E2000F8F159430091017F01295AD00127077722
:101E3000022141770368CA2159620368532159621C
:101E400001688B684FF000045B054FF0FF054FF011
:101E5000030C06D5009B5B1E009344D0CB685B0748
:101E6000F8D48B6823F480638B600168CB6803F03F
:101E7000800363F49063CB60B6FBF8F14FF47A73A0
:101E8000594300910168009B5B1E00932BD0CB68E7
:101E90005B07F8D58B6823F007038B6001688B68BC
:101EA00013438B600268C2F8149013490A6842F425
:101EB00080020A60104908310A6842F480020A6010
:101EC00001688A6842F480428A6001688A6842F444
:101ED00080628A6001684D62477704770020BDE820
:101EE000F8830220FBE74D6280F81DC004770320D1
:101EF000F5E70000D8020020003C014070470000D8
:101F000010B50A4904464FF4800008602168C8688B
:101F1000400508D5C86800F0800060F49060C86093
:101F20002046FFF7EBFF0120607710BD143C014015
:101F300010B500680B4641680D480140080CD87088
:101F4000C1F304245C7001F03F049C70C1F3423182
:101F5000197052B902F0F8F9D870587802F0F4F913
:101F60005870987802F0F0F99870002010BD0000C9
:101F70003FFFFF0010B50B460168896A5960016890
:101F80000969C1F30E019960006801680D480140BC
:101F9000C1F305401870C1F306245C7001F07F04A2
:101FA0009C70890DD97052B902F0CEF9187058782A
:101FB00002F0CAF95870987802F0C6F998700020BB
:101FC00010BD00007F7F7F0010B5040002D0607F4D
:101FD00010B106E0012010BD00202077204600F05F
:101FE00041F8022060772068C168C943C90632D52C
:101FF000CA214162216853204862204602F0B8F9A4
:1020000020BB20688168164A114081602068816881
:1020100062681143D4E904231A43114381602168A3
:10202000E068086120680169228941EA0241016192
:10203000204602F0C0F948B921680A6C22F48022D7
:102040000A6421680A6CA3691A430A642268FF21A2
:10205000516208B110BD00200121617710BD000060
:10206000BFFF8FFF1FB500210091019102910391E5
:1020700000680C49884214D102200090C0010390EE
:102080006846FFF76FFB08B1FEF7C0FE0649012066
:102090000860002205210320FFF732FB0320FFF731
:1020A00021FB1FBD002800403C0E474270B504468E
:1020B000007F0B46012819D0012626770220607781
:1020C000B2B19878D97840EA014558781978000279
:1020D00040EA413005432168CA2048622168532004
:1020E0004862204602F044F9D0B122E0022070BDDF
:1020F0005878C10603D500F0EF000A305870D87840
:1021000002F02BF90204587802F027F942EA002283
:10211000987802F022F90243187842EA4035DAE76B
:102120000748054020684560204602F044F900B9A0
:1021300066772268FF2151620021217770BD00007F
:102140003FFFFF002DE9F0410446007F0D460128C6
:1021500023D04FF0010884F81C80022060772068AB
:10216000002780684FEA4060D2B1002800DBEF70A2
:10217000A878297840EA01466878E978000240EAC0
:10218000815006432168CA20486221685320486272
:10219000204602F0EDF8B8B12CE00220BDE8F08155
:1021A000002800DBEF70287802F0D7F80204687886
:1021B00002F0D3F842EA0022A87802F0CEF80243F7
:1021C000E87842EA8056DDE70D4806402068066060
:1021D0002068816821F480218160D5E903100143E2
:1021E0002068826811438160204602F0E4F808B953
:1021F00084F81D802268FF2151622777CEE7000016
:102200007F7F7F0070B505460A482968C860FFF7E0
:10221000D9F904464FF47A7606E0FFF7D3F9001BAC
:10222000B04201D9032070BD2868C0688006F4D58B
:10223000002070BD5F7F01007047000038B5016865
:1022400004464A688868C043430606D5C30704D1DC
:10225000D3435B0601D4216C05E0830708D4D34344
:102260001B0605D4616C01B02046BDE8304008472C
:10227000830603D5430601D5C30551D4D3439B063A
:102280004ED443060AD494F85130032B49D0636DE1
:1022900043F004036365CB688B680093830609D41D
:1022A000636D43F0010363658B6800930B6823F053
:1022B00040030B60C00506D4606D40F00800606507
:1022C000206880680090606D002829D020684168EF
:1022D00021F0E0014160012084F85100900701D411
:1022E000D00722D02068416821F003014160114DE0
:1022F000E06C40B10565E06CFEF792FE18B1606DD0
:1023000040F040006065A06C002809D00565A06C15
:10231000FEF786FE002803D0606D40F04000606547
:1023200038BDC8688868009038BD2046FFF784FF34
:1023300038BD00001545000870B5040009D0606A7A
:10234000002540B125616561A56294F8510040B156
:102350000CE0012070BD6068B0F5827FF4D0E561CB
:10236000F2E784F85050204600F044F8022084F848
:1023700051002068016821F040010160A088218996
:1023800000F4827001F404410843A18901F4006162
:102390000843217C01F002010843217D01F0010185
:1023A0000843218B01F400710843217F01F03801BB
:1023B000084394F8201001F080010843218D01F4B6
:1023C0000051084321680860A069042101EA104017
:1023D00094F8241001F01001084321684860206837
:1023E000C16921F40061C1616565012084F8510073
:1023F000002070BDF0B587B0044614216846FDF793
:1024000089FF2049206888423AD11F480025016889
:1024100041F480410160006800F4804005901A4852
:102420001038016841F004010160016801F0040105
:102430000591016841F0020101600068022600F088
:10244000020005900C20CDE9000603270524029523
:10245000CDE9037469460D48FEF7BAFF3003CDE9B4
:1024600000060295CDE9037469460948FEF7B0FFFE
:10247000002205212420FFF743F92420FFF732F939
:1024800007B0F0BD0038004040380240000802406C
:10249000000402402DE9FF4F81B01F4693460446D9
:1024A00001250E9EFFF78EF8804694F85100616872
:1024B000012806D0B1F5827F3CD1A168C9BB0428B0
:1024C00038D10298002870D0BBF1000FFBD0002F4C
:1024D000F9D094F8500001282CD04FF0010A84F86C
:1024E00050A094F85100042802D0052084F851002F
:1024F0004FF00009C4F85490C4F838B0E787A787B4
:1025000002992163E786A786C4F84090C4F84490F6
:1025100020680168490603D4016841F04001016068
:10252000E068B0F5006F606808D0E8B3012F47D0CD
:102530007DE0FFE7022005B0BDE8F08F08B1012F74
:1025400037D1206B21680088C860206B801C206315
:10255000E08E401EE0862CE02068816889070DD55A
:10256000E18E59B1012D09D1216B0988C160206B21
:10257000801C2063E08E401EE08600252068816874
:10258000C9070BD0E18F49B1C068A16B0880A06B6F
:10259000801CA063E08F401EE0870125FFF712F842
:1025A000A0EB0800B04201E00AE064E001D3701C37
:1025B0004ED1E08E0028CFD1E08F0028CCD13CE076
:1025C000206B216800780873206B401C2063E08E2C
:1025D000401EE0862BE02068816889070DD5E18EDA
:1025E00059B1012D09D1216B09780173206B401C71
:1025F0002063E08E401EE086002520688168C907C0
:102600000BD0E18F49B1C068A16B0870A06B401C72
:10261000A063E08F401EE0870125FEF7D3FFA0EB0B
:102620000800B04202D3701C01D011E086B1E08EE8
:102630000028D0D1E08F0028CDD142463146204637
:1026400001F070FF50B12020606584F8509012E0D6
:1026500084F851A084F8509003206CE7A06818B962
:102660002068C1688068009084F851A084F8509078
:10267000606D0028F1D001205DE770B515460E466B
:10268000040003D094F8490010B107E0012070BDA8
:10269000002084F84800204600F01DF804F10801ED
:1026A0002068FEF7D3FB3146A2682068FEF702FCE3
:1026B000D4E901022946236BFEF7AAFBA168206832
:1026C00050F8212042F0010240F82120012084F836
:1026D0004900002070BDFEF727BE7047704710B557
:1026E000040003D094F83D0010B107E0012010BDB4
:1026F000002084F83C00204600F01EF8022084F8F8
:102700003D00211D206802F0E7F8012084F8460012
:1027100084F83E0084F83F0084F8400084F84100CB
:1027200084F8420084F8430084F8440084F84500AB
:1027300084F83D00002010BD7047000090F83D1067
:10274000012901D001207047022180F83D10016865
:10275000CA6842F00102CA6000681149884214D078
:10276000B0F1804F11D00F4988420ED00E498842F7
:102770000BD00E49884208D00D49884205D00D493A
:10278000884202D00C49884204D1816801F00701D7
:10279000062903D0016841F0010101600020704763
:1027A000000001400004004000080040000C004010
:1027B00000040140004001400018004070472DE92E
:1027C000F04104460068C66805694FF00007A90794
:1027D00013D5B10711D5F91E0161012020772068BA
:1027E00080698007204602D0FFF7E8FF04E000F090
:1027F0007EF8204600F07CF82777680716D570072A
:1028000014D521686FF00400086102202077206849
:10281000806910F4407F204602D0FFF7CFFF04E02C
:1028200000F065F8204600F063F82777280715D5F3
:10283000300713D521686FF0080008610420207765
:102840002068C0698007204602D0FFF7B7FF04E088
:1028500000F04DF8204600F04BF82777E80616D533
:10286000F00614D521686FF0100008610820207769
:102870002068C06910F4407F204602D0FFF79EFF19
:1028800004E000F034F8204600F032F82777E8073B
:1028900008D0F00706D021686FF0010008612046DB
:1028A00000F028F8280608D5300606D521686FF014
:1028B000800008612046FFF710FF680608D5700603
:1028C00006D521686FF040000861204600F01CF832
:1028D000A8060AD5B00608D521686FF02000086167
:1028E0002046BDE8F041FFF7F9BEBDE8F081704732
:1028F0007047000000680349884201D1FEF768BEB6
:102900007047000000080040704738B5044690F852
:102910004200202801D0022038BD51B14AB1012027
:10292000206300206063204602F0F4F9010002D029
:1029300005E0012038BD206B012802D001210846A6
:1029400038BD206802684068009020680C3050E86C
:10295000002F42F0100240E80023002BF5D1EEE7F3
:1029600010B500680A49884211D10A4800684068D9
:102970004FF0FF33C0F18000C2B20749074800F0B2
:102980005BFABDE8104080210348FDF7C3BC10BDD1
:1029900000480040AC080020B4090020A407002033
:1029A00070470000F8B5016804460868CA684B69BA
:1029B00010F00F0F4FF0000559D003F0010602F49C
:1029C0009077374365D0C10705D0D10503D5616C39
:1029D00041F001016164410705D5D90703D0616C5D
:1029E00041F002016164810705D5D90703D0616C0C
:1029F00041F004016164010707D502F02001314371
:102A000003D0616C41F008016164616C00293AD027
:102A1000800604D5900602D5204602F093F820687F
:102A20004069616CC0F38010090700D460B3204690
:102A300002F053F820684069400621D52068143020
:102A400050E8001F21F0400140E80012002AF5D1B3
:102A5000E06BA8B16E490165E06BFEF7E1FA002872
:102A600011D0E06B016D01B0BDE8F040084783066E
:102A70000FD593060DD52046BDE8F84002F062B8A8
:102A80002046FFF78DFFF8BD2046FFF789FF6564FC
:102A9000F8BD266B2023012E7DD1C6067BD5D60638
:102AA00079D508684868009048694FF002064006EA
:102AB00041D5E16B086840680004000CE8D0A28DA5
:102AC0008242E5D9E085C869B0F5807F2DD02068C5
:102AD0000C3050E8001F21F4807140E80012002AF9
:102AE000F5D12068143050E8001F21F0010140E8C2
:102AF0000012002AF5D12068143050E8001F21F0A0
:102B0000400140E80012002AF5D184F842302563E4
:102B100020680C3050E8001F21F0100140E800123E
:102B2000002AF5D1E06BFEF732FA6663A08DE18DE5
:102B3000401A81B22AE0A08DE18D401A81B2E08D69
:102B40000028A5D00029A3D020680C3050E8002F21
:102B500022F4907240E80027002FF5D1206814304D
:102B600050E8002F22F0010240E80027002FF5D1A5
:102B700084F84230256320680C3050E8002F22F0A2
:102B8000100240E80023002BF5D166632046FFF7D2
:102B9000E7FEF8BDFFE705062BD5150629D594F805
:102BA00041002128F5D1A068B0F5805F01D12069EE
:102BB000B0B1206A411C2162216800784860E08C35
:102BC000401E0004000CE084E3D12068C16821F0BD
:102BD0008001C1602068C16841F04001C160D8E750
:102BE000206A0088C0F308004860206A801C2062C8
:102BF000E5E74006CDD55006CBD5CA68204622F081
:102C00004002CA6084F8413000F066F9C1E7000074
:102C1000DD49000870B5040004D094F84100002597
:102C200010B106E0012070BD84F84050204600F04D
:102C300023F8242084F841002068C16821F4005161
:102C4000C160204601F0E0FF2068016921F4904155
:102C500001612068416921F02A0141612068C16851
:102C600041F40051C1606564202084F8410084F87B
:102C700042006563002070BD2DE9F04786B0044630
:102C800014216846FDF746FB6349DFF888C102233B
:102C90002068614E10390322DFF880A100259F06CD
:102CA0004FF4806960454CD1306840F400203060BA
:102CB000306800F400200590086840F001000860CA
:102CC0000868694600F0010005908DE82C00082096
:102CD000CDE903205046FEF77BFB524E5048B846E4
:102CE0003060C6E90175C6E903597561B561F561E2
:102CF00035624F4630467562FEF774FA08B1FEF74A
:102D000085F8E663B463474E454860363030E6E800
:102D100002084020A1C6434846F814596030B56106
:102D2000F56135627562FEF75DFA08B1FEF76EF87F
:102D3000A663002205213420B463FEF7E1FC3420B1
:102D400027E0DFF8E4804FF0070C404526D13248F9
:102D5000001D046844F010040460006800F01000D6
:102D60000590086840F0010008600868694600F0B6
:102D7000010005904FF4C0608DE82900CDE9032CD7
:102D80005046FEF725FB002205212520FEF7B8FC62
:102D90002520FEF7A7FC06B0BDE8F087DFF88C80A1
:102DA0004045F8D1306840F480203060306800F44D
:102DB00080200590086840F00200086008686946B5
:102DC00000F0020005904FF440608DE82900CDE945
:102DD000032C1748FEF7FCFA124E1148C03618387B
:102DE0003060C6E90175C6E9035980157561C6E909
:102DF0000650356230467562FEF7F4F908B1FEF709
:102E000005F8E663002205212720B463FEF778FC6D
:102E10002720BEE7004C004040380240000002403E
:102E200040600240EC0700200010014000480040D4
:102E300000040240704770472DE9F843044690F8BB
:102E400041001F4615460E46202802D00220BDE84C
:102E5000F8838EB185B100206064212084F84100A0
:102E6000FEF7B0FBA5848146E584A0684FF02008FA
:102E7000B0F5805F02D003E00120E8E7206910B1DF
:102E8000354600260EE000250CE08021204601F0AA
:102E90008BFFA0B9BDB115F8010B21684860E08C2B
:102EA000401EE084E08C4B464FF000020097002863
:102EB000EBD14FF04001204601F076FF40B184F89D
:102EC00041800320C3E736F8020BC0F30800E4E7B3
:102ED00084F841800020BAE77047FEE70EB53E4D0A
:102EE0004FF47A7611F056F910F0C1FF032408E090
:102EF000641E286AE4B2804728776420FDF747FF04
:102F000014B1287F0028F3D1032409E0641EE86B84
:102F1000E4B2804785F838006420FDF745FF1CB116
:102F200095F838000028F1D1E86A8047296B012024
:102F300088473046FDF72BFF03244FF4967708E0CF
:102F4000641EA868E4B2804728703846FDF71FFF6A
:102F500014B128780028F3D100F07AFA4FF6E07027
:102F60004FF4A074002100902346F022084600F0A0
:102F700045FA3046FDF70BFF4FF6FF700021009039
:102F80002346F022084600F039FA4FF61F0213A13B
:102F900010208DE807009C2374228C21542000F01F
:102FA000C7FB4FF4FA60FDF7F2FE0F480068804758
:102FB00019F0E4FA1FF088FC1FF0AAFC2CF0DEFAEE
:102FC0000AA011F0E9FA1348006824F0D3F84FF48E
:102FD000FA7023F0BDFF85E73400002057656C636D
:102FE0006F6D652100000000EC02002048617264F2
:102FF0007761726520696E697469617465206861C2
:1030000073206265656E20636F6D706C65746564B6
:10301000210000001000002010B5194886B0016C96
:1030200003A88847174C9DF81130A07883420ED032
:103030009DF810206078824209D0A370627012A1BE
:10304000684601F087FF6946E0681AF0C3FA9DF808
:103050000E30E078834211D0E3700A499DF80C00ED
:103060002071143101EB80000AA150F8042C68464D
:1030700001F070FF694620691AF0ACFA06B010BD85
:10308000340000200C010020253032643A25303213
:1030900064000000257320253032640010B586B02E
:1030A000044614216846FDF735F920890090012077
:1030B000019002900220039069462068FEF788F98B
:1030C0006089009069466068FEF782F906B010BD1D
:1030D0002DE9F04106460824002501F0CFF914E05F
:1030E0006806070E0021304601F0B6F90220FDF710
:1030F0005BFE0121304601F0AFF90120FDF754FEDF
:10310000304601F0B2F940EA0705641EE4B2E7D2A6
:103110000021304601F0A0F9304601F0CDF92846F3
:10312000BDE8F08110B50446002101F0BCF9012092
:10313000FDF73AFE0121204601F08EF90120FDF74E
:1031400033FE0021204601F087F9BDE81040012040
:10315000FDF72ABE70B50D460646082418E001F0BA
:103160007BF90220FDF720FE05F08001304601F0DA
:103170009AF90120FDF718FE6806050E0120FDF7FB
:1031800013FE0121304601F067F90120FDF70CFE26
:10319000641EE4B24FF000013046E0D201F05CF969
:1031A000BDE870400220FDF7FFBD10B504460121C7
:1031B00001F079F90120FDF7F7FD0121204601F02A
:1031C0004BF90120FDF7F0FD0021204601F044F904
:1031D000BDE810400220FDF7E7BD10B5044601210F
:1031E00001F061F90220FDF7DFFD0121204601F029
:1031F00033F90120FDF7D8FD0021204601F053F9F5
:103200000120FDF7D1FD0021204601F025F9BDE8A0
:1032100010400120FDF7C8BD10B50446002101F0A3
:103220001BF90220FDF7C0FD0021204601F03BF90B
:103230000120FDF7B9FD0121204601F00DF9012023
:10324000FDF7B2FD0121204601F02DF9BDE8104047
:103250000120FDF7A9BD70B50546052401F00EF962
:103260000121284601F0F8F805E0641EA4B201200F
:10327000FDF79AFD84B1284601F0F7F80028F4D153
:10328000284601F019F90021284601F0E5F802204E
:10329000FDF78AFD002070BD284601F00DF9284693
:1032A000FFF7BAFF012070BD1CB50020164E174F66
:1032B000174D8DF800008DF8040001244FF002082E
:1032C000002010F0D5FD012802D0022810D102E024
:1032D0008DF8004012E000F0E9FF8068B0420BD1A9
:1032E0008DF804400123002201A9386823F0CAFEAA
:1032F000012023F02DFEE3E78DF80080012300225A
:1033000069462868F2E70000140100202800002028
:103310002400002030B505460A480488408821462C
:103320004443491E401E8AB283B20021084600F081
:103330005BF90021044801E00580491CA142FBD350
:1033400030BD0000940900200020006C2DE9FE4FE4
:103350000026A2EB000882465F1A701E3546894699
:10336000B8F1000F02DD4FF0010102E003D14FF090
:103370000001019102E0C8F100080190002F02DD78
:103380004FF0010002E003D14FF00000009002E096
:10339000C7F1000700904046B84501DD044600E053
:1033A0003C46601C4FF0000B029015E01FFA89F1BB
:1033B0001FFA8AF000F016F846443D44A64202DDAA
:1033C0000199361B8A44A54202DD00992D1B8944D0
:1033D0000BF101001FFA80FB02998B45E6DDBDE889
:1033E000FE8F000000B500F0FBF80248024900889B
:1033F000088000BDE80200200020006C2DE9F041AB
:10340000141A641CA6B25C1A641CA7B2DDF81880FA
:1034100000F0EAF800250AE0002404E0404600F04D
:10342000EDF9641CA4B2B442F8D36D1CADB2BD4238
:10343000F2D3064841880088491EBDE8F041401E8D
:103440008BB282B20021084600F0CEB89409002069
:1034500010B56420FDF79BFC5F4CCF20208000213D
:10346000A01C0180C921018030210180ED21218033
:1034700064210180032101801221018081210180CA
:10348000E821218085210180102101807A2101809D
:10349000CB212180392101802C2101800021018054
:1034A0003421018002210180F72121802021018027
:1034B000EA212180002101800180C02121801B217F
:1034C0000180C121218000210180C521218030217E
:1034D00001800180C7212180B72101803621218010
:1034E000082101803A21218055210180B1212180CC
:1034F000002101801A210180B62121800A2101804A
:10350000A2210180F2212180002101802621218039
:1035100001210180E02121800F2101802A210180E9
:1035200028210180082101800E21018008210180CD
:1035300054210180A9210180432101800A210180B9
:103540000F21018000210180018001800180E121A3
:103550002180002101801521018017210180072190
:10356000018011210180062101802B21018056213B
:1035700001803C21018005210180102101800F2163
:1035800001803F21018001800F2101802B212180BA
:10359000002101800180012101803F2101802A2139
:1035A00021800021018001800180EF210180112014
:1035B00020807820FDF7EBFB29202080002000F000
:1035C000F5F8012291020548FDF7F7FFBDE810402C
:1035D0004FF6FF70FFF79EBEFE1F006C0014024006
:1035E0000B460246AFF30080F0B40D4E0D4FB48988
:1035F0003C80050ABC1C2580C0B22080100A2080B7
:10360000D0B22080F0893880080A2080C8B220809B
:10361000180A2080D8B22080F0BC00F0B5B80000B5
:1036200094090020FE1F006C2DE9FF4F81B00EAE03
:10363000824696E83100203800F0FF080298DFF853
:10364000E0B02044401E83B20AEB5400BBF80010E7
:10365000401E009182B250460299FFF7C5FF4FF01D
:1036600000067DBB2F4908EB480001EB800901F201
:10367000744000EB081817E00C2C03D018F8065023
:1036800000270CE019F80650FAE7E80701D0039884
:1036900000E0049800F0B2F86D087F1CFFB2B7EBB1
:1036A000540FF2D3761CF6B2A642E5D327E00C2CD9
:1036B00009D01D4800EB08100025875D029800EB3B
:1036C000060915E019E0174808EB480100EB8100F6
:1036D000F2E70398ABF80000F80706D00AEB050004
:1036E0001FFA89F180B2FFF77DFE7F086D1CEDB2F5
:1036F000B5EB540FEDD3761CF6B2A642D7D30098A3
:10370000ABF8000009484188008805B0491EBDE8B3
:10371000F04F401E8BB282B200210846FFF764BF13
:10372000E8020020549A0C08C89E0C089409002056
:103730002DE9FE4F044600F0FF0810190D46DDE9A3
:103740000C761FFA80FA58191FFA80F94FF0000B17
:1037500013E0544502D3E91944468DB24D4511D2C8
:103760008DE881084FF6FF73294620460E9AFFF731
:103770005BFF04EB570084B2761C3078A0F1200187
:103780005E29E6D9BDE8FE8F02480349008908801A
:103790007047000094090020FE1F006C024A108050
:1037A000901C018070470000FE1F006C12492A2205
:1037B0004FF4A0738A812B22CA812C220A812E22E7
:1037C0004A81F02258B101280DD002280FD00328D9
:1037D00011D10B804A80B8213620FFF7DFBF0A8065
:1037E0004B800821F8E70B804A806821F4E70A80C3
:1037F0004B80D821F0E770479409002001490880E8
:10380000704700000020006C21F00AFD012023F029
:103810009FFBF9E770B50C46054600F017F820EA63
:1038200004012846BDE8704000F038B810B5064CD9
:10383000012240212046FDF7C0FE20460122BDE8BE
:1038400010401146FDF7B9BE0008024070B57E2158
:1038500001EA40000A4D40F0800400224021284641
:10386000FDF7ABFE204600F043FE002000F040FED6
:103870000446012240212846FDF79FFE204670BDE8
:103880000008024070B50C460546FFF7DFFF40EA2E
:1038900004012846BDE87040AFF3008070B50D46C6
:1038A0007E2101EA4004094E002240213046FDF706
:1038B00084FE204600F01CFE284600F019FE30462B
:1038C000BDE8704001224021FDF777BE00080240AC
:1038D000064882B0016841F040010160006800F0D4
:1038E00040000090024802B0FFF7D8BB30380240D9
:1038F0005C0300202DE9F04106461C4615460F46A4
:103900002048FFF76AFC7006010E1E48FFF722FCF4
:103910001C48FFF7A0FC28B11A48FFF77DFC0120E6
:10392000BDE8F08139461748FFF714FC1548FFF74A
:1039300092FC1448FFF751FC012000EB4600C1B295
:103940001048FFF707FC0F48FFF785FC0BE00D4818
:10395000012D0FD0FFF7BCFB20700A48FFF7E2FBF8
:103960006D1EEDB2641C002DF1D10648FFF754FC2A
:103970000020D5E7FFF7ACFB20700248FFF715FCED
:10398000EEE700005C0300202DE9F04107461D46EC
:1039900016460C461548FFF720FC7806010E134822
:1039A000FFF7D8FB1148FFF756FC80B921460F48B6
:1039B000FFF7D0FB0D48FFF74EFC00240FE0295D18
:1039C0000A48FFF7C7FB0948FFF745FC28B107483D
:1039D000FFF722FC0120BDE8F081641CE4B2B44290
:1039E000EDD30248FFF718FC0020F4E75C03002049
:1039F000FDF724B8FDF72EB8FDF734B8044A0B469E
:103A0000127F002A03D101461846FDF7F1B870472E
:103A100034000020FDF77FB808B50020009004486E
:103A2000007810B9684605F0C2FE009880B208BD63
:103A30003400002022F030BC0349097809B100208D
:103A4000704705F009BF0000340000200149002044
:103A500048717047340000200149012048717047C7
:103A60003400002000F086BB10B586B004001FD0E3
:103A7000002269460F48FEF77DFA002205A90D488D
:103A8000FEF756FA9DF81700E0709DF8151061706A
:103A90009DF81620A27014232CF0D4F920709DF804
:103AA000000020719DF8010060719DF80200A07176
:103AB00006B010BD9C06002000F092BC00F0AABC2D
:103AC00010B5012901D0022903D1401E0C31C0B22A
:103AD000C9B21A24491C11FB04F10A24B1FBF4F108
:103AE00000EB900000EB930008441044594200EBB7
:103AF0004100401E00E0C01D0028FCDB072190FBB8
:103B0000F1F201FB120000B90720C0B210BD0000A5
:103B1000114808B5016841F40011016000680022F5
:103B200000F40010009005210C20FDF7E9FD0C20A9
:103B3000FDF7D8FD002205210D20FDF7E1FD0D2048
:103B4000FDF7D0FD002205210F20FDF7D9FDBDE8CE
:103B500008400F20FDF7C6BD3038024010B501F017
:103B600081F9044A0021044823F0C0FA034908609F
:103B700010BD0000440A03081D4700080000002093
:103B800010B58EB01C216846FCF7C4FB1C2107A8A9
:103B9000FCF7C0FB1A484FF0204110220160194980
:103BA0004160062181600021C160C0E90412816189
:103BB000C16113020162C0E909139302C0E90B134A
:103BC0004163816341640F203C230090CDE90103F0
:103BD00003AC112384E80E0009240691CDE90740C7
:103BE00009AC082084E80F000D9107AA6946044833
:103BF000FEF743FD002801D0FDF708F90EB010BD17
:103C00004C060020040100A02DE9F04F87B01421DC
:103C10006846FCF77FFB72480025016841F01001FF
:103C20000160016801F010010591016841F0040193
:103C30000160016801F004010591016841F0200173
:103C40000160016801F020010591016841F08001E7
:103C50000160016801F080010591016841F00101F6
:103C60000160016801F001010591016841F0020164
:103C70000160016801F002010591016841F008014D
:103C80000160016801F008010591016841F04001FF
:103C900001600068534E00F0400005900122182199
:103CA0003046FDF78AFCDFF8409100224FF4A05126
:103CB0004846FDF782FC4D4F012241213846FDF771
:103CC0007CFCDFF82CA1012220215046FDF775FC79
:103CD000DFF820B1012203215846FDF76EFC0022D7
:103CE00008214548FDF769FC01241820CDE90004AE
:103CF00069463046CDE90245FDF76AFBA002CDE9F1
:103D000000040326CDE9024669464846FDF760FBFC
:103D100041204FF002088DE8310169463846FDF731
:103D200057FB2027CDE90074CDE90246694650468D
:103D3000FDF74EFBCDE90064CDE9024669465846E1
:103D4000FDF746FB0420CDE900056946029458467C
:103D5000FDF73EFBE002CDE90005694602944846C6
:103D6000FDF736FB200303958DE8110169464846AF
:103D7000FDF72EFB6003CDE9000569464846029534
:103D8000FDF726FB300300904FF40410CDE9010449
:103D900069461948FDF71CFB4FF488100097CDE9E0
:103DA000010569461548FDF713FB08208DE8310031
:103DB000694611480394FDF70BFB002205211720EB
:103DC000FDF79EFC1720FDF78DFC00220521282021
:103DD000FDF796FC2820FDF785FC07B0BDE8F08FC5
:103DE0003038024000100240001402400008024037
:103DF0000000024000040240000C02400018024093
:103E000010B586B014216846FCF784FA21480024D6
:103E10001F490594C0E900147F218160FF21C0E99A
:103E2000031444618461FEF7CFF808B1FCF7EEFF9C
:103E300012208DF800008DF801408DF802400394A7
:103E40000122694613480494FEF77CF908B1FCF797
:103E5000DDFF07208DF8140009208DF815001520CE
:103E60008DF8160024208DF81700012205A90948B5
:103E7000FEF71CF908B1FCF7C9FF002211460548FE
:103E8000FDF7C4FF002801D0FCF7C0FF06B010BD4D
:103E9000002800409C060020104810B50E49016023
:103EA0004FF48271416000218160C1604FF4007263
:103EB0000161C0E905122822C0E90721416281623F
:103EC0000A21C162FEF738FA002803D0BDE810408D
:103ED000FCF79CBF10BD000000380040BC0600206D
:103EE0000C4810B50A4901604FF4E13141600021EE
:103EF00081600C22C160C0E904128161C161FEF7DA
:103F000089FE002803D0BDE81040FCF77FBF10BD3C
:103F1000004C0040140700200C4810B50A4901600D
:103F20004FF4E1314160002181600C22C160C0E9A1
:103F300004128161C161FEF76DFE002803D0BDE867
:103F40001040FCF763BF10BD001001405C0700206B
:103F50000C4810B50A4901604FF4E131416000217D
:103F600081600C22C160C0E904128161C161FEF769
:103F700051FE002803D0BDE81040FCF747BF10BD3C
:103F800000480040A4070020FEE770477047FEE7A6
:103F900000B5034602E0184600F006F8184600F0A7
:103FA00020F80028F7D000BD017D49B100EB810267
:103FB000491E9FED040A017582ED000A002070473A
:103FC000FF20704700000000017D042907D000EBAE
:103FD0008102491C017582ED000A00207047FF2014
:103FE0007047007D08B100207047012070472DE91F
:103FF000FF4F8246994617461046FFF7C9FF4846CD
:1040000000F0CCFB0025AB466BF3070401212046F2
:1040100061F307009AF800106BF3070630390A299C
:1040200003D3012004B0BDE8F08F4FF00008F2EE9A
:10403000041A88E01AF808202E2A08D1032161F317
:10404000070410F0FF0F01D00220EBE72046A2F199
:104050003003092B40D8397D052903D899F805206C
:10406000052A01D90320DDE700EE103A6BF30704BF
:104070006BF30706B8EEC00A10F0FF00F0EE400A3E
:1040800002D0032824D01FE01DB16D1CEDB22846DC
:104090000CE007EB810050ED010A00EEA10AF0EE02
:1040A000400A0CE080EEA10AF0EE400A401EC0B2C9
:1040B000F8D207EB810010ED010A70EE800A384655
:1040C000FFF772FFB0EE600A3846FFF77DFF37E07A
:1040D000C0EE210A0125ECE72B2A05D02D2A03D0BA
:1040E0002A2A01D02F2A2CD1397D052903D899F805
:1040F0000510052901D9042094E701210025C0B24B
:1041000061F3070462F30706012804D0484600F073
:1041100065FB10B110E0052084E799F80510A9F1BE
:104120000100085C114600F05FFB28B149463846A3
:10413000FCF7ABFCF1B200E01146484600F044FB4E
:10414000204608F10108019A9045FFF673AF002060
:1041500068E703211420FFF75DBB10B51420FFF7BB
:1041600075FB800705D10321BDE810401420FFF73F
:1041700089BB10BD10B5FFF759FB00F003F8002014
:1041800010BD000010B5204C012211462046FDF75D
:1041900014FA0220FCF7FBFD002201212046FDF766
:1041A0000CFA0220FCF7F3FD012211462046FDF730
:1041B00004FA0220FCF7EBFD0F210120FFF76EFB54
:1041C0000220FCF7E4FD3D211120FFF767FB1E21D3
:1041D0002D20FFF763FB00212C20FFF75FFB8D21D3
:1041E0002A20FFF75BFB3E212B20FFF757FB4021E6
:1041F0001520FFF753FBFFF7ACFF0220FCF7C7FDCC
:10420000BDE81040FFF7A9BF0008024038B51248CA
:1042100023F01EF800281DD10F4823F01FF80E4888
:1042200023F016F8012528B10C490B4823F024F897
:104230000A4C05E00848017E00EB810050F8044C70
:10424000206880470095A068002364220068092147
:104250001EF0F4FD38BD00005409002000010020CC
:1042600038B5114822F0F4FF0F4C00281BD102E0B2
:104270000D4822F0F3FF207E0128F9D8C0B204EBEC
:10428000800050F8040C0068804701200090207ED8
:10429000002304EB8000642250F8040C092180689C
:1042A00000681EF0CBFD38BD540900200448017E93
:1042B00021B100EB810050F8040C704700207047DA
:1042C000540900200448017E21B100EB810050F820
:1042D000080C7047002070475409002038B5044688
:1042E0000D48027E052A15D22AB100EB820050F853
:1042F000040C406880472146074822F0BDFF206833
:10430000804701200090A0680023642200680921F2
:104310001EF094FD38BD000054090020084910B576
:10432000002008760749064822F0A6FF054C2068C1
:104330008047A0680068BDE8104013F009BB00008A
:104340005409002000010020010901EB810100F067
:104350000F0000EB4100C0B27047002102E00A38B4
:10436000C0B2491C0A28FAD2090740EA1160704716
:104370002DE9F041054600680024C168490617D4BC
:10438000C16841F08001C160FDF71CF906464FF499
:104390007A78042706E0FDF715F9801B404501D91E
:1043A0006F7701242868C068400601D4002CF2D041
:1043B0002046BDE8F08170B5044600680025C1685C
:1043C00021F08001C16020688068800606D4204604
:1043D000FDF718FF10B1042060770125284670BD55
:1043E00008B5002300938DF802208DF801108DF898
:1043F000030014232BF026FD8DF8000000226946EF
:104400000348FDF753FE002801D0FCF7FFFC08BD70
:104410009C06002070B586B00D4604461646142151
:104420006846FBF777FF8DF800408DF801508DF856
:104430000260002269460448FDF784FE002801D08E
:10444000FCF7E4FC06B070BD9C0600200148FDF7B7
:1044500057BD00009C0600204289406811B1816967
:10446000114300E011048161704710B501890068B3
:10447000FDF796F8012800D0002010BD10B586B0D9
:10448000044614216846FBF745FF20890090002070
:104490000190012002900220039069462068FCF7F9
:1044A00097FF06B010BD0289006811B18169114300
:1044B00000E011048161704710B586B004461421F4
:1044C0006846FBF727FF208900901120019000200B
:1044D00002900220039069462068FCF779FF06B03D
:1044E00010BD00000148FDF7A9BE0000BC06002079
:1044F00001B582B00A2000900123044A02A90448B1
:10450000FDF7C8FF014800780EBD0000340300200D
:10451000BC06002010B5806B0021C187C186FDF765
:104520008BFE10BDF8B515460E460B4600920446AC
:104530000122022100F02CF8A0B9134813490068A9
:10454000B0FBF1F04FF47A71484300906068B0F529
:10455000827F0DD13346002280212046009500F055
:1045600017F870B1606D40F0200060650320F8BD61
:10457000009830B1401E009020688068C04300065B
:10458000F6D50020F8BD0000D802002000366E01EC
:104590002DE9F8431E46914688460446089DFDF7DE
:1045A00011F8401B351AFDF70DF80746254800683D
:1045B000C0F3CB30684338E0701C37D0FDF702F809
:1045C000C01BA84203D215B1009860B32CE020684C
:1045D000416821F0E00141606068B0F5827F0BD155
:1045E000A068B0F5004F02D0B0F5806F04D120680C
:1045F000016821F040010160A06AB0F5005F09D1B7
:104600002068016821F4005101602068016841F4CC
:1046100000510160012084F85100002084F850000E
:104620000320BDE8F8830025401E009020688168C3
:1046300038EA010004D000204845BDD10020F0E751
:104640000120F9E7D80200201CB50020184C194DB4
:10465000194E8DF800008DF8040000231A466946B3
:10466000206822F0B1FC88B99DF80000012802D032
:10467000022809D00AE0FFF719FE8068A84203D19A
:104680000E48FFF72BFE01E0FFF7EAFD00231A4674
:1046900001A9306822F098FC30B99DF80400012887
:1046A00002D10748FFF71AFE0A2022F051FCD4E796
:1046B0002400002014010020280000203C010020DC
:1046C000B00100200EB5134D134C4FF4FA760023C1
:1046D0001A4602A9286822F077FCB0B9207810B9F0
:1046E000606980476080207F78B9626A01A9684666
:1046F0009047019800F109013B2906D20099002951
:1047000003DD642901DAA1776077304622F020FCCE
:10471000DDE700002C00002034000020074D4FF49E
:1047200000544FF4FA7606A00FF036FF21462846D3
:10473000FCF73BFF304622F00BFCF4E70008024098
:1047400044656661756C74207461736B20697320B5
:1047500072756E6E696E67210D0A000070B51446A1
:104760000D460646FBF7E1FDC1B223462A46304618
:10477000FFF73DFC58B12846FFF70AFC204600F041
:104780000DF8FF2070BD21462846FCF77EF9204633
:1047900000F024F80028F6D0002070BD10B50446C3
:1047A00002E0204600F006F8204600F017F8002846
:1047B000F7D010BD417929B100234A1E42714354FC
:1047C00018467047FF2070474279042A04D0531CD2
:1047D0004371815400207047FF207047407908B131
:1047E00000207047012070472A280CD02F280AD0BB
:1047F0002B2804D02D2805D12B2904D001E02D2908
:1048000001D0002070470120704710B54FF0E02024
:1048100000692BF0F9FE012803D0BDE810402BF011
:10482000B5BB10BD30B593B030216846FBF772FDC3
:1048300014210CA8FBF76EFD1E480025016841F00D
:1048400080510160006800F0805011901A480168A2
:1048500041F4804101600068022400F4804011901E
:1048600006200090012002900390102004900694EE
:104870000820CDE90750A820CDE9090404200B90B9
:104880006846FDF717F908B172B6FEE70CA90F20CC
:1048900081E831004FF4A0500F904FF480501090F9
:1048A00005210CA8FCF7FCFF002801D072B6FEE73A
:1048B00013B030BD4038024000700040024801682B
:1048C00041F470010160704788ED00E00148FDF798
:1048D00076BF00000C090020F0B50268294D2A4E71
:1048E0002A4FDFF8ACC02B4B4FF0804EA84209D0C6
:1048F000704507D0B04205D0B84203D0604501D022
:10490000984203D122F070044A682243A8421BD087
:10491000704519D0B04217D0B84215D0604513D0B9
:10492000984211D01C4CA0420ED01C4CA0420BD07F
:104930001B4CA04208D01B4CA04205D01A4CA042F0
:1049400002D01A4CA04203D122F44074CA68224318
:104950004C6922F08002224302608A68C2620A68BF
:104960008262A84201D0984201D109690163012104
:1049700041610169C90703D0016921F001010161A9
:10498000F0BD0000000001400004004000080040AD
:10499000000C004000040140004001400044014080
:1049A0000048014000180040001C0040002000406A
:1049B000012020F0A3BB10B523F07CF9002805D01E
:1049C000D0E90012BDE810401046084710BD0000B5
:1049D0000148FDF7E7BF00001407002010B5806B09
:1049E0000021C185C184FDF7DBFF10BD70B5846B6C
:1049F0002068406994F84110C0F3C01000252129B7
:104A000004D118B1E584204600F08EF82068406992
:104A100094F84210C0F38010222904D118B1E58522
:104A2000204600F05AF8606C40F0100060642046A8
:104A3000FDF7B6FF70BD10B50146806B09680968C7
:104A40004FF00003C9052ED4C38501680C3151E82D
:104A5000002F22F4807241E80024002CF5D1016877
:104A6000143151E8002F22F0010241E80024002C0B
:104A7000F5D10168143151E8002F22F0400241E8DD
:104A80000024002CF5D1202180F84210016B01296F
:104A900009D101680C3151E8002F22F0100241E8E1
:104AA0000024002CF5D14363016B012902D0FEF7ED
:104AB000C1F910BD818DFDF753FF10BD10B5806B9E
:104AC00001214163016B012902D0FEF7B4F910BD49
:104AD000818D4908FDF744FF10BD01680C3151E894
:104AE000002F22F4907241E80023002BF5D10168D9
:104AF000143151E8002F22F0010241E80023002B7D
:104B0000F5D1016B012909D101680C3151E8002F61
:104B100022F0100241E80023002BF5D1202180F87B
:104B2000421000210163704701680C3151E8002FE9
:104B300022F0C00241E80023002BF5D1202180F8AB
:104B40004110704708B590F84210222901D0022088
:104B500008BD81684FF48053994201D1026922B1A6
:104B6000826A99421BD049B10AE00268816A5268A0
:104B7000C2F308020A80816A891C08E0016971B1E8
:104B80000168496801F07F011170816A491C8162E6
:104B9000C18D491E0904090CC18503D01BE00168C1
:104BA0004968F1E70168CA6822F02002CA6001681A
:104BB000CA6822F48072CA6001684A6922F0010260
:104BC0004A61202180F8421000214163026B012AD2
:104BD00003D0FEF72FF9002008BD016301680C31F6
:104BE00051E8002F22F0100241E80023002BF5D1FC
:104BF00001680A68D20602D50A6849680091818D69
:104C0000FDF7AEFEE7E7000070B5044600680169F5
:104C1000E26821F4405111430161A1682069E26911
:104C200001436069104301432068C26849F20C6384
:104C30009A430A43C26020684169A26921F4407125
:104C40001143416131492068884202D0304988428D
:104C500002D1FCF7EFFE01E0FCF7DCFEE269002385
:104C6000192164253226B2F5004F626828D0A0FBD6
:104C70000101930F9200FBF703FB0146B0FBF5F037
:104C80006FF01802504301EB800006EB0010B0FB00
:104C9000F5F000F0F002B1FBF5F002EB0012B1FB11
:104CA000F5F06FF01803584301EB800006EB00109D
:104CB000B0FBF5F000F00F0021681044886070BD73
:104CC000A0FB010192185B41FBF7DAFA0146B0FB49
:104CD000F5F00201B1FBF5F06FF01803584301EB5A
:104CE000800006EBC000B0FBF5F000F0F80002EB2E
:104CF0004002B1FBF5F0584301EB800006EBC00029
:104D0000B0FBF5F000F00700D6E70000001001400E
:104D10000014014037B582B01346039A82620446FC
:104D2000838500206064222184F84210E56B1B49D2
:104D3000E963E56B1A492964E56B1A49E964E16B9B
:104D400008652168E06B091DFCF7B6FA2068016868
:104D500040680090206948B120680C3050E8001F7E
:104D600041F4807140E80012002AF5D12068143027
:104D700050E8001F41F0010140E80012002AF5D17F
:104D80002068143050E8001F41F0400140E8001254
:104D9000002AF5D105B0002030BD0000374A0008D8
:104DA000BD4A0008ED4900082DE9F8431F4690462A
:104DB0000D460446089E23E0701C21D0FCF702FC3F
:104DC000C01BB0421AD8CEB12068C168490717D5B8
:104DD000802D15D0402D13D00168C94309070FD489
:104DE00001680025406800902046FFF776FE082005
:104DF000606484F840500120BDE8F8830320FBE79D
:104E00002068006835EA000004D000204045D3D077
:104E10000020F1E70120F9E70148FDF7C3BD0000DC
:104E20005C07002010B50548FDF7BCFDBDE810404B
:104E3000802203490148FDF768BD0000A407002057
:104E4000B409002008B500208DF800000246034890
:104E500001236946C06922F015F908BD1000002041
:104E60007047FEE738B500231A460121214822F099
:104E70009BF9214C4FF47A71206222F0D1F9012183
:104E80000022084622F0D2F8012160610022084683
:104E900022F0CCF80121A0610022084622F0C6F8D9
:104EA000E061164A0021164822F020F9134A2060DA
:104EB00024320021134822F019F9104A6060483268
:104EC0000021114822F012F90C4AA0606C32002136
:104ED0000E4822F00BF9094AE060903200210C489C
:104EE00022F004F92061012300226946E06922F0E2
:104EF000C9F838BD454E000810000020680A0308B4
:104F0000DD2E000809380008A932000849460008CB
:104F1000C5460008704770470FB4024610B504A993
:104F2000034B039801F03EFE10BC5DF814FB00003B
:104F3000251901080FB4054B10B503A9044A0298BE
:104F400001F030FE10BC5DF814FB000025190108CB
:104F5000480600200FB4084B10B504A902AA039814
:104F600001F020FE044602A9002002F0B2F920461A
:104F700010BC5DF814FB0000D372000830B4144676
:104F80000D4602462146284630BC014B01F00ABEC0
:104F9000251901080907090E002804DB00F1E020AB
:104FA00080F80014704700F00F0000F1E02080F856
:104FB000141D704702E008C8121F08C1002AFAD168
:104FC00070477047002001E001C1121F002AFBD189
:104FD000704770B5044600256FF02F0608E0206882
:104FE000411C2160007805EB850106EB4101451865
:104FF0002068007800F012F90028F0D1284670BD32
:105000002DE9F05F15461C46DDF828B00E46074630
:1050100001EB040800EB050A1FFA88F11FFA8AF079
:105020005A46FBF7ABFF1FFA88F1A7EB05081FFAFA
:1050300088F05A46FBF7A2FFA6EB04091FFA89F194
:105040001FFA8AF05A46FBF799FF1FFA89F11FFAF7
:1050500088F05A46FBF792FF06EB050907EB0408B8
:105060001FFA89F11FFA88F05A46FBF787FF3C1BAD
:105070001FFA89F1A0B25A46FBF780FF751BA9B24F
:105080001FFA88F05A46FBF779FFA9B2A0B25A4638
:10509000BDE8F05FFBF772BF2DE9FF5F82B0002132
:1050A000DDE90430020DDDF840B0034318D044F6CA
:1050B0001050A2F2FF3242431514119801281FD05C
:1050C000A5EB0B00401C5FEA000A4FF000064E4FB4
:1050D000DFF83891B046504615D5CAF1000413E008
:1050E000119801244AA3012801D16FEA0B0102980B
:1050F000119AC0E90031C0E9024206B0BDE8F09F54
:10510000CBF10000DFE704460021404A491842EB9A
:105110000450CDE9001012E0E00707D032463B46CC
:1051200040464946FBF7D3F98046894632463B461E
:1051300010461946FBF7CBF906460F466410002CC3
:10514000EAD1DDE90401DDE90023BAF1000F06DA56
:10515000FBF7BDF942464B46FBF7B9F905E0FBF713
:1051600028FA42464B46FBF724FA04460E46002234
:10517000284BFBF7C9FA03D84FF0FF30014607E090
:105180000022254B20463146FBF7FAF8FBF778FB67
:10519000102409E0002C0ADB0A220023FBF770F838
:1051A000039B30321A55641E50EA0102F2D1641C8E
:1051B000039AC4F111031444119A012A03D0012265
:1051C00008430DD10AE0084304D000204FF0110B32
:1051D000119072E7A3EB0B056D1E0DE05B4504DD3E
:1051E0004FF0000205F1010504E003DA4FF0000280
:1051F000A5F10105002AECD002981199C0E902310D
:10520000C0E9004579E70000000014400000F03FCD
:10521000300000000000F0430000E03F3038092873
:1052200001D80120704700207047000010B54421CC
:10523000074800F075FF00221E2106481FF0B8FF46
:10524000054CA06002F0B8FB0020207010BD0000EB
:10525000505300206D7A00088C0400202DE9F0479F
:105260000F46814690461146384600F00CF940B191
:1052700000224146384600F0B2F828B10020BDE8CF
:10528000F0874FF0FF30FAE70026384610F054F868
:10529000401E0FFA80FA38460FF0FEFF401E02B2A1
:1052A000B8F80210B7F90200091A09B200290FDD97
:1052B0003B88012663F30F0460F31F44BB88084456
:1052C00063F30F0560F31F45C9F80040C9F80450A7
:1052D000B8F906007988411A511A09B2002913DD7C
:1052E000B7F9062090420FDA3A8862F30F04BA88C1
:1052F00060F31F4462F30F05084460F31F4509EB98
:10530000C600761C04604560B8F90200B7F90210C7
:10531000884200DC0846B8F90610B7F90620914229
:1053200000DB1146B8F80030B7F90020091A9B1AC3
:105330001BB209B2002B10DD00290EDD62F30F0451
:105340001A4462F30F05421862F31F4509EBC602C7
:1053500060F31F4414605560761CB8F904203B8844
:10536000D71AAAEB07031BB2002B0EDD62F30F0462
:1053700060F31F441A4462F30F05084460F31F45AD
:1053800009EBC600761C04604560304677E770B5CF
:10539000B1F90040B2F900309C4200DD23460380A1
:1053A000B1F90240B2F90250AC4200DC2C46448014
:1053B000B1F90450B2F90460B54200DB354685808E
:1053C000B1F90610B2F90620914200DB1146C18006
:1053D0000120AB4201DC8C4200DD002070BDF8B53D
:1053E0000D460446B0F90000B1F900101646884297
:1053F00047DBB4F90210B5F90220914241DBB4F960
:105400000410B5F9042091423BDCB4F90610B5F95B
:105410000620914235DC96B3ADF800006088ADF807
:10542000020032466946284600F099F8002827D045
:10543000A088ADF800006088ADF8020032466946E9
:10544000284600F08CF800281AD02088ADF800001B
:10545000E088ADF8020032466946284600F07FF841
:1054600000280DD0A088ADF80000E088ADF802005B
:1054700032466946284600F072F8002800D0012024
:10548000F8BD0020F8BDB0F90020B1F904309A420F
:1054900013DCB0F90420B1F900309A420DDBB0F909
:1054A0000220B1F906309A4207DCB0F90600B1F9E2
:1054B0000210884201DB0120704700207047F8B5D8
:1054C0000D460446B0F90400B1F9001016468842B2
:1054D00043DBB4F90600B5F9021088423DDBB4F9AC
:1054E0000000B5F90410884237DCB4F90210B5F9B0
:1054F0000620914231DC76B3ADF800006088ADF84B
:10550000020032466946284600F029F818BBA088F8
:10551000ADF800006088ADF80200324669462846C2
:1055200000F01DF8B8B92088ADF80000E088ADF8AB
:10553000020032466946284600F011F858B9A088A2
:10554000ADF80000E088ADF8020032466946284612
:1055500000F005F808B10020F8BD0120F8BD2DE9E4
:10556000FC4105460F46B1F90000B5F9001014469C
:1055700088423BDBB5F90410884237DCB7F90200FA
:10558000B5F90210884231DBB5F9061088422DDCEE
:10559000002C76DD28460FF0CFFE00EBD0704610D1
:1055A00028460FF079FE00EBD0704010864200DAFA
:1055B0003046844200DD04462888ADF80000288883
:1055C00000222044ADF804006888ADF80200688825
:1055D00039462044ADF806006846FFF7C0FF40B1E9
:1055E000BDF804002044ADF804003FE00020BDE811
:1055F000FC81E8880022001BADF80200E888ADF8C5
:10560000060039466846FFF7AAFF28B1BDF8040036
:105610002044ADF8040011E0A8880022001BADF87A
:105620000000A888ADF8040039466846FFF797FFE8
:1056300050B1BDF80000001BADF80000BDF802003D
:10564000001BADF8020016E06888ADF8020068881B
:1056500000222044ADF8060039466846FFF77FFF78
:1056600070B1BDF80000001BADF80000BDF80600E9
:105670002044ADF80600394668461DF009F9B6E742
:10568000FFE70120B3E710B5B1F90030B2F90040EF
:10569000A34200DB23460380B1F90230B2F9024095
:1056A000A34200DB23464380B1F90430B2F9044041
:1056B000A34200DC23468380B1F90610B2F906202C
:1056C000914200DC1146C18010BD00002DE9F0417F
:1056D0008AB004461FF008FD0026A34D0746009639
:1056E0000CB1E06801E012F0B1F8686000691CF0EC
:1056F000CDFF6868406908B11CF0C8FF6868C069E0
:105700001CF0C4FF6868006A1CF0C0FF686801698B
:1057100091B11DF067F923F0A5F822F0C7FD686884
:10572000B0F85011E9B30068017CC9071FD0C06808
:105730004068E0B1002415E0A0F850610AB0BDE86F
:10574000F081011991F8301151B900F5AC7000F0F9
:105750003EFD696801EBC4010A6B0260496B416060
:10576000641CA4B26868B0F85011A142E9D8686816
:105770004FF48071303018F0B2FB6868202100F5DA
:10578000987018F0ACFB6868A0F8506138461FF0BC
:10579000A5FC009068680068436A13B12A68009904
:1057A000984718F0E3F900F029F900F0FDF86F4F81
:1057B0007C69D4BB17F08DFF17F0BAF804460022BD
:1057C0007F211CF037FE11F0EFF901460022204640
:1057D0001CF0F3FD11F0A1FC0146002220461CF054
:1057E000BAFE0022032120461CF0A6FE002203215F
:1057F00020461CF092FE0022032120461CF092FE5F
:105800000022032120461CF092FE002203212046A4
:105810001CF09CFE56A1204617F0DCFE00231A4621
:105820000621204618F041FF7C6138681FF056FCC5
:105830004FF4967840450CD2286841F2883188426E
:1058400034D97968009808447860B868401CB8601A
:105850002CE01FF049FC38606868406828B1006897
:105860004FF47A71B1FBF0F000E02120796809B9BA
:1058700001217960B968F1B14FF47A7251437A68C5
:10588000B1FBF2F57E60BE60854200D905463869FD
:1058900028443861F868401CF8601FF0BBFCC0F178
:1058A00064032A4633A1204617F0CBFE2E4D08355F
:1058B0006C6814B137E00546E4E717F00AFF17F00B
:1058C00037F8044600227F211CF0B4FD11F06CF97A
:1058D0000146002220461CF070FD11F01EFC01461E
:1058E000002220461CF037FE0022032120461CF037
:1058F00023FE0022032120461CF00FFE002203217C
:1059000020461CF00FFE0022032120461CF00FFE53
:1059100017A1204617F05EFE00231A4604212046F8
:1059200018F0C3FE6C6028681FF0D8FB40457FF676
:1059300005AF1FF0D9FB286002A818F0AFF9049951
:105940000298401A820A514200EB81206621B0FB86
:10595000F1F39DF821109DF82000CDE9000109A187
:10596000204617F06EFEE9E64404002008530020AC
:105970003F0000002575204650530A257525252037
:105980004350550025752E2575206B422075736593
:105990006420282564202525290A256425252066DC
:1059A0007261672E0000000070B5094E0024C4EB40
:1059B000C40556F8250008B118F04CF906EB85002F
:1059C0001C2118F08CFA641CE4B2042CEFD370BDD7
:1059D0002C540020084949680AE04A68824202D0F3
:1059E0000A68824203D10A7E42F001020A764969BE
:1059F0000029F2D170470000180400207047000011
:105A00000421014800F08CBB4453002020210148B0
:105A100000F086BB5C5300202DE9FF410446DDE920
:105A20000A571E004FF0000002D1B5F5807F2BD041
:105A3000039001900290ADF80C100090ADF80410A6
:105A4000ADF80A20ADF80E203B462A46314668469E
:105A50001CF080FE3B462A46314601A81CF07AFE27
:105A60003B462A46314602A81CF074FE3B462A46B5
:105A7000314603A81CF06EFEBDF90030BDF90420CC
:105A8000934209DA1D4608E02080491E6080A1800B
:105A9000521EE280BDE8FF811546BDF90800BDF940
:105AA0000C10884201DA064600E00E46B54205DADF
:105AB000934201DA184604E0104602E0884200DB17
:105AC0000846801E2080BDF90030BDF904008342E5
:105AD00001DD1D4600E00546BDF90820BDF90C10AA
